{"contracts/ERC721A.sol":{"EarlyBirdNFT":{"abi":[{"inputs":[{"internalType":"string","name":"_tokenURI","type":"string"}],"stateMutability":"nonpayable","type":"constructor"},{"inputs":[],"name":"ApprovalCallerNotOwnerNorApproved","type":"error"},{"inputs":[],"name":"ApprovalQueryForNonexistentToken","type":"error"},{"inputs":[],"name":"BalanceQueryForZeroAddress","type":"error"},{"inputs":[],"name":"MintERC2309QuantityExceedsLimit","type":"error"},{"inputs":[],"name":"MintToZeroAddress","type":"error"},{"inputs":[],"name":"MintZeroQuantity","type":"error"},{"inputs":[],"name":"NotCompatibleWithSpotMints","type":"error"},{"inputs":[],"name":"OwnerQueryForNonexistentToken","type":"error"},{"inputs":[],"name":"OwnershipNotInitializedForExtraData","type":"error"},{"inputs":[],"name":"SequentialMintExceedsLimit","type":"error"},{"inputs":[],"name":"SequentialUpToTooSmall","type":"error"},{"inputs":[],"name":"SpotMintTokenIdTooSmall","type":"error"},{"inputs":[],"name":"TokenAlreadyExists","type":"error"},{"inputs":[],"name":"TokenIdsNotStrictlyAscending","type":"error"},{"inputs":[],"name":"TransferCallerNotOwnerNorApproved","type":"error"},{"inputs":[],"name":"TransferFromIncorrectOwner","type":"error"},{"inputs":[],"name":"TransferToNonERC721ReceiverImplementer","type":"error"},{"inputs":[],"name":"TransferToZeroAddress","type":"error"},{"inputs":[],"name":"URIQueryForNonexistentToken","type":"error"},{"anonymous":false,"inputs":[{"indexed":true,"internalType":"address","name":"owner","type":"address"},{"indexed":true,"internalType":"address","name":"approved","type":"address"},{"indexed":true,"internalType":"uint256","name":"tokenId","type":"uint256"}],"name":"Approval","type":"event"},{"anonymous":false,"inputs":[{"indexed":true,"internalType":"address","name":"owner","type":"address"},{"indexed":true,"internalType":"address","name":"operator","type":"address"},{"indexed":false,"internalType":"bool","name":"approved","type":"bool"}],"name":"ApprovalForAll","type":"event"},{"anonymous":false,"inputs":[{"indexed":true,"internalType":"uint256","name":"fromTokenId","type":"uint256"},{"indexed":false,"internalType":"uint256","name":"toTokenId","type":"uint256"},{"indexed":true,"internalType":"address","name":"from","type":"address"},{"indexed":true,"internalType":"address","name":"to","type":"address"}],"name":"ConsecutiveTransfer","type":"event"},{"anonymous":false,"inputs":[{"indexed":true,"internalType":"address","name":"_to","type":"address"},{"indexed":true,"internalType":"uint256","name":"_value","type":"uint256"}],"name":"MintSuccess","type":"event"},{"anonymous":false,"inputs":[{"indexed":true,"internalType":"address","name":"_to","type":"address"},{"indexed":true,"internalType":"uint256","name":"_value","type":"uint256"}],"name":"RefundSuccess","type":"event"},{"anonymous":false,"inputs":[{"indexed":true,"internalType":"address","name":"from","type":"address"},{"indexed":true,"internalType":"address","name":"to","type":"address"},{"indexed":true,"internalType":"uint256","name":"tokenId","type":"uint256"}],"name":"Transfer","type":"event"},{"anonymous":false,"inputs":[{"indexed":true,"internalType":"address","name":"_to","type":"address"},{"indexed":true,"internalType":"uint256","name":"_amount","type":"uint256"}],"name":"WithdrawSuccess","type":"event"},{"inputs":[],"name":"MAX_MINT","outputs":[{"internalType":"uint256","name":"","type":"uint256"}],"stateMutability":"view","type":"function"},{"inputs":[],"name":"MAX_MINT_PER_WALLET","outputs":[{"internalType":"uint256","name":"","type":"uint256"}],"stateMutability":"view","type":"function"},{"inputs":[],"name":"MAX_SUPPLY","outputs":[{"internalType":"uint256","name":"","type":"uint256"}],"stateMutability":"view","type":"function"},{"inputs":[],"name":"MINT_RATE","outputs":[{"internalType":"uint256","name":"","type":"uint256"}],"stateMutability":"view","type":"function"},{"inputs":[],"name":"REFUND_PERIOD","outputs":[{"internalType":"uint256","name":"","type":"uint256"}],"stateMutability":"view","type":"function"},{"inputs":[{"internalType":"address","name":"to","type":"address"},{"internalType":"uint256","name":"tokenId","type":"uint256"}],"name":"approve","outputs":[],"stateMutability":"payable","type":"function"},{"inputs":[{"internalType":"address","name":"owner","type":"address"}],"name":"balanceOf","outputs":[{"internalType":"uint256","name":"","type":"uint256"}],"stateMutability":"view","type":"function"},{"inputs":[],"name":"baseTokenURI","outputs":[{"internalType":"string","name":"","type":"string"}],"stateMutability":"view","type":"function"},{"inputs":[{"internalType":"uint256","name":"tokenId","type":"uint256"}],"name":"getApproved","outputs":[{"internalType":"address","name":"","type":"address"}],"stateMutability":"view","type":"function"},{"inputs":[{"internalType":"address","name":"owner","type":"address"},{"internalType":"address","name":"operator","type":"address"}],"name":"isApprovedForAll","outputs":[{"internalType":"bool","name":"","type":"bool"}],"stateMutability":"view","type":"function"},{"inputs":[{"internalType":"uint256","name":"_quantity","type":"uint256"}],"name":"mint","outputs":[{"internalType":"bool","name":"","type":"bool"}],"stateMutability":"payable","type":"function"},{"inputs":[{"internalType":"address","name":"","type":"address"}],"name":"mintedAddresses","outputs":[{"internalType":"uint256","name":"","type":"uint256"}],"stateMutability":"view","type":"function"},{"inputs":[{"internalType":"address","name":"","type":"address"}],"name":"mintingTimestamp","outputs":[{"internalType":"uint256","name":"","type":"uint256"}],"stateMutability":"view","type":"function"},{"inputs":[],"name":"name","outputs":[{"internalType":"string","name":"","type":"string"}],"stateMutability":"view","type":"function"},{"inputs":[],"name":"owner","outputs":[{"internalType":"address","name":"","type":"address"}],"stateMutability":"view","type":"function"},{"inputs":[{"internalType":"uint256","name":"tokenId","type":"uint256"}],"name":"ownerOf","outputs":[{"internalType":"address","name":"","type":"address"}],"stateMutability":"view","type":"function"},{"inputs":[{"internalType":"uint256","name":"quantity","type":"uint256"}],"name":"refund","outputs":[{"internalType":"bool","name":"","type":"bool"}],"stateMutability":"nonpayable","type":"function"},{"inputs":[{"internalType":"address","name":"from","type":"address"},{"internalType":"address","name":"to","type":"address"},{"internalType":"uint256","name":"tokenId","type":"uint256"}],"name":"safeTransferFrom","outputs":[],"stateMutability":"payable","type":"function"},{"inputs":[{"internalType":"address","name":"from","type":"address"},{"internalType":"address","name":"to","type":"address"},{"internalType":"uint256","name":"tokenId","type":"uint256"},{"internalType":"bytes","name":"_data","type":"bytes"}],"name":"safeTransferFrom","outputs":[],"stateMutability":"payable","type":"function"},{"inputs":[{"internalType":"address","name":"operator","type":"address"},{"internalType":"bool","name":"approved","type":"bool"}],"name":"setApprovalForAll","outputs":[],"stateMutability":"nonpayable","type":"function"},{"inputs":[{"internalType":"string","name":"_baseTokenURI","type":"string"}],"name":"setBaseURI","outputs":[],"stateMutability":"nonpayable","type":"function"},{"inputs":[{"internalType":"bytes4","name":"interfaceId","type":"bytes4"}],"name":"supportsInterface","outputs":[{"internalType":"bool","name":"","type":"bool"}],"stateMutability":"view","type":"function"},{"inputs":[],"name":"symbol","outputs":[{"internalType":"string","name":"","type":"string"}],"stateMutability":"view","type":"function"},{"inputs":[{"internalType":"uint256","name":"tokenId","type":"uint256"}],"name":"tokenURI","outputs":[{"internalType":"string","name":"","type":"string"}],"stateMutability":"view","type":"function"},{"inputs":[],"name":"totalSupply","outputs":[{"internalType":"uint256","name":"result","type":"uint256"}],"stateMutability":"view","type":"function"},{"inputs":[{"internalType":"address","name":"from","type":"address"},{"internalType":"address","name":"to","type":"address"},{"internalType":"uint256","name":"tokenId","type":"uint256"}],"name":"transferFrom","outputs":[],"stateMutability":"payable","type":"function"},{"inputs":[],"name":"withdraw","outputs":[{"internalType":"bool","name":"","type":"bool"}],"stateMutability":"nonpayable","type":"function"}],"evm":{"bytecode":{"linkReferences":{},"object":"608060405234801561001057600080fd5b50604051613a72380380613a7283398181016040528101906100329190610310565b6040518060400160405280600a81526020017f4561726c792042697264000000000000000000000000000000000000000000008152506040518060400160405280600381526020017f455242000000000000000000000000000000000000000000000000000000000081525081600290816100ad919061057a565b5080600390816100bd919061057a565b506100cc61016460201b60201c565b6000819055506100e061016460201b60201c565b6100ee61016960201b60201c565b101561010b5761010a63fed8210f60e01b61019160201b60201c565b5b505033600960006101000a81548173ffffffffffffffffffffffffffffffffffffffff021916908373ffffffffffffffffffffffffffffffffffffffff16021790555080600a908161015d919061057a565b505061064c565b600090565b60007fffffffffffffffffffffffffffffffffffffffffffffffffffffffffffffffff905090565b8060005260046000fd5b6000604051905090565b600080fd5b600080fd5b600080fd5b600080fd5b6000601f19601f8301169050919050565b7f4e487b7100000000000000000000000000000000000000000000000000000000600052604160045260246000fd5b610202826101b9565b810181811067ffffffffffffffff82111715610221576102206101ca565b5b80604052505050565b600061023461019b565b905061024082826101f9565b919050565b600067ffffffffffffffff8211156102605761025f6101ca565b5b610269826101b9565b9050602081019050919050565b60005b83811015610294578082015181840152602081019050610279565b60008484015250505050565b60006102b36102ae84610245565b61022a565b9050828152602081018484840111156102cf576102ce6101b4565b5b6102da848285610276565b509392505050565b600082601f8301126102f7576102f66101af565b5b81516103078482602086016102a0565b91505092915050565b600060208284031215610326576103256101a5565b5b600082015167ffffffffffffffff811115610344576103436101aa565b5b610350848285016102e2565b91505092915050565b600081519050919050565b7f4e487b7100000000000000000000000000000000000000000000000000000000600052602260045260246000fd5b600060028204905060018216806103ab57607f821691505b6020821081036103be576103bd610364565b5b50919050565b60008190508160005260206000209050919050565b60006020601f8301049050919050565b600082821b905092915050565b6000600883026104267fffffffffffffffffffffffffffffffffffffffffffffffffffffffffffffffff826103e9565b61043086836103e9565b95508019841693508086168417925050509392505050565b6000819050919050565b6000819050919050565b600061047761047261046d84610448565b610452565b610448565b9050919050565b6000819050919050565b6104918361045c565b6104a561049d8261047e565b8484546103f6565b825550505050565b600090565b6104ba6104ad565b6104c5818484610488565b505050565b5b818110156104e9576104de6000826104b2565b6001810190506104cb565b5050565b601f82111561052e576104ff816103c4565b610508846103d9565b81016020851015610517578190505b61052b610523856103d9565b8301826104ca565b50505b505050565b600082821c905092915050565b600061055160001984600802610533565b1980831691505092915050565b600061056a8383610540565b9150826002028217905092915050565b61058382610359565b67ffffffffffffffff81111561059c5761059b6101ca565b5b6105a68254610393565b6105b18282856104ed565b600060209050601f8311600181146105e457600084156105d2578287015190505b6105dc858261055e565b865550610644565b601f1984166105f2866103c4565b60005b8281101561061a578489015182556001820191506020850194506020810190506105f5565b868310156106375784890151610633601f891682610540565b8355505b6001600288020188555050505b505050505050565b6134178061065b6000396000f3fe60806040526004361061019c5760003560e01c806370a08231116100ec578063b88d4fde1161008a578063e985e9c511610064578063e985e9c5146105c1578063efdfb8ea146105fe578063f0292a031461063b578063f5c1be3c146106665761019c565b8063b88d4fde1461053d578063c87b56dd14610559578063d547cfb7146105965761019c565b806395d89b41116100c657806395d89b411461048e578063a0712d68146104b9578063a22cb465146104e9578063b19960e6146105125761019c565b806370a08231146103fb5780637f6578d3146104385780638da5cb5b146104635761019c565b80632538354d116101595780633ccfd60b116101335780633ccfd60b1461034e57806342842e0e1461037957806355f804b3146103955780636352211e146103be5761019c565b80632538354d146102a9578063278ecde1146102e657806332cb6b0c146103235761019c565b806301ffc9a7146101a157806306fdde03146101de578063081812fc14610209578063095ea7b31461024657806318160ddd1461026257806323b872dd1461028d575b600080fd5b3480156101ad57600080fd5b506101c860048036038101906101c39190612388565b610691565b6040516101d591906123d0565b60405180910390f35b3480156101ea57600080fd5b506101f3610723565b604051610200919061247b565b60405180910390f35b34801561021557600080fd5b50610230600480360381019061022b91906124d3565b6107b5565b60405161023d9190612541565b60405180910390f35b610260600480360381019061025b9190612588565b610813565b005b34801561026e57600080fd5b50610277610823565b60405161028491906125d7565b60405180910390f35b6102a760048036038101906102a291906125f2565b610870565b005b3480156102b557600080fd5b506102d060048036038101906102cb9190612645565b610b08565b6040516102dd91906125d7565b60405180910390f35b3480156102f257600080fd5b5061030d600480360381019061030891906124d3565b610b20565b60405161031a91906123d0565b60405180910390f35b34801561032f57600080fd5b50610338610d15565b60405161034591906125d7565b60405180910390f35b34801561035a57600080fd5b50610363610d1b565b60405161037091906123d0565b60405180910390f35b610393600480360381019061038e91906125f2565b610f87565b005b3480156103a157600080fd5b506103bc60048036038101906103b791906127a7565b610fa7565b005b3480156103ca57600080fd5b506103e560048036038101906103e091906124d3565b61104a565b6040516103f29190612541565b60405180910390f35b34801561040757600080fd5b50610422600480360381019061041d9190612645565b61105c565b60405161042f91906125d7565b60405180910390f35b34801561044457600080fd5b5061044d6110f3565b60405161045a91906125d7565b60405180910390f35b34801561046f57600080fd5b506104786110f8565b6040516104859190612541565b60405180910390f35b34801561049a57600080fd5b506104a361111e565b6040516104b0919061247b565b60405180910390f35b6104d360048036038101906104ce91906124d3565b6111b0565b6040516104e091906123d0565b60405180910390f35b3480156104f557600080fd5b50610510600480360381019061050b919061281c565b6113e9565b005b34801561051e57600080fd5b506105276114f4565b60405161053491906125d7565b60405180910390f35b610557600480360381019061055291906128fd565b6114f9565b005b34801561056557600080fd5b50610580600480360381019061057b91906124d3565b61154b565b60405161058d919061247b565b60405180910390f35b3480156105a257600080fd5b506105ab6115c8565b6040516105b8919061247b565b60405180910390f35b3480156105cd57600080fd5b506105e860048036038101906105e39190612980565b611656565b6040516105f591906123d0565b60405180910390f35b34801561060a57600080fd5b5061062560048036038101906106209190612645565b6116ea565b60405161063291906125d7565b60405180910390f35b34801561064757600080fd5b50610650611702565b60405161065d91906125d7565b60405180910390f35b34801561067257600080fd5b5061067b611707565b60405161068891906125d7565b60405180910390f35b60006301ffc9a760e01b827bffffffffffffffffffffffffffffffffffffffffffffffffffffffff191614806106ec57506380ac58cd60e01b827bffffffffffffffffffffffffffffffffffffffffffffffffffffffff1916145b8061071c5750635b5e139f60e01b827bffffffffffffffffffffffffffffffffffffffffffffffffffffffff1916145b9050919050565b606060028054610732906129ef565b80601f016020809104026020016040519081016040528092919081815260200182805461075e906129ef565b80156107ab5780601f10610780576101008083540402835291602001916107ab565b820191906000526020600020905b81548152906001019060200180831161078e57829003601f168201915b5050505050905090565b60006107c082611711565b6107d5576107d463cf4700e460e01b6117bd565b5b6006600083815260200190815260200160002060000160009054906101000a900473ffffffffffffffffffffffffffffffffffffffff169050919050565b61081f828260016117c7565b5050565b600061082d6118f6565b600154600054030390507fffffffffffffffffffffffffffffffffffffffffffffffffffffffffffffffff6108606118fb565b1461086d57600854810190505b90565b600061087b82611923565b905060008473ffffffffffffffffffffffffffffffffffffffff169050808273ffffffffffffffffffffffffffffffffffffffff16146108c6576108c563a114810060e01b6117bd565b5b6000806108d285611a3c565b915091506108fe81846108e3611a63565b73ffffffffffffffffffffffffffffffffffffffff16611a6b565b610929576109138761090e611a63565b611656565b610928576109276359c896be60e01b6117bd565b5b5b6109368787876001611a7d565b801561094157600082555b600560008873ffffffffffffffffffffffffffffffffffffffff1673ffffffffffffffffffffffffffffffffffffffff168152602001908152602001600020600081546001900391905081905550600560008773ffffffffffffffffffffffffffffffffffffffff1673ffffffffffffffffffffffffffffffffffffffff1681526020019081526020016000206000815460010191905081905550610a0f866109eb898988611a83565b7c020000000000000000000000000000000000000000000000000000000017611aab565b600460008781526020019081526020016000208190555060007c0200000000000000000000000000000000000000000000000000000000851603610a955760006001860190506000600460008381526020019081526020016000205403610a93576000548114610a92578460046000838152602001908152602001600020819055505b5b505b60008673ffffffffffffffffffffffffffffffffffffffff1690508581857fddf252ad1be2c89b69c2b068fc378daa952ba7f163c4a11628f55a4df523b3ef600080a460008103610af157610af063ea553b3460e01b6117bd565b5b610afe8888886001611ad6565b5050505050505050565b600c6020528060005260406000206000915090505481565b6000610b2b3361105c565b821115610b6d576040517f08c379a0000000000000000000000000000000000000000000000000000000008152600401610b6490612a6c565b60405180910390fd5b60b4600c60003373ffffffffffffffffffffffffffffffffffffffff1673ffffffffffffffffffffffffffffffffffffffff16815260200190815260200160002054610bb99190612abb565b4210610bfa576040517f08c379a0000000000000000000000000000000000000000000000000000000008152600401610bf190612b3b565b60405180910390fd5b610c043383611adc565b6000655af3107a400083610c189190612b5b565b905060003373ffffffffffffffffffffffffffffffffffffffff1682604051610c4090612bce565b60006040518083038185875af1925050503d8060008114610c7d576040519150601f19603f3d011682016040523d82523d6000602084013e610c82565b606091505b5050905080610cc6576040517f08c379a0000000000000000000000000000000000000000000000000000000008152600401610cbd90612c2f565b60405180910390fd5b813373ffffffffffffffffffffffffffffffffffffffff167f09defe0bdb8a1b4ee8fe9095fba7b88c1c154139a41abb1018b24b2dd2c574c360405160405180910390a3600192505050919050565b6103e881565b6000600960009054906101000a900473ffffffffffffffffffffffffffffffffffffffff1673ffffffffffffffffffffffffffffffffffffffff163373ffffffffffffffffffffffffffffffffffffffff1614610dad576040517f08c379a0000000000000000000000000000000000000000000000000000000008152600401610da490612c9b565b60405180910390fd5b600047905060008111610df5576040517f08c379a0000000000000000000000000000000000000000000000000000000008152600401610dec90612d07565b60405180910390fd5b60b4610dff611b70565b610e099190612abb565b4211610e4a576040517f08c379a0000000000000000000000000000000000000000000000000000000008152600401610e4190612d73565b60405180910390fd5b6000600960009054906101000a900473ffffffffffffffffffffffffffffffffffffffff1673ffffffffffffffffffffffffffffffffffffffff1682604051610e9290612bce565b60006040518083038185875af1925050503d8060008114610ecf576040519150601f19603f3d011682016040523d82523d6000602084013e610ed4565b606091505b5050905080610f18576040517f08c379a0000000000000000000000000000000000000000000000000000000008152600401610f0f90612ddf565b60405180910390fd5b81600960009054906101000a900473ffffffffffffffffffffffffffffffffffffffff1673ffffffffffffffffffffffffffffffffffffffff167f95e1b0070dbccc052f124fa5143644dca4cc74c53bf1d0fe68ff7295f61cdc0c60405160405180910390a360019250505090565b610fa2838383604051806020016040528060008152506114f9565b505050565b600960009054906101000a900473ffffffffffffffffffffffffffffffffffffffff1673ffffffffffffffffffffffffffffffffffffffff163373ffffffffffffffffffffffffffffffffffffffff1614611037576040517f08c379a000000000000000000000000000000000000000000000000000000000815260040161102e90612c9b565b60405180910390fd5b80600a90816110469190612fab565b5050565b600061105582611923565b9050919050565b60008073ffffffffffffffffffffffffffffffffffffffff168273ffffffffffffffffffffffffffffffffffffffff16036110a2576110a1638f4eb60460e01b6117bd565b5b67ffffffffffffffff600560008473ffffffffffffffffffffffffffffffffffffffff1673ffffffffffffffffffffffffffffffffffffffff16815260200190815260200160002054169050919050565b60b481565b600960009054906101000a900473ffffffffffffffffffffffffffffffffffffffff1681565b60606003805461112d906129ef565b80601f0160208091040260200160405190810160405280929190818152602001828054611159906129ef565b80156111a65780601f1061117b576101008083540402835291602001916111a6565b820191906000526020600020905b81548152906001019060200180831161118957829003601f168201915b5050505050905090565b60006103e86111bd610823565b836111c89190612abb565b1115611209576040517f08c379a0000000000000000000000000000000000000000000000000000000008152600401611200906130c9565b60405180910390fd5b600582111561124d576040517f08c379a000000000000000000000000000000000000000000000000000000000815260040161124490613135565b60405180910390fd5b655af3107a40008261125f9190612b5b565b3410156112a1576040517f08c379a0000000000000000000000000000000000000000000000000000000008152600401611298906131a1565b60405180910390fd5b600c826112ad3361105c565b6112b79190612abb565b11156112f8576040517f08c379a00000000000000000000000000000000000000000000000000000000081526004016112ef9061320d565b60405180910390fd5b6113023383611c36565b81600b60003373ffffffffffffffffffffffffffffffffffffffff1673ffffffffffffffffffffffffffffffffffffffff16815260200190815260200160002060008282546113519190612abb565b9250508190555042600c60003373ffffffffffffffffffffffffffffffffffffffff1673ffffffffffffffffffffffffffffffffffffffff16815260200190815260200160002081905550813373ffffffffffffffffffffffffffffffffffffffff167fcda531bfd68624f13205c0a23cd4d5a7f09792cbb399603114f2b04aaa1bf5cf60405160405180910390a360019050919050565b80600760006113f6611a63565b73ffffffffffffffffffffffffffffffffffffffff1673ffffffffffffffffffffffffffffffffffffffff16815260200190815260200160002060008473ffffffffffffffffffffffffffffffffffffffff1673ffffffffffffffffffffffffffffffffffffffff16815260200190815260200160002060006101000a81548160ff0219169083151502179055508173ffffffffffffffffffffffffffffffffffffffff166114a3611a63565b73ffffffffffffffffffffffffffffffffffffffff167f17307eab39ab6107e8899845ad3d59bd9653f200f220920489ca2b5937696c31836040516114e891906123d0565b60405180910390a35050565b600c81565b611504848484610870565b60008373ffffffffffffffffffffffffffffffffffffffff163b146115455761152f84848484611c54565b6115445761154363d1a57ed660e01b6117bd565b5b5b50505050565b606061155682611711565b61156b5761156a63a14c4b5060e01b6117bd565b5b6000611575611d83565b9050600081510361159557604051806020016040528060008152506115c0565b8061159f84611e15565b6040516020016115b0929190613269565b6040516020818303038152906040525b915050919050565b600a80546115d5906129ef565b80601f0160208091040260200160405190810160405280929190818152602001828054611601906129ef565b801561164e5780601f106116235761010080835404028352916020019161164e565b820191906000526020600020905b81548152906001019060200180831161163157829003601f168201915b505050505081565b6000600760008473ffffffffffffffffffffffffffffffffffffffff1673ffffffffffffffffffffffffffffffffffffffff16815260200190815260200160002060008373ffffffffffffffffffffffffffffffffffffffff1673ffffffffffffffffffffffffffffffffffffffff16815260200190815260200160002060009054906101000a900460ff16905092915050565b600b6020528060005260406000206000915090505481565b600581565b655af3107a400081565b60008161171c6118f6565b116117b7576117296118fb565b8211156117535761174c6004600084815260200190815260200160002054611e65565b90506117b8565b6000548210156117b65760005b600060046000858152602001908152602001600020549150810361178f57826117889061328d565b9250611760565b60007c01000000000000000000000000000000000000000000000000000000008216149150505b5b5b919050565b8060005260046000fd5b60006117d28361104a565b905081801561181457508073ffffffffffffffffffffffffffffffffffffffff166117fb611a63565b73ffffffffffffffffffffffffffffffffffffffff1614155b156118405761182a81611825611a63565b611656565b61183f5761183e63cfb3b94260e01b6117bd565b5b5b836006600085815260200190815260200160002060000160006101000a81548173ffffffffffffffffffffffffffffffffffffffff021916908373ffffffffffffffffffffffffffffffffffffffff160217905550828473ffffffffffffffffffffffffffffffffffffffff168273ffffffffffffffffffffffffffffffffffffffff167f8c5be1e5ebec7d5bd14f71427d1e84f3dd0314c0f7b2291e5b200ac8c7c3b92560405160405180910390a450505050565b600090565b60007fffffffffffffffffffffffffffffffffffffffffffffffffffffffffffffffff905090565b60008161192e6118f6565b11611a2657600460008381526020019081526020016000205490506119516118fb565b8211156119765761196181611e65565b611a375761197563df2d9b4260e01b6117bd565b5b600081036119fd5760005482106119985761199763df2d9b4260e01b6117bd565b5b5b600460008360019003935083815260200190815260200160002054905060008103156119f85760007c010000000000000000000000000000000000000000000000000000000082160315611a37576119f763df2d9b4260e01b6117bd565b5b611999565b60007c010000000000000000000000000000000000000000000000000000000082160315611a37575b611a3663df2d9b4260e01b6117bd565b5b919050565b60008060006006600085815260200190815260200160002090508092508254915050915091565b600033905090565b60008382148383141790509392505050565b50505050565b60008060e883901c905060e8611a9a868684611ea6565b62ffffff16901b9150509392505050565b600073ffffffffffffffffffffffffffffffffffffffff83169250814260a01b178317905092915050565b50505050565b600080611ae76118f6565b90505b8282108015611aff5750611afc610823565b81105b15611b6a578373ffffffffffffffffffffffffffffffffffffffff16611b248261104a565b73ffffffffffffffffffffffffffffffffffffffff1603611b5757611b4881611eaf565b8180611b53906132b6565b9250505b8080611b62906132b6565b915050611aea565b50505050565b6000806000905060005b611b82610823565b811015611c2e576000611b948261104a565b905082600c60008373ffffffffffffffffffffffffffffffffffffffff1673ffffffffffffffffffffffffffffffffffffffff168152602001908152602001600020541115611c2057600c60008273ffffffffffffffffffffffffffffffffffffffff1673ffffffffffffffffffffffffffffffffffffffff1681526020019081526020016000205492505b508080600101915050611b7a565b508091505090565b611c50828260405180602001604052806000815250611ebd565b5050565b60008373ffffffffffffffffffffffffffffffffffffffff1663150b7a02611c7a611a63565b8786866040518563ffffffff1660e01b8152600401611c9c9493929190613353565b6020604051808303816000875af1925050508015611cd857506040513d601f19601f82011682018060405250810190611cd591906133b4565b60015b611d30573d8060008114611d08576040519150601f19603f3d011682016040523d82523d6000602084013e611d0d565b606091505b506000815103611d2857611d2763d1a57ed660e01b6117bd565b5b805181602001fd5b63150b7a0260e01b7bffffffffffffffffffffffffffffffffffffffffffffffffffffffff1916817bffffffffffffffffffffffffffffffffffffffffffffffffffffffff191614915050949350505050565b6060600a8054611d92906129ef565b80601f0160208091040260200160405190810160405280929190818152602001828054611dbe906129ef565b8015611e0b5780601f10611de057610100808354040283529160200191611e0b565b820191906000526020600020905b815481529060010190602001808311611dee57829003601f168201915b5050505050905090565b606060a060405101806040526020810391506000825281835b600115611e5057600184039350600a81066030018453600a8104905080611e2e575b50828103602084039350808452505050919050565b60007c0100000000000000000000000000000000000000000000000000000000821673ffffffffffffffffffffffffffffffffffffffff8316119050919050565b60009392505050565b611eba816000611f39565b50565b611ec7838361219c565b60008373ffffffffffffffffffffffffffffffffffffffff163b14611f3457600080549050600083820390505b611f076000868380600101945086611c54565b611f1c57611f1b63d1a57ed660e01b6117bd565b5b818110611ef4578160005414611f3157600080fd5b50505b505050565b6000611f4483611923565b905060008173ffffffffffffffffffffffffffffffffffffffff1690506000819050600080611f7287611a3c565b915091508515611fd057611fa48185611f89611a63565b73ffffffffffffffffffffffffffffffffffffffff16611a6b565b611fcf57611fb983611fb4611a63565b611656565b611fce57611fcd6359c896be60e01b6117bd565b5b5b5b611fde836000896001611a7d565b8015611fe957600082555b600160806001901b03600560008573ffffffffffffffffffffffffffffffffffffffff1673ffffffffffffffffffffffffffffffffffffffff168152602001908152602001600020600082825401925050819055506120918361204e85600089611a83565b7c02000000000000000000000000000000000000000000000000000000007c01000000000000000000000000000000000000000000000000000000001717611aab565b600460008981526020019081526020016000208190555060007c02000000000000000000000000000000000000000000000000000000008616036121175760006001880190506000600460008381526020019081526020016000205403612115576000548114612114578560046000838152602001908152602001600020819055505b5b505b86600073ffffffffffffffffffffffffffffffffffffffff168473ffffffffffffffffffffffffffffffffffffffff167fddf252ad1be2c89b69c2b068fc378daa952ba7f163c4a11628f55a4df523b3ef60405160405180910390a4612181836000896001611ad6565b60016000815480929190600101919050555050505050505050565b600080549050600082036121bb576121ba63b562e8dd60e01b6117bd565b5b6121c86000848385611a7d565b6121e8836121d96000866000611a83565b6121e28561230c565b17611aab565b6004600083815260200190815260200160002081905550600160406001901b178202600560008573ffffffffffffffffffffffffffffffffffffffff1673ffffffffffffffffffffffffffffffffffffffff1681526020019081526020016000206000828254019250508190555060008373ffffffffffffffffffffffffffffffffffffffff1690506000810361228a57612289632e07630060e01b6117bd565b5b60008383019050600083905061229e6118fb565b6001830311156122b9576122b86381647e3a60e01b6117bd565b5b5b808360007fddf252ad1be2c89b69c2b068fc378daa952ba7f163c4a11628f55a4df523b3ef600080a48181600101915081036122ba57816000819055505050506123076000848385611ad6565b505050565b60006001821460e11b9050919050565b6000604051905090565b600080fd5b600080fd5b60007fffffffff0000000000000000000000000000000000000000000000000000000082169050919050565b61236581612330565b811461237057600080fd5b50565b6000813590506123828161235c565b92915050565b60006020828403121561239e5761239d612326565b5b60006123ac84828501612373565b91505092915050565b60008115159050919050565b6123ca816123b5565b82525050565b60006020820190506123e560008301846123c1565b92915050565b600081519050919050565b600082825260208201905092915050565b60005b8381101561242557808201518184015260208101905061240a565b60008484015250505050565b6000601f19601f8301169050919050565b600061244d826123eb565b61245781856123f6565b9350612467818560208601612407565b61247081612431565b840191505092915050565b600060208201905081810360008301526124958184612442565b905092915050565b6000819050919050565b6124b08161249d565b81146124bb57600080fd5b50565b6000813590506124cd816124a7565b92915050565b6000602082840312156124e9576124e8612326565b5b60006124f7848285016124be565b91505092915050565b600073ffffffffffffffffffffffffffffffffffffffff82169050919050565b600061252b82612500565b9050919050565b61253b81612520565b82525050565b60006020820190506125566000830184612532565b92915050565b61256581612520565b811461257057600080fd5b50565b6000813590506125828161255c565b92915050565b6000806040838503121561259f5761259e612326565b5b60006125ad85828601612573565b92505060206125be858286016124be565b9150509250929050565b6125d18161249d565b82525050565b60006020820190506125ec60008301846125c8565b92915050565b60008060006060848603121561260b5761260a612326565b5b600061261986828701612573565b935050602061262a86828701612573565b925050604061263b868287016124be565b9150509250925092565b60006020828403121561265b5761265a612326565b5b600061266984828501612573565b91505092915050565b600080fd5b600080fd5b7f4e487b7100000000000000000000000000000000000000000000000000000000600052604160045260246000fd5b6126b482612431565b810181811067ffffffffffffffff821117156126d3576126d261267c565b5b80604052505050565b60006126e661231c565b90506126f282826126ab565b919050565b600067ffffffffffffffff8211156127125761271161267c565b5b61271b82612431565b9050602081019050919050565b82818337600083830152505050565b600061274a612745846126f7565b6126dc565b90508281526020810184848401111561276657612765612677565b5b612771848285612728565b509392505050565b600082601f83011261278e5761278d612672565b5b813561279e848260208601612737565b91505092915050565b6000602082840312156127bd576127bc612326565b5b600082013567ffffffffffffffff8111156127db576127da61232b565b5b6127e784828501612779565b91505092915050565b6127f9816123b5565b811461280457600080fd5b50565b600081359050612816816127f0565b92915050565b6000806040838503121561283357612832612326565b5b600061284185828601612573565b925050602061285285828601612807565b9150509250929050565b600067ffffffffffffffff8211156128775761287661267c565b5b61288082612431565b9050602081019050919050565b60006128a061289b8461285c565b6126dc565b9050828152602081018484840111156128bc576128bb612677565b5b6128c7848285612728565b509392505050565b600082601f8301126128e4576128e3612672565b5b81356128f484826020860161288d565b91505092915050565b6000806000806080858703121561291757612916612326565b5b600061292587828801612573565b945050602061293687828801612573565b9350506040612947878288016124be565b925050606085013567ffffffffffffffff8111156129685761296761232b565b5b612974878288016128cf565b91505092959194509250565b6000806040838503121561299757612996612326565b5b60006129a585828601612573565b92505060206129b685828601612573565b9150509250929050565b7f4e487b7100000000000000000000000000000000000000000000000000000000600052602260045260246000fd5b60006002820490506001821680612a0757607f821691505b602082108103612a1a57612a196129c0565b5b50919050565b7f496e76616c6964207175616e7469747900000000000000000000000000000000600082015250565b6000612a566010836123f6565b9150612a6182612a20565b602082019050919050565b60006020820190508181036000830152612a8581612a49565b9050919050565b7f4e487b7100000000000000000000000000000000000000000000000000000000600052601160045260246000fd5b6000612ac68261249d565b9150612ad18361249d565b9250828201905080821115612ae957612ae8612a8c565b5b92915050565b7f526566756e6420706572696f6420686173206578706972656400000000000000600082015250565b6000612b256019836123f6565b9150612b3082612aef565b602082019050919050565b60006020820190508181036000830152612b5481612b18565b9050919050565b6000612b668261249d565b9150612b718361249d565b9250828202612b7f8161249d565b91508282048414831517612b9657612b95612a8c565b5b5092915050565b600081905092915050565b50565b6000612bb8600083612b9d565b9150612bc382612ba8565b600082019050919050565b6000612bd982612bab565b9150819050919050565b7f526566756e64206661696c656400000000000000000000000000000000000000600082015250565b6000612c19600d836123f6565b9150612c2482612be3565b602082019050919050565b60006020820190508181036000830152612c4881612c0c565b9050919050565b7f596f7520617265206e6f7420746865206f776e65722100000000000000000000600082015250565b6000612c856016836123f6565b9150612c9082612c4f565b602082019050919050565b60006020820190508181036000830152612cb481612c78565b9050919050565b7f4e6f2062616c616e636520746f20776974686472617700000000000000000000600082015250565b6000612cf16016836123f6565b9150612cfc82612cbb565b602082019050919050565b60006020820190508181036000830152612d2081612ce4565b9050919050565b7f526566756e6420706572696f64206e6f74206f76657200000000000000000000600082015250565b6000612d5d6016836123f6565b9150612d6882612d27565b602082019050919050565b60006020820190508181036000830152612d8c81612d50565b9050919050565b7f5769746864726177616c206661696c6564000000000000000000000000000000600082015250565b6000612dc96011836123f6565b9150612dd482612d93565b602082019050919050565b60006020820190508181036000830152612df881612dbc565b9050919050565b60008190508160005260206000209050919050565b60006020601f8301049050919050565b600082821b905092915050565b600060088302612e617fffffffffffffffffffffffffffffffffffffffffffffffffffffffffffffffff82612e24565b612e6b8683612e24565b95508019841693508086168417925050509392505050565b6000819050919050565b6000612ea8612ea3612e9e8461249d565b612e83565b61249d565b9050919050565b6000819050919050565b612ec283612e8d565b612ed6612ece82612eaf565b848454612e31565b825550505050565b600090565b612eeb612ede565b612ef6818484612eb9565b505050565b5b81811015612f1a57612f0f600082612ee3565b600181019050612efc565b5050565b601f821115612f5f57612f3081612dff565b612f3984612e14565b81016020851015612f48578190505b612f5c612f5485612e14565b830182612efb565b50505b505050565b600082821c905092915050565b6000612f8260001984600802612f64565b1980831691505092915050565b6000612f9b8383612f71565b9150826002028217905092915050565b612fb4826123eb565b67ffffffffffffffff811115612fcd57612fcc61267c565b5b612fd782546129ef565b612fe2828285612f1e565b600060209050601f8311600181146130155760008415613003578287015190505b61300d8582612f8f565b865550613075565b601f19841661302386612dff565b60005b8281101561304b57848901518255600182019150602085019450602081019050613026565b868310156130685784890151613064601f891682612f71565b8355505b6001600288020188555050505b505050505050565b7f45786365656473206d617820737570706c790000000000000000000000000000600082015250565b60006130b36012836123f6565b91506130be8261307d565b602082019050919050565b600060208201905081810360008301526130e2816130a6565b9050919050565b7f45786365656473206d6178206d696e7420706572207472616e73616374696f6e600082015250565b600061311f6020836123f6565b915061312a826130e9565b602082019050919050565b6000602082019050818103600083015261314e81613112565b9050919050565b7f496e73756666696369656e742066756e64730000000000000000000000000000600082015250565b600061318b6012836123f6565b915061319682613155565b602082019050919050565b600060208201905081810360008301526131ba8161317e565b9050919050565b7f45786365656473206d6178206d696e74207065722077616c6c65740000000000600082015250565b60006131f7601b836123f6565b9150613202826131c1565b602082019050919050565b60006020820190508181036000830152613226816131ea565b9050919050565b600081905092915050565b6000613243826123eb565b61324d818561322d565b935061325d818560208601612407565b80840191505092915050565b60006132758285613238565b91506132818284613238565b91508190509392505050565b60006132988261249d565b9150600082036132ab576132aa612a8c565b5b600182039050919050565b60006132c18261249d565b91507fffffffffffffffffffffffffffffffffffffffffffffffffffffffffffffffff82036132f3576132f2612a8c565b5b600182019050919050565b600081519050919050565b600082825260208201905092915050565b6000613325826132fe565b61332f8185613309565b935061333f818560208601612407565b61334881612431565b840191505092915050565b60006080820190506133686000830187612532565b6133756020830186612532565b61338260408301856125c8565b8181036060830152613394818461331a565b905095945050505050565b6000815190506133ae8161235c565b92915050565b6000602082840312156133ca576133c9612326565b5b60006133d88482850161339f565b9150509291505056fea2646970667358221220e9629184363fa223496d458735bc28c8ba42383c6fa67b2629b024d934c764c264736f6c634300081b0033","opcodes":"PUSH1 0x80 PUSH1 0x40 MSTORE CALLVALUE DUP1 ISZERO PUSH2 0x10 JUMPI PUSH1 0x0 DUP1 REVERT JUMPDEST POP PUSH1 0x40 MLOAD PUSH2 0x3A72 CODESIZE SUB DUP1 PUSH2 0x3A72 DUP4 CODECOPY DUP2 DUP2 ADD PUSH1 0x40 MSTORE DUP2 ADD SWAP1 PUSH2 0x32 SWAP2 SWAP1 PUSH2 0x310 JUMP JUMPDEST PUSH1 0x40 MLOAD DUP1 PUSH1 0x40 ADD PUSH1 0x40 MSTORE DUP1 PUSH1 0xA DUP2 MSTORE PUSH1 0x20 ADD PUSH32 0x4561726C79204269726400000000000000000000000000000000000000000000 DUP2 MSTORE POP PUSH1 0x40 MLOAD DUP1 PUSH1 0x40 ADD PUSH1 0x40 MSTORE DUP1 PUSH1 0x3 DUP2 MSTORE PUSH1 0x20 ADD PUSH32 0x4552420000000000000000000000000000000000000000000000000000000000 DUP2 MSTORE POP DUP2 PUSH1 0x2 SWAP1 DUP2 PUSH2 0xAD SWAP2 SWAP1 PUSH2 0x57A JUMP JUMPDEST POP DUP1 PUSH1 0x3 SWAP1 DUP2 PUSH2 0xBD SWAP2 SWAP1 PUSH2 0x57A JUMP JUMPDEST POP PUSH2 0xCC PUSH2 0x164 PUSH1 0x20 SHL PUSH1 0x20 SHR JUMP JUMPDEST PUSH1 0x0 DUP2 SWAP1 SSTORE POP PUSH2 0xE0 PUSH2 0x164 PUSH1 0x20 SHL PUSH1 0x20 SHR JUMP JUMPDEST PUSH2 0xEE PUSH2 0x169 PUSH1 0x20 SHL PUSH1 0x20 SHR JUMP JUMPDEST LT ISZERO PUSH2 0x10B JUMPI PUSH2 0x10A PUSH4 0xFED8210F PUSH1 0xE0 SHL PUSH2 0x191 PUSH1 0x20 SHL PUSH1 0x20 SHR JUMP JUMPDEST JUMPDEST POP POP CALLER PUSH1 0x9 PUSH1 0x0 PUSH2 0x100 EXP DUP2 SLOAD DUP2 PUSH20 0xFFFFFFFFFFFFFFFFFFFFFFFFFFFFFFFFFFFFFFFF MUL NOT AND SWAP1 DUP4 PUSH20 0xFFFFFFFFFFFFFFFFFFFFFFFFFFFFFFFFFFFFFFFF AND MUL OR SWAP1 SSTORE POP DUP1 PUSH1 0xA SWAP1 DUP2 PUSH2 0x15D SWAP2 SWAP1 PUSH2 0x57A JUMP JUMPDEST POP POP PUSH2 0x64C JUMP JUMPDEST PUSH1 0x0 SWAP1 JUMP JUMPDEST PUSH1 0x0 PUSH32 0xFFFFFFFFFFFFFFFFFFFFFFFFFFFFFFFFFFFFFFFFFFFFFFFFFFFFFFFFFFFFFFFF SWAP1 POP SWAP1 JUMP JUMPDEST DUP1 PUSH1 0x0 MSTORE PUSH1 0x4 PUSH1 0x0 REVERT JUMPDEST PUSH1 0x0 PUSH1 0x40 MLOAD SWAP1 POP SWAP1 JUMP JUMPDEST PUSH1 0x0 DUP1 REVERT JUMPDEST PUSH1 0x0 DUP1 REVERT JUMPDEST PUSH1 0x0 DUP1 REVERT JUMPDEST PUSH1 0x0 DUP1 REVERT JUMPDEST PUSH1 0x0 PUSH1 0x1F NOT PUSH1 0x1F DUP4 ADD AND SWAP1 POP SWAP2 SWAP1 POP JUMP JUMPDEST PUSH32 0x4E487B7100000000000000000000000000000000000000000000000000000000 PUSH1 0x0 MSTORE PUSH1 0x41 PUSH1 0x4 MSTORE PUSH1 0x24 PUSH1 0x0 REVERT JUMPDEST PUSH2 0x202 DUP3 PUSH2 0x1B9 JUMP JUMPDEST DUP2 ADD DUP2 DUP2 LT PUSH8 0xFFFFFFFFFFFFFFFF DUP3 GT OR ISZERO PUSH2 0x221 JUMPI PUSH2 0x220 PUSH2 0x1CA JUMP JUMPDEST JUMPDEST DUP1 PUSH1 0x40 MSTORE POP POP POP JUMP JUMPDEST PUSH1 0x0 PUSH2 0x234 PUSH2 0x19B JUMP JUMPDEST SWAP1 POP PUSH2 0x240 DUP3 DUP3 PUSH2 0x1F9 JUMP JUMPDEST SWAP2 SWAP1 POP JUMP JUMPDEST PUSH1 0x0 PUSH8 0xFFFFFFFFFFFFFFFF DUP3 GT ISZERO PUSH2 0x260 JUMPI PUSH2 0x25F PUSH2 0x1CA JUMP JUMPDEST JUMPDEST PUSH2 0x269 DUP3 PUSH2 0x1B9 JUMP JUMPDEST SWAP1 POP PUSH1 0x20 DUP2 ADD SWAP1 POP SWAP2 SWAP1 POP JUMP JUMPDEST PUSH1 0x0 JUMPDEST DUP4 DUP2 LT ISZERO PUSH2 0x294 JUMPI DUP1 DUP3 ADD MLOAD DUP2 DUP5 ADD MSTORE PUSH1 0x20 DUP2 ADD SWAP1 POP PUSH2 0x279 JUMP JUMPDEST PUSH1 0x0 DUP5 DUP5 ADD MSTORE POP POP POP POP JUMP JUMPDEST PUSH1 0x0 PUSH2 0x2B3 PUSH2 0x2AE DUP5 PUSH2 0x245 JUMP JUMPDEST PUSH2 0x22A JUMP JUMPDEST SWAP1 POP DUP3 DUP2 MSTORE PUSH1 0x20 DUP2 ADD DUP5 DUP5 DUP5 ADD GT ISZERO PUSH2 0x2CF JUMPI PUSH2 0x2CE PUSH2 0x1B4 JUMP JUMPDEST JUMPDEST PUSH2 0x2DA DUP5 DUP3 DUP6 PUSH2 0x276 JUMP JUMPDEST POP SWAP4 SWAP3 POP POP POP JUMP JUMPDEST PUSH1 0x0 DUP3 PUSH1 0x1F DUP4 ADD SLT PUSH2 0x2F7 JUMPI PUSH2 0x2F6 PUSH2 0x1AF JUMP JUMPDEST JUMPDEST DUP2 MLOAD PUSH2 0x307 DUP5 DUP3 PUSH1 0x20 DUP7 ADD PUSH2 0x2A0 JUMP JUMPDEST SWAP2 POP POP SWAP3 SWAP2 POP POP JUMP JUMPDEST PUSH1 0x0 PUSH1 0x20 DUP3 DUP5 SUB SLT ISZERO PUSH2 0x326 JUMPI PUSH2 0x325 PUSH2 0x1A5 JUMP JUMPDEST JUMPDEST PUSH1 0x0 DUP3 ADD MLOAD PUSH8 0xFFFFFFFFFFFFFFFF DUP2 GT ISZERO PUSH2 0x344 JUMPI PUSH2 0x343 PUSH2 0x1AA JUMP JUMPDEST JUMPDEST PUSH2 0x350 DUP5 DUP3 DUP6 ADD PUSH2 0x2E2 JUMP JUMPDEST SWAP2 POP POP SWAP3 SWAP2 POP POP JUMP JUMPDEST PUSH1 0x0 DUP2 MLOAD SWAP1 POP SWAP2 SWAP1 POP JUMP JUMPDEST PUSH32 0x4E487B7100000000000000000000000000000000000000000000000000000000 PUSH1 0x0 MSTORE PUSH1 0x22 PUSH1 0x4 MSTORE PUSH1 0x24 PUSH1 0x0 REVERT JUMPDEST PUSH1 0x0 PUSH1 0x2 DUP3 DIV SWAP1 POP PUSH1 0x1 DUP3 AND DUP1 PUSH2 0x3AB JUMPI PUSH1 0x7F DUP3 AND SWAP2 POP JUMPDEST PUSH1 0x20 DUP3 LT DUP2 SUB PUSH2 0x3BE JUMPI PUSH2 0x3BD PUSH2 0x364 JUMP JUMPDEST JUMPDEST POP SWAP2 SWAP1 POP JUMP JUMPDEST PUSH1 0x0 DUP2 SWAP1 POP DUP2 PUSH1 0x0 MSTORE PUSH1 0x20 PUSH1 0x0 KECCAK256 SWAP1 POP SWAP2 SWAP1 POP JUMP JUMPDEST PUSH1 0x0 PUSH1 0x20 PUSH1 0x1F DUP4 ADD DIV SWAP1 POP SWAP2 SWAP1 POP JUMP JUMPDEST PUSH1 0x0 DUP3 DUP3 SHL SWAP1 POP SWAP3 SWAP2 POP POP JUMP JUMPDEST PUSH1 0x0 PUSH1 0x8 DUP4 MUL PUSH2 0x426 PUSH32 0xFFFFFFFFFFFFFFFFFFFFFFFFFFFFFFFFFFFFFFFFFFFFFFFFFFFFFFFFFFFFFFFF DUP3 PUSH2 0x3E9 JUMP JUMPDEST PUSH2 0x430 DUP7 DUP4 PUSH2 0x3E9 JUMP JUMPDEST SWAP6 POP DUP1 NOT DUP5 AND SWAP4 POP DUP1 DUP7 AND DUP5 OR SWAP3 POP POP POP SWAP4 SWAP3 POP POP POP JUMP JUMPDEST PUSH1 0x0 DUP2 SWAP1 POP SWAP2 SWAP1 POP JUMP JUMPDEST PUSH1 0x0 DUP2 SWAP1 POP SWAP2 SWAP1 POP JUMP JUMPDEST PUSH1 0x0 PUSH2 0x477 PUSH2 0x472 PUSH2 0x46D DUP5 PUSH2 0x448 JUMP JUMPDEST PUSH2 0x452 JUMP JUMPDEST PUSH2 0x448 JUMP JUMPDEST SWAP1 POP SWAP2 SWAP1 POP JUMP JUMPDEST PUSH1 0x0 DUP2 SWAP1 POP SWAP2 SWAP1 POP JUMP JUMPDEST PUSH2 0x491 DUP4 PUSH2 0x45C JUMP JUMPDEST PUSH2 0x4A5 PUSH2 0x49D DUP3 PUSH2 0x47E JUMP JUMPDEST DUP5 DUP5 SLOAD PUSH2 0x3F6 JUMP JUMPDEST DUP3 SSTORE POP POP POP POP JUMP JUMPDEST PUSH1 0x0 SWAP1 JUMP JUMPDEST PUSH2 0x4BA PUSH2 0x4AD JUMP JUMPDEST PUSH2 0x4C5 DUP2 DUP5 DUP5 PUSH2 0x488 JUMP JUMPDEST POP POP POP JUMP JUMPDEST JUMPDEST DUP2 DUP2 LT ISZERO PUSH2 0x4E9 JUMPI PUSH2 0x4DE PUSH1 0x0 DUP3 PUSH2 0x4B2 JUMP JUMPDEST PUSH1 0x1 DUP2 ADD SWAP1 POP PUSH2 0x4CB JUMP JUMPDEST POP POP JUMP JUMPDEST PUSH1 0x1F DUP3 GT ISZERO PUSH2 0x52E JUMPI PUSH2 0x4FF DUP2 PUSH2 0x3C4 JUMP JUMPDEST PUSH2 0x508 DUP5 PUSH2 0x3D9 JUMP JUMPDEST DUP2 ADD PUSH1 0x20 DUP6 LT ISZERO PUSH2 0x517 JUMPI DUP2 SWAP1 POP JUMPDEST PUSH2 0x52B PUSH2 0x523 DUP6 PUSH2 0x3D9 JUMP JUMPDEST DUP4 ADD DUP3 PUSH2 0x4CA JUMP JUMPDEST POP POP JUMPDEST POP POP POP JUMP JUMPDEST PUSH1 0x0 DUP3 DUP3 SHR SWAP1 POP SWAP3 SWAP2 POP POP JUMP JUMPDEST PUSH1 0x0 PUSH2 0x551 PUSH1 0x0 NOT DUP5 PUSH1 0x8 MUL PUSH2 0x533 JUMP JUMPDEST NOT DUP1 DUP4 AND SWAP2 POP POP SWAP3 SWAP2 POP POP JUMP JUMPDEST PUSH1 0x0 PUSH2 0x56A DUP4 DUP4 PUSH2 0x540 JUMP JUMPDEST SWAP2 POP DUP3 PUSH1 0x2 MUL DUP3 OR SWAP1 POP SWAP3 SWAP2 POP POP JUMP JUMPDEST PUSH2 0x583 DUP3 PUSH2 0x359 JUMP JUMPDEST PUSH8 0xFFFFFFFFFFFFFFFF DUP2 GT ISZERO PUSH2 0x59C JUMPI PUSH2 0x59B PUSH2 0x1CA JUMP JUMPDEST JUMPDEST PUSH2 0x5A6 DUP3 SLOAD PUSH2 0x393 JUMP JUMPDEST PUSH2 0x5B1 DUP3 DUP3 DUP6 PUSH2 0x4ED JUMP JUMPDEST PUSH1 0x0 PUSH1 0x20 SWAP1 POP PUSH1 0x1F DUP4 GT PUSH1 0x1 DUP2 EQ PUSH2 0x5E4 JUMPI PUSH1 0x0 DUP5 ISZERO PUSH2 0x5D2 JUMPI DUP3 DUP8 ADD MLOAD SWAP1 POP JUMPDEST PUSH2 0x5DC DUP6 DUP3 PUSH2 0x55E JUMP JUMPDEST DUP7 SSTORE POP PUSH2 0x644 JUMP JUMPDEST PUSH1 0x1F NOT DUP5 AND PUSH2 0x5F2 DUP7 PUSH2 0x3C4 JUMP JUMPDEST PUSH1 0x0 JUMPDEST DUP3 DUP2 LT ISZERO PUSH2 0x61A JUMPI DUP5 DUP10 ADD MLOAD DUP3 SSTORE PUSH1 0x1 DUP3 ADD SWAP2 POP PUSH1 0x20 DUP6 ADD SWAP5 POP PUSH1 0x20 DUP2 ADD SWAP1 POP PUSH2 0x5F5 JUMP JUMPDEST DUP7 DUP4 LT ISZERO PUSH2 0x637 JUMPI DUP5 DUP10 ADD MLOAD PUSH2 0x633 PUSH1 0x1F DUP10 AND DUP3 PUSH2 0x540 JUMP JUMPDEST DUP4 SSTORE POP JUMPDEST PUSH1 0x1 PUSH1 0x2 DUP9 MUL ADD DUP9 SSTORE POP POP POP JUMPDEST POP POP POP POP POP POP JUMP JUMPDEST PUSH2 0x3417 DUP1 PUSH2 0x65B PUSH1 0x0 CODECOPY PUSH1 0x0 RETURN INVALID PUSH1 0x80 PUSH1 0x40 MSTORE PUSH1 0x4 CALLDATASIZE LT PUSH2 0x19C JUMPI PUSH1 0x0 CALLDATALOAD PUSH1 0xE0 SHR DUP1 PUSH4 0x70A08231 GT PUSH2 0xEC JUMPI DUP1 PUSH4 0xB88D4FDE GT PUSH2 0x8A JUMPI DUP1 PUSH4 0xE985E9C5 GT PUSH2 0x64 JUMPI DUP1 PUSH4 0xE985E9C5 EQ PUSH2 0x5C1 JUMPI DUP1 PUSH4 0xEFDFB8EA EQ PUSH2 0x5FE JUMPI DUP1 PUSH4 0xF0292A03 EQ PUSH2 0x63B JUMPI DUP1 PUSH4 0xF5C1BE3C EQ PUSH2 0x666 JUMPI PUSH2 0x19C JUMP JUMPDEST DUP1 PUSH4 0xB88D4FDE EQ PUSH2 0x53D JUMPI DUP1 PUSH4 0xC87B56DD EQ PUSH2 0x559 JUMPI DUP1 PUSH4 0xD547CFB7 EQ PUSH2 0x596 JUMPI PUSH2 0x19C JUMP JUMPDEST DUP1 PUSH4 0x95D89B41 GT PUSH2 0xC6 JUMPI DUP1 PUSH4 0x95D89B41 EQ PUSH2 0x48E JUMPI DUP1 PUSH4 0xA0712D68 EQ PUSH2 0x4B9 JUMPI DUP1 PUSH4 0xA22CB465 EQ PUSH2 0x4E9 JUMPI DUP1 PUSH4 0xB19960E6 EQ PUSH2 0x512 JUMPI PUSH2 0x19C JUMP JUMPDEST DUP1 PUSH4 0x70A08231 EQ PUSH2 0x3FB JUMPI DUP1 PUSH4 0x7F6578D3 EQ PUSH2 0x438 JUMPI DUP1 PUSH4 0x8DA5CB5B EQ PUSH2 0x463 JUMPI PUSH2 0x19C JUMP JUMPDEST DUP1 PUSH4 0x2538354D GT PUSH2 0x159 JUMPI DUP1 PUSH4 0x3CCFD60B GT PUSH2 0x133 JUMPI DUP1 PUSH4 0x3CCFD60B EQ PUSH2 0x34E JUMPI DUP1 PUSH4 0x42842E0E EQ PUSH2 0x379 JUMPI DUP1 PUSH4 0x55F804B3 EQ PUSH2 0x395 JUMPI DUP1 PUSH4 0x6352211E EQ PUSH2 0x3BE JUMPI PUSH2 0x19C JUMP JUMPDEST DUP1 PUSH4 0x2538354D EQ PUSH2 0x2A9 JUMPI DUP1 PUSH4 0x278ECDE1 EQ PUSH2 0x2E6 JUMPI DUP1 PUSH4 0x32CB6B0C EQ PUSH2 0x323 JUMPI PUSH2 0x19C JUMP JUMPDEST DUP1 PUSH4 0x1FFC9A7 EQ PUSH2 0x1A1 JUMPI DUP1 PUSH4 0x6FDDE03 EQ PUSH2 0x1DE JUMPI DUP1 PUSH4 0x81812FC EQ PUSH2 0x209 JUMPI DUP1 PUSH4 0x95EA7B3 EQ PUSH2 0x246 JUMPI DUP1 PUSH4 0x18160DDD EQ PUSH2 0x262 JUMPI DUP1 PUSH4 0x23B872DD EQ PUSH2 0x28D JUMPI JUMPDEST PUSH1 0x0 DUP1 REVERT JUMPDEST CALLVALUE DUP1 ISZERO PUSH2 0x1AD JUMPI PUSH1 0x0 DUP1 REVERT JUMPDEST POP PUSH2 0x1C8 PUSH1 0x4 DUP1 CALLDATASIZE SUB DUP2 ADD SWAP1 PUSH2 0x1C3 SWAP2 SWAP1 PUSH2 0x2388 JUMP JUMPDEST PUSH2 0x691 JUMP JUMPDEST PUSH1 0x40 MLOAD PUSH2 0x1D5 SWAP2 SWAP1 PUSH2 0x23D0 JUMP JUMPDEST PUSH1 0x40 MLOAD DUP1 SWAP2 SUB SWAP1 RETURN JUMPDEST CALLVALUE DUP1 ISZERO PUSH2 0x1EA JUMPI PUSH1 0x0 DUP1 REVERT JUMPDEST POP PUSH2 0x1F3 PUSH2 0x723 JUMP JUMPDEST PUSH1 0x40 MLOAD PUSH2 0x200 SWAP2 SWAP1 PUSH2 0x247B JUMP JUMPDEST PUSH1 0x40 MLOAD DUP1 SWAP2 SUB SWAP1 RETURN JUMPDEST CALLVALUE DUP1 ISZERO PUSH2 0x215 JUMPI PUSH1 0x0 DUP1 REVERT JUMPDEST POP PUSH2 0x230 PUSH1 0x4 DUP1 CALLDATASIZE SUB DUP2 ADD SWAP1 PUSH2 0x22B SWAP2 SWAP1 PUSH2 0x24D3 JUMP JUMPDEST PUSH2 0x7B5 JUMP JUMPDEST PUSH1 0x40 MLOAD PUSH2 0x23D SWAP2 SWAP1 PUSH2 0x2541 JUMP JUMPDEST PUSH1 0x40 MLOAD DUP1 SWAP2 SUB SWAP1 RETURN JUMPDEST PUSH2 0x260 PUSH1 0x4 DUP1 CALLDATASIZE SUB DUP2 ADD SWAP1 PUSH2 0x25B SWAP2 SWAP1 PUSH2 0x2588 JUMP JUMPDEST PUSH2 0x813 JUMP JUMPDEST STOP JUMPDEST CALLVALUE DUP1 ISZERO PUSH2 0x26E JUMPI PUSH1 0x0 DUP1 REVERT JUMPDEST POP PUSH2 0x277 PUSH2 0x823 JUMP JUMPDEST PUSH1 0x40 MLOAD PUSH2 0x284 SWAP2 SWAP1 PUSH2 0x25D7 JUMP JUMPDEST PUSH1 0x40 MLOAD DUP1 SWAP2 SUB SWAP1 RETURN JUMPDEST PUSH2 0x2A7 PUSH1 0x4 DUP1 CALLDATASIZE SUB DUP2 ADD SWAP1 PUSH2 0x2A2 SWAP2 SWAP1 PUSH2 0x25F2 JUMP JUMPDEST PUSH2 0x870 JUMP JUMPDEST STOP JUMPDEST CALLVALUE DUP1 ISZERO PUSH2 0x2B5 JUMPI PUSH1 0x0 DUP1 REVERT JUMPDEST POP PUSH2 0x2D0 PUSH1 0x4 DUP1 CALLDATASIZE SUB DUP2 ADD SWAP1 PUSH2 0x2CB SWAP2 SWAP1 PUSH2 0x2645 JUMP JUMPDEST PUSH2 0xB08 JUMP JUMPDEST PUSH1 0x40 MLOAD PUSH2 0x2DD SWAP2 SWAP1 PUSH2 0x25D7 JUMP JUMPDEST PUSH1 0x40 MLOAD DUP1 SWAP2 SUB SWAP1 RETURN JUMPDEST CALLVALUE DUP1 ISZERO PUSH2 0x2F2 JUMPI PUSH1 0x0 DUP1 REVERT JUMPDEST POP PUSH2 0x30D PUSH1 0x4 DUP1 CALLDATASIZE SUB DUP2 ADD SWAP1 PUSH2 0x308 SWAP2 SWAP1 PUSH2 0x24D3 JUMP JUMPDEST PUSH2 0xB20 JUMP JUMPDEST PUSH1 0x40 MLOAD PUSH2 0x31A SWAP2 SWAP1 PUSH2 0x23D0 JUMP JUMPDEST PUSH1 0x40 MLOAD DUP1 SWAP2 SUB SWAP1 RETURN JUMPDEST CALLVALUE DUP1 ISZERO PUSH2 0x32F JUMPI PUSH1 0x0 DUP1 REVERT JUMPDEST POP PUSH2 0x338 PUSH2 0xD15 JUMP JUMPDEST PUSH1 0x40 MLOAD PUSH2 0x345 SWAP2 SWAP1 PUSH2 0x25D7 JUMP JUMPDEST PUSH1 0x40 MLOAD DUP1 SWAP2 SUB SWAP1 RETURN JUMPDEST CALLVALUE DUP1 ISZERO PUSH2 0x35A JUMPI PUSH1 0x0 DUP1 REVERT JUMPDEST POP PUSH2 0x363 PUSH2 0xD1B JUMP JUMPDEST PUSH1 0x40 MLOAD PUSH2 0x370 SWAP2 SWAP1 PUSH2 0x23D0 JUMP JUMPDEST PUSH1 0x40 MLOAD DUP1 SWAP2 SUB SWAP1 RETURN JUMPDEST PUSH2 0x393 PUSH1 0x4 DUP1 CALLDATASIZE SUB DUP2 ADD SWAP1 PUSH2 0x38E SWAP2 SWAP1 PUSH2 0x25F2 JUMP JUMPDEST PUSH2 0xF87 JUMP JUMPDEST STOP JUMPDEST CALLVALUE DUP1 ISZERO PUSH2 0x3A1 JUMPI PUSH1 0x0 DUP1 REVERT JUMPDEST POP PUSH2 0x3BC PUSH1 0x4 DUP1 CALLDATASIZE SUB DUP2 ADD SWAP1 PUSH2 0x3B7 SWAP2 SWAP1 PUSH2 0x27A7 JUMP JUMPDEST PUSH2 0xFA7 JUMP JUMPDEST STOP JUMPDEST CALLVALUE DUP1 ISZERO PUSH2 0x3CA JUMPI PUSH1 0x0 DUP1 REVERT JUMPDEST POP PUSH2 0x3E5 PUSH1 0x4 DUP1 CALLDATASIZE SUB DUP2 ADD SWAP1 PUSH2 0x3E0 SWAP2 SWAP1 PUSH2 0x24D3 JUMP JUMPDEST PUSH2 0x104A JUMP JUMPDEST PUSH1 0x40 MLOAD PUSH2 0x3F2 SWAP2 SWAP1 PUSH2 0x2541 JUMP JUMPDEST PUSH1 0x40 MLOAD DUP1 SWAP2 SUB SWAP1 RETURN JUMPDEST CALLVALUE DUP1 ISZERO PUSH2 0x407 JUMPI PUSH1 0x0 DUP1 REVERT JUMPDEST POP PUSH2 0x422 PUSH1 0x4 DUP1 CALLDATASIZE SUB DUP2 ADD SWAP1 PUSH2 0x41D SWAP2 SWAP1 PUSH2 0x2645 JUMP JUMPDEST PUSH2 0x105C JUMP JUMPDEST PUSH1 0x40 MLOAD PUSH2 0x42F SWAP2 SWAP1 PUSH2 0x25D7 JUMP JUMPDEST PUSH1 0x40 MLOAD DUP1 SWAP2 SUB SWAP1 RETURN JUMPDEST CALLVALUE DUP1 ISZERO PUSH2 0x444 JUMPI PUSH1 0x0 DUP1 REVERT JUMPDEST POP PUSH2 0x44D PUSH2 0x10F3 JUMP JUMPDEST PUSH1 0x40 MLOAD PUSH2 0x45A SWAP2 SWAP1 PUSH2 0x25D7 JUMP JUMPDEST PUSH1 0x40 MLOAD DUP1 SWAP2 SUB SWAP1 RETURN JUMPDEST CALLVALUE DUP1 ISZERO PUSH2 0x46F JUMPI PUSH1 0x0 DUP1 REVERT JUMPDEST POP PUSH2 0x478 PUSH2 0x10F8 JUMP JUMPDEST PUSH1 0x40 MLOAD PUSH2 0x485 SWAP2 SWAP1 PUSH2 0x2541 JUMP JUMPDEST PUSH1 0x40 MLOAD DUP1 SWAP2 SUB SWAP1 RETURN JUMPDEST CALLVALUE DUP1 ISZERO PUSH2 0x49A JUMPI PUSH1 0x0 DUP1 REVERT JUMPDEST POP PUSH2 0x4A3 PUSH2 0x111E JUMP JUMPDEST PUSH1 0x40 MLOAD PUSH2 0x4B0 SWAP2 SWAP1 PUSH2 0x247B JUMP JUMPDEST PUSH1 0x40 MLOAD DUP1 SWAP2 SUB SWAP1 RETURN JUMPDEST PUSH2 0x4D3 PUSH1 0x4 DUP1 CALLDATASIZE SUB DUP2 ADD SWAP1 PUSH2 0x4CE SWAP2 SWAP1 PUSH2 0x24D3 JUMP JUMPDEST PUSH2 0x11B0 JUMP JUMPDEST PUSH1 0x40 MLOAD PUSH2 0x4E0 SWAP2 SWAP1 PUSH2 0x23D0 JUMP JUMPDEST PUSH1 0x40 MLOAD DUP1 SWAP2 SUB SWAP1 RETURN JUMPDEST CALLVALUE DUP1 ISZERO PUSH2 0x4F5 JUMPI PUSH1 0x0 DUP1 REVERT JUMPDEST POP PUSH2 0x510 PUSH1 0x4 DUP1 CALLDATASIZE SUB DUP2 ADD SWAP1 PUSH2 0x50B SWAP2 SWAP1 PUSH2 0x281C JUMP JUMPDEST PUSH2 0x13E9 JUMP JUMPDEST STOP JUMPDEST CALLVALUE DUP1 ISZERO PUSH2 0x51E JUMPI PUSH1 0x0 DUP1 REVERT JUMPDEST POP PUSH2 0x527 PUSH2 0x14F4 JUMP JUMPDEST PUSH1 0x40 MLOAD PUSH2 0x534 SWAP2 SWAP1 PUSH2 0x25D7 JUMP JUMPDEST PUSH1 0x40 MLOAD DUP1 SWAP2 SUB SWAP1 RETURN JUMPDEST PUSH2 0x557 PUSH1 0x4 DUP1 CALLDATASIZE SUB DUP2 ADD SWAP1 PUSH2 0x552 SWAP2 SWAP1 PUSH2 0x28FD JUMP JUMPDEST PUSH2 0x14F9 JUMP JUMPDEST STOP JUMPDEST CALLVALUE DUP1 ISZERO PUSH2 0x565 JUMPI PUSH1 0x0 DUP1 REVERT JUMPDEST POP PUSH2 0x580 PUSH1 0x4 DUP1 CALLDATASIZE SUB DUP2 ADD SWAP1 PUSH2 0x57B SWAP2 SWAP1 PUSH2 0x24D3 JUMP JUMPDEST PUSH2 0x154B JUMP JUMPDEST PUSH1 0x40 MLOAD PUSH2 0x58D SWAP2 SWAP1 PUSH2 0x247B JUMP JUMPDEST PUSH1 0x40 MLOAD DUP1 SWAP2 SUB SWAP1 RETURN JUMPDEST CALLVALUE DUP1 ISZERO PUSH2 0x5A2 JUMPI PUSH1 0x0 DUP1 REVERT JUMPDEST POP PUSH2 0x5AB PUSH2 0x15C8 JUMP JUMPDEST PUSH1 0x40 MLOAD PUSH2 0x5B8 SWAP2 SWAP1 PUSH2 0x247B JUMP JUMPDEST PUSH1 0x40 MLOAD DUP1 SWAP2 SUB SWAP1 RETURN JUMPDEST CALLVALUE DUP1 ISZERO PUSH2 0x5CD JUMPI PUSH1 0x0 DUP1 REVERT JUMPDEST POP PUSH2 0x5E8 PUSH1 0x4 DUP1 CALLDATASIZE SUB DUP2 ADD SWAP1 PUSH2 0x5E3 SWAP2 SWAP1 PUSH2 0x2980 JUMP JUMPDEST PUSH2 0x1656 JUMP JUMPDEST PUSH1 0x40 MLOAD PUSH2 0x5F5 SWAP2 SWAP1 PUSH2 0x23D0 JUMP JUMPDEST PUSH1 0x40 MLOAD DUP1 SWAP2 SUB SWAP1 RETURN JUMPDEST CALLVALUE DUP1 ISZERO PUSH2 0x60A JUMPI PUSH1 0x0 DUP1 REVERT JUMPDEST POP PUSH2 0x625 PUSH1 0x4 DUP1 CALLDATASIZE SUB DUP2 ADD SWAP1 PUSH2 0x620 SWAP2 SWAP1 PUSH2 0x2645 JUMP JUMPDEST PUSH2 0x16EA JUMP JUMPDEST PUSH1 0x40 MLOAD PUSH2 0x632 SWAP2 SWAP1 PUSH2 0x25D7 JUMP JUMPDEST PUSH1 0x40 MLOAD DUP1 SWAP2 SUB SWAP1 RETURN JUMPDEST CALLVALUE DUP1 ISZERO PUSH2 0x647 JUMPI PUSH1 0x0 DUP1 REVERT JUMPDEST POP PUSH2 0x650 PUSH2 0x1702 JUMP JUMPDEST PUSH1 0x40 MLOAD PUSH2 0x65D SWAP2 SWAP1 PUSH2 0x25D7 JUMP JUMPDEST PUSH1 0x40 MLOAD DUP1 SWAP2 SUB SWAP1 RETURN JUMPDEST CALLVALUE DUP1 ISZERO PUSH2 0x672 JUMPI PUSH1 0x0 DUP1 REVERT JUMPDEST POP PUSH2 0x67B PUSH2 0x1707 JUMP JUMPDEST PUSH1 0x40 MLOAD PUSH2 0x688 SWAP2 SWAP1 PUSH2 0x25D7 JUMP JUMPDEST PUSH1 0x40 MLOAD DUP1 SWAP2 SUB SWAP1 RETURN JUMPDEST PUSH1 0x0 PUSH4 0x1FFC9A7 PUSH1 0xE0 SHL DUP3 PUSH28 0xFFFFFFFFFFFFFFFFFFFFFFFFFFFFFFFFFFFFFFFFFFFFFFFFFFFFFFFF NOT AND EQ DUP1 PUSH2 0x6EC JUMPI POP PUSH4 0x80AC58CD PUSH1 0xE0 SHL DUP3 PUSH28 0xFFFFFFFFFFFFFFFFFFFFFFFFFFFFFFFFFFFFFFFFFFFFFFFFFFFFFFFF NOT AND EQ JUMPDEST DUP1 PUSH2 0x71C JUMPI POP PUSH4 0x5B5E139F PUSH1 0xE0 SHL DUP3 PUSH28 0xFFFFFFFFFFFFFFFFFFFFFFFFFFFFFFFFFFFFFFFFFFFFFFFFFFFFFFFF NOT AND EQ JUMPDEST SWAP1 POP SWAP2 SWAP1 POP JUMP JUMPDEST PUSH1 0x60 PUSH1 0x2 DUP1 SLOAD PUSH2 0x732 SWAP1 PUSH2 0x29EF JUMP JUMPDEST DUP1 PUSH1 0x1F ADD PUSH1 0x20 DUP1 SWAP2 DIV MUL PUSH1 0x20 ADD PUSH1 0x40 MLOAD SWAP1 DUP2 ADD PUSH1 0x40 MSTORE DUP1 SWAP3 SWAP2 SWAP1 DUP2 DUP2 MSTORE PUSH1 0x20 ADD DUP3 DUP1 SLOAD PUSH2 0x75E SWAP1 PUSH2 0x29EF JUMP JUMPDEST DUP1 ISZERO PUSH2 0x7AB JUMPI DUP1 PUSH1 0x1F LT PUSH2 0x780 JUMPI PUSH2 0x100 DUP1 DUP4 SLOAD DIV MUL DUP4 MSTORE SWAP2 PUSH1 0x20 ADD SWAP2 PUSH2 0x7AB JUMP JUMPDEST DUP3 ADD SWAP2 SWAP1 PUSH1 0x0 MSTORE PUSH1 0x20 PUSH1 0x0 KECCAK256 SWAP1 JUMPDEST DUP2 SLOAD DUP2 MSTORE SWAP1 PUSH1 0x1 ADD SWAP1 PUSH1 0x20 ADD DUP1 DUP4 GT PUSH2 0x78E JUMPI DUP3 SWAP1 SUB PUSH1 0x1F AND DUP3 ADD SWAP2 JUMPDEST POP POP POP POP POP SWAP1 POP SWAP1 JUMP JUMPDEST PUSH1 0x0 PUSH2 0x7C0 DUP3 PUSH2 0x1711 JUMP JUMPDEST PUSH2 0x7D5 JUMPI PUSH2 0x7D4 PUSH4 0xCF4700E4 PUSH1 0xE0 SHL PUSH2 0x17BD JUMP JUMPDEST JUMPDEST PUSH1 0x6 PUSH1 0x0 DUP4 DUP2 MSTORE PUSH1 0x20 ADD SWAP1 DUP2 MSTORE PUSH1 0x20 ADD PUSH1 0x0 KECCAK256 PUSH1 0x0 ADD PUSH1 0x0 SWAP1 SLOAD SWAP1 PUSH2 0x100 EXP SWAP1 DIV PUSH20 0xFFFFFFFFFFFFFFFFFFFFFFFFFFFFFFFFFFFFFFFF AND SWAP1 POP SWAP2 SWAP1 POP JUMP JUMPDEST PUSH2 0x81F DUP3 DUP3 PUSH1 0x1 PUSH2 0x17C7 JUMP JUMPDEST POP POP JUMP JUMPDEST PUSH1 0x0 PUSH2 0x82D PUSH2 0x18F6 JUMP JUMPDEST PUSH1 0x1 SLOAD PUSH1 0x0 SLOAD SUB SUB SWAP1 POP PUSH32 0xFFFFFFFFFFFFFFFFFFFFFFFFFFFFFFFFFFFFFFFFFFFFFFFFFFFFFFFFFFFFFFFF PUSH2 0x860 PUSH2 0x18FB JUMP JUMPDEST EQ PUSH2 0x86D JUMPI PUSH1 0x8 SLOAD DUP2 ADD SWAP1 POP JUMPDEST SWAP1 JUMP JUMPDEST PUSH1 0x0 PUSH2 0x87B DUP3 PUSH2 0x1923 JUMP JUMPDEST SWAP1 POP PUSH1 0x0 DUP5 PUSH20 0xFFFFFFFFFFFFFFFFFFFFFFFFFFFFFFFFFFFFFFFF AND SWAP1 POP DUP1 DUP3 PUSH20 0xFFFFFFFFFFFFFFFFFFFFFFFFFFFFFFFFFFFFFFFF AND EQ PUSH2 0x8C6 JUMPI PUSH2 0x8C5 PUSH4 0xA1148100 PUSH1 0xE0 SHL PUSH2 0x17BD JUMP JUMPDEST JUMPDEST PUSH1 0x0 DUP1 PUSH2 0x8D2 DUP6 PUSH2 0x1A3C JUMP JUMPDEST SWAP2 POP SWAP2 POP PUSH2 0x8FE DUP2 DUP5 PUSH2 0x8E3 PUSH2 0x1A63 JUMP JUMPDEST PUSH20 0xFFFFFFFFFFFFFFFFFFFFFFFFFFFFFFFFFFFFFFFF AND PUSH2 0x1A6B JUMP JUMPDEST PUSH2 0x929 JUMPI PUSH2 0x913 DUP8 PUSH2 0x90E PUSH2 0x1A63 JUMP JUMPDEST PUSH2 0x1656 JUMP JUMPDEST PUSH2 0x928 JUMPI PUSH2 0x927 PUSH4 0x59C896BE PUSH1 0xE0 SHL PUSH2 0x17BD JUMP JUMPDEST JUMPDEST JUMPDEST PUSH2 0x936 DUP8 DUP8 DUP8 PUSH1 0x1 PUSH2 0x1A7D JUMP JUMPDEST DUP1 ISZERO PUSH2 0x941 JUMPI PUSH1 0x0 DUP3 SSTORE JUMPDEST PUSH1 0x5 PUSH1 0x0 DUP9 PUSH20 0xFFFFFFFFFFFFFFFFFFFFFFFFFFFFFFFFFFFFFFFF AND PUSH20 0xFFFFFFFFFFFFFFFFFFFFFFFFFFFFFFFFFFFFFFFF AND DUP2 MSTORE PUSH1 0x20 ADD SWAP1 DUP2 MSTORE PUSH1 0x20 ADD PUSH1 0x0 KECCAK256 PUSH1 0x0 DUP2 SLOAD PUSH1 0x1 SWAP1 SUB SWAP2 SWAP1 POP DUP2 SWAP1 SSTORE POP PUSH1 0x5 PUSH1 0x0 DUP8 PUSH20 0xFFFFFFFFFFFFFFFFFFFFFFFFFFFFFFFFFFFFFFFF AND PUSH20 0xFFFFFFFFFFFFFFFFFFFFFFFFFFFFFFFFFFFFFFFF AND DUP2 MSTORE PUSH1 0x20 ADD SWAP1 DUP2 MSTORE PUSH1 0x20 ADD PUSH1 0x0 KECCAK256 PUSH1 0x0 DUP2 SLOAD PUSH1 0x1 ADD SWAP2 SWAP1 POP DUP2 SWAP1 SSTORE POP PUSH2 0xA0F DUP7 PUSH2 0x9EB DUP10 DUP10 DUP9 PUSH2 0x1A83 JUMP JUMPDEST PUSH29 0x200000000000000000000000000000000000000000000000000000000 OR PUSH2 0x1AAB JUMP JUMPDEST PUSH1 0x4 PUSH1 0x0 DUP8 DUP2 MSTORE PUSH1 0x20 ADD SWAP1 DUP2 MSTORE PUSH1 0x20 ADD PUSH1 0x0 KECCAK256 DUP2 SWAP1 SSTORE POP PUSH1 0x0 PUSH29 0x200000000000000000000000000000000000000000000000000000000 DUP6 AND SUB PUSH2 0xA95 JUMPI PUSH1 0x0 PUSH1 0x1 DUP7 ADD SWAP1 POP PUSH1 0x0 PUSH1 0x4 PUSH1 0x0 DUP4 DUP2 MSTORE PUSH1 0x20 ADD SWAP1 DUP2 MSTORE PUSH1 0x20 ADD PUSH1 0x0 KECCAK256 SLOAD SUB PUSH2 0xA93 JUMPI PUSH1 0x0 SLOAD DUP2 EQ PUSH2 0xA92 JUMPI DUP5 PUSH1 0x4 PUSH1 0x0 DUP4 DUP2 MSTORE PUSH1 0x20 ADD SWAP1 DUP2 MSTORE PUSH1 0x20 ADD PUSH1 0x0 KECCAK256 DUP2 SWAP1 SSTORE POP JUMPDEST JUMPDEST POP JUMPDEST PUSH1 0x0 DUP7 PUSH20 0xFFFFFFFFFFFFFFFFFFFFFFFFFFFFFFFFFFFFFFFF AND SWAP1 POP DUP6 DUP2 DUP6 PUSH32 0xDDF252AD1BE2C89B69C2B068FC378DAA952BA7F163C4A11628F55A4DF523B3EF PUSH1 0x0 DUP1 LOG4 PUSH1 0x0 DUP2 SUB PUSH2 0xAF1 JUMPI PUSH2 0xAF0 PUSH4 0xEA553B34 PUSH1 0xE0 SHL PUSH2 0x17BD JUMP JUMPDEST JUMPDEST PUSH2 0xAFE DUP9 DUP9 DUP9 PUSH1 0x1 PUSH2 0x1AD6 JUMP JUMPDEST POP POP POP POP POP POP POP POP JUMP JUMPDEST PUSH1 0xC PUSH1 0x20 MSTORE DUP1 PUSH1 0x0 MSTORE PUSH1 0x40 PUSH1 0x0 KECCAK256 PUSH1 0x0 SWAP2 POP SWAP1 POP SLOAD DUP2 JUMP JUMPDEST PUSH1 0x0 PUSH2 0xB2B CALLER PUSH2 0x105C JUMP JUMPDEST DUP3 GT ISZERO PUSH2 0xB6D JUMPI PUSH1 0x40 MLOAD PUSH32 0x8C379A000000000000000000000000000000000000000000000000000000000 DUP2 MSTORE PUSH1 0x4 ADD PUSH2 0xB64 SWAP1 PUSH2 0x2A6C JUMP JUMPDEST PUSH1 0x40 MLOAD DUP1 SWAP2 SUB SWAP1 REVERT JUMPDEST PUSH1 0xB4 PUSH1 0xC PUSH1 0x0 CALLER PUSH20 0xFFFFFFFFFFFFFFFFFFFFFFFFFFFFFFFFFFFFFFFF AND PUSH20 0xFFFFFFFFFFFFFFFFFFFFFFFFFFFFFFFFFFFFFFFF AND DUP2 MSTORE PUSH1 0x20 ADD SWAP1 DUP2 MSTORE PUSH1 0x20 ADD PUSH1 0x0 KECCAK256 SLOAD PUSH2 0xBB9 SWAP2 SWAP1 PUSH2 0x2ABB JUMP JUMPDEST TIMESTAMP LT PUSH2 0xBFA JUMPI PUSH1 0x40 MLOAD PUSH32 0x8C379A000000000000000000000000000000000000000000000000000000000 DUP2 MSTORE PUSH1 0x4 ADD PUSH2 0xBF1 SWAP1 PUSH2 0x2B3B JUMP JUMPDEST PUSH1 0x40 MLOAD DUP1 SWAP2 SUB SWAP1 REVERT JUMPDEST PUSH2 0xC04 CALLER DUP4 PUSH2 0x1ADC JUMP JUMPDEST PUSH1 0x0 PUSH6 0x5AF3107A4000 DUP4 PUSH2 0xC18 SWAP2 SWAP1 PUSH2 0x2B5B JUMP JUMPDEST SWAP1 POP PUSH1 0x0 CALLER PUSH20 0xFFFFFFFFFFFFFFFFFFFFFFFFFFFFFFFFFFFFFFFF AND DUP3 PUSH1 0x40 MLOAD PUSH2 0xC40 SWAP1 PUSH2 0x2BCE JUMP JUMPDEST PUSH1 0x0 PUSH1 0x40 MLOAD DUP1 DUP4 SUB DUP2 DUP6 DUP8 GAS CALL SWAP3 POP POP POP RETURNDATASIZE DUP1 PUSH1 0x0 DUP2 EQ PUSH2 0xC7D JUMPI PUSH1 0x40 MLOAD SWAP2 POP PUSH1 0x1F NOT PUSH1 0x3F RETURNDATASIZE ADD AND DUP3 ADD PUSH1 0x40 MSTORE RETURNDATASIZE DUP3 MSTORE RETURNDATASIZE PUSH1 0x0 PUSH1 0x20 DUP5 ADD RETURNDATACOPY PUSH2 0xC82 JUMP JUMPDEST PUSH1 0x60 SWAP2 POP JUMPDEST POP POP SWAP1 POP DUP1 PUSH2 0xCC6 JUMPI PUSH1 0x40 MLOAD PUSH32 0x8C379A000000000000000000000000000000000000000000000000000000000 DUP2 MSTORE PUSH1 0x4 ADD PUSH2 0xCBD SWAP1 PUSH2 0x2C2F JUMP JUMPDEST PUSH1 0x40 MLOAD DUP1 SWAP2 SUB SWAP1 REVERT JUMPDEST DUP2 CALLER PUSH20 0xFFFFFFFFFFFFFFFFFFFFFFFFFFFFFFFFFFFFFFFF AND PUSH32 0x9DEFE0BDB8A1B4EE8FE9095FBA7B88C1C154139A41ABB1018B24B2DD2C574C3 PUSH1 0x40 MLOAD PUSH1 0x40 MLOAD DUP1 SWAP2 SUB SWAP1 LOG3 PUSH1 0x1 SWAP3 POP POP POP SWAP2 SWAP1 POP JUMP JUMPDEST PUSH2 0x3E8 DUP2 JUMP JUMPDEST PUSH1 0x0 PUSH1 0x9 PUSH1 0x0 SWAP1 SLOAD SWAP1 PUSH2 0x100 EXP SWAP1 DIV PUSH20 0xFFFFFFFFFFFFFFFFFFFFFFFFFFFFFFFFFFFFFFFF AND PUSH20 0xFFFFFFFFFFFFFFFFFFFFFFFFFFFFFFFFFFFFFFFF AND CALLER PUSH20 0xFFFFFFFFFFFFFFFFFFFFFFFFFFFFFFFFFFFFFFFF AND EQ PUSH2 0xDAD JUMPI PUSH1 0x40 MLOAD PUSH32 0x8C379A000000000000000000000000000000000000000000000000000000000 DUP2 MSTORE PUSH1 0x4 ADD PUSH2 0xDA4 SWAP1 PUSH2 0x2C9B JUMP JUMPDEST PUSH1 0x40 MLOAD DUP1 SWAP2 SUB SWAP1 REVERT JUMPDEST PUSH1 0x0 SELFBALANCE SWAP1 POP PUSH1 0x0 DUP2 GT PUSH2 0xDF5 JUMPI PUSH1 0x40 MLOAD PUSH32 0x8C379A000000000000000000000000000000000000000000000000000000000 DUP2 MSTORE PUSH1 0x4 ADD PUSH2 0xDEC SWAP1 PUSH2 0x2D07 JUMP JUMPDEST PUSH1 0x40 MLOAD DUP1 SWAP2 SUB SWAP1 REVERT JUMPDEST PUSH1 0xB4 PUSH2 0xDFF PUSH2 0x1B70 JUMP JUMPDEST PUSH2 0xE09 SWAP2 SWAP1 PUSH2 0x2ABB JUMP JUMPDEST TIMESTAMP GT PUSH2 0xE4A JUMPI PUSH1 0x40 MLOAD PUSH32 0x8C379A000000000000000000000000000000000000000000000000000000000 DUP2 MSTORE PUSH1 0x4 ADD PUSH2 0xE41 SWAP1 PUSH2 0x2D73 JUMP JUMPDEST PUSH1 0x40 MLOAD DUP1 SWAP2 SUB SWAP1 REVERT JUMPDEST PUSH1 0x0 PUSH1 0x9 PUSH1 0x0 SWAP1 SLOAD SWAP1 PUSH2 0x100 EXP SWAP1 DIV PUSH20 0xFFFFFFFFFFFFFFFFFFFFFFFFFFFFFFFFFFFFFFFF AND PUSH20 0xFFFFFFFFFFFFFFFFFFFFFFFFFFFFFFFFFFFFFFFF AND DUP3 PUSH1 0x40 MLOAD PUSH2 0xE92 SWAP1 PUSH2 0x2BCE JUMP JUMPDEST PUSH1 0x0 PUSH1 0x40 MLOAD DUP1 DUP4 SUB DUP2 DUP6 DUP8 GAS CALL SWAP3 POP POP POP RETURNDATASIZE DUP1 PUSH1 0x0 DUP2 EQ PUSH2 0xECF JUMPI PUSH1 0x40 MLOAD SWAP2 POP PUSH1 0x1F NOT PUSH1 0x3F RETURNDATASIZE ADD AND DUP3 ADD PUSH1 0x40 MSTORE RETURNDATASIZE DUP3 MSTORE RETURNDATASIZE PUSH1 0x0 PUSH1 0x20 DUP5 ADD RETURNDATACOPY PUSH2 0xED4 JUMP JUMPDEST PUSH1 0x60 SWAP2 POP JUMPDEST POP POP SWAP1 POP DUP1 PUSH2 0xF18 JUMPI PUSH1 0x40 MLOAD PUSH32 0x8C379A000000000000000000000000000000000000000000000000000000000 DUP2 MSTORE PUSH1 0x4 ADD PUSH2 0xF0F SWAP1 PUSH2 0x2DDF JUMP JUMPDEST PUSH1 0x40 MLOAD DUP1 SWAP2 SUB SWAP1 REVERT JUMPDEST DUP2 PUSH1 0x9 PUSH1 0x0 SWAP1 SLOAD SWAP1 PUSH2 0x100 EXP SWAP1 DIV PUSH20 0xFFFFFFFFFFFFFFFFFFFFFFFFFFFFFFFFFFFFFFFF AND PUSH20 0xFFFFFFFFFFFFFFFFFFFFFFFFFFFFFFFFFFFFFFFF AND PUSH32 0x95E1B0070DBCCC052F124FA5143644DCA4CC74C53BF1D0FE68FF7295F61CDC0C PUSH1 0x40 MLOAD PUSH1 0x40 MLOAD DUP1 SWAP2 SUB SWAP1 LOG3 PUSH1 0x1 SWAP3 POP POP POP SWAP1 JUMP JUMPDEST PUSH2 0xFA2 DUP4 DUP4 DUP4 PUSH1 0x40 MLOAD DUP1 PUSH1 0x20 ADD PUSH1 0x40 MSTORE DUP1 PUSH1 0x0 DUP2 MSTORE POP PUSH2 0x14F9 JUMP JUMPDEST POP POP POP JUMP JUMPDEST PUSH1 0x9 PUSH1 0x0 SWAP1 SLOAD SWAP1 PUSH2 0x100 EXP SWAP1 DIV PUSH20 0xFFFFFFFFFFFFFFFFFFFFFFFFFFFFFFFFFFFFFFFF AND PUSH20 0xFFFFFFFFFFFFFFFFFFFFFFFFFFFFFFFFFFFFFFFF AND CALLER PUSH20 0xFFFFFFFFFFFFFFFFFFFFFFFFFFFFFFFFFFFFFFFF AND EQ PUSH2 0x1037 JUMPI PUSH1 0x40 MLOAD PUSH32 0x8C379A000000000000000000000000000000000000000000000000000000000 DUP2 MSTORE PUSH1 0x4 ADD PUSH2 0x102E SWAP1 PUSH2 0x2C9B JUMP JUMPDEST PUSH1 0x40 MLOAD DUP1 SWAP2 SUB SWAP1 REVERT JUMPDEST DUP1 PUSH1 0xA SWAP1 DUP2 PUSH2 0x1046 SWAP2 SWAP1 PUSH2 0x2FAB JUMP JUMPDEST POP POP JUMP JUMPDEST PUSH1 0x0 PUSH2 0x1055 DUP3 PUSH2 0x1923 JUMP JUMPDEST SWAP1 POP SWAP2 SWAP1 POP JUMP JUMPDEST PUSH1 0x0 DUP1 PUSH20 0xFFFFFFFFFFFFFFFFFFFFFFFFFFFFFFFFFFFFFFFF AND DUP3 PUSH20 0xFFFFFFFFFFFFFFFFFFFFFFFFFFFFFFFFFFFFFFFF AND SUB PUSH2 0x10A2 JUMPI PUSH2 0x10A1 PUSH4 0x8F4EB604 PUSH1 0xE0 SHL PUSH2 0x17BD JUMP JUMPDEST JUMPDEST PUSH8 0xFFFFFFFFFFFFFFFF PUSH1 0x5 PUSH1 0x0 DUP5 PUSH20 0xFFFFFFFFFFFFFFFFFFFFFFFFFFFFFFFFFFFFFFFF AND PUSH20 0xFFFFFFFFFFFFFFFFFFFFFFFFFFFFFFFFFFFFFFFF AND DUP2 MSTORE PUSH1 0x20 ADD SWAP1 DUP2 MSTORE PUSH1 0x20 ADD PUSH1 0x0 KECCAK256 SLOAD AND SWAP1 POP SWAP2 SWAP1 POP JUMP JUMPDEST PUSH1 0xB4 DUP2 JUMP JUMPDEST PUSH1 0x9 PUSH1 0x0 SWAP1 SLOAD SWAP1 PUSH2 0x100 EXP SWAP1 DIV PUSH20 0xFFFFFFFFFFFFFFFFFFFFFFFFFFFFFFFFFFFFFFFF AND DUP2 JUMP JUMPDEST PUSH1 0x60 PUSH1 0x3 DUP1 SLOAD PUSH2 0x112D SWAP1 PUSH2 0x29EF JUMP JUMPDEST DUP1 PUSH1 0x1F ADD PUSH1 0x20 DUP1 SWAP2 DIV MUL PUSH1 0x20 ADD PUSH1 0x40 MLOAD SWAP1 DUP2 ADD PUSH1 0x40 MSTORE DUP1 SWAP3 SWAP2 SWAP1 DUP2 DUP2 MSTORE PUSH1 0x20 ADD DUP3 DUP1 SLOAD PUSH2 0x1159 SWAP1 PUSH2 0x29EF JUMP JUMPDEST DUP1 ISZERO PUSH2 0x11A6 JUMPI DUP1 PUSH1 0x1F LT PUSH2 0x117B JUMPI PUSH2 0x100 DUP1 DUP4 SLOAD DIV MUL DUP4 MSTORE SWAP2 PUSH1 0x20 ADD SWAP2 PUSH2 0x11A6 JUMP JUMPDEST DUP3 ADD SWAP2 SWAP1 PUSH1 0x0 MSTORE PUSH1 0x20 PUSH1 0x0 KECCAK256 SWAP1 JUMPDEST DUP2 SLOAD DUP2 MSTORE SWAP1 PUSH1 0x1 ADD SWAP1 PUSH1 0x20 ADD DUP1 DUP4 GT PUSH2 0x1189 JUMPI DUP3 SWAP1 SUB PUSH1 0x1F AND DUP3 ADD SWAP2 JUMPDEST POP POP POP POP POP SWAP1 POP SWAP1 JUMP JUMPDEST PUSH1 0x0 PUSH2 0x3E8 PUSH2 0x11BD PUSH2 0x823 JUMP JUMPDEST DUP4 PUSH2 0x11C8 SWAP2 SWAP1 PUSH2 0x2ABB JUMP JUMPDEST GT ISZERO PUSH2 0x1209 JUMPI PUSH1 0x40 MLOAD PUSH32 0x8C379A000000000000000000000000000000000000000000000000000000000 DUP2 MSTORE PUSH1 0x4 ADD PUSH2 0x1200 SWAP1 PUSH2 0x30C9 JUMP JUMPDEST PUSH1 0x40 MLOAD DUP1 SWAP2 SUB SWAP1 REVERT JUMPDEST PUSH1 0x5 DUP3 GT ISZERO PUSH2 0x124D JUMPI PUSH1 0x40 MLOAD PUSH32 0x8C379A000000000000000000000000000000000000000000000000000000000 DUP2 MSTORE PUSH1 0x4 ADD PUSH2 0x1244 SWAP1 PUSH2 0x3135 JUMP JUMPDEST PUSH1 0x40 MLOAD DUP1 SWAP2 SUB SWAP1 REVERT JUMPDEST PUSH6 0x5AF3107A4000 DUP3 PUSH2 0x125F SWAP2 SWAP1 PUSH2 0x2B5B JUMP JUMPDEST CALLVALUE LT ISZERO PUSH2 0x12A1 JUMPI PUSH1 0x40 MLOAD PUSH32 0x8C379A000000000000000000000000000000000000000000000000000000000 DUP2 MSTORE PUSH1 0x4 ADD PUSH2 0x1298 SWAP1 PUSH2 0x31A1 JUMP JUMPDEST PUSH1 0x40 MLOAD DUP1 SWAP2 SUB SWAP1 REVERT JUMPDEST PUSH1 0xC DUP3 PUSH2 0x12AD CALLER PUSH2 0x105C JUMP JUMPDEST PUSH2 0x12B7 SWAP2 SWAP1 PUSH2 0x2ABB JUMP JUMPDEST GT ISZERO PUSH2 0x12F8 JUMPI PUSH1 0x40 MLOAD PUSH32 0x8C379A000000000000000000000000000000000000000000000000000000000 DUP2 MSTORE PUSH1 0x4 ADD PUSH2 0x12EF SWAP1 PUSH2 0x320D JUMP JUMPDEST PUSH1 0x40 MLOAD DUP1 SWAP2 SUB SWAP1 REVERT JUMPDEST PUSH2 0x1302 CALLER DUP4 PUSH2 0x1C36 JUMP JUMPDEST DUP2 PUSH1 0xB PUSH1 0x0 CALLER PUSH20 0xFFFFFFFFFFFFFFFFFFFFFFFFFFFFFFFFFFFFFFFF AND PUSH20 0xFFFFFFFFFFFFFFFFFFFFFFFFFFFFFFFFFFFFFFFF AND DUP2 MSTORE PUSH1 0x20 ADD SWAP1 DUP2 MSTORE PUSH1 0x20 ADD PUSH1 0x0 KECCAK256 PUSH1 0x0 DUP3 DUP3 SLOAD PUSH2 0x1351 SWAP2 SWAP1 PUSH2 0x2ABB JUMP JUMPDEST SWAP3 POP POP DUP2 SWAP1 SSTORE POP TIMESTAMP PUSH1 0xC PUSH1 0x0 CALLER PUSH20 0xFFFFFFFFFFFFFFFFFFFFFFFFFFFFFFFFFFFFFFFF AND PUSH20 0xFFFFFFFFFFFFFFFFFFFFFFFFFFFFFFFFFFFFFFFF AND DUP2 MSTORE PUSH1 0x20 ADD SWAP1 DUP2 MSTORE PUSH1 0x20 ADD PUSH1 0x0 KECCAK256 DUP2 SWAP1 SSTORE POP DUP2 CALLER PUSH20 0xFFFFFFFFFFFFFFFFFFFFFFFFFFFFFFFFFFFFFFFF AND PUSH32 0xCDA531BFD68624F13205C0A23CD4D5A7F09792CBB399603114F2B04AAA1BF5CF PUSH1 0x40 MLOAD PUSH1 0x40 MLOAD DUP1 SWAP2 SUB SWAP1 LOG3 PUSH1 0x1 SWAP1 POP SWAP2 SWAP1 POP JUMP JUMPDEST DUP1 PUSH1 0x7 PUSH1 0x0 PUSH2 0x13F6 PUSH2 0x1A63 JUMP JUMPDEST PUSH20 0xFFFFFFFFFFFFFFFFFFFFFFFFFFFFFFFFFFFFFFFF AND PUSH20 0xFFFFFFFFFFFFFFFFFFFFFFFFFFFFFFFFFFFFFFFF AND DUP2 MSTORE PUSH1 0x20 ADD SWAP1 DUP2 MSTORE PUSH1 0x20 ADD PUSH1 0x0 KECCAK256 PUSH1 0x0 DUP5 PUSH20 0xFFFFFFFFFFFFFFFFFFFFFFFFFFFFFFFFFFFFFFFF AND PUSH20 0xFFFFFFFFFFFFFFFFFFFFFFFFFFFFFFFFFFFFFFFF AND DUP2 MSTORE PUSH1 0x20 ADD SWAP1 DUP2 MSTORE PUSH1 0x20 ADD PUSH1 0x0 KECCAK256 PUSH1 0x0 PUSH2 0x100 EXP DUP2 SLOAD DUP2 PUSH1 0xFF MUL NOT AND SWAP1 DUP4 ISZERO ISZERO MUL OR SWAP1 SSTORE POP DUP2 PUSH20 0xFFFFFFFFFFFFFFFFFFFFFFFFFFFFFFFFFFFFFFFF AND PUSH2 0x14A3 PUSH2 0x1A63 JUMP JUMPDEST PUSH20 0xFFFFFFFFFFFFFFFFFFFFFFFFFFFFFFFFFFFFFFFF AND PUSH32 0x17307EAB39AB6107E8899845AD3D59BD9653F200F220920489CA2B5937696C31 DUP4 PUSH1 0x40 MLOAD PUSH2 0x14E8 SWAP2 SWAP1 PUSH2 0x23D0 JUMP JUMPDEST PUSH1 0x40 MLOAD DUP1 SWAP2 SUB SWAP1 LOG3 POP POP JUMP JUMPDEST PUSH1 0xC DUP2 JUMP JUMPDEST PUSH2 0x1504 DUP5 DUP5 DUP5 PUSH2 0x870 JUMP JUMPDEST PUSH1 0x0 DUP4 PUSH20 0xFFFFFFFFFFFFFFFFFFFFFFFFFFFFFFFFFFFFFFFF AND EXTCODESIZE EQ PUSH2 0x1545 JUMPI PUSH2 0x152F DUP5 DUP5 DUP5 DUP5 PUSH2 0x1C54 JUMP JUMPDEST PUSH2 0x1544 JUMPI PUSH2 0x1543 PUSH4 0xD1A57ED6 PUSH1 0xE0 SHL PUSH2 0x17BD JUMP JUMPDEST JUMPDEST JUMPDEST POP POP POP POP JUMP JUMPDEST PUSH1 0x60 PUSH2 0x1556 DUP3 PUSH2 0x1711 JUMP JUMPDEST PUSH2 0x156B JUMPI PUSH2 0x156A PUSH4 0xA14C4B50 PUSH1 0xE0 SHL PUSH2 0x17BD JUMP JUMPDEST JUMPDEST PUSH1 0x0 PUSH2 0x1575 PUSH2 0x1D83 JUMP JUMPDEST SWAP1 POP PUSH1 0x0 DUP2 MLOAD SUB PUSH2 0x1595 JUMPI PUSH1 0x40 MLOAD DUP1 PUSH1 0x20 ADD PUSH1 0x40 MSTORE DUP1 PUSH1 0x0 DUP2 MSTORE POP PUSH2 0x15C0 JUMP JUMPDEST DUP1 PUSH2 0x159F DUP5 PUSH2 0x1E15 JUMP JUMPDEST PUSH1 0x40 MLOAD PUSH1 0x20 ADD PUSH2 0x15B0 SWAP3 SWAP2 SWAP1 PUSH2 0x3269 JUMP JUMPDEST PUSH1 0x40 MLOAD PUSH1 0x20 DUP2 DUP4 SUB SUB DUP2 MSTORE SWAP1 PUSH1 0x40 MSTORE JUMPDEST SWAP2 POP POP SWAP2 SWAP1 POP JUMP JUMPDEST PUSH1 0xA DUP1 SLOAD PUSH2 0x15D5 SWAP1 PUSH2 0x29EF JUMP JUMPDEST DUP1 PUSH1 0x1F ADD PUSH1 0x20 DUP1 SWAP2 DIV MUL PUSH1 0x20 ADD PUSH1 0x40 MLOAD SWAP1 DUP2 ADD PUSH1 0x40 MSTORE DUP1 SWAP3 SWAP2 SWAP1 DUP2 DUP2 MSTORE PUSH1 0x20 ADD DUP3 DUP1 SLOAD PUSH2 0x1601 SWAP1 PUSH2 0x29EF JUMP JUMPDEST DUP1 ISZERO PUSH2 0x164E JUMPI DUP1 PUSH1 0x1F LT PUSH2 0x1623 JUMPI PUSH2 0x100 DUP1 DUP4 SLOAD DIV MUL DUP4 MSTORE SWAP2 PUSH1 0x20 ADD SWAP2 PUSH2 0x164E JUMP JUMPDEST DUP3 ADD SWAP2 SWAP1 PUSH1 0x0 MSTORE PUSH1 0x20 PUSH1 0x0 KECCAK256 SWAP1 JUMPDEST DUP2 SLOAD DUP2 MSTORE SWAP1 PUSH1 0x1 ADD SWAP1 PUSH1 0x20 ADD DUP1 DUP4 GT PUSH2 0x1631 JUMPI DUP3 SWAP1 SUB PUSH1 0x1F AND DUP3 ADD SWAP2 JUMPDEST POP POP POP POP POP DUP2 JUMP JUMPDEST PUSH1 0x0 PUSH1 0x7 PUSH1 0x0 DUP5 PUSH20 0xFFFFFFFFFFFFFFFFFFFFFFFFFFFFFFFFFFFFFFFF AND PUSH20 0xFFFFFFFFFFFFFFFFFFFFFFFFFFFFFFFFFFFFFFFF AND DUP2 MSTORE PUSH1 0x20 ADD SWAP1 DUP2 MSTORE PUSH1 0x20 ADD PUSH1 0x0 KECCAK256 PUSH1 0x0 DUP4 PUSH20 0xFFFFFFFFFFFFFFFFFFFFFFFFFFFFFFFFFFFFFFFF AND PUSH20 0xFFFFFFFFFFFFFFFFFFFFFFFFFFFFFFFFFFFFFFFF AND DUP2 MSTORE PUSH1 0x20 ADD SWAP1 DUP2 MSTORE PUSH1 0x20 ADD PUSH1 0x0 KECCAK256 PUSH1 0x0 SWAP1 SLOAD SWAP1 PUSH2 0x100 EXP SWAP1 DIV PUSH1 0xFF AND SWAP1 POP SWAP3 SWAP2 POP POP JUMP JUMPDEST PUSH1 0xB PUSH1 0x20 MSTORE DUP1 PUSH1 0x0 MSTORE PUSH1 0x40 PUSH1 0x0 KECCAK256 PUSH1 0x0 SWAP2 POP SWAP1 POP SLOAD DUP2 JUMP JUMPDEST PUSH1 0x5 DUP2 JUMP JUMPDEST PUSH6 0x5AF3107A4000 DUP2 JUMP JUMPDEST PUSH1 0x0 DUP2 PUSH2 0x171C PUSH2 0x18F6 JUMP JUMPDEST GT PUSH2 0x17B7 JUMPI PUSH2 0x1729 PUSH2 0x18FB JUMP JUMPDEST DUP3 GT ISZERO PUSH2 0x1753 JUMPI PUSH2 0x174C PUSH1 0x4 PUSH1 0x0 DUP5 DUP2 MSTORE PUSH1 0x20 ADD SWAP1 DUP2 MSTORE PUSH1 0x20 ADD PUSH1 0x0 KECCAK256 SLOAD PUSH2 0x1E65 JUMP JUMPDEST SWAP1 POP PUSH2 0x17B8 JUMP JUMPDEST PUSH1 0x0 SLOAD DUP3 LT ISZERO PUSH2 0x17B6 JUMPI PUSH1 0x0 JUMPDEST PUSH1 0x0 PUSH1 0x4 PUSH1 0x0 DUP6 DUP2 MSTORE PUSH1 0x20 ADD SWAP1 DUP2 MSTORE PUSH1 0x20 ADD PUSH1 0x0 KECCAK256 SLOAD SWAP2 POP DUP2 SUB PUSH2 0x178F JUMPI DUP3 PUSH2 0x1788 SWAP1 PUSH2 0x328D JUMP JUMPDEST SWAP3 POP PUSH2 0x1760 JUMP JUMPDEST PUSH1 0x0 PUSH29 0x100000000000000000000000000000000000000000000000000000000 DUP3 AND EQ SWAP2 POP POP JUMPDEST JUMPDEST JUMPDEST SWAP2 SWAP1 POP JUMP JUMPDEST DUP1 PUSH1 0x0 MSTORE PUSH1 0x4 PUSH1 0x0 REVERT JUMPDEST PUSH1 0x0 PUSH2 0x17D2 DUP4 PUSH2 0x104A JUMP JUMPDEST SWAP1 POP DUP2 DUP1 ISZERO PUSH2 0x1814 JUMPI POP DUP1 PUSH20 0xFFFFFFFFFFFFFFFFFFFFFFFFFFFFFFFFFFFFFFFF AND PUSH2 0x17FB PUSH2 0x1A63 JUMP JUMPDEST PUSH20 0xFFFFFFFFFFFFFFFFFFFFFFFFFFFFFFFFFFFFFFFF AND EQ ISZERO JUMPDEST ISZERO PUSH2 0x1840 JUMPI PUSH2 0x182A DUP2 PUSH2 0x1825 PUSH2 0x1A63 JUMP JUMPDEST PUSH2 0x1656 JUMP JUMPDEST PUSH2 0x183F JUMPI PUSH2 0x183E PUSH4 0xCFB3B942 PUSH1 0xE0 SHL PUSH2 0x17BD JUMP JUMPDEST JUMPDEST JUMPDEST DUP4 PUSH1 0x6 PUSH1 0x0 DUP6 DUP2 MSTORE PUSH1 0x20 ADD SWAP1 DUP2 MSTORE PUSH1 0x20 ADD PUSH1 0x0 KECCAK256 PUSH1 0x0 ADD PUSH1 0x0 PUSH2 0x100 EXP DUP2 SLOAD DUP2 PUSH20 0xFFFFFFFFFFFFFFFFFFFFFFFFFFFFFFFFFFFFFFFF MUL NOT AND SWAP1 DUP4 PUSH20 0xFFFFFFFFFFFFFFFFFFFFFFFFFFFFFFFFFFFFFFFF AND MUL OR SWAP1 SSTORE POP DUP3 DUP5 PUSH20 0xFFFFFFFFFFFFFFFFFFFFFFFFFFFFFFFFFFFFFFFF AND DUP3 PUSH20 0xFFFFFFFFFFFFFFFFFFFFFFFFFFFFFFFFFFFFFFFF AND PUSH32 0x8C5BE1E5EBEC7D5BD14F71427D1E84F3DD0314C0F7B2291E5B200AC8C7C3B925 PUSH1 0x40 MLOAD PUSH1 0x40 MLOAD DUP1 SWAP2 SUB SWAP1 LOG4 POP POP POP POP JUMP JUMPDEST PUSH1 0x0 SWAP1 JUMP JUMPDEST PUSH1 0x0 PUSH32 0xFFFFFFFFFFFFFFFFFFFFFFFFFFFFFFFFFFFFFFFFFFFFFFFFFFFFFFFFFFFFFFFF SWAP1 POP SWAP1 JUMP JUMPDEST PUSH1 0x0 DUP2 PUSH2 0x192E PUSH2 0x18F6 JUMP JUMPDEST GT PUSH2 0x1A26 JUMPI PUSH1 0x4 PUSH1 0x0 DUP4 DUP2 MSTORE PUSH1 0x20 ADD SWAP1 DUP2 MSTORE PUSH1 0x20 ADD PUSH1 0x0 KECCAK256 SLOAD SWAP1 POP PUSH2 0x1951 PUSH2 0x18FB JUMP JUMPDEST DUP3 GT ISZERO PUSH2 0x1976 JUMPI PUSH2 0x1961 DUP2 PUSH2 0x1E65 JUMP JUMPDEST PUSH2 0x1A37 JUMPI PUSH2 0x1975 PUSH4 0xDF2D9B42 PUSH1 0xE0 SHL PUSH2 0x17BD JUMP JUMPDEST JUMPDEST PUSH1 0x0 DUP2 SUB PUSH2 0x19FD JUMPI PUSH1 0x0 SLOAD DUP3 LT PUSH2 0x1998 JUMPI PUSH2 0x1997 PUSH4 0xDF2D9B42 PUSH1 0xE0 SHL PUSH2 0x17BD JUMP JUMPDEST JUMPDEST JUMPDEST PUSH1 0x4 PUSH1 0x0 DUP4 PUSH1 0x1 SWAP1 SUB SWAP4 POP DUP4 DUP2 MSTORE PUSH1 0x20 ADD SWAP1 DUP2 MSTORE PUSH1 0x20 ADD PUSH1 0x0 KECCAK256 SLOAD SWAP1 POP PUSH1 0x0 DUP2 SUB ISZERO PUSH2 0x19F8 JUMPI PUSH1 0x0 PUSH29 0x100000000000000000000000000000000000000000000000000000000 DUP3 AND SUB ISZERO PUSH2 0x1A37 JUMPI PUSH2 0x19F7 PUSH4 0xDF2D9B42 PUSH1 0xE0 SHL PUSH2 0x17BD JUMP JUMPDEST JUMPDEST PUSH2 0x1999 JUMP JUMPDEST PUSH1 0x0 PUSH29 0x100000000000000000000000000000000000000000000000000000000 DUP3 AND SUB ISZERO PUSH2 0x1A37 JUMPI JUMPDEST PUSH2 0x1A36 PUSH4 0xDF2D9B42 PUSH1 0xE0 SHL PUSH2 0x17BD JUMP JUMPDEST JUMPDEST SWAP2 SWAP1 POP JUMP JUMPDEST PUSH1 0x0 DUP1 PUSH1 0x0 PUSH1 0x6 PUSH1 0x0 DUP6 DUP2 MSTORE PUSH1 0x20 ADD SWAP1 DUP2 MSTORE PUSH1 0x20 ADD PUSH1 0x0 KECCAK256 SWAP1 POP DUP1 SWAP3 POP DUP3 SLOAD SWAP2 POP POP SWAP2 POP SWAP2 JUMP JUMPDEST PUSH1 0x0 CALLER SWAP1 POP SWAP1 JUMP JUMPDEST PUSH1 0x0 DUP4 DUP3 EQ DUP4 DUP4 EQ OR SWAP1 POP SWAP4 SWAP3 POP POP POP JUMP JUMPDEST POP POP POP POP JUMP JUMPDEST PUSH1 0x0 DUP1 PUSH1 0xE8 DUP4 SWAP1 SHR SWAP1 POP PUSH1 0xE8 PUSH2 0x1A9A DUP7 DUP7 DUP5 PUSH2 0x1EA6 JUMP JUMPDEST PUSH3 0xFFFFFF AND SWAP1 SHL SWAP2 POP POP SWAP4 SWAP3 POP POP POP JUMP JUMPDEST PUSH1 0x0 PUSH20 0xFFFFFFFFFFFFFFFFFFFFFFFFFFFFFFFFFFFFFFFF DUP4 AND SWAP3 POP DUP2 TIMESTAMP PUSH1 0xA0 SHL OR DUP4 OR SWAP1 POP SWAP3 SWAP2 POP POP JUMP JUMPDEST POP POP POP POP JUMP JUMPDEST PUSH1 0x0 DUP1 PUSH2 0x1AE7 PUSH2 0x18F6 JUMP JUMPDEST SWAP1 POP JUMPDEST DUP3 DUP3 LT DUP1 ISZERO PUSH2 0x1AFF JUMPI POP PUSH2 0x1AFC PUSH2 0x823 JUMP JUMPDEST DUP2 LT JUMPDEST ISZERO PUSH2 0x1B6A JUMPI DUP4 PUSH20 0xFFFFFFFFFFFFFFFFFFFFFFFFFFFFFFFFFFFFFFFF AND PUSH2 0x1B24 DUP3 PUSH2 0x104A JUMP JUMPDEST PUSH20 0xFFFFFFFFFFFFFFFFFFFFFFFFFFFFFFFFFFFFFFFF AND SUB PUSH2 0x1B57 JUMPI PUSH2 0x1B48 DUP2 PUSH2 0x1EAF JUMP JUMPDEST DUP2 DUP1 PUSH2 0x1B53 SWAP1 PUSH2 0x32B6 JUMP JUMPDEST SWAP3 POP POP JUMPDEST DUP1 DUP1 PUSH2 0x1B62 SWAP1 PUSH2 0x32B6 JUMP JUMPDEST SWAP2 POP POP PUSH2 0x1AEA JUMP JUMPDEST POP POP POP POP JUMP JUMPDEST PUSH1 0x0 DUP1 PUSH1 0x0 SWAP1 POP PUSH1 0x0 JUMPDEST PUSH2 0x1B82 PUSH2 0x823 JUMP JUMPDEST DUP2 LT ISZERO PUSH2 0x1C2E JUMPI PUSH1 0x0 PUSH2 0x1B94 DUP3 PUSH2 0x104A JUMP JUMPDEST SWAP1 POP DUP3 PUSH1 0xC PUSH1 0x0 DUP4 PUSH20 0xFFFFFFFFFFFFFFFFFFFFFFFFFFFFFFFFFFFFFFFF AND PUSH20 0xFFFFFFFFFFFFFFFFFFFFFFFFFFFFFFFFFFFFFFFF AND DUP2 MSTORE PUSH1 0x20 ADD SWAP1 DUP2 MSTORE PUSH1 0x20 ADD PUSH1 0x0 KECCAK256 SLOAD GT ISZERO PUSH2 0x1C20 JUMPI PUSH1 0xC PUSH1 0x0 DUP3 PUSH20 0xFFFFFFFFFFFFFFFFFFFFFFFFFFFFFFFFFFFFFFFF AND PUSH20 0xFFFFFFFFFFFFFFFFFFFFFFFFFFFFFFFFFFFFFFFF AND DUP2 MSTORE PUSH1 0x20 ADD SWAP1 DUP2 MSTORE PUSH1 0x20 ADD PUSH1 0x0 KECCAK256 SLOAD SWAP3 POP JUMPDEST POP DUP1 DUP1 PUSH1 0x1 ADD SWAP2 POP POP PUSH2 0x1B7A JUMP JUMPDEST POP DUP1 SWAP2 POP POP SWAP1 JUMP JUMPDEST PUSH2 0x1C50 DUP3 DUP3 PUSH1 0x40 MLOAD DUP1 PUSH1 0x20 ADD PUSH1 0x40 MSTORE DUP1 PUSH1 0x0 DUP2 MSTORE POP PUSH2 0x1EBD JUMP JUMPDEST POP POP JUMP JUMPDEST PUSH1 0x0 DUP4 PUSH20 0xFFFFFFFFFFFFFFFFFFFFFFFFFFFFFFFFFFFFFFFF AND PUSH4 0x150B7A02 PUSH2 0x1C7A PUSH2 0x1A63 JUMP JUMPDEST DUP8 DUP7 DUP7 PUSH1 0x40 MLOAD DUP6 PUSH4 0xFFFFFFFF AND PUSH1 0xE0 SHL DUP2 MSTORE PUSH1 0x4 ADD PUSH2 0x1C9C SWAP5 SWAP4 SWAP3 SWAP2 SWAP1 PUSH2 0x3353 JUMP JUMPDEST PUSH1 0x20 PUSH1 0x40 MLOAD DUP1 DUP4 SUB DUP2 PUSH1 0x0 DUP8 GAS CALL SWAP3 POP POP POP DUP1 ISZERO PUSH2 0x1CD8 JUMPI POP PUSH1 0x40 MLOAD RETURNDATASIZE PUSH1 0x1F NOT PUSH1 0x1F DUP3 ADD AND DUP3 ADD DUP1 PUSH1 0x40 MSTORE POP DUP2 ADD SWAP1 PUSH2 0x1CD5 SWAP2 SWAP1 PUSH2 0x33B4 JUMP JUMPDEST PUSH1 0x1 JUMPDEST PUSH2 0x1D30 JUMPI RETURNDATASIZE DUP1 PUSH1 0x0 DUP2 EQ PUSH2 0x1D08 JUMPI PUSH1 0x40 MLOAD SWAP2 POP PUSH1 0x1F NOT PUSH1 0x3F RETURNDATASIZE ADD AND DUP3 ADD PUSH1 0x40 MSTORE RETURNDATASIZE DUP3 MSTORE RETURNDATASIZE PUSH1 0x0 PUSH1 0x20 DUP5 ADD RETURNDATACOPY PUSH2 0x1D0D JUMP JUMPDEST PUSH1 0x60 SWAP2 POP JUMPDEST POP PUSH1 0x0 DUP2 MLOAD SUB PUSH2 0x1D28 JUMPI PUSH2 0x1D27 PUSH4 0xD1A57ED6 PUSH1 0xE0 SHL PUSH2 0x17BD JUMP JUMPDEST JUMPDEST DUP1 MLOAD DUP2 PUSH1 0x20 ADD REVERT JUMPDEST PUSH4 0x150B7A02 PUSH1 0xE0 SHL PUSH28 0xFFFFFFFFFFFFFFFFFFFFFFFFFFFFFFFFFFFFFFFFFFFFFFFFFFFFFFFF NOT AND DUP2 PUSH28 0xFFFFFFFFFFFFFFFFFFFFFFFFFFFFFFFFFFFFFFFFFFFFFFFFFFFFFFFF NOT AND EQ SWAP2 POP POP SWAP5 SWAP4 POP POP POP POP JUMP JUMPDEST PUSH1 0x60 PUSH1 0xA DUP1 SLOAD PUSH2 0x1D92 SWAP1 PUSH2 0x29EF JUMP JUMPDEST DUP1 PUSH1 0x1F ADD PUSH1 0x20 DUP1 SWAP2 DIV MUL PUSH1 0x20 ADD PUSH1 0x40 MLOAD SWAP1 DUP2 ADD PUSH1 0x40 MSTORE DUP1 SWAP3 SWAP2 SWAP1 DUP2 DUP2 MSTORE PUSH1 0x20 ADD DUP3 DUP1 SLOAD PUSH2 0x1DBE SWAP1 PUSH2 0x29EF JUMP JUMPDEST DUP1 ISZERO PUSH2 0x1E0B JUMPI DUP1 PUSH1 0x1F LT PUSH2 0x1DE0 JUMPI PUSH2 0x100 DUP1 DUP4 SLOAD DIV MUL DUP4 MSTORE SWAP2 PUSH1 0x20 ADD SWAP2 PUSH2 0x1E0B JUMP JUMPDEST DUP3 ADD SWAP2 SWAP1 PUSH1 0x0 MSTORE PUSH1 0x20 PUSH1 0x0 KECCAK256 SWAP1 JUMPDEST DUP2 SLOAD DUP2 MSTORE SWAP1 PUSH1 0x1 ADD SWAP1 PUSH1 0x20 ADD DUP1 DUP4 GT PUSH2 0x1DEE JUMPI DUP3 SWAP1 SUB PUSH1 0x1F AND DUP3 ADD SWAP2 JUMPDEST POP POP POP POP POP SWAP1 POP SWAP1 JUMP JUMPDEST PUSH1 0x60 PUSH1 0xA0 PUSH1 0x40 MLOAD ADD DUP1 PUSH1 0x40 MSTORE PUSH1 0x20 DUP2 SUB SWAP2 POP PUSH1 0x0 DUP3 MSTORE DUP2 DUP4 JUMPDEST PUSH1 0x1 ISZERO PUSH2 0x1E50 JUMPI PUSH1 0x1 DUP5 SUB SWAP4 POP PUSH1 0xA DUP2 MOD PUSH1 0x30 ADD DUP5 MSTORE8 PUSH1 0xA DUP2 DIV SWAP1 POP DUP1 PUSH2 0x1E2E JUMPI JUMPDEST POP DUP3 DUP2 SUB PUSH1 0x20 DUP5 SUB SWAP4 POP DUP1 DUP5 MSTORE POP POP POP SWAP2 SWAP1 POP JUMP JUMPDEST PUSH1 0x0 PUSH29 0x100000000000000000000000000000000000000000000000000000000 DUP3 AND PUSH20 0xFFFFFFFFFFFFFFFFFFFFFFFFFFFFFFFFFFFFFFFF DUP4 AND GT SWAP1 POP SWAP2 SWAP1 POP JUMP JUMPDEST PUSH1 0x0 SWAP4 SWAP3 POP POP POP JUMP JUMPDEST PUSH2 0x1EBA DUP2 PUSH1 0x0 PUSH2 0x1F39 JUMP JUMPDEST POP JUMP JUMPDEST PUSH2 0x1EC7 DUP4 DUP4 PUSH2 0x219C JUMP JUMPDEST PUSH1 0x0 DUP4 PUSH20 0xFFFFFFFFFFFFFFFFFFFFFFFFFFFFFFFFFFFFFFFF AND EXTCODESIZE EQ PUSH2 0x1F34 JUMPI PUSH1 0x0 DUP1 SLOAD SWAP1 POP PUSH1 0x0 DUP4 DUP3 SUB SWAP1 POP JUMPDEST PUSH2 0x1F07 PUSH1 0x0 DUP7 DUP4 DUP1 PUSH1 0x1 ADD SWAP5 POP DUP7 PUSH2 0x1C54 JUMP JUMPDEST PUSH2 0x1F1C JUMPI PUSH2 0x1F1B PUSH4 0xD1A57ED6 PUSH1 0xE0 SHL PUSH2 0x17BD JUMP JUMPDEST JUMPDEST DUP2 DUP2 LT PUSH2 0x1EF4 JUMPI DUP2 PUSH1 0x0 SLOAD EQ PUSH2 0x1F31 JUMPI PUSH1 0x0 DUP1 REVERT JUMPDEST POP POP JUMPDEST POP POP POP JUMP JUMPDEST PUSH1 0x0 PUSH2 0x1F44 DUP4 PUSH2 0x1923 JUMP JUMPDEST SWAP1 POP PUSH1 0x0 DUP2 PUSH20 0xFFFFFFFFFFFFFFFFFFFFFFFFFFFFFFFFFFFFFFFF AND SWAP1 POP PUSH1 0x0 DUP2 SWAP1 POP PUSH1 0x0 DUP1 PUSH2 0x1F72 DUP8 PUSH2 0x1A3C JUMP JUMPDEST SWAP2 POP SWAP2 POP DUP6 ISZERO PUSH2 0x1FD0 JUMPI PUSH2 0x1FA4 DUP2 DUP6 PUSH2 0x1F89 PUSH2 0x1A63 JUMP JUMPDEST PUSH20 0xFFFFFFFFFFFFFFFFFFFFFFFFFFFFFFFFFFFFFFFF AND PUSH2 0x1A6B JUMP JUMPDEST PUSH2 0x1FCF JUMPI PUSH2 0x1FB9 DUP4 PUSH2 0x1FB4 PUSH2 0x1A63 JUMP JUMPDEST PUSH2 0x1656 JUMP JUMPDEST PUSH2 0x1FCE JUMPI PUSH2 0x1FCD PUSH4 0x59C896BE PUSH1 0xE0 SHL PUSH2 0x17BD JUMP JUMPDEST JUMPDEST JUMPDEST JUMPDEST PUSH2 0x1FDE DUP4 PUSH1 0x0 DUP10 PUSH1 0x1 PUSH2 0x1A7D JUMP JUMPDEST DUP1 ISZERO PUSH2 0x1FE9 JUMPI PUSH1 0x0 DUP3 SSTORE JUMPDEST PUSH1 0x1 PUSH1 0x80 PUSH1 0x1 SWAP1 SHL SUB PUSH1 0x5 PUSH1 0x0 DUP6 PUSH20 0xFFFFFFFFFFFFFFFFFFFFFFFFFFFFFFFFFFFFFFFF AND PUSH20 0xFFFFFFFFFFFFFFFFFFFFFFFFFFFFFFFFFFFFFFFF AND DUP2 MSTORE PUSH1 0x20 ADD SWAP1 DUP2 MSTORE PUSH1 0x20 ADD PUSH1 0x0 KECCAK256 PUSH1 0x0 DUP3 DUP3 SLOAD ADD SWAP3 POP POP DUP2 SWAP1 SSTORE POP PUSH2 0x2091 DUP4 PUSH2 0x204E DUP6 PUSH1 0x0 DUP10 PUSH2 0x1A83 JUMP JUMPDEST PUSH29 0x200000000000000000000000000000000000000000000000000000000 PUSH29 0x100000000000000000000000000000000000000000000000000000000 OR OR PUSH2 0x1AAB JUMP JUMPDEST PUSH1 0x4 PUSH1 0x0 DUP10 DUP2 MSTORE PUSH1 0x20 ADD SWAP1 DUP2 MSTORE PUSH1 0x20 ADD PUSH1 0x0 KECCAK256 DUP2 SWAP1 SSTORE POP PUSH1 0x0 PUSH29 0x200000000000000000000000000000000000000000000000000000000 DUP7 AND SUB PUSH2 0x2117 JUMPI PUSH1 0x0 PUSH1 0x1 DUP9 ADD SWAP1 POP PUSH1 0x0 PUSH1 0x4 PUSH1 0x0 DUP4 DUP2 MSTORE PUSH1 0x20 ADD SWAP1 DUP2 MSTORE PUSH1 0x20 ADD PUSH1 0x0 KECCAK256 SLOAD SUB PUSH2 0x2115 JUMPI PUSH1 0x0 SLOAD DUP2 EQ PUSH2 0x2114 JUMPI DUP6 PUSH1 0x4 PUSH1 0x0 DUP4 DUP2 MSTORE PUSH1 0x20 ADD SWAP1 DUP2 MSTORE PUSH1 0x20 ADD PUSH1 0x0 KECCAK256 DUP2 SWAP1 SSTORE POP JUMPDEST JUMPDEST POP JUMPDEST DUP7 PUSH1 0x0 PUSH20 0xFFFFFFFFFFFFFFFFFFFFFFFFFFFFFFFFFFFFFFFF AND DUP5 PUSH20 0xFFFFFFFFFFFFFFFFFFFFFFFFFFFFFFFFFFFFFFFF AND PUSH32 0xDDF252AD1BE2C89B69C2B068FC378DAA952BA7F163C4A11628F55A4DF523B3EF PUSH1 0x40 MLOAD PUSH1 0x40 MLOAD DUP1 SWAP2 SUB SWAP1 LOG4 PUSH2 0x2181 DUP4 PUSH1 0x0 DUP10 PUSH1 0x1 PUSH2 0x1AD6 JUMP JUMPDEST PUSH1 0x1 PUSH1 0x0 DUP2 SLOAD DUP1 SWAP3 SWAP2 SWAP1 PUSH1 0x1 ADD SWAP2 SWAP1 POP SSTORE POP POP POP POP POP POP POP POP JUMP JUMPDEST PUSH1 0x0 DUP1 SLOAD SWAP1 POP PUSH1 0x0 DUP3 SUB PUSH2 0x21BB JUMPI PUSH2 0x21BA PUSH4 0xB562E8DD PUSH1 0xE0 SHL PUSH2 0x17BD JUMP JUMPDEST JUMPDEST PUSH2 0x21C8 PUSH1 0x0 DUP5 DUP4 DUP6 PUSH2 0x1A7D JUMP JUMPDEST PUSH2 0x21E8 DUP4 PUSH2 0x21D9 PUSH1 0x0 DUP7 PUSH1 0x0 PUSH2 0x1A83 JUMP JUMPDEST PUSH2 0x21E2 DUP6 PUSH2 0x230C JUMP JUMPDEST OR PUSH2 0x1AAB JUMP JUMPDEST PUSH1 0x4 PUSH1 0x0 DUP4 DUP2 MSTORE PUSH1 0x20 ADD SWAP1 DUP2 MSTORE PUSH1 0x20 ADD PUSH1 0x0 KECCAK256 DUP2 SWAP1 SSTORE POP PUSH1 0x1 PUSH1 0x40 PUSH1 0x1 SWAP1 SHL OR DUP3 MUL PUSH1 0x5 PUSH1 0x0 DUP6 PUSH20 0xFFFFFFFFFFFFFFFFFFFFFFFFFFFFFFFFFFFFFFFF AND PUSH20 0xFFFFFFFFFFFFFFFFFFFFFFFFFFFFFFFFFFFFFFFF AND DUP2 MSTORE PUSH1 0x20 ADD SWAP1 DUP2 MSTORE PUSH1 0x20 ADD PUSH1 0x0 KECCAK256 PUSH1 0x0 DUP3 DUP3 SLOAD ADD SWAP3 POP POP DUP2 SWAP1 SSTORE POP PUSH1 0x0 DUP4 PUSH20 0xFFFFFFFFFFFFFFFFFFFFFFFFFFFFFFFFFFFFFFFF AND SWAP1 POP PUSH1 0x0 DUP2 SUB PUSH2 0x228A JUMPI PUSH2 0x2289 PUSH4 0x2E076300 PUSH1 0xE0 SHL PUSH2 0x17BD JUMP JUMPDEST JUMPDEST PUSH1 0x0 DUP4 DUP4 ADD SWAP1 POP PUSH1 0x0 DUP4 SWAP1 POP PUSH2 0x229E PUSH2 0x18FB JUMP JUMPDEST PUSH1 0x1 DUP4 SUB GT ISZERO PUSH2 0x22B9 JUMPI PUSH2 0x22B8 PUSH4 0x81647E3A PUSH1 0xE0 SHL PUSH2 0x17BD JUMP JUMPDEST JUMPDEST JUMPDEST DUP1 DUP4 PUSH1 0x0 PUSH32 0xDDF252AD1BE2C89B69C2B068FC378DAA952BA7F163C4A11628F55A4DF523B3EF PUSH1 0x0 DUP1 LOG4 DUP2 DUP2 PUSH1 0x1 ADD SWAP2 POP DUP2 SUB PUSH2 0x22BA JUMPI DUP2 PUSH1 0x0 DUP2 SWAP1 SSTORE POP POP POP POP PUSH2 0x2307 PUSH1 0x0 DUP5 DUP4 DUP6 PUSH2 0x1AD6 JUMP JUMPDEST POP POP POP JUMP JUMPDEST PUSH1 0x0 PUSH1 0x1 DUP3 EQ PUSH1 0xE1 SHL SWAP1 POP SWAP2 SWAP1 POP JUMP JUMPDEST PUSH1 0x0 PUSH1 0x40 MLOAD SWAP1 POP SWAP1 JUMP JUMPDEST PUSH1 0x0 DUP1 REVERT JUMPDEST PUSH1 0x0 DUP1 REVERT JUMPDEST PUSH1 0x0 PUSH32 0xFFFFFFFF00000000000000000000000000000000000000000000000000000000 DUP3 AND SWAP1 POP SWAP2 SWAP1 POP JUMP JUMPDEST PUSH2 0x2365 DUP2 PUSH2 0x2330 JUMP JUMPDEST DUP2 EQ PUSH2 0x2370 JUMPI PUSH1 0x0 DUP1 REVERT JUMPDEST POP JUMP JUMPDEST PUSH1 0x0 DUP2 CALLDATALOAD SWAP1 POP PUSH2 0x2382 DUP2 PUSH2 0x235C JUMP JUMPDEST SWAP3 SWAP2 POP POP JUMP JUMPDEST PUSH1 0x0 PUSH1 0x20 DUP3 DUP5 SUB SLT ISZERO PUSH2 0x239E JUMPI PUSH2 0x239D PUSH2 0x2326 JUMP JUMPDEST JUMPDEST PUSH1 0x0 PUSH2 0x23AC DUP5 DUP3 DUP6 ADD PUSH2 0x2373 JUMP JUMPDEST SWAP2 POP POP SWAP3 SWAP2 POP POP JUMP JUMPDEST PUSH1 0x0 DUP2 ISZERO ISZERO SWAP1 POP SWAP2 SWAP1 POP JUMP JUMPDEST PUSH2 0x23CA DUP2 PUSH2 0x23B5 JUMP JUMPDEST DUP3 MSTORE POP POP JUMP JUMPDEST PUSH1 0x0 PUSH1 0x20 DUP3 ADD SWAP1 POP PUSH2 0x23E5 PUSH1 0x0 DUP4 ADD DUP5 PUSH2 0x23C1 JUMP JUMPDEST SWAP3 SWAP2 POP POP JUMP JUMPDEST PUSH1 0x0 DUP2 MLOAD SWAP1 POP SWAP2 SWAP1 POP JUMP JUMPDEST PUSH1 0x0 DUP3 DUP3 MSTORE PUSH1 0x20 DUP3 ADD SWAP1 POP SWAP3 SWAP2 POP POP JUMP JUMPDEST PUSH1 0x0 JUMPDEST DUP4 DUP2 LT ISZERO PUSH2 0x2425 JUMPI DUP1 DUP3 ADD MLOAD DUP2 DUP5 ADD MSTORE PUSH1 0x20 DUP2 ADD SWAP1 POP PUSH2 0x240A JUMP JUMPDEST PUSH1 0x0 DUP5 DUP5 ADD MSTORE POP POP POP POP JUMP JUMPDEST PUSH1 0x0 PUSH1 0x1F NOT PUSH1 0x1F DUP4 ADD AND SWAP1 POP SWAP2 SWAP1 POP JUMP JUMPDEST PUSH1 0x0 PUSH2 0x244D DUP3 PUSH2 0x23EB JUMP JUMPDEST PUSH2 0x2457 DUP2 DUP6 PUSH2 0x23F6 JUMP JUMPDEST SWAP4 POP PUSH2 0x2467 DUP2 DUP6 PUSH1 0x20 DUP7 ADD PUSH2 0x2407 JUMP JUMPDEST PUSH2 0x2470 DUP2 PUSH2 0x2431 JUMP JUMPDEST DUP5 ADD SWAP2 POP POP SWAP3 SWAP2 POP POP JUMP JUMPDEST PUSH1 0x0 PUSH1 0x20 DUP3 ADD SWAP1 POP DUP2 DUP2 SUB PUSH1 0x0 DUP4 ADD MSTORE PUSH2 0x2495 DUP2 DUP5 PUSH2 0x2442 JUMP JUMPDEST SWAP1 POP SWAP3 SWAP2 POP POP JUMP JUMPDEST PUSH1 0x0 DUP2 SWAP1 POP SWAP2 SWAP1 POP JUMP JUMPDEST PUSH2 0x24B0 DUP2 PUSH2 0x249D JUMP JUMPDEST DUP2 EQ PUSH2 0x24BB JUMPI PUSH1 0x0 DUP1 REVERT JUMPDEST POP JUMP JUMPDEST PUSH1 0x0 DUP2 CALLDATALOAD SWAP1 POP PUSH2 0x24CD DUP2 PUSH2 0x24A7 JUMP JUMPDEST SWAP3 SWAP2 POP POP JUMP JUMPDEST PUSH1 0x0 PUSH1 0x20 DUP3 DUP5 SUB SLT ISZERO PUSH2 0x24E9 JUMPI PUSH2 0x24E8 PUSH2 0x2326 JUMP JUMPDEST JUMPDEST PUSH1 0x0 PUSH2 0x24F7 DUP5 DUP3 DUP6 ADD PUSH2 0x24BE JUMP JUMPDEST SWAP2 POP POP SWAP3 SWAP2 POP POP JUMP JUMPDEST PUSH1 0x0 PUSH20 0xFFFFFFFFFFFFFFFFFFFFFFFFFFFFFFFFFFFFFFFF DUP3 AND SWAP1 POP SWAP2 SWAP1 POP JUMP JUMPDEST PUSH1 0x0 PUSH2 0x252B DUP3 PUSH2 0x2500 JUMP JUMPDEST SWAP1 POP SWAP2 SWAP1 POP JUMP JUMPDEST PUSH2 0x253B DUP2 PUSH2 0x2520 JUMP JUMPDEST DUP3 MSTORE POP POP JUMP JUMPDEST PUSH1 0x0 PUSH1 0x20 DUP3 ADD SWAP1 POP PUSH2 0x2556 PUSH1 0x0 DUP4 ADD DUP5 PUSH2 0x2532 JUMP JUMPDEST SWAP3 SWAP2 POP POP JUMP JUMPDEST PUSH2 0x2565 DUP2 PUSH2 0x2520 JUMP JUMPDEST DUP2 EQ PUSH2 0x2570 JUMPI PUSH1 0x0 DUP1 REVERT JUMPDEST POP JUMP JUMPDEST PUSH1 0x0 DUP2 CALLDATALOAD SWAP1 POP PUSH2 0x2582 DUP2 PUSH2 0x255C JUMP JUMPDEST SWAP3 SWAP2 POP POP JUMP JUMPDEST PUSH1 0x0 DUP1 PUSH1 0x40 DUP4 DUP6 SUB SLT ISZERO PUSH2 0x259F JUMPI PUSH2 0x259E PUSH2 0x2326 JUMP JUMPDEST JUMPDEST PUSH1 0x0 PUSH2 0x25AD DUP6 DUP3 DUP7 ADD PUSH2 0x2573 JUMP JUMPDEST SWAP3 POP POP PUSH1 0x20 PUSH2 0x25BE DUP6 DUP3 DUP7 ADD PUSH2 0x24BE JUMP JUMPDEST SWAP2 POP POP SWAP3 POP SWAP3 SWAP1 POP JUMP JUMPDEST PUSH2 0x25D1 DUP2 PUSH2 0x249D JUMP JUMPDEST DUP3 MSTORE POP POP JUMP JUMPDEST PUSH1 0x0 PUSH1 0x20 DUP3 ADD SWAP1 POP PUSH2 0x25EC PUSH1 0x0 DUP4 ADD DUP5 PUSH2 0x25C8 JUMP JUMPDEST SWAP3 SWAP2 POP POP JUMP JUMPDEST PUSH1 0x0 DUP1 PUSH1 0x0 PUSH1 0x60 DUP5 DUP7 SUB SLT ISZERO PUSH2 0x260B JUMPI PUSH2 0x260A PUSH2 0x2326 JUMP JUMPDEST JUMPDEST PUSH1 0x0 PUSH2 0x2619 DUP7 DUP3 DUP8 ADD PUSH2 0x2573 JUMP JUMPDEST SWAP4 POP POP PUSH1 0x20 PUSH2 0x262A DUP7 DUP3 DUP8 ADD PUSH2 0x2573 JUMP JUMPDEST SWAP3 POP POP PUSH1 0x40 PUSH2 0x263B DUP7 DUP3 DUP8 ADD PUSH2 0x24BE JUMP JUMPDEST SWAP2 POP POP SWAP3 POP SWAP3 POP SWAP3 JUMP JUMPDEST PUSH1 0x0 PUSH1 0x20 DUP3 DUP5 SUB SLT ISZERO PUSH2 0x265B JUMPI PUSH2 0x265A PUSH2 0x2326 JUMP JUMPDEST JUMPDEST PUSH1 0x0 PUSH2 0x2669 DUP5 DUP3 DUP6 ADD PUSH2 0x2573 JUMP JUMPDEST SWAP2 POP POP SWAP3 SWAP2 POP POP JUMP JUMPDEST PUSH1 0x0 DUP1 REVERT JUMPDEST PUSH1 0x0 DUP1 REVERT JUMPDEST PUSH32 0x4E487B7100000000000000000000000000000000000000000000000000000000 PUSH1 0x0 MSTORE PUSH1 0x41 PUSH1 0x4 MSTORE PUSH1 0x24 PUSH1 0x0 REVERT JUMPDEST PUSH2 0x26B4 DUP3 PUSH2 0x2431 JUMP JUMPDEST DUP2 ADD DUP2 DUP2 LT PUSH8 0xFFFFFFFFFFFFFFFF DUP3 GT OR ISZERO PUSH2 0x26D3 JUMPI PUSH2 0x26D2 PUSH2 0x267C JUMP JUMPDEST JUMPDEST DUP1 PUSH1 0x40 MSTORE POP POP POP JUMP JUMPDEST PUSH1 0x0 PUSH2 0x26E6 PUSH2 0x231C JUMP JUMPDEST SWAP1 POP PUSH2 0x26F2 DUP3 DUP3 PUSH2 0x26AB JUMP JUMPDEST SWAP2 SWAP1 POP JUMP JUMPDEST PUSH1 0x0 PUSH8 0xFFFFFFFFFFFFFFFF DUP3 GT ISZERO PUSH2 0x2712 JUMPI PUSH2 0x2711 PUSH2 0x267C JUMP JUMPDEST JUMPDEST PUSH2 0x271B DUP3 PUSH2 0x2431 JUMP JUMPDEST SWAP1 POP PUSH1 0x20 DUP2 ADD SWAP1 POP SWAP2 SWAP1 POP JUMP JUMPDEST DUP3 DUP2 DUP4 CALLDATACOPY PUSH1 0x0 DUP4 DUP4 ADD MSTORE POP POP POP JUMP JUMPDEST PUSH1 0x0 PUSH2 0x274A PUSH2 0x2745 DUP5 PUSH2 0x26F7 JUMP JUMPDEST PUSH2 0x26DC JUMP JUMPDEST SWAP1 POP DUP3 DUP2 MSTORE PUSH1 0x20 DUP2 ADD DUP5 DUP5 DUP5 ADD GT ISZERO PUSH2 0x2766 JUMPI PUSH2 0x2765 PUSH2 0x2677 JUMP JUMPDEST JUMPDEST PUSH2 0x2771 DUP5 DUP3 DUP6 PUSH2 0x2728 JUMP JUMPDEST POP SWAP4 SWAP3 POP POP POP JUMP JUMPDEST PUSH1 0x0 DUP3 PUSH1 0x1F DUP4 ADD SLT PUSH2 0x278E JUMPI PUSH2 0x278D PUSH2 0x2672 JUMP JUMPDEST JUMPDEST DUP2 CALLDATALOAD PUSH2 0x279E DUP5 DUP3 PUSH1 0x20 DUP7 ADD PUSH2 0x2737 JUMP JUMPDEST SWAP2 POP POP SWAP3 SWAP2 POP POP JUMP JUMPDEST PUSH1 0x0 PUSH1 0x20 DUP3 DUP5 SUB SLT ISZERO PUSH2 0x27BD JUMPI PUSH2 0x27BC PUSH2 0x2326 JUMP JUMPDEST JUMPDEST PUSH1 0x0 DUP3 ADD CALLDATALOAD PUSH8 0xFFFFFFFFFFFFFFFF DUP2 GT ISZERO PUSH2 0x27DB JUMPI PUSH2 0x27DA PUSH2 0x232B JUMP JUMPDEST JUMPDEST PUSH2 0x27E7 DUP5 DUP3 DUP6 ADD PUSH2 0x2779 JUMP JUMPDEST SWAP2 POP POP SWAP3 SWAP2 POP POP JUMP JUMPDEST PUSH2 0x27F9 DUP2 PUSH2 0x23B5 JUMP JUMPDEST DUP2 EQ PUSH2 0x2804 JUMPI PUSH1 0x0 DUP1 REVERT JUMPDEST POP JUMP JUMPDEST PUSH1 0x0 DUP2 CALLDATALOAD SWAP1 POP PUSH2 0x2816 DUP2 PUSH2 0x27F0 JUMP JUMPDEST SWAP3 SWAP2 POP POP JUMP JUMPDEST PUSH1 0x0 DUP1 PUSH1 0x40 DUP4 DUP6 SUB SLT ISZERO PUSH2 0x2833 JUMPI PUSH2 0x2832 PUSH2 0x2326 JUMP JUMPDEST JUMPDEST PUSH1 0x0 PUSH2 0x2841 DUP6 DUP3 DUP7 ADD PUSH2 0x2573 JUMP JUMPDEST SWAP3 POP POP PUSH1 0x20 PUSH2 0x2852 DUP6 DUP3 DUP7 ADD PUSH2 0x2807 JUMP JUMPDEST SWAP2 POP POP SWAP3 POP SWAP3 SWAP1 POP JUMP JUMPDEST PUSH1 0x0 PUSH8 0xFFFFFFFFFFFFFFFF DUP3 GT ISZERO PUSH2 0x2877 JUMPI PUSH2 0x2876 PUSH2 0x267C JUMP JUMPDEST JUMPDEST PUSH2 0x2880 DUP3 PUSH2 0x2431 JUMP JUMPDEST SWAP1 POP PUSH1 0x20 DUP2 ADD SWAP1 POP SWAP2 SWAP1 POP JUMP JUMPDEST PUSH1 0x0 PUSH2 0x28A0 PUSH2 0x289B DUP5 PUSH2 0x285C JUMP JUMPDEST PUSH2 0x26DC JUMP JUMPDEST SWAP1 POP DUP3 DUP2 MSTORE PUSH1 0x20 DUP2 ADD DUP5 DUP5 DUP5 ADD GT ISZERO PUSH2 0x28BC JUMPI PUSH2 0x28BB PUSH2 0x2677 JUMP JUMPDEST JUMPDEST PUSH2 0x28C7 DUP5 DUP3 DUP6 PUSH2 0x2728 JUMP JUMPDEST POP SWAP4 SWAP3 POP POP POP JUMP JUMPDEST PUSH1 0x0 DUP3 PUSH1 0x1F DUP4 ADD SLT PUSH2 0x28E4 JUMPI PUSH2 0x28E3 PUSH2 0x2672 JUMP JUMPDEST JUMPDEST DUP2 CALLDATALOAD PUSH2 0x28F4 DUP5 DUP3 PUSH1 0x20 DUP7 ADD PUSH2 0x288D JUMP JUMPDEST SWAP2 POP POP SWAP3 SWAP2 POP POP JUMP JUMPDEST PUSH1 0x0 DUP1 PUSH1 0x0 DUP1 PUSH1 0x80 DUP6 DUP8 SUB SLT ISZERO PUSH2 0x2917 JUMPI PUSH2 0x2916 PUSH2 0x2326 JUMP JUMPDEST JUMPDEST PUSH1 0x0 PUSH2 0x2925 DUP8 DUP3 DUP9 ADD PUSH2 0x2573 JUMP JUMPDEST SWAP5 POP POP PUSH1 0x20 PUSH2 0x2936 DUP8 DUP3 DUP9 ADD PUSH2 0x2573 JUMP JUMPDEST SWAP4 POP POP PUSH1 0x40 PUSH2 0x2947 DUP8 DUP3 DUP9 ADD PUSH2 0x24BE JUMP JUMPDEST SWAP3 POP POP PUSH1 0x60 DUP6 ADD CALLDATALOAD PUSH8 0xFFFFFFFFFFFFFFFF DUP2 GT ISZERO PUSH2 0x2968 JUMPI PUSH2 0x2967 PUSH2 0x232B JUMP JUMPDEST JUMPDEST PUSH2 0x2974 DUP8 DUP3 DUP9 ADD PUSH2 0x28CF JUMP JUMPDEST SWAP2 POP POP SWAP3 SWAP6 SWAP2 SWAP5 POP SWAP3 POP JUMP JUMPDEST PUSH1 0x0 DUP1 PUSH1 0x40 DUP4 DUP6 SUB SLT ISZERO PUSH2 0x2997 JUMPI PUSH2 0x2996 PUSH2 0x2326 JUMP JUMPDEST JUMPDEST PUSH1 0x0 PUSH2 0x29A5 DUP6 DUP3 DUP7 ADD PUSH2 0x2573 JUMP JUMPDEST SWAP3 POP POP PUSH1 0x20 PUSH2 0x29B6 DUP6 DUP3 DUP7 ADD PUSH2 0x2573 JUMP JUMPDEST SWAP2 POP POP SWAP3 POP SWAP3 SWAP1 POP JUMP JUMPDEST PUSH32 0x4E487B7100000000000000000000000000000000000000000000000000000000 PUSH1 0x0 MSTORE PUSH1 0x22 PUSH1 0x4 MSTORE PUSH1 0x24 PUSH1 0x0 REVERT JUMPDEST PUSH1 0x0 PUSH1 0x2 DUP3 DIV SWAP1 POP PUSH1 0x1 DUP3 AND DUP1 PUSH2 0x2A07 JUMPI PUSH1 0x7F DUP3 AND SWAP2 POP JUMPDEST PUSH1 0x20 DUP3 LT DUP2 SUB PUSH2 0x2A1A JUMPI PUSH2 0x2A19 PUSH2 0x29C0 JUMP JUMPDEST JUMPDEST POP SWAP2 SWAP1 POP JUMP JUMPDEST PUSH32 0x496E76616C6964207175616E7469747900000000000000000000000000000000 PUSH1 0x0 DUP3 ADD MSTORE POP JUMP JUMPDEST PUSH1 0x0 PUSH2 0x2A56 PUSH1 0x10 DUP4 PUSH2 0x23F6 JUMP JUMPDEST SWAP2 POP PUSH2 0x2A61 DUP3 PUSH2 0x2A20 JUMP JUMPDEST PUSH1 0x20 DUP3 ADD SWAP1 POP SWAP2 SWAP1 POP JUMP JUMPDEST PUSH1 0x0 PUSH1 0x20 DUP3 ADD SWAP1 POP DUP2 DUP2 SUB PUSH1 0x0 DUP4 ADD MSTORE PUSH2 0x2A85 DUP2 PUSH2 0x2A49 JUMP JUMPDEST SWAP1 POP SWAP2 SWAP1 POP JUMP JUMPDEST PUSH32 0x4E487B7100000000000000000000000000000000000000000000000000000000 PUSH1 0x0 MSTORE PUSH1 0x11 PUSH1 0x4 MSTORE PUSH1 0x24 PUSH1 0x0 REVERT JUMPDEST PUSH1 0x0 PUSH2 0x2AC6 DUP3 PUSH2 0x249D JUMP JUMPDEST SWAP2 POP PUSH2 0x2AD1 DUP4 PUSH2 0x249D JUMP JUMPDEST SWAP3 POP DUP3 DUP3 ADD SWAP1 POP DUP1 DUP3 GT ISZERO PUSH2 0x2AE9 JUMPI PUSH2 0x2AE8 PUSH2 0x2A8C JUMP JUMPDEST JUMPDEST SWAP3 SWAP2 POP POP JUMP JUMPDEST PUSH32 0x526566756E6420706572696F6420686173206578706972656400000000000000 PUSH1 0x0 DUP3 ADD MSTORE POP JUMP JUMPDEST PUSH1 0x0 PUSH2 0x2B25 PUSH1 0x19 DUP4 PUSH2 0x23F6 JUMP JUMPDEST SWAP2 POP PUSH2 0x2B30 DUP3 PUSH2 0x2AEF JUMP JUMPDEST PUSH1 0x20 DUP3 ADD SWAP1 POP SWAP2 SWAP1 POP JUMP JUMPDEST PUSH1 0x0 PUSH1 0x20 DUP3 ADD SWAP1 POP DUP2 DUP2 SUB PUSH1 0x0 DUP4 ADD MSTORE PUSH2 0x2B54 DUP2 PUSH2 0x2B18 JUMP JUMPDEST SWAP1 POP SWAP2 SWAP1 POP JUMP JUMPDEST PUSH1 0x0 PUSH2 0x2B66 DUP3 PUSH2 0x249D JUMP JUMPDEST SWAP2 POP PUSH2 0x2B71 DUP4 PUSH2 0x249D JUMP JUMPDEST SWAP3 POP DUP3 DUP3 MUL PUSH2 0x2B7F DUP2 PUSH2 0x249D JUMP JUMPDEST SWAP2 POP DUP3 DUP3 DIV DUP5 EQ DUP4 ISZERO OR PUSH2 0x2B96 JUMPI PUSH2 0x2B95 PUSH2 0x2A8C JUMP JUMPDEST JUMPDEST POP SWAP3 SWAP2 POP POP JUMP JUMPDEST PUSH1 0x0 DUP2 SWAP1 POP SWAP3 SWAP2 POP POP JUMP JUMPDEST POP JUMP JUMPDEST PUSH1 0x0 PUSH2 0x2BB8 PUSH1 0x0 DUP4 PUSH2 0x2B9D JUMP JUMPDEST SWAP2 POP PUSH2 0x2BC3 DUP3 PUSH2 0x2BA8 JUMP JUMPDEST PUSH1 0x0 DUP3 ADD SWAP1 POP SWAP2 SWAP1 POP JUMP JUMPDEST PUSH1 0x0 PUSH2 0x2BD9 DUP3 PUSH2 0x2BAB JUMP JUMPDEST SWAP2 POP DUP2 SWAP1 POP SWAP2 SWAP1 POP JUMP JUMPDEST PUSH32 0x526566756E64206661696C656400000000000000000000000000000000000000 PUSH1 0x0 DUP3 ADD MSTORE POP JUMP JUMPDEST PUSH1 0x0 PUSH2 0x2C19 PUSH1 0xD DUP4 PUSH2 0x23F6 JUMP JUMPDEST SWAP2 POP PUSH2 0x2C24 DUP3 PUSH2 0x2BE3 JUMP JUMPDEST PUSH1 0x20 DUP3 ADD SWAP1 POP SWAP2 SWAP1 POP JUMP JUMPDEST PUSH1 0x0 PUSH1 0x20 DUP3 ADD SWAP1 POP DUP2 DUP2 SUB PUSH1 0x0 DUP4 ADD MSTORE PUSH2 0x2C48 DUP2 PUSH2 0x2C0C JUMP JUMPDEST SWAP1 POP SWAP2 SWAP1 POP JUMP JUMPDEST PUSH32 0x596F7520617265206E6F7420746865206F776E65722100000000000000000000 PUSH1 0x0 DUP3 ADD MSTORE POP JUMP JUMPDEST PUSH1 0x0 PUSH2 0x2C85 PUSH1 0x16 DUP4 PUSH2 0x23F6 JUMP JUMPDEST SWAP2 POP PUSH2 0x2C90 DUP3 PUSH2 0x2C4F JUMP JUMPDEST PUSH1 0x20 DUP3 ADD SWAP1 POP SWAP2 SWAP1 POP JUMP JUMPDEST PUSH1 0x0 PUSH1 0x20 DUP3 ADD SWAP1 POP DUP2 DUP2 SUB PUSH1 0x0 DUP4 ADD MSTORE PUSH2 0x2CB4 DUP2 PUSH2 0x2C78 JUMP JUMPDEST SWAP1 POP SWAP2 SWAP1 POP JUMP JUMPDEST PUSH32 0x4E6F2062616C616E636520746F20776974686472617700000000000000000000 PUSH1 0x0 DUP3 ADD MSTORE POP JUMP JUMPDEST PUSH1 0x0 PUSH2 0x2CF1 PUSH1 0x16 DUP4 PUSH2 0x23F6 JUMP JUMPDEST SWAP2 POP PUSH2 0x2CFC DUP3 PUSH2 0x2CBB JUMP JUMPDEST PUSH1 0x20 DUP3 ADD SWAP1 POP SWAP2 SWAP1 POP JUMP JUMPDEST PUSH1 0x0 PUSH1 0x20 DUP3 ADD SWAP1 POP DUP2 DUP2 SUB PUSH1 0x0 DUP4 ADD MSTORE PUSH2 0x2D20 DUP2 PUSH2 0x2CE4 JUMP JUMPDEST SWAP1 POP SWAP2 SWAP1 POP JUMP JUMPDEST PUSH32 0x526566756E6420706572696F64206E6F74206F76657200000000000000000000 PUSH1 0x0 DUP3 ADD MSTORE POP JUMP JUMPDEST PUSH1 0x0 PUSH2 0x2D5D PUSH1 0x16 DUP4 PUSH2 0x23F6 JUMP JUMPDEST SWAP2 POP PUSH2 0x2D68 DUP3 PUSH2 0x2D27 JUMP JUMPDEST PUSH1 0x20 DUP3 ADD SWAP1 POP SWAP2 SWAP1 POP JUMP JUMPDEST PUSH1 0x0 PUSH1 0x20 DUP3 ADD SWAP1 POP DUP2 DUP2 SUB PUSH1 0x0 DUP4 ADD MSTORE PUSH2 0x2D8C DUP2 PUSH2 0x2D50 JUMP JUMPDEST SWAP1 POP SWAP2 SWAP1 POP JUMP JUMPDEST PUSH32 0x5769746864726177616C206661696C6564000000000000000000000000000000 PUSH1 0x0 DUP3 ADD MSTORE POP JUMP JUMPDEST PUSH1 0x0 PUSH2 0x2DC9 PUSH1 0x11 DUP4 PUSH2 0x23F6 JUMP JUMPDEST SWAP2 POP PUSH2 0x2DD4 DUP3 PUSH2 0x2D93 JUMP JUMPDEST PUSH1 0x20 DUP3 ADD SWAP1 POP SWAP2 SWAP1 POP JUMP JUMPDEST PUSH1 0x0 PUSH1 0x20 DUP3 ADD SWAP1 POP DUP2 DUP2 SUB PUSH1 0x0 DUP4 ADD MSTORE PUSH2 0x2DF8 DUP2 PUSH2 0x2DBC JUMP JUMPDEST SWAP1 POP SWAP2 SWAP1 POP JUMP JUMPDEST PUSH1 0x0 DUP2 SWAP1 POP DUP2 PUSH1 0x0 MSTORE PUSH1 0x20 PUSH1 0x0 KECCAK256 SWAP1 POP SWAP2 SWAP1 POP JUMP JUMPDEST PUSH1 0x0 PUSH1 0x20 PUSH1 0x1F DUP4 ADD DIV SWAP1 POP SWAP2 SWAP1 POP JUMP JUMPDEST PUSH1 0x0 DUP3 DUP3 SHL SWAP1 POP SWAP3 SWAP2 POP POP JUMP JUMPDEST PUSH1 0x0 PUSH1 0x8 DUP4 MUL PUSH2 0x2E61 PUSH32 0xFFFFFFFFFFFFFFFFFFFFFFFFFFFFFFFFFFFFFFFFFFFFFFFFFFFFFFFFFFFFFFFF DUP3 PUSH2 0x2E24 JUMP JUMPDEST PUSH2 0x2E6B DUP7 DUP4 PUSH2 0x2E24 JUMP JUMPDEST SWAP6 POP DUP1 NOT DUP5 AND SWAP4 POP DUP1 DUP7 AND DUP5 OR SWAP3 POP POP POP SWAP4 SWAP3 POP POP POP JUMP JUMPDEST PUSH1 0x0 DUP2 SWAP1 POP SWAP2 SWAP1 POP JUMP JUMPDEST PUSH1 0x0 PUSH2 0x2EA8 PUSH2 0x2EA3 PUSH2 0x2E9E DUP5 PUSH2 0x249D JUMP JUMPDEST PUSH2 0x2E83 JUMP JUMPDEST PUSH2 0x249D JUMP JUMPDEST SWAP1 POP SWAP2 SWAP1 POP JUMP JUMPDEST PUSH1 0x0 DUP2 SWAP1 POP SWAP2 SWAP1 POP JUMP JUMPDEST PUSH2 0x2EC2 DUP4 PUSH2 0x2E8D JUMP JUMPDEST PUSH2 0x2ED6 PUSH2 0x2ECE DUP3 PUSH2 0x2EAF JUMP JUMPDEST DUP5 DUP5 SLOAD PUSH2 0x2E31 JUMP JUMPDEST DUP3 SSTORE POP POP POP POP JUMP JUMPDEST PUSH1 0x0 SWAP1 JUMP JUMPDEST PUSH2 0x2EEB PUSH2 0x2EDE JUMP JUMPDEST PUSH2 0x2EF6 DUP2 DUP5 DUP5 PUSH2 0x2EB9 JUMP JUMPDEST POP POP POP JUMP JUMPDEST JUMPDEST DUP2 DUP2 LT ISZERO PUSH2 0x2F1A JUMPI PUSH2 0x2F0F PUSH1 0x0 DUP3 PUSH2 0x2EE3 JUMP JUMPDEST PUSH1 0x1 DUP2 ADD SWAP1 POP PUSH2 0x2EFC JUMP JUMPDEST POP POP JUMP JUMPDEST PUSH1 0x1F DUP3 GT ISZERO PUSH2 0x2F5F JUMPI PUSH2 0x2F30 DUP2 PUSH2 0x2DFF JUMP JUMPDEST PUSH2 0x2F39 DUP5 PUSH2 0x2E14 JUMP JUMPDEST DUP2 ADD PUSH1 0x20 DUP6 LT ISZERO PUSH2 0x2F48 JUMPI DUP2 SWAP1 POP JUMPDEST PUSH2 0x2F5C PUSH2 0x2F54 DUP6 PUSH2 0x2E14 JUMP JUMPDEST DUP4 ADD DUP3 PUSH2 0x2EFB JUMP JUMPDEST POP POP JUMPDEST POP POP POP JUMP JUMPDEST PUSH1 0x0 DUP3 DUP3 SHR SWAP1 POP SWAP3 SWAP2 POP POP JUMP JUMPDEST PUSH1 0x0 PUSH2 0x2F82 PUSH1 0x0 NOT DUP5 PUSH1 0x8 MUL PUSH2 0x2F64 JUMP JUMPDEST NOT DUP1 DUP4 AND SWAP2 POP POP SWAP3 SWAP2 POP POP JUMP JUMPDEST PUSH1 0x0 PUSH2 0x2F9B DUP4 DUP4 PUSH2 0x2F71 JUMP JUMPDEST SWAP2 POP DUP3 PUSH1 0x2 MUL DUP3 OR SWAP1 POP SWAP3 SWAP2 POP POP JUMP JUMPDEST PUSH2 0x2FB4 DUP3 PUSH2 0x23EB JUMP JUMPDEST PUSH8 0xFFFFFFFFFFFFFFFF DUP2 GT ISZERO PUSH2 0x2FCD JUMPI PUSH2 0x2FCC PUSH2 0x267C JUMP JUMPDEST JUMPDEST PUSH2 0x2FD7 DUP3 SLOAD PUSH2 0x29EF JUMP JUMPDEST PUSH2 0x2FE2 DUP3 DUP3 DUP6 PUSH2 0x2F1E JUMP JUMPDEST PUSH1 0x0 PUSH1 0x20 SWAP1 POP PUSH1 0x1F DUP4 GT PUSH1 0x1 DUP2 EQ PUSH2 0x3015 JUMPI PUSH1 0x0 DUP5 ISZERO PUSH2 0x3003 JUMPI DUP3 DUP8 ADD MLOAD SWAP1 POP JUMPDEST PUSH2 0x300D DUP6 DUP3 PUSH2 0x2F8F JUMP JUMPDEST DUP7 SSTORE POP PUSH2 0x3075 JUMP JUMPDEST PUSH1 0x1F NOT DUP5 AND PUSH2 0x3023 DUP7 PUSH2 0x2DFF JUMP JUMPDEST PUSH1 0x0 JUMPDEST DUP3 DUP2 LT ISZERO PUSH2 0x304B JUMPI DUP5 DUP10 ADD MLOAD DUP3 SSTORE PUSH1 0x1 DUP3 ADD SWAP2 POP PUSH1 0x20 DUP6 ADD SWAP5 POP PUSH1 0x20 DUP2 ADD SWAP1 POP PUSH2 0x3026 JUMP JUMPDEST DUP7 DUP4 LT ISZERO PUSH2 0x3068 JUMPI DUP5 DUP10 ADD MLOAD PUSH2 0x3064 PUSH1 0x1F DUP10 AND DUP3 PUSH2 0x2F71 JUMP JUMPDEST DUP4 SSTORE POP JUMPDEST PUSH1 0x1 PUSH1 0x2 DUP9 MUL ADD DUP9 SSTORE POP POP POP JUMPDEST POP POP POP POP POP POP JUMP JUMPDEST PUSH32 0x45786365656473206D617820737570706C790000000000000000000000000000 PUSH1 0x0 DUP3 ADD MSTORE POP JUMP JUMPDEST PUSH1 0x0 PUSH2 0x30B3 PUSH1 0x12 DUP4 PUSH2 0x23F6 JUMP JUMPDEST SWAP2 POP PUSH2 0x30BE DUP3 PUSH2 0x307D JUMP JUMPDEST PUSH1 0x20 DUP3 ADD SWAP1 POP SWAP2 SWAP1 POP JUMP JUMPDEST PUSH1 0x0 PUSH1 0x20 DUP3 ADD SWAP1 POP DUP2 DUP2 SUB PUSH1 0x0 DUP4 ADD MSTORE PUSH2 0x30E2 DUP2 PUSH2 0x30A6 JUMP JUMPDEST SWAP1 POP SWAP2 SWAP1 POP JUMP JUMPDEST PUSH32 0x45786365656473206D6178206D696E7420706572207472616E73616374696F6E PUSH1 0x0 DUP3 ADD MSTORE POP JUMP JUMPDEST PUSH1 0x0 PUSH2 0x311F PUSH1 0x20 DUP4 PUSH2 0x23F6 JUMP JUMPDEST SWAP2 POP PUSH2 0x312A DUP3 PUSH2 0x30E9 JUMP JUMPDEST PUSH1 0x20 DUP3 ADD SWAP1 POP SWAP2 SWAP1 POP JUMP JUMPDEST PUSH1 0x0 PUSH1 0x20 DUP3 ADD SWAP1 POP DUP2 DUP2 SUB PUSH1 0x0 DUP4 ADD MSTORE PUSH2 0x314E DUP2 PUSH2 0x3112 JUMP JUMPDEST SWAP1 POP SWAP2 SWAP1 POP JUMP JUMPDEST PUSH32 0x496E73756666696369656E742066756E64730000000000000000000000000000 PUSH1 0x0 DUP3 ADD MSTORE POP JUMP JUMPDEST PUSH1 0x0 PUSH2 0x318B PUSH1 0x12 DUP4 PUSH2 0x23F6 JUMP JUMPDEST SWAP2 POP PUSH2 0x3196 DUP3 PUSH2 0x3155 JUMP JUMPDEST PUSH1 0x20 DUP3 ADD SWAP1 POP SWAP2 SWAP1 POP JUMP JUMPDEST PUSH1 0x0 PUSH1 0x20 DUP3 ADD SWAP1 POP DUP2 DUP2 SUB PUSH1 0x0 DUP4 ADD MSTORE PUSH2 0x31BA DUP2 PUSH2 0x317E JUMP JUMPDEST SWAP1 POP SWAP2 SWAP1 POP JUMP JUMPDEST PUSH32 0x45786365656473206D6178206D696E74207065722077616C6C65740000000000 PUSH1 0x0 DUP3 ADD MSTORE POP JUMP JUMPDEST PUSH1 0x0 PUSH2 0x31F7 PUSH1 0x1B DUP4 PUSH2 0x23F6 JUMP JUMPDEST SWAP2 POP PUSH2 0x3202 DUP3 PUSH2 0x31C1 JUMP JUMPDEST PUSH1 0x20 DUP3 ADD SWAP1 POP SWAP2 SWAP1 POP JUMP JUMPDEST PUSH1 0x0 PUSH1 0x20 DUP3 ADD SWAP1 POP DUP2 DUP2 SUB PUSH1 0x0 DUP4 ADD MSTORE PUSH2 0x3226 DUP2 PUSH2 0x31EA JUMP JUMPDEST SWAP1 POP SWAP2 SWAP1 POP JUMP JUMPDEST PUSH1 0x0 DUP2 SWAP1 POP SWAP3 SWAP2 POP POP JUMP JUMPDEST PUSH1 0x0 PUSH2 0x3243 DUP3 PUSH2 0x23EB JUMP JUMPDEST PUSH2 0x324D DUP2 DUP6 PUSH2 0x322D JUMP JUMPDEST SWAP4 POP PUSH2 0x325D DUP2 DUP6 PUSH1 0x20 DUP7 ADD PUSH2 0x2407 JUMP JUMPDEST DUP1 DUP5 ADD SWAP2 POP POP SWAP3 SWAP2 POP POP JUMP JUMPDEST PUSH1 0x0 PUSH2 0x3275 DUP3 DUP6 PUSH2 0x3238 JUMP JUMPDEST SWAP2 POP PUSH2 0x3281 DUP3 DUP5 PUSH2 0x3238 JUMP JUMPDEST SWAP2 POP DUP2 SWAP1 POP SWAP4 SWAP3 POP POP POP JUMP JUMPDEST PUSH1 0x0 PUSH2 0x3298 DUP3 PUSH2 0x249D JUMP JUMPDEST SWAP2 POP PUSH1 0x0 DUP3 SUB PUSH2 0x32AB JUMPI PUSH2 0x32AA PUSH2 0x2A8C JUMP JUMPDEST JUMPDEST PUSH1 0x1 DUP3 SUB SWAP1 POP SWAP2 SWAP1 POP JUMP JUMPDEST PUSH1 0x0 PUSH2 0x32C1 DUP3 PUSH2 0x249D JUMP JUMPDEST SWAP2 POP PUSH32 0xFFFFFFFFFFFFFFFFFFFFFFFFFFFFFFFFFFFFFFFFFFFFFFFFFFFFFFFFFFFFFFFF DUP3 SUB PUSH2 0x32F3 JUMPI PUSH2 0x32F2 PUSH2 0x2A8C JUMP JUMPDEST JUMPDEST PUSH1 0x1 DUP3 ADD SWAP1 POP SWAP2 SWAP1 POP JUMP JUMPDEST PUSH1 0x0 DUP2 MLOAD SWAP1 POP SWAP2 SWAP1 POP JUMP JUMPDEST PUSH1 0x0 DUP3 DUP3 MSTORE PUSH1 0x20 DUP3 ADD SWAP1 POP SWAP3 SWAP2 POP POP JUMP JUMPDEST PUSH1 0x0 PUSH2 0x3325 DUP3 PUSH2 0x32FE JUMP JUMPDEST PUSH2 0x332F DUP2 DUP6 PUSH2 0x3309 JUMP JUMPDEST SWAP4 POP PUSH2 0x333F DUP2 DUP6 PUSH1 0x20 DUP7 ADD PUSH2 0x2407 JUMP JUMPDEST PUSH2 0x3348 DUP2 PUSH2 0x2431 JUMP JUMPDEST DUP5 ADD SWAP2 POP POP SWAP3 SWAP2 POP POP JUMP JUMPDEST PUSH1 0x0 PUSH1 0x80 DUP3 ADD SWAP1 POP PUSH2 0x3368 PUSH1 0x0 DUP4 ADD DUP8 PUSH2 0x2532 JUMP JUMPDEST PUSH2 0x3375 PUSH1 0x20 DUP4 ADD DUP7 PUSH2 0x2532 JUMP JUMPDEST PUSH2 0x3382 PUSH1 0x40 DUP4 ADD DUP6 PUSH2 0x25C8 JUMP JUMPDEST DUP2 DUP2 SUB PUSH1 0x60 DUP4 ADD MSTORE PUSH2 0x3394 DUP2 DUP5 PUSH2 0x331A JUMP JUMPDEST SWAP1 POP SWAP6 SWAP5 POP POP POP POP POP JUMP JUMPDEST PUSH1 0x0 DUP2 MLOAD SWAP1 POP PUSH2 0x33AE DUP2 PUSH2 0x235C JUMP JUMPDEST SWAP3 SWAP2 POP POP JUMP JUMPDEST PUSH1 0x0 PUSH1 0x20 DUP3 DUP5 SUB SLT ISZERO PUSH2 0x33CA JUMPI PUSH2 0x33C9 PUSH2 0x2326 JUMP JUMPDEST JUMPDEST PUSH1 0x0 PUSH2 0x33D8 DUP5 DUP3 DUP6 ADD PUSH2 0x339F JUMP JUMPDEST SWAP2 POP POP SWAP3 SWAP2 POP POP JUMP INVALID LOG2 PUSH5 0x6970667358 0x22 SLT KECCAK256 0xE9 PUSH3 0x918436 EXTCODEHASH LOG2 0x23 BLOBHASH PUSH14 0x458735BC28C8BA42383C6FA67B26 0x29 0xB0 0x24 0xD9 CALLVALUE 0xC7 PUSH5 0xC264736F6C PUSH4 0x4300081B STOP CALLER "},"methodIdentifiers":{"MAX_MINT()":"f0292a03","MAX_MINT_PER_WALLET()":"b19960e6","MAX_SUPPLY()":"32cb6b0c","MINT_RATE()":"f5c1be3c","REFUND_PERIOD()":"7f6578d3","approve(address,uint256)":"095ea7b3","balanceOf(address)":"70a08231","baseTokenURI()":"d547cfb7","getApproved(uint256)":"081812fc","isApprovedForAll(address,address)":"e985e9c5","mint(uint256)":"a0712d68","mintedAddresses(address)":"efdfb8ea","mintingTimestamp(address)":"2538354d","name()":"06fdde03","owner()":"8da5cb5b","ownerOf(uint256)":"6352211e","refund(uint256)":"278ecde1","safeTransferFrom(address,address,uint256)":"42842e0e","safeTransferFrom(address,address,uint256,bytes)":"b88d4fde","setApprovalForAll(address,bool)":"a22cb465","setBaseURI(string)":"55f804b3","supportsInterface(bytes4)":"01ffc9a7","symbol()":"95d89b41","tokenURI(uint256)":"c87b56dd","totalSupply()":"18160ddd","transferFrom(address,address,uint256)":"23b872dd","withdraw()":"3ccfd60b"}}}}}