{"contracts/ERC721A.sol":{"EarlyBirdNFT":{"abi":[{"inputs":[{"internalType":"string","name":"_tokenURI","type":"string"}],"stateMutability":"nonpayable","type":"constructor"},{"inputs":[],"name":"ApprovalCallerNotOwnerNorApproved","type":"error"},{"inputs":[],"name":"ApprovalQueryForNonexistentToken","type":"error"},{"inputs":[],"name":"BalanceQueryForZeroAddress","type":"error"},{"inputs":[],"name":"MintERC2309QuantityExceedsLimit","type":"error"},{"inputs":[],"name":"MintToZeroAddress","type":"error"},{"inputs":[],"name":"MintZeroQuantity","type":"error"},{"inputs":[],"name":"NotCompatibleWithSpotMints","type":"error"},{"inputs":[],"name":"OwnerQueryForNonexistentToken","type":"error"},{"inputs":[],"name":"OwnershipNotInitializedForExtraData","type":"error"},{"inputs":[],"name":"SequentialMintExceedsLimit","type":"error"},{"inputs":[],"name":"SequentialUpToTooSmall","type":"error"},{"inputs":[],"name":"SpotMintTokenIdTooSmall","type":"error"},{"inputs":[],"name":"TokenAlreadyExists","type":"error"},{"inputs":[],"name":"TokenIdsNotStrictlyAscending","type":"error"},{"inputs":[],"name":"TransferCallerNotOwnerNorApproved","type":"error"},{"inputs":[],"name":"TransferFromIncorrectOwner","type":"error"},{"inputs":[],"name":"TransferToNonERC721ReceiverImplementer","type":"error"},{"inputs":[],"name":"TransferToZeroAddress","type":"error"},{"inputs":[],"name":"URIQueryForNonexistentToken","type":"error"},{"anonymous":false,"inputs":[{"indexed":true,"internalType":"address","name":"owner","type":"address"},{"indexed":true,"internalType":"address","name":"approved","type":"address"},{"indexed":true,"internalType":"uint256","name":"tokenId","type":"uint256"}],"name":"Approval","type":"event"},{"anonymous":false,"inputs":[{"indexed":true,"internalType":"address","name":"owner","type":"address"},{"indexed":true,"internalType":"address","name":"operator","type":"address"},{"indexed":false,"internalType":"bool","name":"approved","type":"bool"}],"name":"ApprovalForAll","type":"event"},{"anonymous":false,"inputs":[{"indexed":true,"internalType":"uint256","name":"fromTokenId","type":"uint256"},{"indexed":false,"internalType":"uint256","name":"toTokenId","type":"uint256"},{"indexed":true,"internalType":"address","name":"from","type":"address"},{"indexed":true,"internalType":"address","name":"to","type":"address"}],"name":"ConsecutiveTransfer","type":"event"},{"anonymous":false,"inputs":[{"indexed":true,"internalType":"address","name":"_to","type":"address"},{"indexed":true,"internalType":"uint256","name":"_value","type":"uint256"}],"name":"MintSuccess","type":"event"},{"anonymous":false,"inputs":[{"indexed":true,"internalType":"address","name":"_to","type":"address"},{"indexed":true,"internalType":"uint256","name":"_valut","type":"uint256"}],"name":"RefundSuccess","type":"event"},{"anonymous":false,"inputs":[{"indexed":true,"internalType":"address","name":"from","type":"address"},{"indexed":true,"internalType":"address","name":"to","type":"address"},{"indexed":true,"internalType":"uint256","name":"tokenId","type":"uint256"}],"name":"Transfer","type":"event"},{"anonymous":false,"inputs":[{"indexed":true,"internalType":"address","name":"_to","type":"address"},{"indexed":true,"internalType":"uint256","name":"_amount","type":"uint256"}],"name":"WithdrawSuccess","type":"event"},{"inputs":[],"name":"MAX_MINT","outputs":[{"internalType":"uint256","name":"","type":"uint256"}],"stateMutability":"view","type":"function"},{"inputs":[],"name":"MAX_MINT_PER_WALLET","outputs":[{"internalType":"uint256","name":"","type":"uint256"}],"stateMutability":"view","type":"function"},{"inputs":[],"name":"MAX_SUPPLY","outputs":[{"internalType":"uint256","name":"","type":"uint256"}],"stateMutability":"view","type":"function"},{"inputs":[],"name":"MINT_RATE","outputs":[{"internalType":"uint256","name":"","type":"uint256"}],"stateMutability":"view","type":"function"},{"inputs":[],"name":"REFUND_PERIOD","outputs":[{"internalType":"uint256","name":"","type":"uint256"}],"stateMutability":"view","type":"function"},{"inputs":[{"internalType":"address","name":"to","type":"address"},{"internalType":"uint256","name":"tokenId","type":"uint256"}],"name":"approve","outputs":[],"stateMutability":"payable","type":"function"},{"inputs":[{"internalType":"address","name":"owner","type":"address"}],"name":"balanceOf","outputs":[{"internalType":"uint256","name":"","type":"uint256"}],"stateMutability":"view","type":"function"},{"inputs":[],"name":"baseTokenURI","outputs":[{"internalType":"string","name":"","type":"string"}],"stateMutability":"view","type":"function"},{"inputs":[{"internalType":"uint256","name":"tokenId","type":"uint256"}],"name":"getApproved","outputs":[{"internalType":"address","name":"","type":"address"}],"stateMutability":"view","type":"function"},{"inputs":[{"internalType":"address","name":"owner","type":"address"},{"internalType":"address","name":"operator","type":"address"}],"name":"isApprovedForAll","outputs":[{"internalType":"bool","name":"","type":"bool"}],"stateMutability":"view","type":"function"},{"inputs":[{"internalType":"uint256","name":"_quantity","type":"uint256"}],"name":"mint","outputs":[{"internalType":"bool","name":"","type":"bool"}],"stateMutability":"payable","type":"function"},{"inputs":[{"internalType":"address","name":"","type":"address"}],"name":"mintedAddresses","outputs":[{"internalType":"uint256","name":"","type":"uint256"}],"stateMutability":"view","type":"function"},{"inputs":[{"internalType":"address","name":"","type":"address"}],"name":"mintingTimestamp","outputs":[{"internalType":"uint256","name":"","type":"uint256"}],"stateMutability":"view","type":"function"},{"inputs":[],"name":"name","outputs":[{"internalType":"string","name":"","type":"string"}],"stateMutability":"view","type":"function"},{"inputs":[],"name":"owner","outputs":[{"internalType":"address","name":"","type":"address"}],"stateMutability":"view","type":"function"},{"inputs":[{"internalType":"uint256","name":"tokenId","type":"uint256"}],"name":"ownerOf","outputs":[{"internalType":"address","name":"","type":"address"}],"stateMutability":"view","type":"function"},{"inputs":[{"internalType":"uint256","name":"quantity","type":"uint256"}],"name":"refund","outputs":[{"internalType":"bool","name":"","type":"bool"}],"stateMutability":"nonpayable","type":"function"},{"inputs":[{"internalType":"address","name":"from","type":"address"},{"internalType":"address","name":"to","type":"address"},{"internalType":"uint256","name":"tokenId","type":"uint256"}],"name":"safeTransferFrom","outputs":[],"stateMutability":"payable","type":"function"},{"inputs":[{"internalType":"address","name":"from","type":"address"},{"internalType":"address","name":"to","type":"address"},{"internalType":"uint256","name":"tokenId","type":"uint256"},{"internalType":"bytes","name":"_data","type":"bytes"}],"name":"safeTransferFrom","outputs":[],"stateMutability":"payable","type":"function"},{"inputs":[{"internalType":"address","name":"operator","type":"address"},{"internalType":"bool","name":"approved","type":"bool"}],"name":"setApprovalForAll","outputs":[],"stateMutability":"nonpayable","type":"function"},{"inputs":[{"internalType":"string","name":"_baseTokenURI","type":"string"}],"name":"setBaseURI","outputs":[],"stateMutability":"nonpayable","type":"function"},{"inputs":[{"internalType":"bytes4","name":"interfaceId","type":"bytes4"}],"name":"supportsInterface","outputs":[{"internalType":"bool","name":"","type":"bool"}],"stateMutability":"view","type":"function"},{"inputs":[],"name":"symbol","outputs":[{"internalType":"string","name":"","type":"string"}],"stateMutability":"view","type":"function"},{"inputs":[{"internalType":"uint256","name":"tokenId","type":"uint256"}],"name":"tokenURI","outputs":[{"internalType":"string","name":"","type":"string"}],"stateMutability":"view","type":"function"},{"inputs":[],"name":"totalSupply","outputs":[{"internalType":"uint256","name":"result","type":"uint256"}],"stateMutability":"view","type":"function"},{"inputs":[{"internalType":"address","name":"from","type":"address"},{"internalType":"address","name":"to","type":"address"},{"internalType":"uint256","name":"tokenId","type":"uint256"}],"name":"transferFrom","outputs":[],"stateMutability":"payable","type":"function"},{"inputs":[],"name":"withdraw","outputs":[{"internalType":"bool","name":"","type":"bool"}],"stateMutability":"payable","type":"function"}],"evm":{"bytecode":{"linkReferences":{},"object":"608060405234801561001057600080fd5b50604051613ae3380380613ae383398181016040528101906100329190610310565b6040518060400160405280600a81526020017f4561726c792042697264000000000000000000000000000000000000000000008152506040518060400160405280600381526020017f455242000000000000000000000000000000000000000000000000000000000081525081600290816100ad919061057a565b5080600390816100bd919061057a565b506100cc61016460201b60201c565b6000819055506100e061016460201b60201c565b6100ee61016960201b60201c565b101561010b5761010a63fed8210f60e01b61019160201b60201c565b5b505033600960006101000a81548173ffffffffffffffffffffffffffffffffffffffff021916908373ffffffffffffffffffffffffffffffffffffffff16021790555080600a908161015d919061057a565b505061064c565b600090565b60007fffffffffffffffffffffffffffffffffffffffffffffffffffffffffffffffff905090565b8060005260046000fd5b6000604051905090565b600080fd5b600080fd5b600080fd5b600080fd5b6000601f19601f8301169050919050565b7f4e487b7100000000000000000000000000000000000000000000000000000000600052604160045260246000fd5b610202826101b9565b810181811067ffffffffffffffff82111715610221576102206101ca565b5b80604052505050565b600061023461019b565b905061024082826101f9565b919050565b600067ffffffffffffffff8211156102605761025f6101ca565b5b610269826101b9565b9050602081019050919050565b60005b83811015610294578082015181840152602081019050610279565b60008484015250505050565b60006102b36102ae84610245565b61022a565b9050828152602081018484840111156102cf576102ce6101b4565b5b6102da848285610276565b509392505050565b600082601f8301126102f7576102f66101af565b5b81516103078482602086016102a0565b91505092915050565b600060208284031215610326576103256101a5565b5b600082015167ffffffffffffffff811115610344576103436101aa565b5b610350848285016102e2565b91505092915050565b600081519050919050565b7f4e487b7100000000000000000000000000000000000000000000000000000000600052602260045260246000fd5b600060028204905060018216806103ab57607f821691505b6020821081036103be576103bd610364565b5b50919050565b60008190508160005260206000209050919050565b60006020601f8301049050919050565b600082821b905092915050565b6000600883026104267fffffffffffffffffffffffffffffffffffffffffffffffffffffffffffffffff826103e9565b61043086836103e9565b95508019841693508086168417925050509392505050565b6000819050919050565b6000819050919050565b600061047761047261046d84610448565b610452565b610448565b9050919050565b6000819050919050565b6104918361045c565b6104a561049d8261047e565b8484546103f6565b825550505050565b600090565b6104ba6104ad565b6104c5818484610488565b505050565b5b818110156104e9576104de6000826104b2565b6001810190506104cb565b5050565b601f82111561052e576104ff816103c4565b610508846103d9565b81016020851015610517578190505b61052b610523856103d9565b8301826104ca565b50505b505050565b600082821c905092915050565b600061055160001984600802610533565b1980831691505092915050565b600061056a8383610540565b9150826002028217905092915050565b61058382610359565b67ffffffffffffffff81111561059c5761059b6101ca565b5b6105a68254610393565b6105b18282856104ed565b600060209050601f8311600181146105e457600084156105d2578287015190505b6105dc858261055e565b865550610644565b601f1984166105f2866103c4565b60005b8281101561061a578489015182556001820191506020850194506020810190506105f5565b868310156106375784890151610633601f891682610540565b8355505b6001600288020188555050505b505050505050565b6134888061065b6000396000f3fe60806040526004361061019c5760003560e01c806370a08231116100ec578063b88d4fde1161008a578063e985e9c511610064578063e985e9c5146105b4578063efdfb8ea146105f1578063f0292a031461062e578063f5c1be3c146106595761019c565b8063b88d4fde14610530578063c87b56dd1461054c578063d547cfb7146105895761019c565b806395d89b41116100c657806395d89b4114610481578063a0712d68146104ac578063a22cb465146104dc578063b19960e6146105055761019c565b806370a08231146103ee5780637f6578d31461042b5780638da5cb5b146104565761019c565b80632538354d116101595780633ccfd60b116101335780633ccfd60b1461034e57806342842e0e1461036c57806355f804b3146103885780636352211e146103b15761019c565b80632538354d146102a9578063278ecde1146102e657806332cb6b0c146103235761019c565b806301ffc9a7146101a157806306fdde03146101de578063081812fc14610209578063095ea7b31461024657806318160ddd1461026257806323b872dd1461028d575b600080fd5b3480156101ad57600080fd5b506101c860048036038101906101c39190612361565b610684565b6040516101d591906123a9565b60405180910390f35b3480156101ea57600080fd5b506101f3610716565b6040516102009190612454565b60405180910390f35b34801561021557600080fd5b50610230600480360381019061022b91906124ac565b6107a8565b60405161023d919061251a565b60405180910390f35b610260600480360381019061025b9190612561565b610806565b005b34801561026e57600080fd5b50610277610816565b60405161028491906125b0565b60405180910390f35b6102a760048036038101906102a291906125cb565b610863565b005b3480156102b557600080fd5b506102d060048036038101906102cb919061261e565b610afb565b6040516102dd91906125b0565b60405180910390f35b3480156102f257600080fd5b5061030d600480360381019061030891906124ac565b610b13565b60405161031a91906123a9565b60405180910390f35b34801561032f57600080fd5b50610338610cfd565b60405161034591906125b0565b60405180910390f35b610356610d03565b60405161036391906123a9565b60405180910390f35b610386600480360381019061038191906125cb565b610f6f565b005b34801561039457600080fd5b506103af60048036038101906103aa9190612780565b610f8f565b005b3480156103bd57600080fd5b506103d860048036038101906103d391906124ac565b611032565b6040516103e5919061251a565b60405180910390f35b3480156103fa57600080fd5b506104156004803603810190610410919061261e565b611044565b60405161042291906125b0565b60405180910390f35b34801561043757600080fd5b506104406110db565b60405161044d91906125b0565b60405180910390f35b34801561046257600080fd5b5061046b6110e0565b604051610478919061251a565b60405180910390f35b34801561048d57600080fd5b50610496611106565b6040516104a39190612454565b60405180910390f35b6104c660048036038101906104c191906124ac565b611198565b6040516104d391906123a9565b60405180910390f35b3480156104e857600080fd5b5061050360048036038101906104fe91906127f5565b6113c0565b005b34801561051157600080fd5b5061051a6114cb565b60405161052791906125b0565b60405180910390f35b61054a600480360381019061054591906128d6565b6114d0565b005b34801561055857600080fd5b50610573600480360381019061056e91906124ac565b611522565b6040516105809190612454565b60405180910390f35b34801561059557600080fd5b5061059e61159f565b6040516105ab9190612454565b60405180910390f35b3480156105c057600080fd5b506105db60048036038101906105d69190612959565b61162d565b6040516105e891906123a9565b60405180910390f35b3480156105fd57600080fd5b506106186004803603810190610613919061261e565b6116c1565b60405161062591906125b0565b60405180910390f35b34801561063a57600080fd5b506106436116d9565b60405161065091906125b0565b60405180910390f35b34801561066557600080fd5b5061066e6116de565b60405161067b91906125b0565b60405180910390f35b60006301ffc9a760e01b827bffffffffffffffffffffffffffffffffffffffffffffffffffffffff191614806106df57506380ac58cd60e01b827bffffffffffffffffffffffffffffffffffffffffffffffffffffffff1916145b8061070f5750635b5e139f60e01b827bffffffffffffffffffffffffffffffffffffffffffffffffffffffff1916145b9050919050565b606060028054610725906129c8565b80601f0160208091040260200160405190810160405280929190818152602001828054610751906129c8565b801561079e5780601f106107735761010080835404028352916020019161079e565b820191906000526020600020905b81548152906001019060200180831161078157829003601f168201915b5050505050905090565b60006107b3826116e9565b6107c8576107c763cf4700e460e01b611795565b5b6006600083815260200190815260200160002060000160009054906101000a900473ffffffffffffffffffffffffffffffffffffffff169050919050565b6108128282600161179f565b5050565b60006108206118ce565b600154600054030390507fffffffffffffffffffffffffffffffffffffffffffffffffffffffffffffffff6108536118d3565b1461086057600854810190505b90565b600061086e826118fb565b905060008473ffffffffffffffffffffffffffffffffffffffff169050808273ffffffffffffffffffffffffffffffffffffffff16146108b9576108b863a114810060e01b611795565b5b6000806108c585611a14565b915091506108f181846108d6611a3b565b73ffffffffffffffffffffffffffffffffffffffff16611a43565b61091c5761090687610901611a3b565b61162d565b61091b5761091a6359c896be60e01b611795565b5b5b6109298787876001611a55565b801561093457600082555b600560008873ffffffffffffffffffffffffffffffffffffffff1673ffffffffffffffffffffffffffffffffffffffff168152602001908152602001600020600081546001900391905081905550600560008773ffffffffffffffffffffffffffffffffffffffff1673ffffffffffffffffffffffffffffffffffffffff1681526020019081526020016000206000815460010191905081905550610a02866109de898988611a5b565b7c020000000000000000000000000000000000000000000000000000000017611a83565b600460008781526020019081526020016000208190555060007c0200000000000000000000000000000000000000000000000000000000851603610a885760006001860190506000600460008381526020019081526020016000205403610a86576000548114610a85578460046000838152602001908152602001600020819055505b5b505b60008673ffffffffffffffffffffffffffffffffffffffff1690508581857fddf252ad1be2c89b69c2b068fc378daa952ba7f163c4a11628f55a4df523b3ef600080a460008103610ae457610ae363ea553b3460e01b611795565b5b610af18888886001611aae565b5050505050505050565b600c6020528060005260406000206000915090505481565b6000610b1e33611044565b821115610b60576040517f08c379a0000000000000000000000000000000000000000000000000000000008152600401610b5790612a45565b60405180910390fd5b600c60003373ffffffffffffffffffffffffffffffffffffffff1673ffffffffffffffffffffffffffffffffffffffff168152602001908152602001600020544210610be1576040517f08c379a0000000000000000000000000000000000000000000000000000000008152600401610bd890612ad7565b60405180910390fd5b610beb3383611ab4565b6000662386f26fc1000083610c009190612b26565b905060003373ffffffffffffffffffffffffffffffffffffffff1682604051610c2890612b99565b60006040518083038185875af1925050503d8060008114610c65576040519150601f19603f3d011682016040523d82523d6000602084013e610c6a565b606091505b5050905080610cae576040517f08c379a0000000000000000000000000000000000000000000000000000000008152600401610ca590612bfa565b60405180910390fd5b833373ffffffffffffffffffffffffffffffffffffffff167f09defe0bdb8a1b4ee8fe9095fba7b88c1c154139a41abb1018b24b2dd2c574c360405160405180910390a3600192505050919050565b6103e881565b6000600960009054906101000a900473ffffffffffffffffffffffffffffffffffffffff1673ffffffffffffffffffffffffffffffffffffffff163373ffffffffffffffffffffffffffffffffffffffff1614610d95576040517f08c379a0000000000000000000000000000000000000000000000000000000008152600401610d8c90612c66565b60405180910390fd5b600047905060008111610ddd576040517f08c379a0000000000000000000000000000000000000000000000000000000008152600401610dd490612cf8565b60405180910390fd5b60b4610de7611b49565b610df19190612d18565b4210610e32576040517f08c379a0000000000000000000000000000000000000000000000000000000008152600401610e2990612d98565b60405180910390fd5b6000600960009054906101000a900473ffffffffffffffffffffffffffffffffffffffff1673ffffffffffffffffffffffffffffffffffffffff1682604051610e7a90612b99565b60006040518083038185875af1925050503d8060008114610eb7576040519150601f19603f3d011682016040523d82523d6000602084013e610ebc565b606091505b5050905080610f00576040517f08c379a0000000000000000000000000000000000000000000000000000000008152600401610ef790612e04565b60405180910390fd5b81600960009054906101000a900473ffffffffffffffffffffffffffffffffffffffff1673ffffffffffffffffffffffffffffffffffffffff167f95e1b0070dbccc052f124fa5143644dca4cc74c53bf1d0fe68ff7295f61cdc0c60405160405180910390a360019250505090565b610f8a838383604051806020016040528060008152506114d0565b505050565b600960009054906101000a900473ffffffffffffffffffffffffffffffffffffffff1673ffffffffffffffffffffffffffffffffffffffff163373ffffffffffffffffffffffffffffffffffffffff161461101f576040517f08c379a000000000000000000000000000000000000000000000000000000000815260040161101690612c66565b60405180910390fd5b80600a908161102e9190612fd0565b5050565b600061103d826118fb565b9050919050565b60008073ffffffffffffffffffffffffffffffffffffffff168273ffffffffffffffffffffffffffffffffffffffff160361108a57611089638f4eb60460e01b611795565b5b67ffffffffffffffff600560008473ffffffffffffffffffffffffffffffffffffffff1673ffffffffffffffffffffffffffffffffffffffff16815260200190815260200160002054169050919050565b60b481565b600960009054906101000a900473ffffffffffffffffffffffffffffffffffffffff1681565b606060038054611115906129c8565b80601f0160208091040260200160405190810160405280929190818152602001828054611141906129c8565b801561118e5780601f106111635761010080835404028352916020019161118e565b820191906000526020600020905b81548152906001019060200180831161117157829003601f168201915b5050505050905090565b60006103e86111a5610816565b836111b09190612d18565b11156111f1576040517f08c379a00000000000000000000000000000000000000000000000000000000081526004016111e890613114565b60405180910390fd5b6005821115611235576040517f08c379a000000000000000000000000000000000000000000000000000000000815260040161122c90613180565b60405180910390fd5b662386f26fc10000826112489190612b26565b34101561128a576040517f08c379a0000000000000000000000000000000000000000000000000000000008152600401611281906131ec565b60405180910390fd5b600c8261129633611044565b6112a09190612d18565b11156112e1576040517f08c379a00000000000000000000000000000000000000000000000000000000081526004016112d89061327e565b60405180910390fd5b6112eb3383611c0f565b81600b60003373ffffffffffffffffffffffffffffffffffffffff1673ffffffffffffffffffffffffffffffffffffffff1681526020019081526020016000208190555042600c60003373ffffffffffffffffffffffffffffffffffffffff1673ffffffffffffffffffffffffffffffffffffffff16815260200190815260200160002081905550813373ffffffffffffffffffffffffffffffffffffffff167fcda531bfd68624f13205c0a23cd4d5a7f09792cbb399603114f2b04aaa1bf5cf60405160405180910390a360019050919050565b80600760006113cd611a3b565b73ffffffffffffffffffffffffffffffffffffffff1673ffffffffffffffffffffffffffffffffffffffff16815260200190815260200160002060008473ffffffffffffffffffffffffffffffffffffffff1673ffffffffffffffffffffffffffffffffffffffff16815260200190815260200160002060006101000a81548160ff0219169083151502179055508173ffffffffffffffffffffffffffffffffffffffff1661147a611a3b565b73ffffffffffffffffffffffffffffffffffffffff167f17307eab39ab6107e8899845ad3d59bd9653f200f220920489ca2b5937696c31836040516114bf91906123a9565b60405180910390a35050565b600c81565b6114db848484610863565b60008373ffffffffffffffffffffffffffffffffffffffff163b1461151c5761150684848484611c2d565b61151b5761151a63d1a57ed660e01b611795565b5b5b50505050565b606061152d826116e9565b6115425761154163a14c4b5060e01b611795565b5b600061154c611d5c565b9050600081510361156c5760405180602001604052806000815250611597565b8061157684611dee565b6040516020016115879291906132da565b6040516020818303038152906040525b915050919050565b600a80546115ac906129c8565b80601f01602080910402602001604051908101604052809291908181526020018280546115d8906129c8565b80156116255780601f106115fa57610100808354040283529160200191611625565b820191906000526020600020905b81548152906001019060200180831161160857829003601f168201915b505050505081565b6000600760008473ffffffffffffffffffffffffffffffffffffffff1673ffffffffffffffffffffffffffffffffffffffff16815260200190815260200160002060008373ffffffffffffffffffffffffffffffffffffffff1673ffffffffffffffffffffffffffffffffffffffff16815260200190815260200160002060009054906101000a900460ff16905092915050565b600b6020528060005260406000206000915090505481565b600581565b662386f26fc1000081565b6000816116f46118ce565b1161178f576117016118d3565b82111561172b576117246004600084815260200190815260200160002054611e3e565b9050611790565b60005482101561178e5760005b60006004600085815260200190815260200160002054915081036117675782611760906132fe565b9250611738565b60007c01000000000000000000000000000000000000000000000000000000008216149150505b5b5b919050565b8060005260046000fd5b60006117aa83611032565b90508180156117ec57508073ffffffffffffffffffffffffffffffffffffffff166117d3611a3b565b73ffffffffffffffffffffffffffffffffffffffff1614155b1561181857611802816117fd611a3b565b61162d565b6118175761181663cfb3b94260e01b611795565b5b5b836006600085815260200190815260200160002060000160006101000a81548173ffffffffffffffffffffffffffffffffffffffff021916908373ffffffffffffffffffffffffffffffffffffffff160217905550828473ffffffffffffffffffffffffffffffffffffffff168273ffffffffffffffffffffffffffffffffffffffff167f8c5be1e5ebec7d5bd14f71427d1e84f3dd0314c0f7b2291e5b200ac8c7c3b92560405160405180910390a450505050565b600090565b60007fffffffffffffffffffffffffffffffffffffffffffffffffffffffffffffffff905090565b6000816119066118ce565b116119fe57600460008381526020019081526020016000205490506119296118d3565b82111561194e5761193981611e3e565b611a0f5761194d63df2d9b4260e01b611795565b5b600081036119d55760005482106119705761196f63df2d9b4260e01b611795565b5b5b600460008360019003935083815260200190815260200160002054905060008103156119d05760007c010000000000000000000000000000000000000000000000000000000082160315611a0f576119cf63df2d9b4260e01b611795565b5b611971565b60007c010000000000000000000000000000000000000000000000000000000082160315611a0f575b611a0e63df2d9b4260e01b611795565b5b919050565b60008060006006600085815260200190815260200160002090508092508254915050915091565b600033905090565b60008382148383141790509392505050565b50505050565b60008060e883901c905060e8611a72868684611e7f565b62ffffff16901b9150509392505050565b600073ffffffffffffffffffffffffffffffffffffffff83169250814260a01b178317905092915050565b50505050565b6000611abe6118ce565b905060005b8281108015611ad85750611ad5610816565b82105b15611b43578373ffffffffffffffffffffffffffffffffffffffff16611afd83611032565b73ffffffffffffffffffffffffffffffffffffffff1603611b3057611b2182611e88565b8080611b2c90613327565b9150505b8180611b3b90613327565b925050611ac3565b50505050565b6000806000905060005b611b5b610816565b811015611c07576000611b6d82611032565b905082600c60008373ffffffffffffffffffffffffffffffffffffffff1673ffffffffffffffffffffffffffffffffffffffff168152602001908152602001600020541115611bf957600c60008273ffffffffffffffffffffffffffffffffffffffff1673ffffffffffffffffffffffffffffffffffffffff1681526020019081526020016000205492505b508080600101915050611b53565b508091505090565b611c29828260405180602001604052806000815250611e96565b5050565b60008373ffffffffffffffffffffffffffffffffffffffff1663150b7a02611c53611a3b565b8786866040518563ffffffff1660e01b8152600401611c7594939291906133c4565b6020604051808303816000875af1925050508015611cb157506040513d601f19601f82011682018060405250810190611cae9190613425565b60015b611d09573d8060008114611ce1576040519150601f19603f3d011682016040523d82523d6000602084013e611ce6565b606091505b506000815103611d0157611d0063d1a57ed660e01b611795565b5b805181602001fd5b63150b7a0260e01b7bffffffffffffffffffffffffffffffffffffffffffffffffffffffff1916817bffffffffffffffffffffffffffffffffffffffffffffffffffffffff191614915050949350505050565b6060600a8054611d6b906129c8565b80601f0160208091040260200160405190810160405280929190818152602001828054611d97906129c8565b8015611de45780601f10611db957610100808354040283529160200191611de4565b820191906000526020600020905b815481529060010190602001808311611dc757829003601f168201915b5050505050905090565b606060a060405101806040526020810391506000825281835b600115611e2957600184039350600a81066030018453600a8104905080611e07575b50828103602084039350808452505050919050565b60007c0100000000000000000000000000000000000000000000000000000000821673ffffffffffffffffffffffffffffffffffffffff8316119050919050565b60009392505050565b611e93816000611f12565b50565b611ea08383612175565b60008373ffffffffffffffffffffffffffffffffffffffff163b14611f0d57600080549050600083820390505b611ee06000868380600101945086611c2d565b611ef557611ef463d1a57ed660e01b611795565b5b818110611ecd578160005414611f0a57600080fd5b50505b505050565b6000611f1d836118fb565b905060008173ffffffffffffffffffffffffffffffffffffffff1690506000819050600080611f4b87611a14565b915091508515611fa957611f7d8185611f62611a3b565b73ffffffffffffffffffffffffffffffffffffffff16611a43565b611fa857611f9283611f8d611a3b565b61162d565b611fa757611fa66359c896be60e01b611795565b5b5b5b611fb7836000896001611a55565b8015611fc257600082555b600160806001901b03600560008573ffffffffffffffffffffffffffffffffffffffff1673ffffffffffffffffffffffffffffffffffffffff1681526020019081526020016000206000828254019250508190555061206a8361202785600089611a5b565b7c02000000000000000000000000000000000000000000000000000000007c01000000000000000000000000000000000000000000000000000000001717611a83565b600460008981526020019081526020016000208190555060007c02000000000000000000000000000000000000000000000000000000008616036120f057600060018801905060006004600083815260200190815260200160002054036120ee5760005481146120ed578560046000838152602001908152602001600020819055505b5b505b86600073ffffffffffffffffffffffffffffffffffffffff168473ffffffffffffffffffffffffffffffffffffffff167fddf252ad1be2c89b69c2b068fc378daa952ba7f163c4a11628f55a4df523b3ef60405160405180910390a461215a836000896001611aae565b60016000815480929190600101919050555050505050505050565b600080549050600082036121945761219363b562e8dd60e01b611795565b5b6121a16000848385611a55565b6121c1836121b26000866000611a5b565b6121bb856122e5565b17611a83565b6004600083815260200190815260200160002081905550600160406001901b178202600560008573ffffffffffffffffffffffffffffffffffffffff1673ffffffffffffffffffffffffffffffffffffffff1681526020019081526020016000206000828254019250508190555060008373ffffffffffffffffffffffffffffffffffffffff1690506000810361226357612262632e07630060e01b611795565b5b6000838301905060008390506122776118d3565b600183031115612292576122916381647e3a60e01b611795565b5b5b808360007fddf252ad1be2c89b69c2b068fc378daa952ba7f163c4a11628f55a4df523b3ef600080a481816001019150810361229357816000819055505050506122e06000848385611aae565b505050565b60006001821460e11b9050919050565b6000604051905090565b600080fd5b600080fd5b60007fffffffff0000000000000000000000000000000000000000000000000000000082169050919050565b61233e81612309565b811461234957600080fd5b50565b60008135905061235b81612335565b92915050565b600060208284031215612377576123766122ff565b5b60006123858482850161234c565b91505092915050565b60008115159050919050565b6123a38161238e565b82525050565b60006020820190506123be600083018461239a565b92915050565b600081519050919050565b600082825260208201905092915050565b60005b838110156123fe5780820151818401526020810190506123e3565b60008484015250505050565b6000601f19601f8301169050919050565b6000612426826123c4565b61243081856123cf565b93506124408185602086016123e0565b6124498161240a565b840191505092915050565b6000602082019050818103600083015261246e818461241b565b905092915050565b6000819050919050565b61248981612476565b811461249457600080fd5b50565b6000813590506124a681612480565b92915050565b6000602082840312156124c2576124c16122ff565b5b60006124d084828501612497565b91505092915050565b600073ffffffffffffffffffffffffffffffffffffffff82169050919050565b6000612504826124d9565b9050919050565b612514816124f9565b82525050565b600060208201905061252f600083018461250b565b92915050565b61253e816124f9565b811461254957600080fd5b50565b60008135905061255b81612535565b92915050565b60008060408385031215612578576125776122ff565b5b60006125868582860161254c565b925050602061259785828601612497565b9150509250929050565b6125aa81612476565b82525050565b60006020820190506125c560008301846125a1565b92915050565b6000806000606084860312156125e4576125e36122ff565b5b60006125f28682870161254c565b93505060206126038682870161254c565b925050604061261486828701612497565b9150509250925092565b600060208284031215612634576126336122ff565b5b60006126428482850161254c565b91505092915050565b600080fd5b600080fd5b7f4e487b7100000000000000000000000000000000000000000000000000000000600052604160045260246000fd5b61268d8261240a565b810181811067ffffffffffffffff821117156126ac576126ab612655565b5b80604052505050565b60006126bf6122f5565b90506126cb8282612684565b919050565b600067ffffffffffffffff8211156126eb576126ea612655565b5b6126f48261240a565b9050602081019050919050565b82818337600083830152505050565b600061272361271e846126d0565b6126b5565b90508281526020810184848401111561273f5761273e612650565b5b61274a848285612701565b509392505050565b600082601f8301126127675761276661264b565b5b8135612777848260208601612710565b91505092915050565b600060208284031215612796576127956122ff565b5b600082013567ffffffffffffffff8111156127b4576127b3612304565b5b6127c084828501612752565b91505092915050565b6127d28161238e565b81146127dd57600080fd5b50565b6000813590506127ef816127c9565b92915050565b6000806040838503121561280c5761280b6122ff565b5b600061281a8582860161254c565b925050602061282b858286016127e0565b9150509250929050565b600067ffffffffffffffff8211156128505761284f612655565b5b6128598261240a565b9050602081019050919050565b600061287961287484612835565b6126b5565b90508281526020810184848401111561289557612894612650565b5b6128a0848285612701565b509392505050565b600082601f8301126128bd576128bc61264b565b5b81356128cd848260208601612866565b91505092915050565b600080600080608085870312156128f0576128ef6122ff565b5b60006128fe8782880161254c565b945050602061290f8782880161254c565b935050604061292087828801612497565b925050606085013567ffffffffffffffff81111561294157612940612304565b5b61294d878288016128a8565b91505092959194509250565b600080604083850312156129705761296f6122ff565b5b600061297e8582860161254c565b925050602061298f8582860161254c565b9150509250929050565b7f4e487b7100000000000000000000000000000000000000000000000000000000600052602260045260246000fd5b600060028204905060018216806129e057607f821691505b6020821081036129f3576129f2612999565b5b50919050565b7f496e76616c6964207175616e7469747900000000000000000000000000000000600082015250565b6000612a2f6010836123cf565b9150612a3a826129f9565b602082019050919050565b60006020820190508181036000830152612a5e81612a22565b9050919050565b7f526566756e6420706572696f642068617320616c7265616479206c617073656460008201527f2121000000000000000000000000000000000000000000000000000000000000602082015250565b6000612ac16022836123cf565b9150612acc82612a65565b604082019050919050565b60006020820190508181036000830152612af081612ab4565b9050919050565b7f4e487b7100000000000000000000000000000000000000000000000000000000600052601160045260246000fd5b6000612b3182612476565b9150612b3c83612476565b9250828202612b4a81612476565b91508282048414831517612b6157612b60612af7565b5b5092915050565b600081905092915050565b50565b6000612b83600083612b68565b9150612b8e82612b73565b600082019050919050565b6000612ba482612b76565b9150819050919050565b7f526566756e64206661696c656421210000000000000000000000000000000000600082015250565b6000612be4600f836123cf565b9150612bef82612bae565b602082019050919050565b60006020820190508181036000830152612c1381612bd7565b9050919050565b7f596f7520617265206e6f7420746865206f776e65722121000000000000000000600082015250565b6000612c506017836123cf565b9150612c5b82612c1a565b602082019050919050565b60006020820190508181036000830152612c7f81612c43565b9050919050565b7f4e6f204e465473206d696e7465642c20736f206e6f2062616c616e636520746f60008201527f2077697468647261772121000000000000000000000000000000000000000000602082015250565b6000612ce2602b836123cf565b9150612ced82612c86565b604082019050919050565b60006020820190508181036000830152612d1181612cd5565b9050919050565b6000612d2382612476565b9150612d2e83612476565b9250828201905080821115612d4657612d45612af7565b5b92915050565b7f526566756e6420706572696f64206e6f7420796574206f766572210000000000600082015250565b6000612d82601b836123cf565b9150612d8d82612d4c565b602082019050919050565b60006020820190508181036000830152612db181612d75565b9050919050565b7f5769746864726177616c206661696c6564212100000000000000000000000000600082015250565b6000612dee6013836123cf565b9150612df982612db8565b602082019050919050565b60006020820190508181036000830152612e1d81612de1565b9050919050565b60008190508160005260206000209050919050565b60006020601f8301049050919050565b600082821b905092915050565b600060088302612e867fffffffffffffffffffffffffffffffffffffffffffffffffffffffffffffffff82612e49565b612e908683612e49565b95508019841693508086168417925050509392505050565b6000819050919050565b6000612ecd612ec8612ec384612476565b612ea8565b612476565b9050919050565b6000819050919050565b612ee783612eb2565b612efb612ef382612ed4565b848454612e56565b825550505050565b600090565b612f10612f03565b612f1b818484612ede565b505050565b5b81811015612f3f57612f34600082612f08565b600181019050612f21565b5050565b601f821115612f8457612f5581612e24565b612f5e84612e39565b81016020851015612f6d578190505b612f81612f7985612e39565b830182612f20565b50505b505050565b600082821c905092915050565b6000612fa760001984600802612f89565b1980831691505092915050565b6000612fc08383612f96565b9150826002028217905092915050565b612fd9826123c4565b67ffffffffffffffff811115612ff257612ff1612655565b5b612ffc82546129c8565b613007828285612f43565b600060209050601f83116001811461303a5760008415613028578287015190505b6130328582612fb4565b86555061309a565b601f19841661304886612e24565b60005b828110156130705784890151825560018201915060208501945060208101905061304b565b8683101561308d5784890151613089601f891682612f96565b8355505b6001600288020188555050505b505050505050565b7f416d6f756e7420746f6f206d7563682c206578636565646573206d617820737560008201527f70706c7900000000000000000000000000000000000000000000000000000000602082015250565b60006130fe6024836123cf565b9150613109826130a2565b604082019050919050565b6000602082019050818103600083015261312d816130f1565b9050919050565b7f4d696e74206c696d697420657863656564656400000000000000000000000000600082015250565b600061316a6013836123cf565b915061317582613134565b602082019050919050565b600060208201905081810360008301526131998161315d565b9050919050565b7f496e73756666696369656e742062616c616e6365000000000000000000000000600082015250565b60006131d66014836123cf565b91506131e1826131a0565b602082019050919050565b60006020820190508181036000830152613205816131c9565b9050919050565b7f536f72727920796f752068617665207265616368656420796f7572206d61782060008201527f6d696e74206c696d697421210000000000000000000000000000000000000000602082015250565b6000613268602c836123cf565b91506132738261320c565b604082019050919050565b600060208201905081810360008301526132978161325b565b9050919050565b600081905092915050565b60006132b4826123c4565b6132be818561329e565b93506132ce8185602086016123e0565b80840191505092915050565b60006132e682856132a9565b91506132f282846132a9565b91508190509392505050565b600061330982612476565b91506000820361331c5761331b612af7565b5b600182039050919050565b600061333282612476565b91507fffffffffffffffffffffffffffffffffffffffffffffffffffffffffffffffff820361336457613363612af7565b5b600182019050919050565b600081519050919050565b600082825260208201905092915050565b60006133968261336f565b6133a0818561337a565b93506133b08185602086016123e0565b6133b98161240a565b840191505092915050565b60006080820190506133d9600083018761250b565b6133e6602083018661250b565b6133f360408301856125a1565b8181036060830152613405818461338b565b905095945050505050565b60008151905061341f81612335565b92915050565b60006020828403121561343b5761343a6122ff565b5b600061344984828501613410565b9150509291505056fea2646970667358221220e723d0c9ae3b6f85b544c81de0bc690c39e8cc661b6c726ae12608b5f61069fc64736f6c634300081b0033","opcodes":"PUSH1 0x80 PUSH1 0x40 MSTORE CALLVALUE DUP1 ISZERO PUSH2 0x10 JUMPI PUSH1 0x0 DUP1 REVERT JUMPDEST POP PUSH1 0x40 MLOAD PUSH2 0x3AE3 CODESIZE SUB DUP1 PUSH2 0x3AE3 DUP4 CODECOPY DUP2 DUP2 ADD PUSH1 0x40 MSTORE DUP2 ADD SWAP1 PUSH2 0x32 SWAP2 SWAP1 PUSH2 0x310 JUMP JUMPDEST PUSH1 0x40 MLOAD DUP1 PUSH1 0x40 ADD PUSH1 0x40 MSTORE DUP1 PUSH1 0xA DUP2 MSTORE PUSH1 0x20 ADD PUSH32 0x4561726C79204269726400000000000000000000000000000000000000000000 DUP2 MSTORE POP PUSH1 0x40 MLOAD DUP1 PUSH1 0x40 ADD PUSH1 0x40 MSTORE DUP1 PUSH1 0x3 DUP2 MSTORE PUSH1 0x20 ADD PUSH32 0x4552420000000000000000000000000000000000000000000000000000000000 DUP2 MSTORE POP DUP2 PUSH1 0x2 SWAP1 DUP2 PUSH2 0xAD SWAP2 SWAP1 PUSH2 0x57A JUMP JUMPDEST POP DUP1 PUSH1 0x3 SWAP1 DUP2 PUSH2 0xBD SWAP2 SWAP1 PUSH2 0x57A JUMP JUMPDEST POP PUSH2 0xCC PUSH2 0x164 PUSH1 0x20 SHL PUSH1 0x20 SHR JUMP JUMPDEST PUSH1 0x0 DUP2 SWAP1 SSTORE POP PUSH2 0xE0 PUSH2 0x164 PUSH1 0x20 SHL PUSH1 0x20 SHR JUMP JUMPDEST PUSH2 0xEE PUSH2 0x169 PUSH1 0x20 SHL PUSH1 0x20 SHR JUMP JUMPDEST LT ISZERO PUSH2 0x10B JUMPI PUSH2 0x10A PUSH4 0xFED8210F PUSH1 0xE0 SHL PUSH2 0x191 PUSH1 0x20 SHL PUSH1 0x20 SHR JUMP JUMPDEST JUMPDEST POP POP CALLER PUSH1 0x9 PUSH1 0x0 PUSH2 0x100 EXP DUP2 SLOAD DUP2 PUSH20 0xFFFFFFFFFFFFFFFFFFFFFFFFFFFFFFFFFFFFFFFF MUL NOT AND SWAP1 DUP4 PUSH20 0xFFFFFFFFFFFFFFFFFFFFFFFFFFFFFFFFFFFFFFFF AND MUL OR SWAP1 SSTORE POP DUP1 PUSH1 0xA SWAP1 DUP2 PUSH2 0x15D SWAP2 SWAP1 PUSH2 0x57A JUMP JUMPDEST POP POP PUSH2 0x64C JUMP JUMPDEST PUSH1 0x0 SWAP1 JUMP JUMPDEST PUSH1 0x0 PUSH32 0xFFFFFFFFFFFFFFFFFFFFFFFFFFFFFFFFFFFFFFFFFFFFFFFFFFFFFFFFFFFFFFFF SWAP1 POP SWAP1 JUMP JUMPDEST DUP1 PUSH1 0x0 MSTORE PUSH1 0x4 PUSH1 0x0 REVERT JUMPDEST PUSH1 0x0 PUSH1 0x40 MLOAD SWAP1 POP SWAP1 JUMP JUMPDEST PUSH1 0x0 DUP1 REVERT JUMPDEST PUSH1 0x0 DUP1 REVERT JUMPDEST PUSH1 0x0 DUP1 REVERT JUMPDEST PUSH1 0x0 DUP1 REVERT JUMPDEST PUSH1 0x0 PUSH1 0x1F NOT PUSH1 0x1F DUP4 ADD AND SWAP1 POP SWAP2 SWAP1 POP JUMP JUMPDEST PUSH32 0x4E487B7100000000000000000000000000000000000000000000000000000000 PUSH1 0x0 MSTORE PUSH1 0x41 PUSH1 0x4 MSTORE PUSH1 0x24 PUSH1 0x0 REVERT JUMPDEST PUSH2 0x202 DUP3 PUSH2 0x1B9 JUMP JUMPDEST DUP2 ADD DUP2 DUP2 LT PUSH8 0xFFFFFFFFFFFFFFFF DUP3 GT OR ISZERO PUSH2 0x221 JUMPI PUSH2 0x220 PUSH2 0x1CA JUMP JUMPDEST JUMPDEST DUP1 PUSH1 0x40 MSTORE POP POP POP JUMP JUMPDEST PUSH1 0x0 PUSH2 0x234 PUSH2 0x19B JUMP JUMPDEST SWAP1 POP PUSH2 0x240 DUP3 DUP3 PUSH2 0x1F9 JUMP JUMPDEST SWAP2 SWAP1 POP JUMP JUMPDEST PUSH1 0x0 PUSH8 0xFFFFFFFFFFFFFFFF DUP3 GT ISZERO PUSH2 0x260 JUMPI PUSH2 0x25F PUSH2 0x1CA JUMP JUMPDEST JUMPDEST PUSH2 0x269 DUP3 PUSH2 0x1B9 JUMP JUMPDEST SWAP1 POP PUSH1 0x20 DUP2 ADD SWAP1 POP SWAP2 SWAP1 POP JUMP JUMPDEST PUSH1 0x0 JUMPDEST DUP4 DUP2 LT ISZERO PUSH2 0x294 JUMPI DUP1 DUP3 ADD MLOAD DUP2 DUP5 ADD MSTORE PUSH1 0x20 DUP2 ADD SWAP1 POP PUSH2 0x279 JUMP JUMPDEST PUSH1 0x0 DUP5 DUP5 ADD MSTORE POP POP POP POP JUMP JUMPDEST PUSH1 0x0 PUSH2 0x2B3 PUSH2 0x2AE DUP5 PUSH2 0x245 JUMP JUMPDEST PUSH2 0x22A JUMP JUMPDEST SWAP1 POP DUP3 DUP2 MSTORE PUSH1 0x20 DUP2 ADD DUP5 DUP5 DUP5 ADD GT ISZERO PUSH2 0x2CF JUMPI PUSH2 0x2CE PUSH2 0x1B4 JUMP JUMPDEST JUMPDEST PUSH2 0x2DA DUP5 DUP3 DUP6 PUSH2 0x276 JUMP JUMPDEST POP SWAP4 SWAP3 POP POP POP JUMP JUMPDEST PUSH1 0x0 DUP3 PUSH1 0x1F DUP4 ADD SLT PUSH2 0x2F7 JUMPI PUSH2 0x2F6 PUSH2 0x1AF JUMP JUMPDEST JUMPDEST DUP2 MLOAD PUSH2 0x307 DUP5 DUP3 PUSH1 0x20 DUP7 ADD PUSH2 0x2A0 JUMP JUMPDEST SWAP2 POP POP SWAP3 SWAP2 POP POP JUMP JUMPDEST PUSH1 0x0 PUSH1 0x20 DUP3 DUP5 SUB SLT ISZERO PUSH2 0x326 JUMPI PUSH2 0x325 PUSH2 0x1A5 JUMP JUMPDEST JUMPDEST PUSH1 0x0 DUP3 ADD MLOAD PUSH8 0xFFFFFFFFFFFFFFFF DUP2 GT ISZERO PUSH2 0x344 JUMPI PUSH2 0x343 PUSH2 0x1AA JUMP JUMPDEST JUMPDEST PUSH2 0x350 DUP5 DUP3 DUP6 ADD PUSH2 0x2E2 JUMP JUMPDEST SWAP2 POP POP SWAP3 SWAP2 POP POP JUMP JUMPDEST PUSH1 0x0 DUP2 MLOAD SWAP1 POP SWAP2 SWAP1 POP JUMP JUMPDEST PUSH32 0x4E487B7100000000000000000000000000000000000000000000000000000000 PUSH1 0x0 MSTORE PUSH1 0x22 PUSH1 0x4 MSTORE PUSH1 0x24 PUSH1 0x0 REVERT JUMPDEST PUSH1 0x0 PUSH1 0x2 DUP3 DIV SWAP1 POP PUSH1 0x1 DUP3 AND DUP1 PUSH2 0x3AB JUMPI PUSH1 0x7F DUP3 AND SWAP2 POP JUMPDEST PUSH1 0x20 DUP3 LT DUP2 SUB PUSH2 0x3BE JUMPI PUSH2 0x3BD PUSH2 0x364 JUMP JUMPDEST JUMPDEST POP SWAP2 SWAP1 POP JUMP JUMPDEST PUSH1 0x0 DUP2 SWAP1 POP DUP2 PUSH1 0x0 MSTORE PUSH1 0x20 PUSH1 0x0 KECCAK256 SWAP1 POP SWAP2 SWAP1 POP JUMP JUMPDEST PUSH1 0x0 PUSH1 0x20 PUSH1 0x1F DUP4 ADD DIV SWAP1 POP SWAP2 SWAP1 POP JUMP JUMPDEST PUSH1 0x0 DUP3 DUP3 SHL SWAP1 POP SWAP3 SWAP2 POP POP JUMP JUMPDEST PUSH1 0x0 PUSH1 0x8 DUP4 MUL PUSH2 0x426 PUSH32 0xFFFFFFFFFFFFFFFFFFFFFFFFFFFFFFFFFFFFFFFFFFFFFFFFFFFFFFFFFFFFFFFF DUP3 PUSH2 0x3E9 JUMP JUMPDEST PUSH2 0x430 DUP7 DUP4 PUSH2 0x3E9 JUMP JUMPDEST SWAP6 POP DUP1 NOT DUP5 AND SWAP4 POP DUP1 DUP7 AND DUP5 OR SWAP3 POP POP POP SWAP4 SWAP3 POP POP POP JUMP JUMPDEST PUSH1 0x0 DUP2 SWAP1 POP SWAP2 SWAP1 POP JUMP JUMPDEST PUSH1 0x0 DUP2 SWAP1 POP SWAP2 SWAP1 POP JUMP JUMPDEST PUSH1 0x0 PUSH2 0x477 PUSH2 0x472 PUSH2 0x46D DUP5 PUSH2 0x448 JUMP JUMPDEST PUSH2 0x452 JUMP JUMPDEST PUSH2 0x448 JUMP JUMPDEST SWAP1 POP SWAP2 SWAP1 POP JUMP JUMPDEST PUSH1 0x0 DUP2 SWAP1 POP SWAP2 SWAP1 POP JUMP JUMPDEST PUSH2 0x491 DUP4 PUSH2 0x45C JUMP JUMPDEST PUSH2 0x4A5 PUSH2 0x49D DUP3 PUSH2 0x47E JUMP JUMPDEST DUP5 DUP5 SLOAD PUSH2 0x3F6 JUMP JUMPDEST DUP3 SSTORE POP POP POP POP JUMP JUMPDEST PUSH1 0x0 SWAP1 JUMP JUMPDEST PUSH2 0x4BA PUSH2 0x4AD JUMP JUMPDEST PUSH2 0x4C5 DUP2 DUP5 DUP5 PUSH2 0x488 JUMP JUMPDEST POP POP POP JUMP JUMPDEST JUMPDEST DUP2 DUP2 LT ISZERO PUSH2 0x4E9 JUMPI PUSH2 0x4DE PUSH1 0x0 DUP3 PUSH2 0x4B2 JUMP JUMPDEST PUSH1 0x1 DUP2 ADD SWAP1 POP PUSH2 0x4CB JUMP JUMPDEST POP POP JUMP JUMPDEST PUSH1 0x1F DUP3 GT ISZERO PUSH2 0x52E JUMPI PUSH2 0x4FF DUP2 PUSH2 0x3C4 JUMP JUMPDEST PUSH2 0x508 DUP5 PUSH2 0x3D9 JUMP JUMPDEST DUP2 ADD PUSH1 0x20 DUP6 LT ISZERO PUSH2 0x517 JUMPI DUP2 SWAP1 POP JUMPDEST PUSH2 0x52B PUSH2 0x523 DUP6 PUSH2 0x3D9 JUMP JUMPDEST DUP4 ADD DUP3 PUSH2 0x4CA JUMP JUMPDEST POP POP JUMPDEST POP POP POP JUMP JUMPDEST PUSH1 0x0 DUP3 DUP3 SHR SWAP1 POP SWAP3 SWAP2 POP POP JUMP JUMPDEST PUSH1 0x0 PUSH2 0x551 PUSH1 0x0 NOT DUP5 PUSH1 0x8 MUL PUSH2 0x533 JUMP JUMPDEST NOT DUP1 DUP4 AND SWAP2 POP POP SWAP3 SWAP2 POP POP JUMP JUMPDEST PUSH1 0x0 PUSH2 0x56A DUP4 DUP4 PUSH2 0x540 JUMP JUMPDEST SWAP2 POP DUP3 PUSH1 0x2 MUL DUP3 OR SWAP1 POP SWAP3 SWAP2 POP POP JUMP JUMPDEST PUSH2 0x583 DUP3 PUSH2 0x359 JUMP JUMPDEST PUSH8 0xFFFFFFFFFFFFFFFF DUP2 GT ISZERO PUSH2 0x59C JUMPI PUSH2 0x59B PUSH2 0x1CA JUMP JUMPDEST JUMPDEST PUSH2 0x5A6 DUP3 SLOAD PUSH2 0x393 JUMP JUMPDEST PUSH2 0x5B1 DUP3 DUP3 DUP6 PUSH2 0x4ED JUMP JUMPDEST PUSH1 0x0 PUSH1 0x20 SWAP1 POP PUSH1 0x1F DUP4 GT PUSH1 0x1 DUP2 EQ PUSH2 0x5E4 JUMPI PUSH1 0x0 DUP5 ISZERO PUSH2 0x5D2 JUMPI DUP3 DUP8 ADD MLOAD SWAP1 POP JUMPDEST PUSH2 0x5DC DUP6 DUP3 PUSH2 0x55E JUMP JUMPDEST DUP7 SSTORE POP PUSH2 0x644 JUMP JUMPDEST PUSH1 0x1F NOT DUP5 AND PUSH2 0x5F2 DUP7 PUSH2 0x3C4 JUMP JUMPDEST PUSH1 0x0 JUMPDEST DUP3 DUP2 LT ISZERO PUSH2 0x61A JUMPI DUP5 DUP10 ADD MLOAD DUP3 SSTORE PUSH1 0x1 DUP3 ADD SWAP2 POP PUSH1 0x20 DUP6 ADD SWAP5 POP PUSH1 0x20 DUP2 ADD SWAP1 POP PUSH2 0x5F5 JUMP JUMPDEST DUP7 DUP4 LT ISZERO PUSH2 0x637 JUMPI DUP5 DUP10 ADD MLOAD PUSH2 0x633 PUSH1 0x1F DUP10 AND DUP3 PUSH2 0x540 JUMP JUMPDEST DUP4 SSTORE POP JUMPDEST PUSH1 0x1 PUSH1 0x2 DUP9 MUL ADD DUP9 SSTORE POP POP POP JUMPDEST POP POP POP POP POP POP JUMP JUMPDEST PUSH2 0x3488 DUP1 PUSH2 0x65B PUSH1 0x0 CODECOPY PUSH1 0x0 RETURN INVALID PUSH1 0x80 PUSH1 0x40 MSTORE PUSH1 0x4 CALLDATASIZE LT PUSH2 0x19C JUMPI PUSH1 0x0 CALLDATALOAD PUSH1 0xE0 SHR DUP1 PUSH4 0x70A08231 GT PUSH2 0xEC JUMPI DUP1 PUSH4 0xB88D4FDE GT PUSH2 0x8A JUMPI DUP1 PUSH4 0xE985E9C5 GT PUSH2 0x64 JUMPI DUP1 PUSH4 0xE985E9C5 EQ PUSH2 0x5B4 JUMPI DUP1 PUSH4 0xEFDFB8EA EQ PUSH2 0x5F1 JUMPI DUP1 PUSH4 0xF0292A03 EQ PUSH2 0x62E JUMPI DUP1 PUSH4 0xF5C1BE3C EQ PUSH2 0x659 JUMPI PUSH2 0x19C JUMP JUMPDEST DUP1 PUSH4 0xB88D4FDE EQ PUSH2 0x530 JUMPI DUP1 PUSH4 0xC87B56DD EQ PUSH2 0x54C JUMPI DUP1 PUSH4 0xD547CFB7 EQ PUSH2 0x589 JUMPI PUSH2 0x19C JUMP JUMPDEST DUP1 PUSH4 0x95D89B41 GT PUSH2 0xC6 JUMPI DUP1 PUSH4 0x95D89B41 EQ PUSH2 0x481 JUMPI DUP1 PUSH4 0xA0712D68 EQ PUSH2 0x4AC JUMPI DUP1 PUSH4 0xA22CB465 EQ PUSH2 0x4DC JUMPI DUP1 PUSH4 0xB19960E6 EQ PUSH2 0x505 JUMPI PUSH2 0x19C JUMP JUMPDEST DUP1 PUSH4 0x70A08231 EQ PUSH2 0x3EE JUMPI DUP1 PUSH4 0x7F6578D3 EQ PUSH2 0x42B JUMPI DUP1 PUSH4 0x8DA5CB5B EQ PUSH2 0x456 JUMPI PUSH2 0x19C JUMP JUMPDEST DUP1 PUSH4 0x2538354D GT PUSH2 0x159 JUMPI DUP1 PUSH4 0x3CCFD60B GT PUSH2 0x133 JUMPI DUP1 PUSH4 0x3CCFD60B EQ PUSH2 0x34E JUMPI DUP1 PUSH4 0x42842E0E EQ PUSH2 0x36C JUMPI DUP1 PUSH4 0x55F804B3 EQ PUSH2 0x388 JUMPI DUP1 PUSH4 0x6352211E EQ PUSH2 0x3B1 JUMPI PUSH2 0x19C JUMP JUMPDEST DUP1 PUSH4 0x2538354D EQ PUSH2 0x2A9 JUMPI DUP1 PUSH4 0x278ECDE1 EQ PUSH2 0x2E6 JUMPI DUP1 PUSH4 0x32CB6B0C EQ PUSH2 0x323 JUMPI PUSH2 0x19C JUMP JUMPDEST DUP1 PUSH4 0x1FFC9A7 EQ PUSH2 0x1A1 JUMPI DUP1 PUSH4 0x6FDDE03 EQ PUSH2 0x1DE JUMPI DUP1 PUSH4 0x81812FC EQ PUSH2 0x209 JUMPI DUP1 PUSH4 0x95EA7B3 EQ PUSH2 0x246 JUMPI DUP1 PUSH4 0x18160DDD EQ PUSH2 0x262 JUMPI DUP1 PUSH4 0x23B872DD EQ PUSH2 0x28D JUMPI JUMPDEST PUSH1 0x0 DUP1 REVERT JUMPDEST CALLVALUE DUP1 ISZERO PUSH2 0x1AD JUMPI PUSH1 0x0 DUP1 REVERT JUMPDEST POP PUSH2 0x1C8 PUSH1 0x4 DUP1 CALLDATASIZE SUB DUP2 ADD SWAP1 PUSH2 0x1C3 SWAP2 SWAP1 PUSH2 0x2361 JUMP JUMPDEST PUSH2 0x684 JUMP JUMPDEST PUSH1 0x40 MLOAD PUSH2 0x1D5 SWAP2 SWAP1 PUSH2 0x23A9 JUMP JUMPDEST PUSH1 0x40 MLOAD DUP1 SWAP2 SUB SWAP1 RETURN JUMPDEST CALLVALUE DUP1 ISZERO PUSH2 0x1EA JUMPI PUSH1 0x0 DUP1 REVERT JUMPDEST POP PUSH2 0x1F3 PUSH2 0x716 JUMP JUMPDEST PUSH1 0x40 MLOAD PUSH2 0x200 SWAP2 SWAP1 PUSH2 0x2454 JUMP JUMPDEST PUSH1 0x40 MLOAD DUP1 SWAP2 SUB SWAP1 RETURN JUMPDEST CALLVALUE DUP1 ISZERO PUSH2 0x215 JUMPI PUSH1 0x0 DUP1 REVERT JUMPDEST POP PUSH2 0x230 PUSH1 0x4 DUP1 CALLDATASIZE SUB DUP2 ADD SWAP1 PUSH2 0x22B SWAP2 SWAP1 PUSH2 0x24AC JUMP JUMPDEST PUSH2 0x7A8 JUMP JUMPDEST PUSH1 0x40 MLOAD PUSH2 0x23D SWAP2 SWAP1 PUSH2 0x251A JUMP JUMPDEST PUSH1 0x40 MLOAD DUP1 SWAP2 SUB SWAP1 RETURN JUMPDEST PUSH2 0x260 PUSH1 0x4 DUP1 CALLDATASIZE SUB DUP2 ADD SWAP1 PUSH2 0x25B SWAP2 SWAP1 PUSH2 0x2561 JUMP JUMPDEST PUSH2 0x806 JUMP JUMPDEST STOP JUMPDEST CALLVALUE DUP1 ISZERO PUSH2 0x26E JUMPI PUSH1 0x0 DUP1 REVERT JUMPDEST POP PUSH2 0x277 PUSH2 0x816 JUMP JUMPDEST PUSH1 0x40 MLOAD PUSH2 0x284 SWAP2 SWAP1 PUSH2 0x25B0 JUMP JUMPDEST PUSH1 0x40 MLOAD DUP1 SWAP2 SUB SWAP1 RETURN JUMPDEST PUSH2 0x2A7 PUSH1 0x4 DUP1 CALLDATASIZE SUB DUP2 ADD SWAP1 PUSH2 0x2A2 SWAP2 SWAP1 PUSH2 0x25CB JUMP JUMPDEST PUSH2 0x863 JUMP JUMPDEST STOP JUMPDEST CALLVALUE DUP1 ISZERO PUSH2 0x2B5 JUMPI PUSH1 0x0 DUP1 REVERT JUMPDEST POP PUSH2 0x2D0 PUSH1 0x4 DUP1 CALLDATASIZE SUB DUP2 ADD SWAP1 PUSH2 0x2CB SWAP2 SWAP1 PUSH2 0x261E JUMP JUMPDEST PUSH2 0xAFB JUMP JUMPDEST PUSH1 0x40 MLOAD PUSH2 0x2DD SWAP2 SWAP1 PUSH2 0x25B0 JUMP JUMPDEST PUSH1 0x40 MLOAD DUP1 SWAP2 SUB SWAP1 RETURN JUMPDEST CALLVALUE DUP1 ISZERO PUSH2 0x2F2 JUMPI PUSH1 0x0 DUP1 REVERT JUMPDEST POP PUSH2 0x30D PUSH1 0x4 DUP1 CALLDATASIZE SUB DUP2 ADD SWAP1 PUSH2 0x308 SWAP2 SWAP1 PUSH2 0x24AC JUMP JUMPDEST PUSH2 0xB13 JUMP JUMPDEST PUSH1 0x40 MLOAD PUSH2 0x31A SWAP2 SWAP1 PUSH2 0x23A9 JUMP JUMPDEST PUSH1 0x40 MLOAD DUP1 SWAP2 SUB SWAP1 RETURN JUMPDEST CALLVALUE DUP1 ISZERO PUSH2 0x32F JUMPI PUSH1 0x0 DUP1 REVERT JUMPDEST POP PUSH2 0x338 PUSH2 0xCFD JUMP JUMPDEST PUSH1 0x40 MLOAD PUSH2 0x345 SWAP2 SWAP1 PUSH2 0x25B0 JUMP JUMPDEST PUSH1 0x40 MLOAD DUP1 SWAP2 SUB SWAP1 RETURN JUMPDEST PUSH2 0x356 PUSH2 0xD03 JUMP JUMPDEST PUSH1 0x40 MLOAD PUSH2 0x363 SWAP2 SWAP1 PUSH2 0x23A9 JUMP JUMPDEST PUSH1 0x40 MLOAD DUP1 SWAP2 SUB SWAP1 RETURN JUMPDEST PUSH2 0x386 PUSH1 0x4 DUP1 CALLDATASIZE SUB DUP2 ADD SWAP1 PUSH2 0x381 SWAP2 SWAP1 PUSH2 0x25CB JUMP JUMPDEST PUSH2 0xF6F JUMP JUMPDEST STOP JUMPDEST CALLVALUE DUP1 ISZERO PUSH2 0x394 JUMPI PUSH1 0x0 DUP1 REVERT JUMPDEST POP PUSH2 0x3AF PUSH1 0x4 DUP1 CALLDATASIZE SUB DUP2 ADD SWAP1 PUSH2 0x3AA SWAP2 SWAP1 PUSH2 0x2780 JUMP JUMPDEST PUSH2 0xF8F JUMP JUMPDEST STOP JUMPDEST CALLVALUE DUP1 ISZERO PUSH2 0x3BD JUMPI PUSH1 0x0 DUP1 REVERT JUMPDEST POP PUSH2 0x3D8 PUSH1 0x4 DUP1 CALLDATASIZE SUB DUP2 ADD SWAP1 PUSH2 0x3D3 SWAP2 SWAP1 PUSH2 0x24AC JUMP JUMPDEST PUSH2 0x1032 JUMP JUMPDEST PUSH1 0x40 MLOAD PUSH2 0x3E5 SWAP2 SWAP1 PUSH2 0x251A JUMP JUMPDEST PUSH1 0x40 MLOAD DUP1 SWAP2 SUB SWAP1 RETURN JUMPDEST CALLVALUE DUP1 ISZERO PUSH2 0x3FA JUMPI PUSH1 0x0 DUP1 REVERT JUMPDEST POP PUSH2 0x415 PUSH1 0x4 DUP1 CALLDATASIZE SUB DUP2 ADD SWAP1 PUSH2 0x410 SWAP2 SWAP1 PUSH2 0x261E JUMP JUMPDEST PUSH2 0x1044 JUMP JUMPDEST PUSH1 0x40 MLOAD PUSH2 0x422 SWAP2 SWAP1 PUSH2 0x25B0 JUMP JUMPDEST PUSH1 0x40 MLOAD DUP1 SWAP2 SUB SWAP1 RETURN JUMPDEST CALLVALUE DUP1 ISZERO PUSH2 0x437 JUMPI PUSH1 0x0 DUP1 REVERT JUMPDEST POP PUSH2 0x440 PUSH2 0x10DB JUMP JUMPDEST PUSH1 0x40 MLOAD PUSH2 0x44D SWAP2 SWAP1 PUSH2 0x25B0 JUMP JUMPDEST PUSH1 0x40 MLOAD DUP1 SWAP2 SUB SWAP1 RETURN JUMPDEST CALLVALUE DUP1 ISZERO PUSH2 0x462 JUMPI PUSH1 0x0 DUP1 REVERT JUMPDEST POP PUSH2 0x46B PUSH2 0x10E0 JUMP JUMPDEST PUSH1 0x40 MLOAD PUSH2 0x478 SWAP2 SWAP1 PUSH2 0x251A JUMP JUMPDEST PUSH1 0x40 MLOAD DUP1 SWAP2 SUB SWAP1 RETURN JUMPDEST CALLVALUE DUP1 ISZERO PUSH2 0x48D JUMPI PUSH1 0x0 DUP1 REVERT JUMPDEST POP PUSH2 0x496 PUSH2 0x1106 JUMP JUMPDEST PUSH1 0x40 MLOAD PUSH2 0x4A3 SWAP2 SWAP1 PUSH2 0x2454 JUMP JUMPDEST PUSH1 0x40 MLOAD DUP1 SWAP2 SUB SWAP1 RETURN JUMPDEST PUSH2 0x4C6 PUSH1 0x4 DUP1 CALLDATASIZE SUB DUP2 ADD SWAP1 PUSH2 0x4C1 SWAP2 SWAP1 PUSH2 0x24AC JUMP JUMPDEST PUSH2 0x1198 JUMP JUMPDEST PUSH1 0x40 MLOAD PUSH2 0x4D3 SWAP2 SWAP1 PUSH2 0x23A9 JUMP JUMPDEST PUSH1 0x40 MLOAD DUP1 SWAP2 SUB SWAP1 RETURN JUMPDEST CALLVALUE DUP1 ISZERO PUSH2 0x4E8 JUMPI PUSH1 0x0 DUP1 REVERT JUMPDEST POP PUSH2 0x503 PUSH1 0x4 DUP1 CALLDATASIZE SUB DUP2 ADD SWAP1 PUSH2 0x4FE SWAP2 SWAP1 PUSH2 0x27F5 JUMP JUMPDEST PUSH2 0x13C0 JUMP JUMPDEST STOP JUMPDEST CALLVALUE DUP1 ISZERO PUSH2 0x511 JUMPI PUSH1 0x0 DUP1 REVERT JUMPDEST POP PUSH2 0x51A PUSH2 0x14CB JUMP JUMPDEST PUSH1 0x40 MLOAD PUSH2 0x527 SWAP2 SWAP1 PUSH2 0x25B0 JUMP JUMPDEST PUSH1 0x40 MLOAD DUP1 SWAP2 SUB SWAP1 RETURN JUMPDEST PUSH2 0x54A PUSH1 0x4 DUP1 CALLDATASIZE SUB DUP2 ADD SWAP1 PUSH2 0x545 SWAP2 SWAP1 PUSH2 0x28D6 JUMP JUMPDEST PUSH2 0x14D0 JUMP JUMPDEST STOP JUMPDEST CALLVALUE DUP1 ISZERO PUSH2 0x558 JUMPI PUSH1 0x0 DUP1 REVERT JUMPDEST POP PUSH2 0x573 PUSH1 0x4 DUP1 CALLDATASIZE SUB DUP2 ADD SWAP1 PUSH2 0x56E SWAP2 SWAP1 PUSH2 0x24AC JUMP JUMPDEST PUSH2 0x1522 JUMP JUMPDEST PUSH1 0x40 MLOAD PUSH2 0x580 SWAP2 SWAP1 PUSH2 0x2454 JUMP JUMPDEST PUSH1 0x40 MLOAD DUP1 SWAP2 SUB SWAP1 RETURN JUMPDEST CALLVALUE DUP1 ISZERO PUSH2 0x595 JUMPI PUSH1 0x0 DUP1 REVERT JUMPDEST POP PUSH2 0x59E PUSH2 0x159F JUMP JUMPDEST PUSH1 0x40 MLOAD PUSH2 0x5AB SWAP2 SWAP1 PUSH2 0x2454 JUMP JUMPDEST PUSH1 0x40 MLOAD DUP1 SWAP2 SUB SWAP1 RETURN JUMPDEST CALLVALUE DUP1 ISZERO PUSH2 0x5C0 JUMPI PUSH1 0x0 DUP1 REVERT JUMPDEST POP PUSH2 0x5DB PUSH1 0x4 DUP1 CALLDATASIZE SUB DUP2 ADD SWAP1 PUSH2 0x5D6 SWAP2 SWAP1 PUSH2 0x2959 JUMP JUMPDEST PUSH2 0x162D JUMP JUMPDEST PUSH1 0x40 MLOAD PUSH2 0x5E8 SWAP2 SWAP1 PUSH2 0x23A9 JUMP JUMPDEST PUSH1 0x40 MLOAD DUP1 SWAP2 SUB SWAP1 RETURN JUMPDEST CALLVALUE DUP1 ISZERO PUSH2 0x5FD JUMPI PUSH1 0x0 DUP1 REVERT JUMPDEST POP PUSH2 0x618 PUSH1 0x4 DUP1 CALLDATASIZE SUB DUP2 ADD SWAP1 PUSH2 0x613 SWAP2 SWAP1 PUSH2 0x261E JUMP JUMPDEST PUSH2 0x16C1 JUMP JUMPDEST PUSH1 0x40 MLOAD PUSH2 0x625 SWAP2 SWAP1 PUSH2 0x25B0 JUMP JUMPDEST PUSH1 0x40 MLOAD DUP1 SWAP2 SUB SWAP1 RETURN JUMPDEST CALLVALUE DUP1 ISZERO PUSH2 0x63A JUMPI PUSH1 0x0 DUP1 REVERT JUMPDEST POP PUSH2 0x643 PUSH2 0x16D9 JUMP JUMPDEST PUSH1 0x40 MLOAD PUSH2 0x650 SWAP2 SWAP1 PUSH2 0x25B0 JUMP JUMPDEST PUSH1 0x40 MLOAD DUP1 SWAP2 SUB SWAP1 RETURN JUMPDEST CALLVALUE DUP1 ISZERO PUSH2 0x665 JUMPI PUSH1 0x0 DUP1 REVERT JUMPDEST POP PUSH2 0x66E PUSH2 0x16DE JUMP JUMPDEST PUSH1 0x40 MLOAD PUSH2 0x67B SWAP2 SWAP1 PUSH2 0x25B0 JUMP JUMPDEST PUSH1 0x40 MLOAD DUP1 SWAP2 SUB SWAP1 RETURN JUMPDEST PUSH1 0x0 PUSH4 0x1FFC9A7 PUSH1 0xE0 SHL DUP3 PUSH28 0xFFFFFFFFFFFFFFFFFFFFFFFFFFFFFFFFFFFFFFFFFFFFFFFFFFFFFFFF NOT AND EQ DUP1 PUSH2 0x6DF JUMPI POP PUSH4 0x80AC58CD PUSH1 0xE0 SHL DUP3 PUSH28 0xFFFFFFFFFFFFFFFFFFFFFFFFFFFFFFFFFFFFFFFFFFFFFFFFFFFFFFFF NOT AND EQ JUMPDEST DUP1 PUSH2 0x70F JUMPI POP PUSH4 0x5B5E139F PUSH1 0xE0 SHL DUP3 PUSH28 0xFFFFFFFFFFFFFFFFFFFFFFFFFFFFFFFFFFFFFFFFFFFFFFFFFFFFFFFF NOT AND EQ JUMPDEST SWAP1 POP SWAP2 SWAP1 POP JUMP JUMPDEST PUSH1 0x60 PUSH1 0x2 DUP1 SLOAD PUSH2 0x725 SWAP1 PUSH2 0x29C8 JUMP JUMPDEST DUP1 PUSH1 0x1F ADD PUSH1 0x20 DUP1 SWAP2 DIV MUL PUSH1 0x20 ADD PUSH1 0x40 MLOAD SWAP1 DUP2 ADD PUSH1 0x40 MSTORE DUP1 SWAP3 SWAP2 SWAP1 DUP2 DUP2 MSTORE PUSH1 0x20 ADD DUP3 DUP1 SLOAD PUSH2 0x751 SWAP1 PUSH2 0x29C8 JUMP JUMPDEST DUP1 ISZERO PUSH2 0x79E JUMPI DUP1 PUSH1 0x1F LT PUSH2 0x773 JUMPI PUSH2 0x100 DUP1 DUP4 SLOAD DIV MUL DUP4 MSTORE SWAP2 PUSH1 0x20 ADD SWAP2 PUSH2 0x79E JUMP JUMPDEST DUP3 ADD SWAP2 SWAP1 PUSH1 0x0 MSTORE PUSH1 0x20 PUSH1 0x0 KECCAK256 SWAP1 JUMPDEST DUP2 SLOAD DUP2 MSTORE SWAP1 PUSH1 0x1 ADD SWAP1 PUSH1 0x20 ADD DUP1 DUP4 GT PUSH2 0x781 JUMPI DUP3 SWAP1 SUB PUSH1 0x1F AND DUP3 ADD SWAP2 JUMPDEST POP POP POP POP POP SWAP1 POP SWAP1 JUMP JUMPDEST PUSH1 0x0 PUSH2 0x7B3 DUP3 PUSH2 0x16E9 JUMP JUMPDEST PUSH2 0x7C8 JUMPI PUSH2 0x7C7 PUSH4 0xCF4700E4 PUSH1 0xE0 SHL PUSH2 0x1795 JUMP JUMPDEST JUMPDEST PUSH1 0x6 PUSH1 0x0 DUP4 DUP2 MSTORE PUSH1 0x20 ADD SWAP1 DUP2 MSTORE PUSH1 0x20 ADD PUSH1 0x0 KECCAK256 PUSH1 0x0 ADD PUSH1 0x0 SWAP1 SLOAD SWAP1 PUSH2 0x100 EXP SWAP1 DIV PUSH20 0xFFFFFFFFFFFFFFFFFFFFFFFFFFFFFFFFFFFFFFFF AND SWAP1 POP SWAP2 SWAP1 POP JUMP JUMPDEST PUSH2 0x812 DUP3 DUP3 PUSH1 0x1 PUSH2 0x179F JUMP JUMPDEST POP POP JUMP JUMPDEST PUSH1 0x0 PUSH2 0x820 PUSH2 0x18CE JUMP JUMPDEST PUSH1 0x1 SLOAD PUSH1 0x0 SLOAD SUB SUB SWAP1 POP PUSH32 0xFFFFFFFFFFFFFFFFFFFFFFFFFFFFFFFFFFFFFFFFFFFFFFFFFFFFFFFFFFFFFFFF PUSH2 0x853 PUSH2 0x18D3 JUMP JUMPDEST EQ PUSH2 0x860 JUMPI PUSH1 0x8 SLOAD DUP2 ADD SWAP1 POP JUMPDEST SWAP1 JUMP JUMPDEST PUSH1 0x0 PUSH2 0x86E DUP3 PUSH2 0x18FB JUMP JUMPDEST SWAP1 POP PUSH1 0x0 DUP5 PUSH20 0xFFFFFFFFFFFFFFFFFFFFFFFFFFFFFFFFFFFFFFFF AND SWAP1 POP DUP1 DUP3 PUSH20 0xFFFFFFFFFFFFFFFFFFFFFFFFFFFFFFFFFFFFFFFF AND EQ PUSH2 0x8B9 JUMPI PUSH2 0x8B8 PUSH4 0xA1148100 PUSH1 0xE0 SHL PUSH2 0x1795 JUMP JUMPDEST JUMPDEST PUSH1 0x0 DUP1 PUSH2 0x8C5 DUP6 PUSH2 0x1A14 JUMP JUMPDEST SWAP2 POP SWAP2 POP PUSH2 0x8F1 DUP2 DUP5 PUSH2 0x8D6 PUSH2 0x1A3B JUMP JUMPDEST PUSH20 0xFFFFFFFFFFFFFFFFFFFFFFFFFFFFFFFFFFFFFFFF AND PUSH2 0x1A43 JUMP JUMPDEST PUSH2 0x91C JUMPI PUSH2 0x906 DUP8 PUSH2 0x901 PUSH2 0x1A3B JUMP JUMPDEST PUSH2 0x162D JUMP JUMPDEST PUSH2 0x91B JUMPI PUSH2 0x91A PUSH4 0x59C896BE PUSH1 0xE0 SHL PUSH2 0x1795 JUMP JUMPDEST JUMPDEST JUMPDEST PUSH2 0x929 DUP8 DUP8 DUP8 PUSH1 0x1 PUSH2 0x1A55 JUMP JUMPDEST DUP1 ISZERO PUSH2 0x934 JUMPI PUSH1 0x0 DUP3 SSTORE JUMPDEST PUSH1 0x5 PUSH1 0x0 DUP9 PUSH20 0xFFFFFFFFFFFFFFFFFFFFFFFFFFFFFFFFFFFFFFFF AND PUSH20 0xFFFFFFFFFFFFFFFFFFFFFFFFFFFFFFFFFFFFFFFF AND DUP2 MSTORE PUSH1 0x20 ADD SWAP1 DUP2 MSTORE PUSH1 0x20 ADD PUSH1 0x0 KECCAK256 PUSH1 0x0 DUP2 SLOAD PUSH1 0x1 SWAP1 SUB SWAP2 SWAP1 POP DUP2 SWAP1 SSTORE POP PUSH1 0x5 PUSH1 0x0 DUP8 PUSH20 0xFFFFFFFFFFFFFFFFFFFFFFFFFFFFFFFFFFFFFFFF AND PUSH20 0xFFFFFFFFFFFFFFFFFFFFFFFFFFFFFFFFFFFFFFFF AND DUP2 MSTORE PUSH1 0x20 ADD SWAP1 DUP2 MSTORE PUSH1 0x20 ADD PUSH1 0x0 KECCAK256 PUSH1 0x0 DUP2 SLOAD PUSH1 0x1 ADD SWAP2 SWAP1 POP DUP2 SWAP1 SSTORE POP PUSH2 0xA02 DUP7 PUSH2 0x9DE DUP10 DUP10 DUP9 PUSH2 0x1A5B JUMP JUMPDEST PUSH29 0x200000000000000000000000000000000000000000000000000000000 OR PUSH2 0x1A83 JUMP JUMPDEST PUSH1 0x4 PUSH1 0x0 DUP8 DUP2 MSTORE PUSH1 0x20 ADD SWAP1 DUP2 MSTORE PUSH1 0x20 ADD PUSH1 0x0 KECCAK256 DUP2 SWAP1 SSTORE POP PUSH1 0x0 PUSH29 0x200000000000000000000000000000000000000000000000000000000 DUP6 AND SUB PUSH2 0xA88 JUMPI PUSH1 0x0 PUSH1 0x1 DUP7 ADD SWAP1 POP PUSH1 0x0 PUSH1 0x4 PUSH1 0x0 DUP4 DUP2 MSTORE PUSH1 0x20 ADD SWAP1 DUP2 MSTORE PUSH1 0x20 ADD PUSH1 0x0 KECCAK256 SLOAD SUB PUSH2 0xA86 JUMPI PUSH1 0x0 SLOAD DUP2 EQ PUSH2 0xA85 JUMPI DUP5 PUSH1 0x4 PUSH1 0x0 DUP4 DUP2 MSTORE PUSH1 0x20 ADD SWAP1 DUP2 MSTORE PUSH1 0x20 ADD PUSH1 0x0 KECCAK256 DUP2 SWAP1 SSTORE POP JUMPDEST JUMPDEST POP JUMPDEST PUSH1 0x0 DUP7 PUSH20 0xFFFFFFFFFFFFFFFFFFFFFFFFFFFFFFFFFFFFFFFF AND SWAP1 POP DUP6 DUP2 DUP6 PUSH32 0xDDF252AD1BE2C89B69C2B068FC378DAA952BA7F163C4A11628F55A4DF523B3EF PUSH1 0x0 DUP1 LOG4 PUSH1 0x0 DUP2 SUB PUSH2 0xAE4 JUMPI PUSH2 0xAE3 PUSH4 0xEA553B34 PUSH1 0xE0 SHL PUSH2 0x1795 JUMP JUMPDEST JUMPDEST PUSH2 0xAF1 DUP9 DUP9 DUP9 PUSH1 0x1 PUSH2 0x1AAE JUMP JUMPDEST POP POP POP POP POP POP POP POP JUMP JUMPDEST PUSH1 0xC PUSH1 0x20 MSTORE DUP1 PUSH1 0x0 MSTORE PUSH1 0x40 PUSH1 0x0 KECCAK256 PUSH1 0x0 SWAP2 POP SWAP1 POP SLOAD DUP2 JUMP JUMPDEST PUSH1 0x0 PUSH2 0xB1E CALLER PUSH2 0x1044 JUMP JUMPDEST DUP3 GT ISZERO PUSH2 0xB60 JUMPI PUSH1 0x40 MLOAD PUSH32 0x8C379A000000000000000000000000000000000000000000000000000000000 DUP2 MSTORE PUSH1 0x4 ADD PUSH2 0xB57 SWAP1 PUSH2 0x2A45 JUMP JUMPDEST PUSH1 0x40 MLOAD DUP1 SWAP2 SUB SWAP1 REVERT JUMPDEST PUSH1 0xC PUSH1 0x0 CALLER PUSH20 0xFFFFFFFFFFFFFFFFFFFFFFFFFFFFFFFFFFFFFFFF AND PUSH20 0xFFFFFFFFFFFFFFFFFFFFFFFFFFFFFFFFFFFFFFFF AND DUP2 MSTORE PUSH1 0x20 ADD SWAP1 DUP2 MSTORE PUSH1 0x20 ADD PUSH1 0x0 KECCAK256 SLOAD TIMESTAMP LT PUSH2 0xBE1 JUMPI PUSH1 0x40 MLOAD PUSH32 0x8C379A000000000000000000000000000000000000000000000000000000000 DUP2 MSTORE PUSH1 0x4 ADD PUSH2 0xBD8 SWAP1 PUSH2 0x2AD7 JUMP JUMPDEST PUSH1 0x40 MLOAD DUP1 SWAP2 SUB SWAP1 REVERT JUMPDEST PUSH2 0xBEB CALLER DUP4 PUSH2 0x1AB4 JUMP JUMPDEST PUSH1 0x0 PUSH7 0x2386F26FC10000 DUP4 PUSH2 0xC00 SWAP2 SWAP1 PUSH2 0x2B26 JUMP JUMPDEST SWAP1 POP PUSH1 0x0 CALLER PUSH20 0xFFFFFFFFFFFFFFFFFFFFFFFFFFFFFFFFFFFFFFFF AND DUP3 PUSH1 0x40 MLOAD PUSH2 0xC28 SWAP1 PUSH2 0x2B99 JUMP JUMPDEST PUSH1 0x0 PUSH1 0x40 MLOAD DUP1 DUP4 SUB DUP2 DUP6 DUP8 GAS CALL SWAP3 POP POP POP RETURNDATASIZE DUP1 PUSH1 0x0 DUP2 EQ PUSH2 0xC65 JUMPI PUSH1 0x40 MLOAD SWAP2 POP PUSH1 0x1F NOT PUSH1 0x3F RETURNDATASIZE ADD AND DUP3 ADD PUSH1 0x40 MSTORE RETURNDATASIZE DUP3 MSTORE RETURNDATASIZE PUSH1 0x0 PUSH1 0x20 DUP5 ADD RETURNDATACOPY PUSH2 0xC6A JUMP JUMPDEST PUSH1 0x60 SWAP2 POP JUMPDEST POP POP SWAP1 POP DUP1 PUSH2 0xCAE JUMPI PUSH1 0x40 MLOAD PUSH32 0x8C379A000000000000000000000000000000000000000000000000000000000 DUP2 MSTORE PUSH1 0x4 ADD PUSH2 0xCA5 SWAP1 PUSH2 0x2BFA JUMP JUMPDEST PUSH1 0x40 MLOAD DUP1 SWAP2 SUB SWAP1 REVERT JUMPDEST DUP4 CALLER PUSH20 0xFFFFFFFFFFFFFFFFFFFFFFFFFFFFFFFFFFFFFFFF AND PUSH32 0x9DEFE0BDB8A1B4EE8FE9095FBA7B88C1C154139A41ABB1018B24B2DD2C574C3 PUSH1 0x40 MLOAD PUSH1 0x40 MLOAD DUP1 SWAP2 SUB SWAP1 LOG3 PUSH1 0x1 SWAP3 POP POP POP SWAP2 SWAP1 POP JUMP JUMPDEST PUSH2 0x3E8 DUP2 JUMP JUMPDEST PUSH1 0x0 PUSH1 0x9 PUSH1 0x0 SWAP1 SLOAD SWAP1 PUSH2 0x100 EXP SWAP1 DIV PUSH20 0xFFFFFFFFFFFFFFFFFFFFFFFFFFFFFFFFFFFFFFFF AND PUSH20 0xFFFFFFFFFFFFFFFFFFFFFFFFFFFFFFFFFFFFFFFF AND CALLER PUSH20 0xFFFFFFFFFFFFFFFFFFFFFFFFFFFFFFFFFFFFFFFF AND EQ PUSH2 0xD95 JUMPI PUSH1 0x40 MLOAD PUSH32 0x8C379A000000000000000000000000000000000000000000000000000000000 DUP2 MSTORE PUSH1 0x4 ADD PUSH2 0xD8C SWAP1 PUSH2 0x2C66 JUMP JUMPDEST PUSH1 0x40 MLOAD DUP1 SWAP2 SUB SWAP1 REVERT JUMPDEST PUSH1 0x0 SELFBALANCE SWAP1 POP PUSH1 0x0 DUP2 GT PUSH2 0xDDD JUMPI PUSH1 0x40 MLOAD PUSH32 0x8C379A000000000000000000000000000000000000000000000000000000000 DUP2 MSTORE PUSH1 0x4 ADD PUSH2 0xDD4 SWAP1 PUSH2 0x2CF8 JUMP JUMPDEST PUSH1 0x40 MLOAD DUP1 SWAP2 SUB SWAP1 REVERT JUMPDEST PUSH1 0xB4 PUSH2 0xDE7 PUSH2 0x1B49 JUMP JUMPDEST PUSH2 0xDF1 SWAP2 SWAP1 PUSH2 0x2D18 JUMP JUMPDEST TIMESTAMP LT PUSH2 0xE32 JUMPI PUSH1 0x40 MLOAD PUSH32 0x8C379A000000000000000000000000000000000000000000000000000000000 DUP2 MSTORE PUSH1 0x4 ADD PUSH2 0xE29 SWAP1 PUSH2 0x2D98 JUMP JUMPDEST PUSH1 0x40 MLOAD DUP1 SWAP2 SUB SWAP1 REVERT JUMPDEST PUSH1 0x0 PUSH1 0x9 PUSH1 0x0 SWAP1 SLOAD SWAP1 PUSH2 0x100 EXP SWAP1 DIV PUSH20 0xFFFFFFFFFFFFFFFFFFFFFFFFFFFFFFFFFFFFFFFF AND PUSH20 0xFFFFFFFFFFFFFFFFFFFFFFFFFFFFFFFFFFFFFFFF AND DUP3 PUSH1 0x40 MLOAD PUSH2 0xE7A SWAP1 PUSH2 0x2B99 JUMP JUMPDEST PUSH1 0x0 PUSH1 0x40 MLOAD DUP1 DUP4 SUB DUP2 DUP6 DUP8 GAS CALL SWAP3 POP POP POP RETURNDATASIZE DUP1 PUSH1 0x0 DUP2 EQ PUSH2 0xEB7 JUMPI PUSH1 0x40 MLOAD SWAP2 POP PUSH1 0x1F NOT PUSH1 0x3F RETURNDATASIZE ADD AND DUP3 ADD PUSH1 0x40 MSTORE RETURNDATASIZE DUP3 MSTORE RETURNDATASIZE PUSH1 0x0 PUSH1 0x20 DUP5 ADD RETURNDATACOPY PUSH2 0xEBC JUMP JUMPDEST PUSH1 0x60 SWAP2 POP JUMPDEST POP POP SWAP1 POP DUP1 PUSH2 0xF00 JUMPI PUSH1 0x40 MLOAD PUSH32 0x8C379A000000000000000000000000000000000000000000000000000000000 DUP2 MSTORE PUSH1 0x4 ADD PUSH2 0xEF7 SWAP1 PUSH2 0x2E04 JUMP JUMPDEST PUSH1 0x40 MLOAD DUP1 SWAP2 SUB SWAP1 REVERT JUMPDEST DUP2 PUSH1 0x9 PUSH1 0x0 SWAP1 SLOAD SWAP1 PUSH2 0x100 EXP SWAP1 DIV PUSH20 0xFFFFFFFFFFFFFFFFFFFFFFFFFFFFFFFFFFFFFFFF AND PUSH20 0xFFFFFFFFFFFFFFFFFFFFFFFFFFFFFFFFFFFFFFFF AND PUSH32 0x95E1B0070DBCCC052F124FA5143644DCA4CC74C53BF1D0FE68FF7295F61CDC0C PUSH1 0x40 MLOAD PUSH1 0x40 MLOAD DUP1 SWAP2 SUB SWAP1 LOG3 PUSH1 0x1 SWAP3 POP POP POP SWAP1 JUMP JUMPDEST PUSH2 0xF8A DUP4 DUP4 DUP4 PUSH1 0x40 MLOAD DUP1 PUSH1 0x20 ADD PUSH1 0x40 MSTORE DUP1 PUSH1 0x0 DUP2 MSTORE POP PUSH2 0x14D0 JUMP JUMPDEST POP POP POP JUMP JUMPDEST PUSH1 0x9 PUSH1 0x0 SWAP1 SLOAD SWAP1 PUSH2 0x100 EXP SWAP1 DIV PUSH20 0xFFFFFFFFFFFFFFFFFFFFFFFFFFFFFFFFFFFFFFFF AND PUSH20 0xFFFFFFFFFFFFFFFFFFFFFFFFFFFFFFFFFFFFFFFF AND CALLER PUSH20 0xFFFFFFFFFFFFFFFFFFFFFFFFFFFFFFFFFFFFFFFF AND EQ PUSH2 0x101F JUMPI PUSH1 0x40 MLOAD PUSH32 0x8C379A000000000000000000000000000000000000000000000000000000000 DUP2 MSTORE PUSH1 0x4 ADD PUSH2 0x1016 SWAP1 PUSH2 0x2C66 JUMP JUMPDEST PUSH1 0x40 MLOAD DUP1 SWAP2 SUB SWAP1 REVERT JUMPDEST DUP1 PUSH1 0xA SWAP1 DUP2 PUSH2 0x102E SWAP2 SWAP1 PUSH2 0x2FD0 JUMP JUMPDEST POP POP JUMP JUMPDEST PUSH1 0x0 PUSH2 0x103D DUP3 PUSH2 0x18FB JUMP JUMPDEST SWAP1 POP SWAP2 SWAP1 POP JUMP JUMPDEST PUSH1 0x0 DUP1 PUSH20 0xFFFFFFFFFFFFFFFFFFFFFFFFFFFFFFFFFFFFFFFF AND DUP3 PUSH20 0xFFFFFFFFFFFFFFFFFFFFFFFFFFFFFFFFFFFFFFFF AND SUB PUSH2 0x108A JUMPI PUSH2 0x1089 PUSH4 0x8F4EB604 PUSH1 0xE0 SHL PUSH2 0x1795 JUMP JUMPDEST JUMPDEST PUSH8 0xFFFFFFFFFFFFFFFF PUSH1 0x5 PUSH1 0x0 DUP5 PUSH20 0xFFFFFFFFFFFFFFFFFFFFFFFFFFFFFFFFFFFFFFFF AND PUSH20 0xFFFFFFFFFFFFFFFFFFFFFFFFFFFFFFFFFFFFFFFF AND DUP2 MSTORE PUSH1 0x20 ADD SWAP1 DUP2 MSTORE PUSH1 0x20 ADD PUSH1 0x0 KECCAK256 SLOAD AND SWAP1 POP SWAP2 SWAP1 POP JUMP JUMPDEST PUSH1 0xB4 DUP2 JUMP JUMPDEST PUSH1 0x9 PUSH1 0x0 SWAP1 SLOAD SWAP1 PUSH2 0x100 EXP SWAP1 DIV PUSH20 0xFFFFFFFFFFFFFFFFFFFFFFFFFFFFFFFFFFFFFFFF AND DUP2 JUMP JUMPDEST PUSH1 0x60 PUSH1 0x3 DUP1 SLOAD PUSH2 0x1115 SWAP1 PUSH2 0x29C8 JUMP JUMPDEST DUP1 PUSH1 0x1F ADD PUSH1 0x20 DUP1 SWAP2 DIV MUL PUSH1 0x20 ADD PUSH1 0x40 MLOAD SWAP1 DUP2 ADD PUSH1 0x40 MSTORE DUP1 SWAP3 SWAP2 SWAP1 DUP2 DUP2 MSTORE PUSH1 0x20 ADD DUP3 DUP1 SLOAD PUSH2 0x1141 SWAP1 PUSH2 0x29C8 JUMP JUMPDEST DUP1 ISZERO PUSH2 0x118E JUMPI DUP1 PUSH1 0x1F LT PUSH2 0x1163 JUMPI PUSH2 0x100 DUP1 DUP4 SLOAD DIV MUL DUP4 MSTORE SWAP2 PUSH1 0x20 ADD SWAP2 PUSH2 0x118E JUMP JUMPDEST DUP3 ADD SWAP2 SWAP1 PUSH1 0x0 MSTORE PUSH1 0x20 PUSH1 0x0 KECCAK256 SWAP1 JUMPDEST DUP2 SLOAD DUP2 MSTORE SWAP1 PUSH1 0x1 ADD SWAP1 PUSH1 0x20 ADD DUP1 DUP4 GT PUSH2 0x1171 JUMPI DUP3 SWAP1 SUB PUSH1 0x1F AND DUP3 ADD SWAP2 JUMPDEST POP POP POP POP POP SWAP1 POP SWAP1 JUMP JUMPDEST PUSH1 0x0 PUSH2 0x3E8 PUSH2 0x11A5 PUSH2 0x816 JUMP JUMPDEST DUP4 PUSH2 0x11B0 SWAP2 SWAP1 PUSH2 0x2D18 JUMP JUMPDEST GT ISZERO PUSH2 0x11F1 JUMPI PUSH1 0x40 MLOAD PUSH32 0x8C379A000000000000000000000000000000000000000000000000000000000 DUP2 MSTORE PUSH1 0x4 ADD PUSH2 0x11E8 SWAP1 PUSH2 0x3114 JUMP JUMPDEST PUSH1 0x40 MLOAD DUP1 SWAP2 SUB SWAP1 REVERT JUMPDEST PUSH1 0x5 DUP3 GT ISZERO PUSH2 0x1235 JUMPI PUSH1 0x40 MLOAD PUSH32 0x8C379A000000000000000000000000000000000000000000000000000000000 DUP2 MSTORE PUSH1 0x4 ADD PUSH2 0x122C SWAP1 PUSH2 0x3180 JUMP JUMPDEST PUSH1 0x40 MLOAD DUP1 SWAP2 SUB SWAP1 REVERT JUMPDEST PUSH7 0x2386F26FC10000 DUP3 PUSH2 0x1248 SWAP2 SWAP1 PUSH2 0x2B26 JUMP JUMPDEST CALLVALUE LT ISZERO PUSH2 0x128A JUMPI PUSH1 0x40 MLOAD PUSH32 0x8C379A000000000000000000000000000000000000000000000000000000000 DUP2 MSTORE PUSH1 0x4 ADD PUSH2 0x1281 SWAP1 PUSH2 0x31EC JUMP JUMPDEST PUSH1 0x40 MLOAD DUP1 SWAP2 SUB SWAP1 REVERT JUMPDEST PUSH1 0xC DUP3 PUSH2 0x1296 CALLER PUSH2 0x1044 JUMP JUMPDEST PUSH2 0x12A0 SWAP2 SWAP1 PUSH2 0x2D18 JUMP JUMPDEST GT ISZERO PUSH2 0x12E1 JUMPI PUSH1 0x40 MLOAD PUSH32 0x8C379A000000000000000000000000000000000000000000000000000000000 DUP2 MSTORE PUSH1 0x4 ADD PUSH2 0x12D8 SWAP1 PUSH2 0x327E JUMP JUMPDEST PUSH1 0x40 MLOAD DUP1 SWAP2 SUB SWAP1 REVERT JUMPDEST PUSH2 0x12EB CALLER DUP4 PUSH2 0x1C0F JUMP JUMPDEST DUP2 PUSH1 0xB PUSH1 0x0 CALLER PUSH20 0xFFFFFFFFFFFFFFFFFFFFFFFFFFFFFFFFFFFFFFFF AND PUSH20 0xFFFFFFFFFFFFFFFFFFFFFFFFFFFFFFFFFFFFFFFF AND DUP2 MSTORE PUSH1 0x20 ADD SWAP1 DUP2 MSTORE PUSH1 0x20 ADD PUSH1 0x0 KECCAK256 DUP2 SWAP1 SSTORE POP TIMESTAMP PUSH1 0xC PUSH1 0x0 CALLER PUSH20 0xFFFFFFFFFFFFFFFFFFFFFFFFFFFFFFFFFFFFFFFF AND PUSH20 0xFFFFFFFFFFFFFFFFFFFFFFFFFFFFFFFFFFFFFFFF AND DUP2 MSTORE PUSH1 0x20 ADD SWAP1 DUP2 MSTORE PUSH1 0x20 ADD PUSH1 0x0 KECCAK256 DUP2 SWAP1 SSTORE POP DUP2 CALLER PUSH20 0xFFFFFFFFFFFFFFFFFFFFFFFFFFFFFFFFFFFFFFFF AND PUSH32 0xCDA531BFD68624F13205C0A23CD4D5A7F09792CBB399603114F2B04AAA1BF5CF PUSH1 0x40 MLOAD PUSH1 0x40 MLOAD DUP1 SWAP2 SUB SWAP1 LOG3 PUSH1 0x1 SWAP1 POP SWAP2 SWAP1 POP JUMP JUMPDEST DUP1 PUSH1 0x7 PUSH1 0x0 PUSH2 0x13CD PUSH2 0x1A3B JUMP JUMPDEST PUSH20 0xFFFFFFFFFFFFFFFFFFFFFFFFFFFFFFFFFFFFFFFF AND PUSH20 0xFFFFFFFFFFFFFFFFFFFFFFFFFFFFFFFFFFFFFFFF AND DUP2 MSTORE PUSH1 0x20 ADD SWAP1 DUP2 MSTORE PUSH1 0x20 ADD PUSH1 0x0 KECCAK256 PUSH1 0x0 DUP5 PUSH20 0xFFFFFFFFFFFFFFFFFFFFFFFFFFFFFFFFFFFFFFFF AND PUSH20 0xFFFFFFFFFFFFFFFFFFFFFFFFFFFFFFFFFFFFFFFF AND DUP2 MSTORE PUSH1 0x20 ADD SWAP1 DUP2 MSTORE PUSH1 0x20 ADD PUSH1 0x0 KECCAK256 PUSH1 0x0 PUSH2 0x100 EXP DUP2 SLOAD DUP2 PUSH1 0xFF MUL NOT AND SWAP1 DUP4 ISZERO ISZERO MUL OR SWAP1 SSTORE POP DUP2 PUSH20 0xFFFFFFFFFFFFFFFFFFFFFFFFFFFFFFFFFFFFFFFF AND PUSH2 0x147A PUSH2 0x1A3B JUMP JUMPDEST PUSH20 0xFFFFFFFFFFFFFFFFFFFFFFFFFFFFFFFFFFFFFFFF AND PUSH32 0x17307EAB39AB6107E8899845AD3D59BD9653F200F220920489CA2B5937696C31 DUP4 PUSH1 0x40 MLOAD PUSH2 0x14BF SWAP2 SWAP1 PUSH2 0x23A9 JUMP JUMPDEST PUSH1 0x40 MLOAD DUP1 SWAP2 SUB SWAP1 LOG3 POP POP JUMP JUMPDEST PUSH1 0xC DUP2 JUMP JUMPDEST PUSH2 0x14DB DUP5 DUP5 DUP5 PUSH2 0x863 JUMP JUMPDEST PUSH1 0x0 DUP4 PUSH20 0xFFFFFFFFFFFFFFFFFFFFFFFFFFFFFFFFFFFFFFFF AND EXTCODESIZE EQ PUSH2 0x151C JUMPI PUSH2 0x1506 DUP5 DUP5 DUP5 DUP5 PUSH2 0x1C2D JUMP JUMPDEST PUSH2 0x151B JUMPI PUSH2 0x151A PUSH4 0xD1A57ED6 PUSH1 0xE0 SHL PUSH2 0x1795 JUMP JUMPDEST JUMPDEST JUMPDEST POP POP POP POP JUMP JUMPDEST PUSH1 0x60 PUSH2 0x152D DUP3 PUSH2 0x16E9 JUMP JUMPDEST PUSH2 0x1542 JUMPI PUSH2 0x1541 PUSH4 0xA14C4B50 PUSH1 0xE0 SHL PUSH2 0x1795 JUMP JUMPDEST JUMPDEST PUSH1 0x0 PUSH2 0x154C PUSH2 0x1D5C JUMP JUMPDEST SWAP1 POP PUSH1 0x0 DUP2 MLOAD SUB PUSH2 0x156C JUMPI PUSH1 0x40 MLOAD DUP1 PUSH1 0x20 ADD PUSH1 0x40 MSTORE DUP1 PUSH1 0x0 DUP2 MSTORE POP PUSH2 0x1597 JUMP JUMPDEST DUP1 PUSH2 0x1576 DUP5 PUSH2 0x1DEE JUMP JUMPDEST PUSH1 0x40 MLOAD PUSH1 0x20 ADD PUSH2 0x1587 SWAP3 SWAP2 SWAP1 PUSH2 0x32DA JUMP JUMPDEST PUSH1 0x40 MLOAD PUSH1 0x20 DUP2 DUP4 SUB SUB DUP2 MSTORE SWAP1 PUSH1 0x40 MSTORE JUMPDEST SWAP2 POP POP SWAP2 SWAP1 POP JUMP JUMPDEST PUSH1 0xA DUP1 SLOAD PUSH2 0x15AC SWAP1 PUSH2 0x29C8 JUMP JUMPDEST DUP1 PUSH1 0x1F ADD PUSH1 0x20 DUP1 SWAP2 DIV MUL PUSH1 0x20 ADD PUSH1 0x40 MLOAD SWAP1 DUP2 ADD PUSH1 0x40 MSTORE DUP1 SWAP3 SWAP2 SWAP1 DUP2 DUP2 MSTORE PUSH1 0x20 ADD DUP3 DUP1 SLOAD PUSH2 0x15D8 SWAP1 PUSH2 0x29C8 JUMP JUMPDEST DUP1 ISZERO PUSH2 0x1625 JUMPI DUP1 PUSH1 0x1F LT PUSH2 0x15FA JUMPI PUSH2 0x100 DUP1 DUP4 SLOAD DIV MUL DUP4 MSTORE SWAP2 PUSH1 0x20 ADD SWAP2 PUSH2 0x1625 JUMP JUMPDEST DUP3 ADD SWAP2 SWAP1 PUSH1 0x0 MSTORE PUSH1 0x20 PUSH1 0x0 KECCAK256 SWAP1 JUMPDEST DUP2 SLOAD DUP2 MSTORE SWAP1 PUSH1 0x1 ADD SWAP1 PUSH1 0x20 ADD DUP1 DUP4 GT PUSH2 0x1608 JUMPI DUP3 SWAP1 SUB PUSH1 0x1F AND DUP3 ADD SWAP2 JUMPDEST POP POP POP POP POP DUP2 JUMP JUMPDEST PUSH1 0x0 PUSH1 0x7 PUSH1 0x0 DUP5 PUSH20 0xFFFFFFFFFFFFFFFFFFFFFFFFFFFFFFFFFFFFFFFF AND PUSH20 0xFFFFFFFFFFFFFFFFFFFFFFFFFFFFFFFFFFFFFFFF AND DUP2 MSTORE PUSH1 0x20 ADD SWAP1 DUP2 MSTORE PUSH1 0x20 ADD PUSH1 0x0 KECCAK256 PUSH1 0x0 DUP4 PUSH20 0xFFFFFFFFFFFFFFFFFFFFFFFFFFFFFFFFFFFFFFFF AND PUSH20 0xFFFFFFFFFFFFFFFFFFFFFFFFFFFFFFFFFFFFFFFF AND DUP2 MSTORE PUSH1 0x20 ADD SWAP1 DUP2 MSTORE PUSH1 0x20 ADD PUSH1 0x0 KECCAK256 PUSH1 0x0 SWAP1 SLOAD SWAP1 PUSH2 0x100 EXP SWAP1 DIV PUSH1 0xFF AND SWAP1 POP SWAP3 SWAP2 POP POP JUMP JUMPDEST PUSH1 0xB PUSH1 0x20 MSTORE DUP1 PUSH1 0x0 MSTORE PUSH1 0x40 PUSH1 0x0 KECCAK256 PUSH1 0x0 SWAP2 POP SWAP1 POP SLOAD DUP2 JUMP JUMPDEST PUSH1 0x5 DUP2 JUMP JUMPDEST PUSH7 0x2386F26FC10000 DUP2 JUMP JUMPDEST PUSH1 0x0 DUP2 PUSH2 0x16F4 PUSH2 0x18CE JUMP JUMPDEST GT PUSH2 0x178F JUMPI PUSH2 0x1701 PUSH2 0x18D3 JUMP JUMPDEST DUP3 GT ISZERO PUSH2 0x172B JUMPI PUSH2 0x1724 PUSH1 0x4 PUSH1 0x0 DUP5 DUP2 MSTORE PUSH1 0x20 ADD SWAP1 DUP2 MSTORE PUSH1 0x20 ADD PUSH1 0x0 KECCAK256 SLOAD PUSH2 0x1E3E JUMP JUMPDEST SWAP1 POP PUSH2 0x1790 JUMP JUMPDEST PUSH1 0x0 SLOAD DUP3 LT ISZERO PUSH2 0x178E JUMPI PUSH1 0x0 JUMPDEST PUSH1 0x0 PUSH1 0x4 PUSH1 0x0 DUP6 DUP2 MSTORE PUSH1 0x20 ADD SWAP1 DUP2 MSTORE PUSH1 0x20 ADD PUSH1 0x0 KECCAK256 SLOAD SWAP2 POP DUP2 SUB PUSH2 0x1767 JUMPI DUP3 PUSH2 0x1760 SWAP1 PUSH2 0x32FE JUMP JUMPDEST SWAP3 POP PUSH2 0x1738 JUMP JUMPDEST PUSH1 0x0 PUSH29 0x100000000000000000000000000000000000000000000000000000000 DUP3 AND EQ SWAP2 POP POP JUMPDEST JUMPDEST JUMPDEST SWAP2 SWAP1 POP JUMP JUMPDEST DUP1 PUSH1 0x0 MSTORE PUSH1 0x4 PUSH1 0x0 REVERT JUMPDEST PUSH1 0x0 PUSH2 0x17AA DUP4 PUSH2 0x1032 JUMP JUMPDEST SWAP1 POP DUP2 DUP1 ISZERO PUSH2 0x17EC JUMPI POP DUP1 PUSH20 0xFFFFFFFFFFFFFFFFFFFFFFFFFFFFFFFFFFFFFFFF AND PUSH2 0x17D3 PUSH2 0x1A3B JUMP JUMPDEST PUSH20 0xFFFFFFFFFFFFFFFFFFFFFFFFFFFFFFFFFFFFFFFF AND EQ ISZERO JUMPDEST ISZERO PUSH2 0x1818 JUMPI PUSH2 0x1802 DUP2 PUSH2 0x17FD PUSH2 0x1A3B JUMP JUMPDEST PUSH2 0x162D JUMP JUMPDEST PUSH2 0x1817 JUMPI PUSH2 0x1816 PUSH4 0xCFB3B942 PUSH1 0xE0 SHL PUSH2 0x1795 JUMP JUMPDEST JUMPDEST JUMPDEST DUP4 PUSH1 0x6 PUSH1 0x0 DUP6 DUP2 MSTORE PUSH1 0x20 ADD SWAP1 DUP2 MSTORE PUSH1 0x20 ADD PUSH1 0x0 KECCAK256 PUSH1 0x0 ADD PUSH1 0x0 PUSH2 0x100 EXP DUP2 SLOAD DUP2 PUSH20 0xFFFFFFFFFFFFFFFFFFFFFFFFFFFFFFFFFFFFFFFF MUL NOT AND SWAP1 DUP4 PUSH20 0xFFFFFFFFFFFFFFFFFFFFFFFFFFFFFFFFFFFFFFFF AND MUL OR SWAP1 SSTORE POP DUP3 DUP5 PUSH20 0xFFFFFFFFFFFFFFFFFFFFFFFFFFFFFFFFFFFFFFFF AND DUP3 PUSH20 0xFFFFFFFFFFFFFFFFFFFFFFFFFFFFFFFFFFFFFFFF AND PUSH32 0x8C5BE1E5EBEC7D5BD14F71427D1E84F3DD0314C0F7B2291E5B200AC8C7C3B925 PUSH1 0x40 MLOAD PUSH1 0x40 MLOAD DUP1 SWAP2 SUB SWAP1 LOG4 POP POP POP POP JUMP JUMPDEST PUSH1 0x0 SWAP1 JUMP JUMPDEST PUSH1 0x0 PUSH32 0xFFFFFFFFFFFFFFFFFFFFFFFFFFFFFFFFFFFFFFFFFFFFFFFFFFFFFFFFFFFFFFFF SWAP1 POP SWAP1 JUMP JUMPDEST PUSH1 0x0 DUP2 PUSH2 0x1906 PUSH2 0x18CE JUMP JUMPDEST GT PUSH2 0x19FE JUMPI PUSH1 0x4 PUSH1 0x0 DUP4 DUP2 MSTORE PUSH1 0x20 ADD SWAP1 DUP2 MSTORE PUSH1 0x20 ADD PUSH1 0x0 KECCAK256 SLOAD SWAP1 POP PUSH2 0x1929 PUSH2 0x18D3 JUMP JUMPDEST DUP3 GT ISZERO PUSH2 0x194E JUMPI PUSH2 0x1939 DUP2 PUSH2 0x1E3E JUMP JUMPDEST PUSH2 0x1A0F JUMPI PUSH2 0x194D PUSH4 0xDF2D9B42 PUSH1 0xE0 SHL PUSH2 0x1795 JUMP JUMPDEST JUMPDEST PUSH1 0x0 DUP2 SUB PUSH2 0x19D5 JUMPI PUSH1 0x0 SLOAD DUP3 LT PUSH2 0x1970 JUMPI PUSH2 0x196F PUSH4 0xDF2D9B42 PUSH1 0xE0 SHL PUSH2 0x1795 JUMP JUMPDEST JUMPDEST JUMPDEST PUSH1 0x4 PUSH1 0x0 DUP4 PUSH1 0x1 SWAP1 SUB SWAP4 POP DUP4 DUP2 MSTORE PUSH1 0x20 ADD SWAP1 DUP2 MSTORE PUSH1 0x20 ADD PUSH1 0x0 KECCAK256 SLOAD SWAP1 POP PUSH1 0x0 DUP2 SUB ISZERO PUSH2 0x19D0 JUMPI PUSH1 0x0 PUSH29 0x100000000000000000000000000000000000000000000000000000000 DUP3 AND SUB ISZERO PUSH2 0x1A0F JUMPI PUSH2 0x19CF PUSH4 0xDF2D9B42 PUSH1 0xE0 SHL PUSH2 0x1795 JUMP JUMPDEST JUMPDEST PUSH2 0x1971 JUMP JUMPDEST PUSH1 0x0 PUSH29 0x100000000000000000000000000000000000000000000000000000000 DUP3 AND SUB ISZERO PUSH2 0x1A0F JUMPI JUMPDEST PUSH2 0x1A0E PUSH4 0xDF2D9B42 PUSH1 0xE0 SHL PUSH2 0x1795 JUMP JUMPDEST JUMPDEST SWAP2 SWAP1 POP JUMP JUMPDEST PUSH1 0x0 DUP1 PUSH1 0x0 PUSH1 0x6 PUSH1 0x0 DUP6 DUP2 MSTORE PUSH1 0x20 ADD SWAP1 DUP2 MSTORE PUSH1 0x20 ADD PUSH1 0x0 KECCAK256 SWAP1 POP DUP1 SWAP3 POP DUP3 SLOAD SWAP2 POP POP SWAP2 POP SWAP2 JUMP JUMPDEST PUSH1 0x0 CALLER SWAP1 POP SWAP1 JUMP JUMPDEST PUSH1 0x0 DUP4 DUP3 EQ DUP4 DUP4 EQ OR SWAP1 POP SWAP4 SWAP3 POP POP POP JUMP JUMPDEST POP POP POP POP JUMP JUMPDEST PUSH1 0x0 DUP1 PUSH1 0xE8 DUP4 SWAP1 SHR SWAP1 POP PUSH1 0xE8 PUSH2 0x1A72 DUP7 DUP7 DUP5 PUSH2 0x1E7F JUMP JUMPDEST PUSH3 0xFFFFFF AND SWAP1 SHL SWAP2 POP POP SWAP4 SWAP3 POP POP POP JUMP JUMPDEST PUSH1 0x0 PUSH20 0xFFFFFFFFFFFFFFFFFFFFFFFFFFFFFFFFFFFFFFFF DUP4 AND SWAP3 POP DUP2 TIMESTAMP PUSH1 0xA0 SHL OR DUP4 OR SWAP1 POP SWAP3 SWAP2 POP POP JUMP JUMPDEST POP POP POP POP JUMP JUMPDEST PUSH1 0x0 PUSH2 0x1ABE PUSH2 0x18CE JUMP JUMPDEST SWAP1 POP PUSH1 0x0 JUMPDEST DUP3 DUP2 LT DUP1 ISZERO PUSH2 0x1AD8 JUMPI POP PUSH2 0x1AD5 PUSH2 0x816 JUMP JUMPDEST DUP3 LT JUMPDEST ISZERO PUSH2 0x1B43 JUMPI DUP4 PUSH20 0xFFFFFFFFFFFFFFFFFFFFFFFFFFFFFFFFFFFFFFFF AND PUSH2 0x1AFD DUP4 PUSH2 0x1032 JUMP JUMPDEST PUSH20 0xFFFFFFFFFFFFFFFFFFFFFFFFFFFFFFFFFFFFFFFF AND SUB PUSH2 0x1B30 JUMPI PUSH2 0x1B21 DUP3 PUSH2 0x1E88 JUMP JUMPDEST DUP1 DUP1 PUSH2 0x1B2C SWAP1 PUSH2 0x3327 JUMP JUMPDEST SWAP2 POP POP JUMPDEST DUP2 DUP1 PUSH2 0x1B3B SWAP1 PUSH2 0x3327 JUMP JUMPDEST SWAP3 POP POP PUSH2 0x1AC3 JUMP JUMPDEST POP POP POP POP JUMP JUMPDEST PUSH1 0x0 DUP1 PUSH1 0x0 SWAP1 POP PUSH1 0x0 JUMPDEST PUSH2 0x1B5B PUSH2 0x816 JUMP JUMPDEST DUP2 LT ISZERO PUSH2 0x1C07 JUMPI PUSH1 0x0 PUSH2 0x1B6D DUP3 PUSH2 0x1032 JUMP JUMPDEST SWAP1 POP DUP3 PUSH1 0xC PUSH1 0x0 DUP4 PUSH20 0xFFFFFFFFFFFFFFFFFFFFFFFFFFFFFFFFFFFFFFFF AND PUSH20 0xFFFFFFFFFFFFFFFFFFFFFFFFFFFFFFFFFFFFFFFF AND DUP2 MSTORE PUSH1 0x20 ADD SWAP1 DUP2 MSTORE PUSH1 0x20 ADD PUSH1 0x0 KECCAK256 SLOAD GT ISZERO PUSH2 0x1BF9 JUMPI PUSH1 0xC PUSH1 0x0 DUP3 PUSH20 0xFFFFFFFFFFFFFFFFFFFFFFFFFFFFFFFFFFFFFFFF AND PUSH20 0xFFFFFFFFFFFFFFFFFFFFFFFFFFFFFFFFFFFFFFFF AND DUP2 MSTORE PUSH1 0x20 ADD SWAP1 DUP2 MSTORE PUSH1 0x20 ADD PUSH1 0x0 KECCAK256 SLOAD SWAP3 POP JUMPDEST POP DUP1 DUP1 PUSH1 0x1 ADD SWAP2 POP POP PUSH2 0x1B53 JUMP JUMPDEST POP DUP1 SWAP2 POP POP SWAP1 JUMP JUMPDEST PUSH2 0x1C29 DUP3 DUP3 PUSH1 0x40 MLOAD DUP1 PUSH1 0x20 ADD PUSH1 0x40 MSTORE DUP1 PUSH1 0x0 DUP2 MSTORE POP PUSH2 0x1E96 JUMP JUMPDEST POP POP JUMP JUMPDEST PUSH1 0x0 DUP4 PUSH20 0xFFFFFFFFFFFFFFFFFFFFFFFFFFFFFFFFFFFFFFFF AND PUSH4 0x150B7A02 PUSH2 0x1C53 PUSH2 0x1A3B JUMP JUMPDEST DUP8 DUP7 DUP7 PUSH1 0x40 MLOAD DUP6 PUSH4 0xFFFFFFFF AND PUSH1 0xE0 SHL DUP2 MSTORE PUSH1 0x4 ADD PUSH2 0x1C75 SWAP5 SWAP4 SWAP3 SWAP2 SWAP1 PUSH2 0x33C4 JUMP JUMPDEST PUSH1 0x20 PUSH1 0x40 MLOAD DUP1 DUP4 SUB DUP2 PUSH1 0x0 DUP8 GAS CALL SWAP3 POP POP POP DUP1 ISZERO PUSH2 0x1CB1 JUMPI POP PUSH1 0x40 MLOAD RETURNDATASIZE PUSH1 0x1F NOT PUSH1 0x1F DUP3 ADD AND DUP3 ADD DUP1 PUSH1 0x40 MSTORE POP DUP2 ADD SWAP1 PUSH2 0x1CAE SWAP2 SWAP1 PUSH2 0x3425 JUMP JUMPDEST PUSH1 0x1 JUMPDEST PUSH2 0x1D09 JUMPI RETURNDATASIZE DUP1 PUSH1 0x0 DUP2 EQ PUSH2 0x1CE1 JUMPI PUSH1 0x40 MLOAD SWAP2 POP PUSH1 0x1F NOT PUSH1 0x3F RETURNDATASIZE ADD AND DUP3 ADD PUSH1 0x40 MSTORE RETURNDATASIZE DUP3 MSTORE RETURNDATASIZE PUSH1 0x0 PUSH1 0x20 DUP5 ADD RETURNDATACOPY PUSH2 0x1CE6 JUMP JUMPDEST PUSH1 0x60 SWAP2 POP JUMPDEST POP PUSH1 0x0 DUP2 MLOAD SUB PUSH2 0x1D01 JUMPI PUSH2 0x1D00 PUSH4 0xD1A57ED6 PUSH1 0xE0 SHL PUSH2 0x1795 JUMP JUMPDEST JUMPDEST DUP1 MLOAD DUP2 PUSH1 0x20 ADD REVERT JUMPDEST PUSH4 0x150B7A02 PUSH1 0xE0 SHL PUSH28 0xFFFFFFFFFFFFFFFFFFFFFFFFFFFFFFFFFFFFFFFFFFFFFFFFFFFFFFFF NOT AND DUP2 PUSH28 0xFFFFFFFFFFFFFFFFFFFFFFFFFFFFFFFFFFFFFFFFFFFFFFFFFFFFFFFF NOT AND EQ SWAP2 POP POP SWAP5 SWAP4 POP POP POP POP JUMP JUMPDEST PUSH1 0x60 PUSH1 0xA DUP1 SLOAD PUSH2 0x1D6B SWAP1 PUSH2 0x29C8 JUMP JUMPDEST DUP1 PUSH1 0x1F ADD PUSH1 0x20 DUP1 SWAP2 DIV MUL PUSH1 0x20 ADD PUSH1 0x40 MLOAD SWAP1 DUP2 ADD PUSH1 0x40 MSTORE DUP1 SWAP3 SWAP2 SWAP1 DUP2 DUP2 MSTORE PUSH1 0x20 ADD DUP3 DUP1 SLOAD PUSH2 0x1D97 SWAP1 PUSH2 0x29C8 JUMP JUMPDEST DUP1 ISZERO PUSH2 0x1DE4 JUMPI DUP1 PUSH1 0x1F LT PUSH2 0x1DB9 JUMPI PUSH2 0x100 DUP1 DUP4 SLOAD DIV MUL DUP4 MSTORE SWAP2 PUSH1 0x20 ADD SWAP2 PUSH2 0x1DE4 JUMP JUMPDEST DUP3 ADD SWAP2 SWAP1 PUSH1 0x0 MSTORE PUSH1 0x20 PUSH1 0x0 KECCAK256 SWAP1 JUMPDEST DUP2 SLOAD DUP2 MSTORE SWAP1 PUSH1 0x1 ADD SWAP1 PUSH1 0x20 ADD DUP1 DUP4 GT PUSH2 0x1DC7 JUMPI DUP3 SWAP1 SUB PUSH1 0x1F AND DUP3 ADD SWAP2 JUMPDEST POP POP POP POP POP SWAP1 POP SWAP1 JUMP JUMPDEST PUSH1 0x60 PUSH1 0xA0 PUSH1 0x40 MLOAD ADD DUP1 PUSH1 0x40 MSTORE PUSH1 0x20 DUP2 SUB SWAP2 POP PUSH1 0x0 DUP3 MSTORE DUP2 DUP4 JUMPDEST PUSH1 0x1 ISZERO PUSH2 0x1E29 JUMPI PUSH1 0x1 DUP5 SUB SWAP4 POP PUSH1 0xA DUP2 MOD PUSH1 0x30 ADD DUP5 MSTORE8 PUSH1 0xA DUP2 DIV SWAP1 POP DUP1 PUSH2 0x1E07 JUMPI JUMPDEST POP DUP3 DUP2 SUB PUSH1 0x20 DUP5 SUB SWAP4 POP DUP1 DUP5 MSTORE POP POP POP SWAP2 SWAP1 POP JUMP JUMPDEST PUSH1 0x0 PUSH29 0x100000000000000000000000000000000000000000000000000000000 DUP3 AND PUSH20 0xFFFFFFFFFFFFFFFFFFFFFFFFFFFFFFFFFFFFFFFF DUP4 AND GT SWAP1 POP SWAP2 SWAP1 POP JUMP JUMPDEST PUSH1 0x0 SWAP4 SWAP3 POP POP POP JUMP JUMPDEST PUSH2 0x1E93 DUP2 PUSH1 0x0 PUSH2 0x1F12 JUMP JUMPDEST POP JUMP JUMPDEST PUSH2 0x1EA0 DUP4 DUP4 PUSH2 0x2175 JUMP JUMPDEST PUSH1 0x0 DUP4 PUSH20 0xFFFFFFFFFFFFFFFFFFFFFFFFFFFFFFFFFFFFFFFF AND EXTCODESIZE EQ PUSH2 0x1F0D JUMPI PUSH1 0x0 DUP1 SLOAD SWAP1 POP PUSH1 0x0 DUP4 DUP3 SUB SWAP1 POP JUMPDEST PUSH2 0x1EE0 PUSH1 0x0 DUP7 DUP4 DUP1 PUSH1 0x1 ADD SWAP5 POP DUP7 PUSH2 0x1C2D JUMP JUMPDEST PUSH2 0x1EF5 JUMPI PUSH2 0x1EF4 PUSH4 0xD1A57ED6 PUSH1 0xE0 SHL PUSH2 0x1795 JUMP JUMPDEST JUMPDEST DUP2 DUP2 LT PUSH2 0x1ECD JUMPI DUP2 PUSH1 0x0 SLOAD EQ PUSH2 0x1F0A JUMPI PUSH1 0x0 DUP1 REVERT JUMPDEST POP POP JUMPDEST POP POP POP JUMP JUMPDEST PUSH1 0x0 PUSH2 0x1F1D DUP4 PUSH2 0x18FB JUMP JUMPDEST SWAP1 POP PUSH1 0x0 DUP2 PUSH20 0xFFFFFFFFFFFFFFFFFFFFFFFFFFFFFFFFFFFFFFFF AND SWAP1 POP PUSH1 0x0 DUP2 SWAP1 POP PUSH1 0x0 DUP1 PUSH2 0x1F4B DUP8 PUSH2 0x1A14 JUMP JUMPDEST SWAP2 POP SWAP2 POP DUP6 ISZERO PUSH2 0x1FA9 JUMPI PUSH2 0x1F7D DUP2 DUP6 PUSH2 0x1F62 PUSH2 0x1A3B JUMP JUMPDEST PUSH20 0xFFFFFFFFFFFFFFFFFFFFFFFFFFFFFFFFFFFFFFFF AND PUSH2 0x1A43 JUMP JUMPDEST PUSH2 0x1FA8 JUMPI PUSH2 0x1F92 DUP4 PUSH2 0x1F8D PUSH2 0x1A3B JUMP JUMPDEST PUSH2 0x162D JUMP JUMPDEST PUSH2 0x1FA7 JUMPI PUSH2 0x1FA6 PUSH4 0x59C896BE PUSH1 0xE0 SHL PUSH2 0x1795 JUMP JUMPDEST JUMPDEST JUMPDEST JUMPDEST PUSH2 0x1FB7 DUP4 PUSH1 0x0 DUP10 PUSH1 0x1 PUSH2 0x1A55 JUMP JUMPDEST DUP1 ISZERO PUSH2 0x1FC2 JUMPI PUSH1 0x0 DUP3 SSTORE JUMPDEST PUSH1 0x1 PUSH1 0x80 PUSH1 0x1 SWAP1 SHL SUB PUSH1 0x5 PUSH1 0x0 DUP6 PUSH20 0xFFFFFFFFFFFFFFFFFFFFFFFFFFFFFFFFFFFFFFFF AND PUSH20 0xFFFFFFFFFFFFFFFFFFFFFFFFFFFFFFFFFFFFFFFF AND DUP2 MSTORE PUSH1 0x20 ADD SWAP1 DUP2 MSTORE PUSH1 0x20 ADD PUSH1 0x0 KECCAK256 PUSH1 0x0 DUP3 DUP3 SLOAD ADD SWAP3 POP POP DUP2 SWAP1 SSTORE POP PUSH2 0x206A DUP4 PUSH2 0x2027 DUP6 PUSH1 0x0 DUP10 PUSH2 0x1A5B JUMP JUMPDEST PUSH29 0x200000000000000000000000000000000000000000000000000000000 PUSH29 0x100000000000000000000000000000000000000000000000000000000 OR OR PUSH2 0x1A83 JUMP JUMPDEST PUSH1 0x4 PUSH1 0x0 DUP10 DUP2 MSTORE PUSH1 0x20 ADD SWAP1 DUP2 MSTORE PUSH1 0x20 ADD PUSH1 0x0 KECCAK256 DUP2 SWAP1 SSTORE POP PUSH1 0x0 PUSH29 0x200000000000000000000000000000000000000000000000000000000 DUP7 AND SUB PUSH2 0x20F0 JUMPI PUSH1 0x0 PUSH1 0x1 DUP9 ADD SWAP1 POP PUSH1 0x0 PUSH1 0x4 PUSH1 0x0 DUP4 DUP2 MSTORE PUSH1 0x20 ADD SWAP1 DUP2 MSTORE PUSH1 0x20 ADD PUSH1 0x0 KECCAK256 SLOAD SUB PUSH2 0x20EE JUMPI PUSH1 0x0 SLOAD DUP2 EQ PUSH2 0x20ED JUMPI DUP6 PUSH1 0x4 PUSH1 0x0 DUP4 DUP2 MSTORE PUSH1 0x20 ADD SWAP1 DUP2 MSTORE PUSH1 0x20 ADD PUSH1 0x0 KECCAK256 DUP2 SWAP1 SSTORE POP JUMPDEST JUMPDEST POP JUMPDEST DUP7 PUSH1 0x0 PUSH20 0xFFFFFFFFFFFFFFFFFFFFFFFFFFFFFFFFFFFFFFFF AND DUP5 PUSH20 0xFFFFFFFFFFFFFFFFFFFFFFFFFFFFFFFFFFFFFFFF AND PUSH32 0xDDF252AD1BE2C89B69C2B068FC378DAA952BA7F163C4A11628F55A4DF523B3EF PUSH1 0x40 MLOAD PUSH1 0x40 MLOAD DUP1 SWAP2 SUB SWAP1 LOG4 PUSH2 0x215A DUP4 PUSH1 0x0 DUP10 PUSH1 0x1 PUSH2 0x1AAE JUMP JUMPDEST PUSH1 0x1 PUSH1 0x0 DUP2 SLOAD DUP1 SWAP3 SWAP2 SWAP1 PUSH1 0x1 ADD SWAP2 SWAP1 POP SSTORE POP POP POP POP POP POP POP POP JUMP JUMPDEST PUSH1 0x0 DUP1 SLOAD SWAP1 POP PUSH1 0x0 DUP3 SUB PUSH2 0x2194 JUMPI PUSH2 0x2193 PUSH4 0xB562E8DD PUSH1 0xE0 SHL PUSH2 0x1795 JUMP JUMPDEST JUMPDEST PUSH2 0x21A1 PUSH1 0x0 DUP5 DUP4 DUP6 PUSH2 0x1A55 JUMP JUMPDEST PUSH2 0x21C1 DUP4 PUSH2 0x21B2 PUSH1 0x0 DUP7 PUSH1 0x0 PUSH2 0x1A5B JUMP JUMPDEST PUSH2 0x21BB DUP6 PUSH2 0x22E5 JUMP JUMPDEST OR PUSH2 0x1A83 JUMP JUMPDEST PUSH1 0x4 PUSH1 0x0 DUP4 DUP2 MSTORE PUSH1 0x20 ADD SWAP1 DUP2 MSTORE PUSH1 0x20 ADD PUSH1 0x0 KECCAK256 DUP2 SWAP1 SSTORE POP PUSH1 0x1 PUSH1 0x40 PUSH1 0x1 SWAP1 SHL OR DUP3 MUL PUSH1 0x5 PUSH1 0x0 DUP6 PUSH20 0xFFFFFFFFFFFFFFFFFFFFFFFFFFFFFFFFFFFFFFFF AND PUSH20 0xFFFFFFFFFFFFFFFFFFFFFFFFFFFFFFFFFFFFFFFF AND DUP2 MSTORE PUSH1 0x20 ADD SWAP1 DUP2 MSTORE PUSH1 0x20 ADD PUSH1 0x0 KECCAK256 PUSH1 0x0 DUP3 DUP3 SLOAD ADD SWAP3 POP POP DUP2 SWAP1 SSTORE POP PUSH1 0x0 DUP4 PUSH20 0xFFFFFFFFFFFFFFFFFFFFFFFFFFFFFFFFFFFFFFFF AND SWAP1 POP PUSH1 0x0 DUP2 SUB PUSH2 0x2263 JUMPI PUSH2 0x2262 PUSH4 0x2E076300 PUSH1 0xE0 SHL PUSH2 0x1795 JUMP JUMPDEST JUMPDEST PUSH1 0x0 DUP4 DUP4 ADD SWAP1 POP PUSH1 0x0 DUP4 SWAP1 POP PUSH2 0x2277 PUSH2 0x18D3 JUMP JUMPDEST PUSH1 0x1 DUP4 SUB GT ISZERO PUSH2 0x2292 JUMPI PUSH2 0x2291 PUSH4 0x81647E3A PUSH1 0xE0 SHL PUSH2 0x1795 JUMP JUMPDEST JUMPDEST JUMPDEST DUP1 DUP4 PUSH1 0x0 PUSH32 0xDDF252AD1BE2C89B69C2B068FC378DAA952BA7F163C4A11628F55A4DF523B3EF PUSH1 0x0 DUP1 LOG4 DUP2 DUP2 PUSH1 0x1 ADD SWAP2 POP DUP2 SUB PUSH2 0x2293 JUMPI DUP2 PUSH1 0x0 DUP2 SWAP1 SSTORE POP POP POP POP PUSH2 0x22E0 PUSH1 0x0 DUP5 DUP4 DUP6 PUSH2 0x1AAE JUMP JUMPDEST POP POP POP JUMP JUMPDEST PUSH1 0x0 PUSH1 0x1 DUP3 EQ PUSH1 0xE1 SHL SWAP1 POP SWAP2 SWAP1 POP JUMP JUMPDEST PUSH1 0x0 PUSH1 0x40 MLOAD SWAP1 POP SWAP1 JUMP JUMPDEST PUSH1 0x0 DUP1 REVERT JUMPDEST PUSH1 0x0 DUP1 REVERT JUMPDEST PUSH1 0x0 PUSH32 0xFFFFFFFF00000000000000000000000000000000000000000000000000000000 DUP3 AND SWAP1 POP SWAP2 SWAP1 POP JUMP JUMPDEST PUSH2 0x233E DUP2 PUSH2 0x2309 JUMP JUMPDEST DUP2 EQ PUSH2 0x2349 JUMPI PUSH1 0x0 DUP1 REVERT JUMPDEST POP JUMP JUMPDEST PUSH1 0x0 DUP2 CALLDATALOAD SWAP1 POP PUSH2 0x235B DUP2 PUSH2 0x2335 JUMP JUMPDEST SWAP3 SWAP2 POP POP JUMP JUMPDEST PUSH1 0x0 PUSH1 0x20 DUP3 DUP5 SUB SLT ISZERO PUSH2 0x2377 JUMPI PUSH2 0x2376 PUSH2 0x22FF JUMP JUMPDEST JUMPDEST PUSH1 0x0 PUSH2 0x2385 DUP5 DUP3 DUP6 ADD PUSH2 0x234C JUMP JUMPDEST SWAP2 POP POP SWAP3 SWAP2 POP POP JUMP JUMPDEST PUSH1 0x0 DUP2 ISZERO ISZERO SWAP1 POP SWAP2 SWAP1 POP JUMP JUMPDEST PUSH2 0x23A3 DUP2 PUSH2 0x238E JUMP JUMPDEST DUP3 MSTORE POP POP JUMP JUMPDEST PUSH1 0x0 PUSH1 0x20 DUP3 ADD SWAP1 POP PUSH2 0x23BE PUSH1 0x0 DUP4 ADD DUP5 PUSH2 0x239A JUMP JUMPDEST SWAP3 SWAP2 POP POP JUMP JUMPDEST PUSH1 0x0 DUP2 MLOAD SWAP1 POP SWAP2 SWAP1 POP JUMP JUMPDEST PUSH1 0x0 DUP3 DUP3 MSTORE PUSH1 0x20 DUP3 ADD SWAP1 POP SWAP3 SWAP2 POP POP JUMP JUMPDEST PUSH1 0x0 JUMPDEST DUP4 DUP2 LT ISZERO PUSH2 0x23FE JUMPI DUP1 DUP3 ADD MLOAD DUP2 DUP5 ADD MSTORE PUSH1 0x20 DUP2 ADD SWAP1 POP PUSH2 0x23E3 JUMP JUMPDEST PUSH1 0x0 DUP5 DUP5 ADD MSTORE POP POP POP POP JUMP JUMPDEST PUSH1 0x0 PUSH1 0x1F NOT PUSH1 0x1F DUP4 ADD AND SWAP1 POP SWAP2 SWAP1 POP JUMP JUMPDEST PUSH1 0x0 PUSH2 0x2426 DUP3 PUSH2 0x23C4 JUMP JUMPDEST PUSH2 0x2430 DUP2 DUP6 PUSH2 0x23CF JUMP JUMPDEST SWAP4 POP PUSH2 0x2440 DUP2 DUP6 PUSH1 0x20 DUP7 ADD PUSH2 0x23E0 JUMP JUMPDEST PUSH2 0x2449 DUP2 PUSH2 0x240A JUMP JUMPDEST DUP5 ADD SWAP2 POP POP SWAP3 SWAP2 POP POP JUMP JUMPDEST PUSH1 0x0 PUSH1 0x20 DUP3 ADD SWAP1 POP DUP2 DUP2 SUB PUSH1 0x0 DUP4 ADD MSTORE PUSH2 0x246E DUP2 DUP5 PUSH2 0x241B JUMP JUMPDEST SWAP1 POP SWAP3 SWAP2 POP POP JUMP JUMPDEST PUSH1 0x0 DUP2 SWAP1 POP SWAP2 SWAP1 POP JUMP JUMPDEST PUSH2 0x2489 DUP2 PUSH2 0x2476 JUMP JUMPDEST DUP2 EQ PUSH2 0x2494 JUMPI PUSH1 0x0 DUP1 REVERT JUMPDEST POP JUMP JUMPDEST PUSH1 0x0 DUP2 CALLDATALOAD SWAP1 POP PUSH2 0x24A6 DUP2 PUSH2 0x2480 JUMP JUMPDEST SWAP3 SWAP2 POP POP JUMP JUMPDEST PUSH1 0x0 PUSH1 0x20 DUP3 DUP5 SUB SLT ISZERO PUSH2 0x24C2 JUMPI PUSH2 0x24C1 PUSH2 0x22FF JUMP JUMPDEST JUMPDEST PUSH1 0x0 PUSH2 0x24D0 DUP5 DUP3 DUP6 ADD PUSH2 0x2497 JUMP JUMPDEST SWAP2 POP POP SWAP3 SWAP2 POP POP JUMP JUMPDEST PUSH1 0x0 PUSH20 0xFFFFFFFFFFFFFFFFFFFFFFFFFFFFFFFFFFFFFFFF DUP3 AND SWAP1 POP SWAP2 SWAP1 POP JUMP JUMPDEST PUSH1 0x0 PUSH2 0x2504 DUP3 PUSH2 0x24D9 JUMP JUMPDEST SWAP1 POP SWAP2 SWAP1 POP JUMP JUMPDEST PUSH2 0x2514 DUP2 PUSH2 0x24F9 JUMP JUMPDEST DUP3 MSTORE POP POP JUMP JUMPDEST PUSH1 0x0 PUSH1 0x20 DUP3 ADD SWAP1 POP PUSH2 0x252F PUSH1 0x0 DUP4 ADD DUP5 PUSH2 0x250B JUMP JUMPDEST SWAP3 SWAP2 POP POP JUMP JUMPDEST PUSH2 0x253E DUP2 PUSH2 0x24F9 JUMP JUMPDEST DUP2 EQ PUSH2 0x2549 JUMPI PUSH1 0x0 DUP1 REVERT JUMPDEST POP JUMP JUMPDEST PUSH1 0x0 DUP2 CALLDATALOAD SWAP1 POP PUSH2 0x255B DUP2 PUSH2 0x2535 JUMP JUMPDEST SWAP3 SWAP2 POP POP JUMP JUMPDEST PUSH1 0x0 DUP1 PUSH1 0x40 DUP4 DUP6 SUB SLT ISZERO PUSH2 0x2578 JUMPI PUSH2 0x2577 PUSH2 0x22FF JUMP JUMPDEST JUMPDEST PUSH1 0x0 PUSH2 0x2586 DUP6 DUP3 DUP7 ADD PUSH2 0x254C JUMP JUMPDEST SWAP3 POP POP PUSH1 0x20 PUSH2 0x2597 DUP6 DUP3 DUP7 ADD PUSH2 0x2497 JUMP JUMPDEST SWAP2 POP POP SWAP3 POP SWAP3 SWAP1 POP JUMP JUMPDEST PUSH2 0x25AA DUP2 PUSH2 0x2476 JUMP JUMPDEST DUP3 MSTORE POP POP JUMP JUMPDEST PUSH1 0x0 PUSH1 0x20 DUP3 ADD SWAP1 POP PUSH2 0x25C5 PUSH1 0x0 DUP4 ADD DUP5 PUSH2 0x25A1 JUMP JUMPDEST SWAP3 SWAP2 POP POP JUMP JUMPDEST PUSH1 0x0 DUP1 PUSH1 0x0 PUSH1 0x60 DUP5 DUP7 SUB SLT ISZERO PUSH2 0x25E4 JUMPI PUSH2 0x25E3 PUSH2 0x22FF JUMP JUMPDEST JUMPDEST PUSH1 0x0 PUSH2 0x25F2 DUP7 DUP3 DUP8 ADD PUSH2 0x254C JUMP JUMPDEST SWAP4 POP POP PUSH1 0x20 PUSH2 0x2603 DUP7 DUP3 DUP8 ADD PUSH2 0x254C JUMP JUMPDEST SWAP3 POP POP PUSH1 0x40 PUSH2 0x2614 DUP7 DUP3 DUP8 ADD PUSH2 0x2497 JUMP JUMPDEST SWAP2 POP POP SWAP3 POP SWAP3 POP SWAP3 JUMP JUMPDEST PUSH1 0x0 PUSH1 0x20 DUP3 DUP5 SUB SLT ISZERO PUSH2 0x2634 JUMPI PUSH2 0x2633 PUSH2 0x22FF JUMP JUMPDEST JUMPDEST PUSH1 0x0 PUSH2 0x2642 DUP5 DUP3 DUP6 ADD PUSH2 0x254C JUMP JUMPDEST SWAP2 POP POP SWAP3 SWAP2 POP POP JUMP JUMPDEST PUSH1 0x0 DUP1 REVERT JUMPDEST PUSH1 0x0 DUP1 REVERT JUMPDEST PUSH32 0x4E487B7100000000000000000000000000000000000000000000000000000000 PUSH1 0x0 MSTORE PUSH1 0x41 PUSH1 0x4 MSTORE PUSH1 0x24 PUSH1 0x0 REVERT JUMPDEST PUSH2 0x268D DUP3 PUSH2 0x240A JUMP JUMPDEST DUP2 ADD DUP2 DUP2 LT PUSH8 0xFFFFFFFFFFFFFFFF DUP3 GT OR ISZERO PUSH2 0x26AC JUMPI PUSH2 0x26AB PUSH2 0x2655 JUMP JUMPDEST JUMPDEST DUP1 PUSH1 0x40 MSTORE POP POP POP JUMP JUMPDEST PUSH1 0x0 PUSH2 0x26BF PUSH2 0x22F5 JUMP JUMPDEST SWAP1 POP PUSH2 0x26CB DUP3 DUP3 PUSH2 0x2684 JUMP JUMPDEST SWAP2 SWAP1 POP JUMP JUMPDEST PUSH1 0x0 PUSH8 0xFFFFFFFFFFFFFFFF DUP3 GT ISZERO PUSH2 0x26EB JUMPI PUSH2 0x26EA PUSH2 0x2655 JUMP JUMPDEST JUMPDEST PUSH2 0x26F4 DUP3 PUSH2 0x240A JUMP JUMPDEST SWAP1 POP PUSH1 0x20 DUP2 ADD SWAP1 POP SWAP2 SWAP1 POP JUMP JUMPDEST DUP3 DUP2 DUP4 CALLDATACOPY PUSH1 0x0 DUP4 DUP4 ADD MSTORE POP POP POP JUMP JUMPDEST PUSH1 0x0 PUSH2 0x2723 PUSH2 0x271E DUP5 PUSH2 0x26D0 JUMP JUMPDEST PUSH2 0x26B5 JUMP JUMPDEST SWAP1 POP DUP3 DUP2 MSTORE PUSH1 0x20 DUP2 ADD DUP5 DUP5 DUP5 ADD GT ISZERO PUSH2 0x273F JUMPI PUSH2 0x273E PUSH2 0x2650 JUMP JUMPDEST JUMPDEST PUSH2 0x274A DUP5 DUP3 DUP6 PUSH2 0x2701 JUMP JUMPDEST POP SWAP4 SWAP3 POP POP POP JUMP JUMPDEST PUSH1 0x0 DUP3 PUSH1 0x1F DUP4 ADD SLT PUSH2 0x2767 JUMPI PUSH2 0x2766 PUSH2 0x264B JUMP JUMPDEST JUMPDEST DUP2 CALLDATALOAD PUSH2 0x2777 DUP5 DUP3 PUSH1 0x20 DUP7 ADD PUSH2 0x2710 JUMP JUMPDEST SWAP2 POP POP SWAP3 SWAP2 POP POP JUMP JUMPDEST PUSH1 0x0 PUSH1 0x20 DUP3 DUP5 SUB SLT ISZERO PUSH2 0x2796 JUMPI PUSH2 0x2795 PUSH2 0x22FF JUMP JUMPDEST JUMPDEST PUSH1 0x0 DUP3 ADD CALLDATALOAD PUSH8 0xFFFFFFFFFFFFFFFF DUP2 GT ISZERO PUSH2 0x27B4 JUMPI PUSH2 0x27B3 PUSH2 0x2304 JUMP JUMPDEST JUMPDEST PUSH2 0x27C0 DUP5 DUP3 DUP6 ADD PUSH2 0x2752 JUMP JUMPDEST SWAP2 POP POP SWAP3 SWAP2 POP POP JUMP JUMPDEST PUSH2 0x27D2 DUP2 PUSH2 0x238E JUMP JUMPDEST DUP2 EQ PUSH2 0x27DD JUMPI PUSH1 0x0 DUP1 REVERT JUMPDEST POP JUMP JUMPDEST PUSH1 0x0 DUP2 CALLDATALOAD SWAP1 POP PUSH2 0x27EF DUP2 PUSH2 0x27C9 JUMP JUMPDEST SWAP3 SWAP2 POP POP JUMP JUMPDEST PUSH1 0x0 DUP1 PUSH1 0x40 DUP4 DUP6 SUB SLT ISZERO PUSH2 0x280C JUMPI PUSH2 0x280B PUSH2 0x22FF JUMP JUMPDEST JUMPDEST PUSH1 0x0 PUSH2 0x281A DUP6 DUP3 DUP7 ADD PUSH2 0x254C JUMP JUMPDEST SWAP3 POP POP PUSH1 0x20 PUSH2 0x282B DUP6 DUP3 DUP7 ADD PUSH2 0x27E0 JUMP JUMPDEST SWAP2 POP POP SWAP3 POP SWAP3 SWAP1 POP JUMP JUMPDEST PUSH1 0x0 PUSH8 0xFFFFFFFFFFFFFFFF DUP3 GT ISZERO PUSH2 0x2850 JUMPI PUSH2 0x284F PUSH2 0x2655 JUMP JUMPDEST JUMPDEST PUSH2 0x2859 DUP3 PUSH2 0x240A JUMP JUMPDEST SWAP1 POP PUSH1 0x20 DUP2 ADD SWAP1 POP SWAP2 SWAP1 POP JUMP JUMPDEST PUSH1 0x0 PUSH2 0x2879 PUSH2 0x2874 DUP5 PUSH2 0x2835 JUMP JUMPDEST PUSH2 0x26B5 JUMP JUMPDEST SWAP1 POP DUP3 DUP2 MSTORE PUSH1 0x20 DUP2 ADD DUP5 DUP5 DUP5 ADD GT ISZERO PUSH2 0x2895 JUMPI PUSH2 0x2894 PUSH2 0x2650 JUMP JUMPDEST JUMPDEST PUSH2 0x28A0 DUP5 DUP3 DUP6 PUSH2 0x2701 JUMP JUMPDEST POP SWAP4 SWAP3 POP POP POP JUMP JUMPDEST PUSH1 0x0 DUP3 PUSH1 0x1F DUP4 ADD SLT PUSH2 0x28BD JUMPI PUSH2 0x28BC PUSH2 0x264B JUMP JUMPDEST JUMPDEST DUP2 CALLDATALOAD PUSH2 0x28CD DUP5 DUP3 PUSH1 0x20 DUP7 ADD PUSH2 0x2866 JUMP JUMPDEST SWAP2 POP POP SWAP3 SWAP2 POP POP JUMP JUMPDEST PUSH1 0x0 DUP1 PUSH1 0x0 DUP1 PUSH1 0x80 DUP6 DUP8 SUB SLT ISZERO PUSH2 0x28F0 JUMPI PUSH2 0x28EF PUSH2 0x22FF JUMP JUMPDEST JUMPDEST PUSH1 0x0 PUSH2 0x28FE DUP8 DUP3 DUP9 ADD PUSH2 0x254C JUMP JUMPDEST SWAP5 POP POP PUSH1 0x20 PUSH2 0x290F DUP8 DUP3 DUP9 ADD PUSH2 0x254C JUMP JUMPDEST SWAP4 POP POP PUSH1 0x40 PUSH2 0x2920 DUP8 DUP3 DUP9 ADD PUSH2 0x2497 JUMP JUMPDEST SWAP3 POP POP PUSH1 0x60 DUP6 ADD CALLDATALOAD PUSH8 0xFFFFFFFFFFFFFFFF DUP2 GT ISZERO PUSH2 0x2941 JUMPI PUSH2 0x2940 PUSH2 0x2304 JUMP JUMPDEST JUMPDEST PUSH2 0x294D DUP8 DUP3 DUP9 ADD PUSH2 0x28A8 JUMP JUMPDEST SWAP2 POP POP SWAP3 SWAP6 SWAP2 SWAP5 POP SWAP3 POP JUMP JUMPDEST PUSH1 0x0 DUP1 PUSH1 0x40 DUP4 DUP6 SUB SLT ISZERO PUSH2 0x2970 JUMPI PUSH2 0x296F PUSH2 0x22FF JUMP JUMPDEST JUMPDEST PUSH1 0x0 PUSH2 0x297E DUP6 DUP3 DUP7 ADD PUSH2 0x254C JUMP JUMPDEST SWAP3 POP POP PUSH1 0x20 PUSH2 0x298F DUP6 DUP3 DUP7 ADD PUSH2 0x254C JUMP JUMPDEST SWAP2 POP POP SWAP3 POP SWAP3 SWAP1 POP JUMP JUMPDEST PUSH32 0x4E487B7100000000000000000000000000000000000000000000000000000000 PUSH1 0x0 MSTORE PUSH1 0x22 PUSH1 0x4 MSTORE PUSH1 0x24 PUSH1 0x0 REVERT JUMPDEST PUSH1 0x0 PUSH1 0x2 DUP3 DIV SWAP1 POP PUSH1 0x1 DUP3 AND DUP1 PUSH2 0x29E0 JUMPI PUSH1 0x7F DUP3 AND SWAP2 POP JUMPDEST PUSH1 0x20 DUP3 LT DUP2 SUB PUSH2 0x29F3 JUMPI PUSH2 0x29F2 PUSH2 0x2999 JUMP JUMPDEST JUMPDEST POP SWAP2 SWAP1 POP JUMP JUMPDEST PUSH32 0x496E76616C6964207175616E7469747900000000000000000000000000000000 PUSH1 0x0 DUP3 ADD MSTORE POP JUMP JUMPDEST PUSH1 0x0 PUSH2 0x2A2F PUSH1 0x10 DUP4 PUSH2 0x23CF JUMP JUMPDEST SWAP2 POP PUSH2 0x2A3A DUP3 PUSH2 0x29F9 JUMP JUMPDEST PUSH1 0x20 DUP3 ADD SWAP1 POP SWAP2 SWAP1 POP JUMP JUMPDEST PUSH1 0x0 PUSH1 0x20 DUP3 ADD SWAP1 POP DUP2 DUP2 SUB PUSH1 0x0 DUP4 ADD MSTORE PUSH2 0x2A5E DUP2 PUSH2 0x2A22 JUMP JUMPDEST SWAP1 POP SWAP2 SWAP1 POP JUMP JUMPDEST PUSH32 0x526566756E6420706572696F642068617320616C7265616479206C6170736564 PUSH1 0x0 DUP3 ADD MSTORE PUSH32 0x2121000000000000000000000000000000000000000000000000000000000000 PUSH1 0x20 DUP3 ADD MSTORE POP JUMP JUMPDEST PUSH1 0x0 PUSH2 0x2AC1 PUSH1 0x22 DUP4 PUSH2 0x23CF JUMP JUMPDEST SWAP2 POP PUSH2 0x2ACC DUP3 PUSH2 0x2A65 JUMP JUMPDEST PUSH1 0x40 DUP3 ADD SWAP1 POP SWAP2 SWAP1 POP JUMP JUMPDEST PUSH1 0x0 PUSH1 0x20 DUP3 ADD SWAP1 POP DUP2 DUP2 SUB PUSH1 0x0 DUP4 ADD MSTORE PUSH2 0x2AF0 DUP2 PUSH2 0x2AB4 JUMP JUMPDEST SWAP1 POP SWAP2 SWAP1 POP JUMP JUMPDEST PUSH32 0x4E487B7100000000000000000000000000000000000000000000000000000000 PUSH1 0x0 MSTORE PUSH1 0x11 PUSH1 0x4 MSTORE PUSH1 0x24 PUSH1 0x0 REVERT JUMPDEST PUSH1 0x0 PUSH2 0x2B31 DUP3 PUSH2 0x2476 JUMP JUMPDEST SWAP2 POP PUSH2 0x2B3C DUP4 PUSH2 0x2476 JUMP JUMPDEST SWAP3 POP DUP3 DUP3 MUL PUSH2 0x2B4A DUP2 PUSH2 0x2476 JUMP JUMPDEST SWAP2 POP DUP3 DUP3 DIV DUP5 EQ DUP4 ISZERO OR PUSH2 0x2B61 JUMPI PUSH2 0x2B60 PUSH2 0x2AF7 JUMP JUMPDEST JUMPDEST POP SWAP3 SWAP2 POP POP JUMP JUMPDEST PUSH1 0x0 DUP2 SWAP1 POP SWAP3 SWAP2 POP POP JUMP JUMPDEST POP JUMP JUMPDEST PUSH1 0x0 PUSH2 0x2B83 PUSH1 0x0 DUP4 PUSH2 0x2B68 JUMP JUMPDEST SWAP2 POP PUSH2 0x2B8E DUP3 PUSH2 0x2B73 JUMP JUMPDEST PUSH1 0x0 DUP3 ADD SWAP1 POP SWAP2 SWAP1 POP JUMP JUMPDEST PUSH1 0x0 PUSH2 0x2BA4 DUP3 PUSH2 0x2B76 JUMP JUMPDEST SWAP2 POP DUP2 SWAP1 POP SWAP2 SWAP1 POP JUMP JUMPDEST PUSH32 0x526566756E64206661696C656421210000000000000000000000000000000000 PUSH1 0x0 DUP3 ADD MSTORE POP JUMP JUMPDEST PUSH1 0x0 PUSH2 0x2BE4 PUSH1 0xF DUP4 PUSH2 0x23CF JUMP JUMPDEST SWAP2 POP PUSH2 0x2BEF DUP3 PUSH2 0x2BAE JUMP JUMPDEST PUSH1 0x20 DUP3 ADD SWAP1 POP SWAP2 SWAP1 POP JUMP JUMPDEST PUSH1 0x0 PUSH1 0x20 DUP3 ADD SWAP1 POP DUP2 DUP2 SUB PUSH1 0x0 DUP4 ADD MSTORE PUSH2 0x2C13 DUP2 PUSH2 0x2BD7 JUMP JUMPDEST SWAP1 POP SWAP2 SWAP1 POP JUMP JUMPDEST PUSH32 0x596F7520617265206E6F7420746865206F776E65722121000000000000000000 PUSH1 0x0 DUP3 ADD MSTORE POP JUMP JUMPDEST PUSH1 0x0 PUSH2 0x2C50 PUSH1 0x17 DUP4 PUSH2 0x23CF JUMP JUMPDEST SWAP2 POP PUSH2 0x2C5B DUP3 PUSH2 0x2C1A JUMP JUMPDEST PUSH1 0x20 DUP3 ADD SWAP1 POP SWAP2 SWAP1 POP JUMP JUMPDEST PUSH1 0x0 PUSH1 0x20 DUP3 ADD SWAP1 POP DUP2 DUP2 SUB PUSH1 0x0 DUP4 ADD MSTORE PUSH2 0x2C7F DUP2 PUSH2 0x2C43 JUMP JUMPDEST SWAP1 POP SWAP2 SWAP1 POP JUMP JUMPDEST PUSH32 0x4E6F204E465473206D696E7465642C20736F206E6F2062616C616E636520746F PUSH1 0x0 DUP3 ADD MSTORE PUSH32 0x2077697468647261772121000000000000000000000000000000000000000000 PUSH1 0x20 DUP3 ADD MSTORE POP JUMP JUMPDEST PUSH1 0x0 PUSH2 0x2CE2 PUSH1 0x2B DUP4 PUSH2 0x23CF JUMP JUMPDEST SWAP2 POP PUSH2 0x2CED DUP3 PUSH2 0x2C86 JUMP JUMPDEST PUSH1 0x40 DUP3 ADD SWAP1 POP SWAP2 SWAP1 POP JUMP JUMPDEST PUSH1 0x0 PUSH1 0x20 DUP3 ADD SWAP1 POP DUP2 DUP2 SUB PUSH1 0x0 DUP4 ADD MSTORE PUSH2 0x2D11 DUP2 PUSH2 0x2CD5 JUMP JUMPDEST SWAP1 POP SWAP2 SWAP1 POP JUMP JUMPDEST PUSH1 0x0 PUSH2 0x2D23 DUP3 PUSH2 0x2476 JUMP JUMPDEST SWAP2 POP PUSH2 0x2D2E DUP4 PUSH2 0x2476 JUMP JUMPDEST SWAP3 POP DUP3 DUP3 ADD SWAP1 POP DUP1 DUP3 GT ISZERO PUSH2 0x2D46 JUMPI PUSH2 0x2D45 PUSH2 0x2AF7 JUMP JUMPDEST JUMPDEST SWAP3 SWAP2 POP POP JUMP JUMPDEST PUSH32 0x526566756E6420706572696F64206E6F7420796574206F766572210000000000 PUSH1 0x0 DUP3 ADD MSTORE POP JUMP JUMPDEST PUSH1 0x0 PUSH2 0x2D82 PUSH1 0x1B DUP4 PUSH2 0x23CF JUMP JUMPDEST SWAP2 POP PUSH2 0x2D8D DUP3 PUSH2 0x2D4C JUMP JUMPDEST PUSH1 0x20 DUP3 ADD SWAP1 POP SWAP2 SWAP1 POP JUMP JUMPDEST PUSH1 0x0 PUSH1 0x20 DUP3 ADD SWAP1 POP DUP2 DUP2 SUB PUSH1 0x0 DUP4 ADD MSTORE PUSH2 0x2DB1 DUP2 PUSH2 0x2D75 JUMP JUMPDEST SWAP1 POP SWAP2 SWAP1 POP JUMP JUMPDEST PUSH32 0x5769746864726177616C206661696C6564212100000000000000000000000000 PUSH1 0x0 DUP3 ADD MSTORE POP JUMP JUMPDEST PUSH1 0x0 PUSH2 0x2DEE PUSH1 0x13 DUP4 PUSH2 0x23CF JUMP JUMPDEST SWAP2 POP PUSH2 0x2DF9 DUP3 PUSH2 0x2DB8 JUMP JUMPDEST PUSH1 0x20 DUP3 ADD SWAP1 POP SWAP2 SWAP1 POP JUMP JUMPDEST PUSH1 0x0 PUSH1 0x20 DUP3 ADD SWAP1 POP DUP2 DUP2 SUB PUSH1 0x0 DUP4 ADD MSTORE PUSH2 0x2E1D DUP2 PUSH2 0x2DE1 JUMP JUMPDEST SWAP1 POP SWAP2 SWAP1 POP JUMP JUMPDEST PUSH1 0x0 DUP2 SWAP1 POP DUP2 PUSH1 0x0 MSTORE PUSH1 0x20 PUSH1 0x0 KECCAK256 SWAP1 POP SWAP2 SWAP1 POP JUMP JUMPDEST PUSH1 0x0 PUSH1 0x20 PUSH1 0x1F DUP4 ADD DIV SWAP1 POP SWAP2 SWAP1 POP JUMP JUMPDEST PUSH1 0x0 DUP3 DUP3 SHL SWAP1 POP SWAP3 SWAP2 POP POP JUMP JUMPDEST PUSH1 0x0 PUSH1 0x8 DUP4 MUL PUSH2 0x2E86 PUSH32 0xFFFFFFFFFFFFFFFFFFFFFFFFFFFFFFFFFFFFFFFFFFFFFFFFFFFFFFFFFFFFFFFF DUP3 PUSH2 0x2E49 JUMP JUMPDEST PUSH2 0x2E90 DUP7 DUP4 PUSH2 0x2E49 JUMP JUMPDEST SWAP6 POP DUP1 NOT DUP5 AND SWAP4 POP DUP1 DUP7 AND DUP5 OR SWAP3 POP POP POP SWAP4 SWAP3 POP POP POP JUMP JUMPDEST PUSH1 0x0 DUP2 SWAP1 POP SWAP2 SWAP1 POP JUMP JUMPDEST PUSH1 0x0 PUSH2 0x2ECD PUSH2 0x2EC8 PUSH2 0x2EC3 DUP5 PUSH2 0x2476 JUMP JUMPDEST PUSH2 0x2EA8 JUMP JUMPDEST PUSH2 0x2476 JUMP JUMPDEST SWAP1 POP SWAP2 SWAP1 POP JUMP JUMPDEST PUSH1 0x0 DUP2 SWAP1 POP SWAP2 SWAP1 POP JUMP JUMPDEST PUSH2 0x2EE7 DUP4 PUSH2 0x2EB2 JUMP JUMPDEST PUSH2 0x2EFB PUSH2 0x2EF3 DUP3 PUSH2 0x2ED4 JUMP JUMPDEST DUP5 DUP5 SLOAD PUSH2 0x2E56 JUMP JUMPDEST DUP3 SSTORE POP POP POP POP JUMP JUMPDEST PUSH1 0x0 SWAP1 JUMP JUMPDEST PUSH2 0x2F10 PUSH2 0x2F03 JUMP JUMPDEST PUSH2 0x2F1B DUP2 DUP5 DUP5 PUSH2 0x2EDE JUMP JUMPDEST POP POP POP JUMP JUMPDEST JUMPDEST DUP2 DUP2 LT ISZERO PUSH2 0x2F3F JUMPI PUSH2 0x2F34 PUSH1 0x0 DUP3 PUSH2 0x2F08 JUMP JUMPDEST PUSH1 0x1 DUP2 ADD SWAP1 POP PUSH2 0x2F21 JUMP JUMPDEST POP POP JUMP JUMPDEST PUSH1 0x1F DUP3 GT ISZERO PUSH2 0x2F84 JUMPI PUSH2 0x2F55 DUP2 PUSH2 0x2E24 JUMP JUMPDEST PUSH2 0x2F5E DUP5 PUSH2 0x2E39 JUMP JUMPDEST DUP2 ADD PUSH1 0x20 DUP6 LT ISZERO PUSH2 0x2F6D JUMPI DUP2 SWAP1 POP JUMPDEST PUSH2 0x2F81 PUSH2 0x2F79 DUP6 PUSH2 0x2E39 JUMP JUMPDEST DUP4 ADD DUP3 PUSH2 0x2F20 JUMP JUMPDEST POP POP JUMPDEST POP POP POP JUMP JUMPDEST PUSH1 0x0 DUP3 DUP3 SHR SWAP1 POP SWAP3 SWAP2 POP POP JUMP JUMPDEST PUSH1 0x0 PUSH2 0x2FA7 PUSH1 0x0 NOT DUP5 PUSH1 0x8 MUL PUSH2 0x2F89 JUMP JUMPDEST NOT DUP1 DUP4 AND SWAP2 POP POP SWAP3 SWAP2 POP POP JUMP JUMPDEST PUSH1 0x0 PUSH2 0x2FC0 DUP4 DUP4 PUSH2 0x2F96 JUMP JUMPDEST SWAP2 POP DUP3 PUSH1 0x2 MUL DUP3 OR SWAP1 POP SWAP3 SWAP2 POP POP JUMP JUMPDEST PUSH2 0x2FD9 DUP3 PUSH2 0x23C4 JUMP JUMPDEST PUSH8 0xFFFFFFFFFFFFFFFF DUP2 GT ISZERO PUSH2 0x2FF2 JUMPI PUSH2 0x2FF1 PUSH2 0x2655 JUMP JUMPDEST JUMPDEST PUSH2 0x2FFC DUP3 SLOAD PUSH2 0x29C8 JUMP JUMPDEST PUSH2 0x3007 DUP3 DUP3 DUP6 PUSH2 0x2F43 JUMP JUMPDEST PUSH1 0x0 PUSH1 0x20 SWAP1 POP PUSH1 0x1F DUP4 GT PUSH1 0x1 DUP2 EQ PUSH2 0x303A JUMPI PUSH1 0x0 DUP5 ISZERO PUSH2 0x3028 JUMPI DUP3 DUP8 ADD MLOAD SWAP1 POP JUMPDEST PUSH2 0x3032 DUP6 DUP3 PUSH2 0x2FB4 JUMP JUMPDEST DUP7 SSTORE POP PUSH2 0x309A JUMP JUMPDEST PUSH1 0x1F NOT DUP5 AND PUSH2 0x3048 DUP7 PUSH2 0x2E24 JUMP JUMPDEST PUSH1 0x0 JUMPDEST DUP3 DUP2 LT ISZERO PUSH2 0x3070 JUMPI DUP5 DUP10 ADD MLOAD DUP3 SSTORE PUSH1 0x1 DUP3 ADD SWAP2 POP PUSH1 0x20 DUP6 ADD SWAP5 POP PUSH1 0x20 DUP2 ADD SWAP1 POP PUSH2 0x304B JUMP JUMPDEST DUP7 DUP4 LT ISZERO PUSH2 0x308D JUMPI DUP5 DUP10 ADD MLOAD PUSH2 0x3089 PUSH1 0x1F DUP10 AND DUP3 PUSH2 0x2F96 JUMP JUMPDEST DUP4 SSTORE POP JUMPDEST PUSH1 0x1 PUSH1 0x2 DUP9 MUL ADD DUP9 SSTORE POP POP POP JUMPDEST POP POP POP POP POP POP JUMP JUMPDEST PUSH32 0x416D6F756E7420746F6F206D7563682C206578636565646573206D6178207375 PUSH1 0x0 DUP3 ADD MSTORE PUSH32 0x70706C7900000000000000000000000000000000000000000000000000000000 PUSH1 0x20 DUP3 ADD MSTORE POP JUMP JUMPDEST PUSH1 0x0 PUSH2 0x30FE PUSH1 0x24 DUP4 PUSH2 0x23CF JUMP JUMPDEST SWAP2 POP PUSH2 0x3109 DUP3 PUSH2 0x30A2 JUMP JUMPDEST PUSH1 0x40 DUP3 ADD SWAP1 POP SWAP2 SWAP1 POP JUMP JUMPDEST PUSH1 0x0 PUSH1 0x20 DUP3 ADD SWAP1 POP DUP2 DUP2 SUB PUSH1 0x0 DUP4 ADD MSTORE PUSH2 0x312D DUP2 PUSH2 0x30F1 JUMP JUMPDEST SWAP1 POP SWAP2 SWAP1 POP JUMP JUMPDEST PUSH32 0x4D696E74206C696D697420657863656564656400000000000000000000000000 PUSH1 0x0 DUP3 ADD MSTORE POP JUMP JUMPDEST PUSH1 0x0 PUSH2 0x316A PUSH1 0x13 DUP4 PUSH2 0x23CF JUMP JUMPDEST SWAP2 POP PUSH2 0x3175 DUP3 PUSH2 0x3134 JUMP JUMPDEST PUSH1 0x20 DUP3 ADD SWAP1 POP SWAP2 SWAP1 POP JUMP JUMPDEST PUSH1 0x0 PUSH1 0x20 DUP3 ADD SWAP1 POP DUP2 DUP2 SUB PUSH1 0x0 DUP4 ADD MSTORE PUSH2 0x3199 DUP2 PUSH2 0x315D JUMP JUMPDEST SWAP1 POP SWAP2 SWAP1 POP JUMP JUMPDEST PUSH32 0x496E73756666696369656E742062616C616E6365000000000000000000000000 PUSH1 0x0 DUP3 ADD MSTORE POP JUMP JUMPDEST PUSH1 0x0 PUSH2 0x31D6 PUSH1 0x14 DUP4 PUSH2 0x23CF JUMP JUMPDEST SWAP2 POP PUSH2 0x31E1 DUP3 PUSH2 0x31A0 JUMP JUMPDEST PUSH1 0x20 DUP3 ADD SWAP1 POP SWAP2 SWAP1 POP JUMP JUMPDEST PUSH1 0x0 PUSH1 0x20 DUP3 ADD SWAP1 POP DUP2 DUP2 SUB PUSH1 0x0 DUP4 ADD MSTORE PUSH2 0x3205 DUP2 PUSH2 0x31C9 JUMP JUMPDEST SWAP1 POP SWAP2 SWAP1 POP JUMP JUMPDEST PUSH32 0x536F72727920796F752068617665207265616368656420796F7572206D617820 PUSH1 0x0 DUP3 ADD MSTORE PUSH32 0x6D696E74206C696D697421210000000000000000000000000000000000000000 PUSH1 0x20 DUP3 ADD MSTORE POP JUMP JUMPDEST PUSH1 0x0 PUSH2 0x3268 PUSH1 0x2C DUP4 PUSH2 0x23CF JUMP JUMPDEST SWAP2 POP PUSH2 0x3273 DUP3 PUSH2 0x320C JUMP JUMPDEST PUSH1 0x40 DUP3 ADD SWAP1 POP SWAP2 SWAP1 POP JUMP JUMPDEST PUSH1 0x0 PUSH1 0x20 DUP3 ADD SWAP1 POP DUP2 DUP2 SUB PUSH1 0x0 DUP4 ADD MSTORE PUSH2 0x3297 DUP2 PUSH2 0x325B JUMP JUMPDEST SWAP1 POP SWAP2 SWAP1 POP JUMP JUMPDEST PUSH1 0x0 DUP2 SWAP1 POP SWAP3 SWAP2 POP POP JUMP JUMPDEST PUSH1 0x0 PUSH2 0x32B4 DUP3 PUSH2 0x23C4 JUMP JUMPDEST PUSH2 0x32BE DUP2 DUP6 PUSH2 0x329E JUMP JUMPDEST SWAP4 POP PUSH2 0x32CE DUP2 DUP6 PUSH1 0x20 DUP7 ADD PUSH2 0x23E0 JUMP JUMPDEST DUP1 DUP5 ADD SWAP2 POP POP SWAP3 SWAP2 POP POP JUMP JUMPDEST PUSH1 0x0 PUSH2 0x32E6 DUP3 DUP6 PUSH2 0x32A9 JUMP JUMPDEST SWAP2 POP PUSH2 0x32F2 DUP3 DUP5 PUSH2 0x32A9 JUMP JUMPDEST SWAP2 POP DUP2 SWAP1 POP SWAP4 SWAP3 POP POP POP JUMP JUMPDEST PUSH1 0x0 PUSH2 0x3309 DUP3 PUSH2 0x2476 JUMP JUMPDEST SWAP2 POP PUSH1 0x0 DUP3 SUB PUSH2 0x331C JUMPI PUSH2 0x331B PUSH2 0x2AF7 JUMP JUMPDEST JUMPDEST PUSH1 0x1 DUP3 SUB SWAP1 POP SWAP2 SWAP1 POP JUMP JUMPDEST PUSH1 0x0 PUSH2 0x3332 DUP3 PUSH2 0x2476 JUMP JUMPDEST SWAP2 POP PUSH32 0xFFFFFFFFFFFFFFFFFFFFFFFFFFFFFFFFFFFFFFFFFFFFFFFFFFFFFFFFFFFFFFFF DUP3 SUB PUSH2 0x3364 JUMPI PUSH2 0x3363 PUSH2 0x2AF7 JUMP JUMPDEST JUMPDEST PUSH1 0x1 DUP3 ADD SWAP1 POP SWAP2 SWAP1 POP JUMP JUMPDEST PUSH1 0x0 DUP2 MLOAD SWAP1 POP SWAP2 SWAP1 POP JUMP JUMPDEST PUSH1 0x0 DUP3 DUP3 MSTORE PUSH1 0x20 DUP3 ADD SWAP1 POP SWAP3 SWAP2 POP POP JUMP JUMPDEST PUSH1 0x0 PUSH2 0x3396 DUP3 PUSH2 0x336F JUMP JUMPDEST PUSH2 0x33A0 DUP2 DUP6 PUSH2 0x337A JUMP JUMPDEST SWAP4 POP PUSH2 0x33B0 DUP2 DUP6 PUSH1 0x20 DUP7 ADD PUSH2 0x23E0 JUMP JUMPDEST PUSH2 0x33B9 DUP2 PUSH2 0x240A JUMP JUMPDEST DUP5 ADD SWAP2 POP POP SWAP3 SWAP2 POP POP JUMP JUMPDEST PUSH1 0x0 PUSH1 0x80 DUP3 ADD SWAP1 POP PUSH2 0x33D9 PUSH1 0x0 DUP4 ADD DUP8 PUSH2 0x250B JUMP JUMPDEST PUSH2 0x33E6 PUSH1 0x20 DUP4 ADD DUP7 PUSH2 0x250B JUMP JUMPDEST PUSH2 0x33F3 PUSH1 0x40 DUP4 ADD DUP6 PUSH2 0x25A1 JUMP JUMPDEST DUP2 DUP2 SUB PUSH1 0x60 DUP4 ADD MSTORE PUSH2 0x3405 DUP2 DUP5 PUSH2 0x338B JUMP JUMPDEST SWAP1 POP SWAP6 SWAP5 POP POP POP POP POP JUMP JUMPDEST PUSH1 0x0 DUP2 MLOAD SWAP1 POP PUSH2 0x341F DUP2 PUSH2 0x2335 JUMP JUMPDEST SWAP3 SWAP2 POP POP JUMP JUMPDEST PUSH1 0x0 PUSH1 0x20 DUP3 DUP5 SUB SLT ISZERO PUSH2 0x343B JUMPI PUSH2 0x343A PUSH2 0x22FF JUMP JUMPDEST JUMPDEST PUSH1 0x0 PUSH2 0x3449 DUP5 DUP3 DUP6 ADD PUSH2 0x3410 JUMP JUMPDEST SWAP2 POP POP SWAP3 SWAP2 POP POP JUMP INVALID LOG2 PUSH5 0x6970667358 0x22 SLT KECCAK256 0xE7 0x23 0xD0 0xC9 0xAE EXTCODESIZE PUSH16 0x85B544C81DE0BC690C39E8CC661B6C72 PUSH11 0xE12608B5F61069FC64736F PUSH13 0x634300081B0033000000000000 "},"methodIdentifiers":{"MAX_MINT()":"f0292a03","MAX_MINT_PER_WALLET()":"b19960e6","MAX_SUPPLY()":"32cb6b0c","MINT_RATE()":"f5c1be3c","REFUND_PERIOD()":"7f6578d3","approve(address,uint256)":"095ea7b3","balanceOf(address)":"70a08231","baseTokenURI()":"d547cfb7","getApproved(uint256)":"081812fc","isApprovedForAll(address,address)":"e985e9c5","mint(uint256)":"a0712d68","mintedAddresses(address)":"efdfb8ea","mintingTimestamp(address)":"2538354d","name()":"06fdde03","owner()":"8da5cb5b","ownerOf(uint256)":"6352211e","refund(uint256)":"278ecde1","safeTransferFrom(address,address,uint256)":"42842e0e","safeTransferFrom(address,address,uint256,bytes)":"b88d4fde","setApprovalForAll(address,bool)":"a22cb465","setBaseURI(string)":"55f804b3","supportsInterface(bytes4)":"01ffc9a7","symbol()":"95d89b41","tokenURI(uint256)":"c87b56dd","totalSupply()":"18160ddd","transferFrom(address,address,uint256)":"23b872dd","withdraw()":"3ccfd60b"}}}}}