{
  "_format": "hh-sol-artifact-1",
  "contractName": "ERC721A",
  "sourceName": "External Contracts/ERC721.sol",
  "abi": [
    {
      "inputs": [
        {
          "internalType": "string",
          "name": "name_",
          "type": "string"
        },
        {
          "internalType": "string",
          "name": "symbol_",
          "type": "string"
        }
      ],
      "stateMutability": "nonpayable",
      "type": "constructor"
    },
    {
      "inputs": [],
      "name": "ApprovalCallerNotOwnerNorApproved",
      "type": "error"
    },
    {
      "inputs": [],
      "name": "ApprovalQueryForNonexistentToken",
      "type": "error"
    },
    {
      "inputs": [],
      "name": "BalanceQueryForZeroAddress",
      "type": "error"
    },
    {
      "inputs": [],
      "name": "MintERC2309QuantityExceedsLimit",
      "type": "error"
    },
    {
      "inputs": [],
      "name": "MintToZeroAddress",
      "type": "error"
    },
    {
      "inputs": [],
      "name": "MintZeroQuantity",
      "type": "error"
    },
    {
      "inputs": [],
      "name": "NotCompatibleWithSpotMints",
      "type": "error"
    },
    {
      "inputs": [],
      "name": "OwnerQueryForNonexistentToken",
      "type": "error"
    },
    {
      "inputs": [],
      "name": "OwnershipNotInitializedForExtraData",
      "type": "error"
    },
    {
      "inputs": [],
      "name": "SequentialMintExceedsLimit",
      "type": "error"
    },
    {
      "inputs": [],
      "name": "SequentialUpToTooSmall",
      "type": "error"
    },
    {
      "inputs": [],
      "name": "SpotMintTokenIdTooSmall",
      "type": "error"
    },
    {
      "inputs": [],
      "name": "TokenAlreadyExists",
      "type": "error"
    },
    {
      "inputs": [],
      "name": "TokenIdsNotStrictlyAscending",
      "type": "error"
    },
    {
      "inputs": [],
      "name": "TransferCallerNotOwnerNorApproved",
      "type": "error"
    },
    {
      "inputs": [],
      "name": "TransferFromIncorrectOwner",
      "type": "error"
    },
    {
      "inputs": [],
      "name": "TransferToNonERC721ReceiverImplementer",
      "type": "error"
    },
    {
      "inputs": [],
      "name": "TransferToZeroAddress",
      "type": "error"
    },
    {
      "inputs": [],
      "name": "URIQueryForNonexistentToken",
      "type": "error"
    },
    {
      "anonymous": false,
      "inputs": [
        {
          "indexed": true,
          "internalType": "address",
          "name": "owner",
          "type": "address"
        },
        {
          "indexed": true,
          "internalType": "address",
          "name": "approved",
          "type": "address"
        },
        {
          "indexed": true,
          "internalType": "uint256",
          "name": "tokenId",
          "type": "uint256"
        }
      ],
      "name": "Approval",
      "type": "event"
    },
    {
      "anonymous": false,
      "inputs": [
        {
          "indexed": true,
          "internalType": "address",
          "name": "owner",
          "type": "address"
        },
        {
          "indexed": true,
          "internalType": "address",
          "name": "operator",
          "type": "address"
        },
        {
          "indexed": false,
          "internalType": "bool",
          "name": "approved",
          "type": "bool"
        }
      ],
      "name": "ApprovalForAll",
      "type": "event"
    },
    {
      "anonymous": false,
      "inputs": [
        {
          "indexed": true,
          "internalType": "uint256",
          "name": "fromTokenId",
          "type": "uint256"
        },
        {
          "indexed": false,
          "internalType": "uint256",
          "name": "toTokenId",
          "type": "uint256"
        },
        {
          "indexed": true,
          "internalType": "address",
          "name": "from",
          "type": "address"
        },
        {
          "indexed": true,
          "internalType": "address",
          "name": "to",
          "type": "address"
        }
      ],
      "name": "ConsecutiveTransfer",
      "type": "event"
    },
    {
      "anonymous": false,
      "inputs": [
        {
          "indexed": true,
          "internalType": "address",
          "name": "from",
          "type": "address"
        },
        {
          "indexed": true,
          "internalType": "address",
          "name": "to",
          "type": "address"
        },
        {
          "indexed": true,
          "internalType": "uint256",
          "name": "tokenId",
          "type": "uint256"
        }
      ],
      "name": "Transfer",
      "type": "event"
    },
    {
      "inputs": [
        {
          "internalType": "address",
          "name": "to",
          "type": "address"
        },
        {
          "internalType": "uint256",
          "name": "tokenId",
          "type": "uint256"
        }
      ],
      "name": "approve",
      "outputs": [],
      "stateMutability": "payable",
      "type": "function"
    },
    {
      "inputs": [
        {
          "internalType": "address",
          "name": "owner",
          "type": "address"
        }
      ],
      "name": "balanceOf",
      "outputs": [
        {
          "internalType": "uint256",
          "name": "",
          "type": "uint256"
        }
      ],
      "stateMutability": "view",
      "type": "function"
    },
    {
      "inputs": [
        {
          "internalType": "uint256",
          "name": "tokenId",
          "type": "uint256"
        }
      ],
      "name": "getApproved",
      "outputs": [
        {
          "internalType": "address",
          "name": "",
          "type": "address"
        }
      ],
      "stateMutability": "view",
      "type": "function"
    },
    {
      "inputs": [
        {
          "internalType": "address",
          "name": "owner",
          "type": "address"
        },
        {
          "internalType": "address",
          "name": "operator",
          "type": "address"
        }
      ],
      "name": "isApprovedForAll",
      "outputs": [
        {
          "internalType": "bool",
          "name": "",
          "type": "bool"
        }
      ],
      "stateMutability": "view",
      "type": "function"
    },
    {
      "inputs": [],
      "name": "name",
      "outputs": [
        {
          "internalType": "string",
          "name": "",
          "type": "string"
        }
      ],
      "stateMutability": "view",
      "type": "function"
    },
    {
      "inputs": [
        {
          "internalType": "uint256",
          "name": "tokenId",
          "type": "uint256"
        }
      ],
      "name": "ownerOf",
      "outputs": [
        {
          "internalType": "address",
          "name": "",
          "type": "address"
        }
      ],
      "stateMutability": "view",
      "type": "function"
    },
    {
      "inputs": [
        {
          "internalType": "address",
          "name": "from",
          "type": "address"
        },
        {
          "internalType": "address",
          "name": "to",
          "type": "address"
        },
        {
          "internalType": "uint256",
          "name": "tokenId",
          "type": "uint256"
        }
      ],
      "name": "safeTransferFrom",
      "outputs": [],
      "stateMutability": "payable",
      "type": "function"
    },
    {
      "inputs": [
        {
          "internalType": "address",
          "name": "from",
          "type": "address"
        },
        {
          "internalType": "address",
          "name": "to",
          "type": "address"
        },
        {
          "internalType": "uint256",
          "name": "tokenId",
          "type": "uint256"
        },
        {
          "internalType": "bytes",
          "name": "_data",
          "type": "bytes"
        }
      ],
      "name": "safeTransferFrom",
      "outputs": [],
      "stateMutability": "payable",
      "type": "function"
    },
    {
      "inputs": [
        {
          "internalType": "address",
          "name": "operator",
          "type": "address"
        },
        {
          "internalType": "bool",
          "name": "approved",
          "type": "bool"
        }
      ],
      "name": "setApprovalForAll",
      "outputs": [],
      "stateMutability": "nonpayable",
      "type": "function"
    },
    {
      "inputs": [
        {
          "internalType": "bytes4",
          "name": "interfaceId",
          "type": "bytes4"
        }
      ],
      "name": "supportsInterface",
      "outputs": [
        {
          "internalType": "bool",
          "name": "",
          "type": "bool"
        }
      ],
      "stateMutability": "view",
      "type": "function"
    },
    {
      "inputs": [],
      "name": "symbol",
      "outputs": [
        {
          "internalType": "string",
          "name": "",
          "type": "string"
        }
      ],
      "stateMutability": "view",
      "type": "function"
    },
    {
      "inputs": [
        {
          "internalType": "uint256",
          "name": "tokenId",
          "type": "uint256"
        }
      ],
      "name": "tokenURI",
      "outputs": [
        {
          "internalType": "string",
          "name": "",
          "type": "string"
        }
      ],
      "stateMutability": "view",
      "type": "function"
    },
    {
      "inputs": [],
      "name": "totalSupply",
      "outputs": [
        {
          "internalType": "uint256",
          "name": "result",
          "type": "uint256"
        }
      ],
      "stateMutability": "view",
      "type": "function"
    },
    {
      "inputs": [
        {
          "internalType": "address",
          "name": "from",
          "type": "address"
        },
        {
          "internalType": "address",
          "name": "to",
          "type": "address"
        },
        {
          "internalType": "uint256",
          "name": "tokenId",
          "type": "uint256"
        }
      ],
      "name": "transferFrom",
      "outputs": [],
      "stateMutability": "payable",
      "type": "function"
    }
  ],
  "bytecode": "0x608060405234801561001057600080fd5b50604051611f0c380380611f0c83398181016040528101906100329190610252565b816002908161004191906104eb565b50806003908161005191906104eb565b506100606100a660201b60201c565b6000819055506100746100a660201b60201c565b6100826100ab60201b60201c565b101561009f5761009e63fed8210f60e01b6100d360201b60201c565b5b50506105bd565b600090565b60007fffffffffffffffffffffffffffffffffffffffffffffffffffffffffffffffff905090565b8060005260046000fd5b6000604051905090565b600080fd5b600080fd5b600080fd5b600080fd5b6000601f19601f8301169050919050565b7f4e487b7100000000000000000000000000000000000000000000000000000000600052604160045260246000fd5b610144826100fb565b810181811067ffffffffffffffff821117156101635761016261010c565b5b80604052505050565b60006101766100dd565b9050610182828261013b565b919050565b600067ffffffffffffffff8211156101a2576101a161010c565b5b6101ab826100fb565b9050602081019050919050565b60005b838110156101d65780820151818401526020810190506101bb565b60008484015250505050565b60006101f56101f084610187565b61016c565b905082815260208101848484011115610211576102106100f6565b5b61021c8482856101b8565b509392505050565b600082601f830112610239576102386100f1565b5b81516102498482602086016101e2565b91505092915050565b60008060408385031215610269576102686100e7565b5b600083015167ffffffffffffffff811115610287576102866100ec565b5b61029385828601610224565b925050602083015167ffffffffffffffff8111156102b4576102b36100ec565b5b6102c085828601610224565b9150509250929050565b600081519050919050565b7f4e487b7100000000000000000000000000000000000000000000000000000000600052602260045260246000fd5b6000600282049050600182168061031c57607f821691505b60208210810361032f5761032e6102d5565b5b50919050565b60008190508160005260206000209050919050565b60006020601f8301049050919050565b600082821b905092915050565b6000600883026103977fffffffffffffffffffffffffffffffffffffffffffffffffffffffffffffffff8261035a565b6103a1868361035a565b95508019841693508086168417925050509392505050565b6000819050919050565b6000819050919050565b60006103e86103e36103de846103b9565b6103c3565b6103b9565b9050919050565b6000819050919050565b610402836103cd565b61041661040e826103ef565b848454610367565b825550505050565b600090565b61042b61041e565b6104368184846103f9565b505050565b5b8181101561045a5761044f600082610423565b60018101905061043c565b5050565b601f82111561049f5761047081610335565b6104798461034a565b81016020851015610488578190505b61049c6104948561034a565b83018261043b565b50505b505050565b600082821c905092915050565b60006104c2600019846008026104a4565b1980831691505092915050565b60006104db83836104b1565b9150826002028217905092915050565b6104f4826102ca565b67ffffffffffffffff81111561050d5761050c61010c565b5b6105178254610304565b61052282828561045e565b600060209050601f8311600181146105555760008415610543578287015190505b61054d85826104cf565b8655506105b5565b601f19841661056386610335565b60005b8281101561058b57848901518255600182019150602085019450602081019050610566565b868310156105a857848901516105a4601f8916826104b1565b8355505b6001600288020188555050505b505050505050565b611940806105cc6000396000f3fe6080604052600436106100dd5760003560e01c80636352211e1161007f578063a22cb46511610059578063a22cb465146102ab578063b88d4fde146102d4578063c87b56dd146102f0578063e985e9c51461032d576100dd565b80636352211e1461020657806370a082311461024357806395d89b4114610280576100dd565b8063095ea7b3116100bb578063095ea7b31461018757806318160ddd146101a357806323b872dd146101ce57806342842e0e146101ea576100dd565b806301ffc9a7146100e257806306fdde031461011f578063081812fc1461014a575b600080fd5b3480156100ee57600080fd5b50610109600480360381019061010491906111c1565b61036a565b6040516101169190611209565b60405180910390f35b34801561012b57600080fd5b506101346103fc565b60405161014191906112b4565b60405180910390f35b34801561015657600080fd5b50610171600480360381019061016c919061130c565b61048e565b60405161017e919061137a565b60405180910390f35b6101a1600480360381019061019c91906113c1565b6104ec565b005b3480156101af57600080fd5b506101b86104fc565b6040516101c59190611410565b60405180910390f35b6101e860048036038101906101e3919061142b565b610549565b005b61020460048036038101906101ff919061142b565b6107e1565b005b34801561021257600080fd5b5061022d6004803603810190610228919061130c565b610801565b60405161023a919061137a565b60405180910390f35b34801561024f57600080fd5b5061026a6004803603810190610265919061147e565b610813565b6040516102779190611410565b60405180910390f35b34801561028c57600080fd5b506102956108aa565b6040516102a291906112b4565b60405180910390f35b3480156102b757600080fd5b506102d260048036038101906102cd91906114d7565b61093c565b005b6102ee60048036038101906102e9919061164c565b610a47565b005b3480156102fc57600080fd5b506103176004803603810190610312919061130c565b610a99565b60405161032491906112b4565b60405180910390f35b34801561033957600080fd5b50610354600480360381019061034f91906116cf565b610b16565b6040516103619190611209565b60405180910390f35b60006301ffc9a760e01b827bffffffffffffffffffffffffffffffffffffffffffffffffffffffff191614806103c557506380ac58cd60e01b827bffffffffffffffffffffffffffffffffffffffffffffffffffffffff1916145b806103f55750635b5e139f60e01b827bffffffffffffffffffffffffffffffffffffffffffffffffffffffff1916145b9050919050565b60606002805461040b9061173e565b80601f01602080910402602001604051908101604052809291908181526020018280546104379061173e565b80156104845780601f1061045957610100808354040283529160200191610484565b820191906000526020600020905b81548152906001019060200180831161046757829003601f168201915b5050505050905090565b600061049982610baa565b6104ae576104ad63cf4700e460e01b610c56565b5b6006600083815260200190815260200160002060000160009054906101000a900473ffffffffffffffffffffffffffffffffffffffff169050919050565b6104f882826001610c60565b5050565b6000610506610d8f565b600154600054030390507fffffffffffffffffffffffffffffffffffffffffffffffffffffffffffffffff610539610d94565b1461054657600854810190505b90565b600061055482610dbc565b905060008473ffffffffffffffffffffffffffffffffffffffff169050808273ffffffffffffffffffffffffffffffffffffffff161461059f5761059e63a114810060e01b610c56565b5b6000806105ab85610ed5565b915091506105d781846105bc610efc565b73ffffffffffffffffffffffffffffffffffffffff16610f04565b610602576105ec876105e7610efc565b610b16565b610601576106006359c896be60e01b610c56565b5b5b61060f8787876001610f16565b801561061a57600082555b600560008873ffffffffffffffffffffffffffffffffffffffff1673ffffffffffffffffffffffffffffffffffffffff168152602001908152602001600020600081546001900391905081905550600560008773ffffffffffffffffffffffffffffffffffffffff1673ffffffffffffffffffffffffffffffffffffffff16815260200190815260200160002060008154600101919050819055506106e8866106c4898988610f1c565b7c020000000000000000000000000000000000000000000000000000000017610f44565b600460008781526020019081526020016000208190555060007c020000000000000000000000000000000000000000000000000000000085160361076e576000600186019050600060046000838152602001908152602001600020540361076c57600054811461076b578460046000838152602001908152602001600020819055505b5b505b60008673ffffffffffffffffffffffffffffffffffffffff1690508581857fddf252ad1be2c89b69c2b068fc378daa952ba7f163c4a11628f55a4df523b3ef600080a4600081036107ca576107c963ea553b3460e01b610c56565b5b6107d78888886001610f6f565b5050505050505050565b6107fc83838360405180602001604052806000815250610a47565b505050565b600061080c82610dbc565b9050919050565b60008073ffffffffffffffffffffffffffffffffffffffff168273ffffffffffffffffffffffffffffffffffffffff160361085957610858638f4eb60460e01b610c56565b5b67ffffffffffffffff600560008473ffffffffffffffffffffffffffffffffffffffff1673ffffffffffffffffffffffffffffffffffffffff16815260200190815260200160002054169050919050565b6060600380546108b99061173e565b80601f01602080910402602001604051908101604052809291908181526020018280546108e59061173e565b80156109325780601f1061090757610100808354040283529160200191610932565b820191906000526020600020905b81548152906001019060200180831161091557829003601f168201915b5050505050905090565b8060076000610949610efc565b73ffffffffffffffffffffffffffffffffffffffff1673ffffffffffffffffffffffffffffffffffffffff16815260200190815260200160002060008473ffffffffffffffffffffffffffffffffffffffff1673ffffffffffffffffffffffffffffffffffffffff16815260200190815260200160002060006101000a81548160ff0219169083151502179055508173ffffffffffffffffffffffffffffffffffffffff166109f6610efc565b73ffffffffffffffffffffffffffffffffffffffff167f17307eab39ab6107e8899845ad3d59bd9653f200f220920489ca2b5937696c3183604051610a3b9190611209565b60405180910390a35050565b610a52848484610549565b60008373ffffffffffffffffffffffffffffffffffffffff163b14610a9357610a7d84848484610f75565b610a9257610a9163d1a57ed660e01b610c56565b5b5b50505050565b6060610aa482610baa565b610ab957610ab863a14c4b5060e01b610c56565b5b6000610ac36110a4565b90506000815103610ae35760405180602001604052806000815250610b0e565b80610aed846110bb565b604051602001610afe9291906117ab565b6040516020818303038152906040525b915050919050565b6000600760008473ffffffffffffffffffffffffffffffffffffffff1673ffffffffffffffffffffffffffffffffffffffff16815260200190815260200160002060008373ffffffffffffffffffffffffffffffffffffffff1673ffffffffffffffffffffffffffffffffffffffff16815260200190815260200160002060009054906101000a900460ff16905092915050565b600081610bb5610d8f565b11610c5057610bc2610d94565b821115610bec57610be5600460008481526020019081526020016000205461110b565b9050610c51565b600054821015610c4f5760005b6000600460008581526020019081526020016000205491508103610c285782610c21906117fe565b9250610bf9565b60007c01000000000000000000000000000000000000000000000000000000008216149150505b5b5b919050565b8060005260046000fd5b6000610c6b83610801565b9050818015610cad57508073ffffffffffffffffffffffffffffffffffffffff16610c94610efc565b73ffffffffffffffffffffffffffffffffffffffff1614155b15610cd957610cc381610cbe610efc565b610b16565b610cd857610cd763cfb3b94260e01b610c56565b5b5b836006600085815260200190815260200160002060000160006101000a81548173ffffffffffffffffffffffffffffffffffffffff021916908373ffffffffffffffffffffffffffffffffffffffff160217905550828473ffffffffffffffffffffffffffffffffffffffff168273ffffffffffffffffffffffffffffffffffffffff167f8c5be1e5ebec7d5bd14f71427d1e84f3dd0314c0f7b2291e5b200ac8c7c3b92560405160405180910390a450505050565b600090565b60007fffffffffffffffffffffffffffffffffffffffffffffffffffffffffffffffff905090565b600081610dc7610d8f565b11610ebf5760046000838152602001908152602001600020549050610dea610d94565b821115610e0f57610dfa8161110b565b610ed057610e0e63df2d9b4260e01b610c56565b5b60008103610e96576000548210610e3157610e3063df2d9b4260e01b610c56565b5b5b60046000836001900393508381526020019081526020016000205490506000810315610e915760007c010000000000000000000000000000000000000000000000000000000082160315610ed057610e9063df2d9b4260e01b610c56565b5b610e32565b60007c010000000000000000000000000000000000000000000000000000000082160315610ed0575b610ecf63df2d9b4260e01b610c56565b5b919050565b60008060006006600085815260200190815260200160002090508092508254915050915091565b600033905090565b60008382148383141790509392505050565b50505050565b60008060e883901c905060e8610f3386868461114c565b62ffffff16901b9150509392505050565b600073ffffffffffffffffffffffffffffffffffffffff83169250814260a01b178317905092915050565b50505050565b60008373ffffffffffffffffffffffffffffffffffffffff1663150b7a02610f9b610efc565b8786866040518563ffffffff1660e01b8152600401610fbd949392919061187c565b6020604051808303816000875af1925050508015610ff957506040513d601f19601f82011682018060405250810190610ff691906118dd565b60015b611051573d8060008114611029576040519150601f19603f3d011682016040523d82523d6000602084013e61102e565b606091505b5060008151036110495761104863d1a57ed660e01b610c56565b5b805181602001fd5b63150b7a0260e01b7bffffffffffffffffffffffffffffffffffffffffffffffffffffffff1916817bffffffffffffffffffffffffffffffffffffffffffffffffffffffff191614915050949350505050565b606060405180602001604052806000815250905090565b606060a060405101806040526020810391506000825281835b6001156110f657600184039350600a81066030018453600a81049050806110d4575b50828103602084039350808452505050919050565b60007c0100000000000000000000000000000000000000000000000000000000821673ffffffffffffffffffffffffffffffffffffffff8316119050919050565b60009392505050565b6000604051905090565b600080fd5b600080fd5b60007fffffffff0000000000000000000000000000000000000000000000000000000082169050919050565b61119e81611169565b81146111a957600080fd5b50565b6000813590506111bb81611195565b92915050565b6000602082840312156111d7576111d661115f565b5b60006111e5848285016111ac565b91505092915050565b60008115159050919050565b611203816111ee565b82525050565b600060208201905061121e60008301846111fa565b92915050565b600081519050919050565b600082825260208201905092915050565b60005b8381101561125e578082015181840152602081019050611243565b60008484015250505050565b6000601f19601f8301169050919050565b600061128682611224565b611290818561122f565b93506112a0818560208601611240565b6112a98161126a565b840191505092915050565b600060208201905081810360008301526112ce818461127b565b905092915050565b6000819050919050565b6112e9816112d6565b81146112f457600080fd5b50565b600081359050611306816112e0565b92915050565b6000602082840312156113225761132161115f565b5b6000611330848285016112f7565b91505092915050565b600073ffffffffffffffffffffffffffffffffffffffff82169050919050565b600061136482611339565b9050919050565b61137481611359565b82525050565b600060208201905061138f600083018461136b565b92915050565b61139e81611359565b81146113a957600080fd5b50565b6000813590506113bb81611395565b92915050565b600080604083850312156113d8576113d761115f565b5b60006113e6858286016113ac565b92505060206113f7858286016112f7565b9150509250929050565b61140a816112d6565b82525050565b60006020820190506114256000830184611401565b92915050565b6000806000606084860312156114445761144361115f565b5b6000611452868287016113ac565b9350506020611463868287016113ac565b9250506040611474868287016112f7565b9150509250925092565b6000602082840312156114945761149361115f565b5b60006114a2848285016113ac565b91505092915050565b6114b4816111ee565b81146114bf57600080fd5b50565b6000813590506114d1816114ab565b92915050565b600080604083850312156114ee576114ed61115f565b5b60006114fc858286016113ac565b925050602061150d858286016114c2565b9150509250929050565b600080fd5b600080fd5b7f4e487b7100000000000000000000000000000000000000000000000000000000600052604160045260246000fd5b6115598261126a565b810181811067ffffffffffffffff8211171561157857611577611521565b5b80604052505050565b600061158b611155565b90506115978282611550565b919050565b600067ffffffffffffffff8211156115b7576115b6611521565b5b6115c08261126a565b9050602081019050919050565b82818337600083830152505050565b60006115ef6115ea8461159c565b611581565b90508281526020810184848401111561160b5761160a61151c565b5b6116168482856115cd565b509392505050565b600082601f83011261163357611632611517565b5b81356116438482602086016115dc565b91505092915050565b600080600080608085870312156116665761166561115f565b5b6000611674878288016113ac565b9450506020611685878288016113ac565b9350506040611696878288016112f7565b925050606085013567ffffffffffffffff8111156116b7576116b6611164565b5b6116c38782880161161e565b91505092959194509250565b600080604083850312156116e6576116e561115f565b5b60006116f4858286016113ac565b9250506020611705858286016113ac565b9150509250929050565b7f4e487b7100000000000000000000000000000000000000000000000000000000600052602260045260246000fd5b6000600282049050600182168061175657607f821691505b6020821081036117695761176861170f565b5b50919050565b600081905092915050565b600061178582611224565b61178f818561176f565b935061179f818560208601611240565b80840191505092915050565b60006117b7828561177a565b91506117c3828461177a565b91508190509392505050565b7f4e487b7100000000000000000000000000000000000000000000000000000000600052601160045260246000fd5b6000611809826112d6565b91506000820361181c5761181b6117cf565b5b600182039050919050565b600081519050919050565b600082825260208201905092915050565b600061184e82611827565b6118588185611832565b9350611868818560208601611240565b6118718161126a565b840191505092915050565b6000608082019050611891600083018761136b565b61189e602083018661136b565b6118ab6040830185611401565b81810360608301526118bd8184611843565b905095945050505050565b6000815190506118d781611195565b92915050565b6000602082840312156118f3576118f261115f565b5b6000611901848285016118c8565b9150509291505056fea2646970667358221220749de1545699de536467ecc97b8947d2be2baa2040b219aec8fa2c97e3083b7764736f6c634300081b0033",
  "linkReferences": {},
  "deployedLinkReferences": {}
}