{
  "_format": "hh-sol-artifact-1",
  "contractName": "EarlyBirdNFT",
  "sourceName": "contracts/ERC721A.sol",
  "abi": [
    {
      "inputs": [
        {
          "internalType": "string",
          "name": "_tokenURI",
          "type": "string"
        }
      ],
      "stateMutability": "nonpayable",
      "type": "constructor"
    },
    {
      "inputs": [],
      "name": "ApprovalCallerNotOwnerNorApproved",
      "type": "error"
    },
    {
      "inputs": [],
      "name": "ApprovalQueryForNonexistentToken",
      "type": "error"
    },
    {
      "inputs": [],
      "name": "BalanceQueryForZeroAddress",
      "type": "error"
    },
    {
      "inputs": [],
      "name": "MintERC2309QuantityExceedsLimit",
      "type": "error"
    },
    {
      "inputs": [],
      "name": "MintToZeroAddress",
      "type": "error"
    },
    {
      "inputs": [],
      "name": "MintZeroQuantity",
      "type": "error"
    },
    {
      "inputs": [],
      "name": "NotCompatibleWithSpotMints",
      "type": "error"
    },
    {
      "inputs": [],
      "name": "OwnerQueryForNonexistentToken",
      "type": "error"
    },
    {
      "inputs": [],
      "name": "OwnershipNotInitializedForExtraData",
      "type": "error"
    },
    {
      "inputs": [],
      "name": "SequentialMintExceedsLimit",
      "type": "error"
    },
    {
      "inputs": [],
      "name": "SequentialUpToTooSmall",
      "type": "error"
    },
    {
      "inputs": [],
      "name": "SpotMintTokenIdTooSmall",
      "type": "error"
    },
    {
      "inputs": [],
      "name": "TokenAlreadyExists",
      "type": "error"
    },
    {
      "inputs": [],
      "name": "TokenIdsNotStrictlyAscending",
      "type": "error"
    },
    {
      "inputs": [],
      "name": "TransferCallerNotOwnerNorApproved",
      "type": "error"
    },
    {
      "inputs": [],
      "name": "TransferFromIncorrectOwner",
      "type": "error"
    },
    {
      "inputs": [],
      "name": "TransferToNonERC721ReceiverImplementer",
      "type": "error"
    },
    {
      "inputs": [],
      "name": "TransferToZeroAddress",
      "type": "error"
    },
    {
      "inputs": [],
      "name": "URIQueryForNonexistentToken",
      "type": "error"
    },
    {
      "anonymous": false,
      "inputs": [
        {
          "indexed": true,
          "internalType": "address",
          "name": "owner",
          "type": "address"
        },
        {
          "indexed": true,
          "internalType": "address",
          "name": "approved",
          "type": "address"
        },
        {
          "indexed": true,
          "internalType": "uint256",
          "name": "tokenId",
          "type": "uint256"
        }
      ],
      "name": "Approval",
      "type": "event"
    },
    {
      "anonymous": false,
      "inputs": [
        {
          "indexed": true,
          "internalType": "address",
          "name": "owner",
          "type": "address"
        },
        {
          "indexed": true,
          "internalType": "address",
          "name": "operator",
          "type": "address"
        },
        {
          "indexed": false,
          "internalType": "bool",
          "name": "approved",
          "type": "bool"
        }
      ],
      "name": "ApprovalForAll",
      "type": "event"
    },
    {
      "anonymous": false,
      "inputs": [
        {
          "indexed": true,
          "internalType": "uint256",
          "name": "fromTokenId",
          "type": "uint256"
        },
        {
          "indexed": false,
          "internalType": "uint256",
          "name": "toTokenId",
          "type": "uint256"
        },
        {
          "indexed": true,
          "internalType": "address",
          "name": "from",
          "type": "address"
        },
        {
          "indexed": true,
          "internalType": "address",
          "name": "to",
          "type": "address"
        }
      ],
      "name": "ConsecutiveTransfer",
      "type": "event"
    },
    {
      "anonymous": false,
      "inputs": [
        {
          "indexed": true,
          "internalType": "address",
          "name": "_to",
          "type": "address"
        },
        {
          "indexed": true,
          "internalType": "uint256",
          "name": "_value",
          "type": "uint256"
        }
      ],
      "name": "MintSuccess",
      "type": "event"
    },
    {
      "anonymous": false,
      "inputs": [
        {
          "indexed": true,
          "internalType": "address",
          "name": "_to",
          "type": "address"
        },
        {
          "indexed": true,
          "internalType": "uint256",
          "name": "_value",
          "type": "uint256"
        }
      ],
      "name": "RefundSuccess",
      "type": "event"
    },
    {
      "anonymous": false,
      "inputs": [
        {
          "indexed": true,
          "internalType": "address",
          "name": "from",
          "type": "address"
        },
        {
          "indexed": true,
          "internalType": "address",
          "name": "to",
          "type": "address"
        },
        {
          "indexed": true,
          "internalType": "uint256",
          "name": "tokenId",
          "type": "uint256"
        }
      ],
      "name": "Transfer",
      "type": "event"
    },
    {
      "anonymous": false,
      "inputs": [
        {
          "indexed": true,
          "internalType": "address",
          "name": "_to",
          "type": "address"
        },
        {
          "indexed": true,
          "internalType": "uint256",
          "name": "_amount",
          "type": "uint256"
        }
      ],
      "name": "WithdrawSuccess",
      "type": "event"
    },
    {
      "inputs": [],
      "name": "MAX_MINT",
      "outputs": [
        {
          "internalType": "uint256",
          "name": "",
          "type": "uint256"
        }
      ],
      "stateMutability": "view",
      "type": "function"
    },
    {
      "inputs": [],
      "name": "MAX_MINT_PER_WALLET",
      "outputs": [
        {
          "internalType": "uint256",
          "name": "",
          "type": "uint256"
        }
      ],
      "stateMutability": "view",
      "type": "function"
    },
    {
      "inputs": [],
      "name": "MAX_SUPPLY",
      "outputs": [
        {
          "internalType": "uint256",
          "name": "",
          "type": "uint256"
        }
      ],
      "stateMutability": "view",
      "type": "function"
    },
    {
      "inputs": [],
      "name": "MINT_RATE",
      "outputs": [
        {
          "internalType": "uint256",
          "name": "",
          "type": "uint256"
        }
      ],
      "stateMutability": "view",
      "type": "function"
    },
    {
      "inputs": [],
      "name": "REFUND_PERIOD",
      "outputs": [
        {
          "internalType": "uint256",
          "name": "",
          "type": "uint256"
        }
      ],
      "stateMutability": "view",
      "type": "function"
    },
    {
      "inputs": [
        {
          "internalType": "address",
          "name": "to",
          "type": "address"
        },
        {
          "internalType": "uint256",
          "name": "tokenId",
          "type": "uint256"
        }
      ],
      "name": "approve",
      "outputs": [],
      "stateMutability": "payable",
      "type": "function"
    },
    {
      "inputs": [
        {
          "internalType": "address",
          "name": "owner",
          "type": "address"
        }
      ],
      "name": "balanceOf",
      "outputs": [
        {
          "internalType": "uint256",
          "name": "",
          "type": "uint256"
        }
      ],
      "stateMutability": "view",
      "type": "function"
    },
    {
      "inputs": [],
      "name": "baseTokenURI",
      "outputs": [
        {
          "internalType": "string",
          "name": "",
          "type": "string"
        }
      ],
      "stateMutability": "view",
      "type": "function"
    },
    {
      "inputs": [
        {
          "internalType": "uint256",
          "name": "tokenId",
          "type": "uint256"
        }
      ],
      "name": "getApproved",
      "outputs": [
        {
          "internalType": "address",
          "name": "",
          "type": "address"
        }
      ],
      "stateMutability": "view",
      "type": "function"
    },
    {
      "inputs": [
        {
          "internalType": "address",
          "name": "owner",
          "type": "address"
        },
        {
          "internalType": "address",
          "name": "operator",
          "type": "address"
        }
      ],
      "name": "isApprovedForAll",
      "outputs": [
        {
          "internalType": "bool",
          "name": "",
          "type": "bool"
        }
      ],
      "stateMutability": "view",
      "type": "function"
    },
    {
      "inputs": [
        {
          "internalType": "uint256",
          "name": "_quantity",
          "type": "uint256"
        }
      ],
      "name": "mint",
      "outputs": [
        {
          "internalType": "bool",
          "name": "",
          "type": "bool"
        }
      ],
      "stateMutability": "payable",
      "type": "function"
    },
    {
      "inputs": [
        {
          "internalType": "address",
          "name": "",
          "type": "address"
        }
      ],
      "name": "mintedAddresses",
      "outputs": [
        {
          "internalType": "uint256",
          "name": "",
          "type": "uint256"
        }
      ],
      "stateMutability": "view",
      "type": "function"
    },
    {
      "inputs": [
        {
          "internalType": "address",
          "name": "",
          "type": "address"
        }
      ],
      "name": "mintingTimestamp",
      "outputs": [
        {
          "internalType": "uint256",
          "name": "",
          "type": "uint256"
        }
      ],
      "stateMutability": "view",
      "type": "function"
    },
    {
      "inputs": [],
      "name": "name",
      "outputs": [
        {
          "internalType": "string",
          "name": "",
          "type": "string"
        }
      ],
      "stateMutability": "view",
      "type": "function"
    },
    {
      "inputs": [],
      "name": "owner",
      "outputs": [
        {
          "internalType": "address",
          "name": "",
          "type": "address"
        }
      ],
      "stateMutability": "view",
      "type": "function"
    },
    {
      "inputs": [
        {
          "internalType": "uint256",
          "name": "tokenId",
          "type": "uint256"
        }
      ],
      "name": "ownerOf",
      "outputs": [
        {
          "internalType": "address",
          "name": "",
          "type": "address"
        }
      ],
      "stateMutability": "view",
      "type": "function"
    },
    {
      "inputs": [
        {
          "internalType": "uint256",
          "name": "quantity",
          "type": "uint256"
        }
      ],
      "name": "refund",
      "outputs": [
        {
          "internalType": "bool",
          "name": "",
          "type": "bool"
        }
      ],
      "stateMutability": "nonpayable",
      "type": "function"
    },
    {
      "inputs": [
        {
          "internalType": "address",
          "name": "from",
          "type": "address"
        },
        {
          "internalType": "address",
          "name": "to",
          "type": "address"
        },
        {
          "internalType": "uint256",
          "name": "tokenId",
          "type": "uint256"
        }
      ],
      "name": "safeTransferFrom",
      "outputs": [],
      "stateMutability": "payable",
      "type": "function"
    },
    {
      "inputs": [
        {
          "internalType": "address",
          "name": "from",
          "type": "address"
        },
        {
          "internalType": "address",
          "name": "to",
          "type": "address"
        },
        {
          "internalType": "uint256",
          "name": "tokenId",
          "type": "uint256"
        },
        {
          "internalType": "bytes",
          "name": "_data",
          "type": "bytes"
        }
      ],
      "name": "safeTransferFrom",
      "outputs": [],
      "stateMutability": "payable",
      "type": "function"
    },
    {
      "inputs": [
        {
          "internalType": "address",
          "name": "operator",
          "type": "address"
        },
        {
          "internalType": "bool",
          "name": "approved",
          "type": "bool"
        }
      ],
      "name": "setApprovalForAll",
      "outputs": [],
      "stateMutability": "nonpayable",
      "type": "function"
    },
    {
      "inputs": [
        {
          "internalType": "string",
          "name": "_baseTokenURI",
          "type": "string"
        }
      ],
      "name": "setBaseURI",
      "outputs": [],
      "stateMutability": "nonpayable",
      "type": "function"
    },
    {
      "inputs": [
        {
          "internalType": "bytes4",
          "name": "interfaceId",
          "type": "bytes4"
        }
      ],
      "name": "supportsInterface",
      "outputs": [
        {
          "internalType": "bool",
          "name": "",
          "type": "bool"
        }
      ],
      "stateMutability": "view",
      "type": "function"
    },
    {
      "inputs": [],
      "name": "symbol",
      "outputs": [
        {
          "internalType": "string",
          "name": "",
          "type": "string"
        }
      ],
      "stateMutability": "view",
      "type": "function"
    },
    {
      "inputs": [
        {
          "internalType": "uint256",
          "name": "tokenId",
          "type": "uint256"
        }
      ],
      "name": "tokenURI",
      "outputs": [
        {
          "internalType": "string",
          "name": "",
          "type": "string"
        }
      ],
      "stateMutability": "view",
      "type": "function"
    },
    {
      "inputs": [],
      "name": "totalSupply",
      "outputs": [
        {
          "internalType": "uint256",
          "name": "result",
          "type": "uint256"
        }
      ],
      "stateMutability": "view",
      "type": "function"
    },
    {
      "inputs": [
        {
          "internalType": "address",
          "name": "from",
          "type": "address"
        },
        {
          "internalType": "address",
          "name": "to",
          "type": "address"
        },
        {
          "internalType": "uint256",
          "name": "tokenId",
          "type": "uint256"
        }
      ],
      "name": "transferFrom",
      "outputs": [],
      "stateMutability": "payable",
      "type": "function"
    },
    {
      "inputs": [],
      "name": "withdraw",
      "outputs": [
        {
          "internalType": "bool",
          "name": "",
          "type": "bool"
        }
      ],
      "stateMutability": "nonpayable",
      "type": "function"
    }
  ],
  "bytecode": "0x608060405234801561001057600080fd5b50604051613a72380380613a7283398181016040528101906100329190610310565b6040518060400160405280600a81526020017f4561726c792042697264000000000000000000000000000000000000000000008152506040518060400160405280600381526020017f455242000000000000000000000000000000000000000000000000000000000081525081600290816100ad919061057a565b5080600390816100bd919061057a565b506100cc61016460201b60201c565b6000819055506100e061016460201b60201c565b6100ee61016960201b60201c565b101561010b5761010a63fed8210f60e01b61019160201b60201c565b5b505033600960006101000a81548173ffffffffffffffffffffffffffffffffffffffff021916908373ffffffffffffffffffffffffffffffffffffffff16021790555080600a908161015d919061057a565b505061064c565b600090565b60007fffffffffffffffffffffffffffffffffffffffffffffffffffffffffffffffff905090565b8060005260046000fd5b6000604051905090565b600080fd5b600080fd5b600080fd5b600080fd5b6000601f19601f8301169050919050565b7f4e487b7100000000000000000000000000000000000000000000000000000000600052604160045260246000fd5b610202826101b9565b810181811067ffffffffffffffff82111715610221576102206101ca565b5b80604052505050565b600061023461019b565b905061024082826101f9565b919050565b600067ffffffffffffffff8211156102605761025f6101ca565b5b610269826101b9565b9050602081019050919050565b60005b83811015610294578082015181840152602081019050610279565b60008484015250505050565b60006102b36102ae84610245565b61022a565b9050828152602081018484840111156102cf576102ce6101b4565b5b6102da848285610276565b509392505050565b600082601f8301126102f7576102f66101af565b5b81516103078482602086016102a0565b91505092915050565b600060208284031215610326576103256101a5565b5b600082015167ffffffffffffffff811115610344576103436101aa565b5b610350848285016102e2565b91505092915050565b600081519050919050565b7f4e487b7100000000000000000000000000000000000000000000000000000000600052602260045260246000fd5b600060028204905060018216806103ab57607f821691505b6020821081036103be576103bd610364565b5b50919050565b60008190508160005260206000209050919050565b60006020601f8301049050919050565b600082821b905092915050565b6000600883026104267fffffffffffffffffffffffffffffffffffffffffffffffffffffffffffffffff826103e9565b61043086836103e9565b95508019841693508086168417925050509392505050565b6000819050919050565b6000819050919050565b600061047761047261046d84610448565b610452565b610448565b9050919050565b6000819050919050565b6104918361045c565b6104a561049d8261047e565b8484546103f6565b825550505050565b600090565b6104ba6104ad565b6104c5818484610488565b505050565b5b818110156104e9576104de6000826104b2565b6001810190506104cb565b5050565b601f82111561052e576104ff816103c4565b610508846103d9565b81016020851015610517578190505b61052b610523856103d9565b8301826104ca565b50505b505050565b600082821c905092915050565b600061055160001984600802610533565b1980831691505092915050565b600061056a8383610540565b9150826002028217905092915050565b61058382610359565b67ffffffffffffffff81111561059c5761059b6101ca565b5b6105a68254610393565b6105b18282856104ed565b600060209050601f8311600181146105e457600084156105d2578287015190505b6105dc858261055e565b865550610644565b601f1984166105f2866103c4565b60005b8281101561061a578489015182556001820191506020850194506020810190506105f5565b868310156106375784890151610633601f891682610540565b8355505b6001600288020188555050505b505050505050565b6134178061065b6000396000f3fe60806040526004361061019c5760003560e01c806370a08231116100ec578063b88d4fde1161008a578063e985e9c511610064578063e985e9c5146105c1578063efdfb8ea146105fe578063f0292a031461063b578063f5c1be3c146106665761019c565b8063b88d4fde1461053d578063c87b56dd14610559578063d547cfb7146105965761019c565b806395d89b41116100c657806395d89b411461048e578063a0712d68146104b9578063a22cb465146104e9578063b19960e6146105125761019c565b806370a08231146103fb5780637f6578d3146104385780638da5cb5b146104635761019c565b80632538354d116101595780633ccfd60b116101335780633ccfd60b1461034e57806342842e0e1461037957806355f804b3146103955780636352211e146103be5761019c565b80632538354d146102a9578063278ecde1146102e657806332cb6b0c146103235761019c565b806301ffc9a7146101a157806306fdde03146101de578063081812fc14610209578063095ea7b31461024657806318160ddd1461026257806323b872dd1461028d575b600080fd5b3480156101ad57600080fd5b506101c860048036038101906101c39190612388565b610691565b6040516101d591906123d0565b60405180910390f35b3480156101ea57600080fd5b506101f3610723565b604051610200919061247b565b60405180910390f35b34801561021557600080fd5b50610230600480360381019061022b91906124d3565b6107b5565b60405161023d9190612541565b60405180910390f35b610260600480360381019061025b9190612588565b610813565b005b34801561026e57600080fd5b50610277610823565b60405161028491906125d7565b60405180910390f35b6102a760048036038101906102a291906125f2565b610870565b005b3480156102b557600080fd5b506102d060048036038101906102cb9190612645565b610b08565b6040516102dd91906125d7565b60405180910390f35b3480156102f257600080fd5b5061030d600480360381019061030891906124d3565b610b20565b60405161031a91906123d0565b60405180910390f35b34801561032f57600080fd5b50610338610d15565b60405161034591906125d7565b60405180910390f35b34801561035a57600080fd5b50610363610d1b565b60405161037091906123d0565b60405180910390f35b610393600480360381019061038e91906125f2565b610f87565b005b3480156103a157600080fd5b506103bc60048036038101906103b791906127a7565b610fa7565b005b3480156103ca57600080fd5b506103e560048036038101906103e091906124d3565b61104a565b6040516103f29190612541565b60405180910390f35b34801561040757600080fd5b50610422600480360381019061041d9190612645565b61105c565b60405161042f91906125d7565b60405180910390f35b34801561044457600080fd5b5061044d6110f3565b60405161045a91906125d7565b60405180910390f35b34801561046f57600080fd5b506104786110f8565b6040516104859190612541565b60405180910390f35b34801561049a57600080fd5b506104a361111e565b6040516104b0919061247b565b60405180910390f35b6104d360048036038101906104ce91906124d3565b6111b0565b6040516104e091906123d0565b60405180910390f35b3480156104f557600080fd5b50610510600480360381019061050b919061281c565b6113e9565b005b34801561051e57600080fd5b506105276114f4565b60405161053491906125d7565b60405180910390f35b610557600480360381019061055291906128fd565b6114f9565b005b34801561056557600080fd5b50610580600480360381019061057b91906124d3565b61154b565b60405161058d919061247b565b60405180910390f35b3480156105a257600080fd5b506105ab6115c8565b6040516105b8919061247b565b60405180910390f35b3480156105cd57600080fd5b506105e860048036038101906105e39190612980565b611656565b6040516105f591906123d0565b60405180910390f35b34801561060a57600080fd5b5061062560048036038101906106209190612645565b6116ea565b60405161063291906125d7565b60405180910390f35b34801561064757600080fd5b50610650611702565b60405161065d91906125d7565b60405180910390f35b34801561067257600080fd5b5061067b611707565b60405161068891906125d7565b60405180910390f35b60006301ffc9a760e01b827bffffffffffffffffffffffffffffffffffffffffffffffffffffffff191614806106ec57506380ac58cd60e01b827bffffffffffffffffffffffffffffffffffffffffffffffffffffffff1916145b8061071c5750635b5e139f60e01b827bffffffffffffffffffffffffffffffffffffffffffffffffffffffff1916145b9050919050565b606060028054610732906129ef565b80601f016020809104026020016040519081016040528092919081815260200182805461075e906129ef565b80156107ab5780601f10610780576101008083540402835291602001916107ab565b820191906000526020600020905b81548152906001019060200180831161078e57829003601f168201915b5050505050905090565b60006107c082611711565b6107d5576107d463cf4700e460e01b6117bd565b5b6006600083815260200190815260200160002060000160009054906101000a900473ffffffffffffffffffffffffffffffffffffffff169050919050565b61081f828260016117c7565b5050565b600061082d6118f6565b600154600054030390507fffffffffffffffffffffffffffffffffffffffffffffffffffffffffffffffff6108606118fb565b1461086d57600854810190505b90565b600061087b82611923565b905060008473ffffffffffffffffffffffffffffffffffffffff169050808273ffffffffffffffffffffffffffffffffffffffff16146108c6576108c563a114810060e01b6117bd565b5b6000806108d285611a3c565b915091506108fe81846108e3611a63565b73ffffffffffffffffffffffffffffffffffffffff16611a6b565b610929576109138761090e611a63565b611656565b610928576109276359c896be60e01b6117bd565b5b5b6109368787876001611a7d565b801561094157600082555b600560008873ffffffffffffffffffffffffffffffffffffffff1673ffffffffffffffffffffffffffffffffffffffff168152602001908152602001600020600081546001900391905081905550600560008773ffffffffffffffffffffffffffffffffffffffff1673ffffffffffffffffffffffffffffffffffffffff1681526020019081526020016000206000815460010191905081905550610a0f866109eb898988611a83565b7c020000000000000000000000000000000000000000000000000000000017611aab565b600460008781526020019081526020016000208190555060007c0200000000000000000000000000000000000000000000000000000000851603610a955760006001860190506000600460008381526020019081526020016000205403610a93576000548114610a92578460046000838152602001908152602001600020819055505b5b505b60008673ffffffffffffffffffffffffffffffffffffffff1690508581857fddf252ad1be2c89b69c2b068fc378daa952ba7f163c4a11628f55a4df523b3ef600080a460008103610af157610af063ea553b3460e01b6117bd565b5b610afe8888886001611ad6565b5050505050505050565b600c6020528060005260406000206000915090505481565b6000610b2b3361105c565b821115610b6d576040517f08c379a0000000000000000000000000000000000000000000000000000000008152600401610b6490612a6c565b60405180910390fd5b60b4600c60003373ffffffffffffffffffffffffffffffffffffffff1673ffffffffffffffffffffffffffffffffffffffff16815260200190815260200160002054610bb99190612abb565b4210610bfa576040517f08c379a0000000000000000000000000000000000000000000000000000000008152600401610bf190612b3b565b60405180910390fd5b610c043383611adc565b6000655af3107a400083610c189190612b5b565b905060003373ffffffffffffffffffffffffffffffffffffffff1682604051610c4090612bce565b60006040518083038185875af1925050503d8060008114610c7d576040519150601f19603f3d011682016040523d82523d6000602084013e610c82565b606091505b5050905080610cc6576040517f08c379a0000000000000000000000000000000000000000000000000000000008152600401610cbd90612c2f565b60405180910390fd5b813373ffffffffffffffffffffffffffffffffffffffff167f09defe0bdb8a1b4ee8fe9095fba7b88c1c154139a41abb1018b24b2dd2c574c360405160405180910390a3600192505050919050565b6103e881565b6000600960009054906101000a900473ffffffffffffffffffffffffffffffffffffffff1673ffffffffffffffffffffffffffffffffffffffff163373ffffffffffffffffffffffffffffffffffffffff1614610dad576040517f08c379a0000000000000000000000000000000000000000000000000000000008152600401610da490612c9b565b60405180910390fd5b600047905060008111610df5576040517f08c379a0000000000000000000000000000000000000000000000000000000008152600401610dec90612d07565b60405180910390fd5b60b4610dff611b70565b610e099190612abb565b4211610e4a576040517f08c379a0000000000000000000000000000000000000000000000000000000008152600401610e4190612d73565b60405180910390fd5b6000600960009054906101000a900473ffffffffffffffffffffffffffffffffffffffff1673ffffffffffffffffffffffffffffffffffffffff1682604051610e9290612bce565b60006040518083038185875af1925050503d8060008114610ecf576040519150601f19603f3d011682016040523d82523d6000602084013e610ed4565b606091505b5050905080610f18576040517f08c379a0000000000000000000000000000000000000000000000000000000008152600401610f0f90612ddf565b60405180910390fd5b81600960009054906101000a900473ffffffffffffffffffffffffffffffffffffffff1673ffffffffffffffffffffffffffffffffffffffff167f95e1b0070dbccc052f124fa5143644dca4cc74c53bf1d0fe68ff7295f61cdc0c60405160405180910390a360019250505090565b610fa2838383604051806020016040528060008152506114f9565b505050565b600960009054906101000a900473ffffffffffffffffffffffffffffffffffffffff1673ffffffffffffffffffffffffffffffffffffffff163373ffffffffffffffffffffffffffffffffffffffff1614611037576040517f08c379a000000000000000000000000000000000000000000000000000000000815260040161102e90612c9b565b60405180910390fd5b80600a90816110469190612fab565b5050565b600061105582611923565b9050919050565b60008073ffffffffffffffffffffffffffffffffffffffff168273ffffffffffffffffffffffffffffffffffffffff16036110a2576110a1638f4eb60460e01b6117bd565b5b67ffffffffffffffff600560008473ffffffffffffffffffffffffffffffffffffffff1673ffffffffffffffffffffffffffffffffffffffff16815260200190815260200160002054169050919050565b60b481565b600960009054906101000a900473ffffffffffffffffffffffffffffffffffffffff1681565b60606003805461112d906129ef565b80601f0160208091040260200160405190810160405280929190818152602001828054611159906129ef565b80156111a65780601f1061117b576101008083540402835291602001916111a6565b820191906000526020600020905b81548152906001019060200180831161118957829003601f168201915b5050505050905090565b60006103e86111bd610823565b836111c89190612abb565b1115611209576040517f08c379a0000000000000000000000000000000000000000000000000000000008152600401611200906130c9565b60405180910390fd5b600582111561124d576040517f08c379a000000000000000000000000000000000000000000000000000000000815260040161124490613135565b60405180910390fd5b655af3107a40008261125f9190612b5b565b3410156112a1576040517f08c379a0000000000000000000000000000000000000000000000000000000008152600401611298906131a1565b60405180910390fd5b600c826112ad3361105c565b6112b79190612abb565b11156112f8576040517f08c379a00000000000000000000000000000000000000000000000000000000081526004016112ef9061320d565b60405180910390fd5b6113023383611c36565b81600b60003373ffffffffffffffffffffffffffffffffffffffff1673ffffffffffffffffffffffffffffffffffffffff16815260200190815260200160002060008282546113519190612abb565b9250508190555042600c60003373ffffffffffffffffffffffffffffffffffffffff1673ffffffffffffffffffffffffffffffffffffffff16815260200190815260200160002081905550813373ffffffffffffffffffffffffffffffffffffffff167fcda531bfd68624f13205c0a23cd4d5a7f09792cbb399603114f2b04aaa1bf5cf60405160405180910390a360019050919050565b80600760006113f6611a63565b73ffffffffffffffffffffffffffffffffffffffff1673ffffffffffffffffffffffffffffffffffffffff16815260200190815260200160002060008473ffffffffffffffffffffffffffffffffffffffff1673ffffffffffffffffffffffffffffffffffffffff16815260200190815260200160002060006101000a81548160ff0219169083151502179055508173ffffffffffffffffffffffffffffffffffffffff166114a3611a63565b73ffffffffffffffffffffffffffffffffffffffff167f17307eab39ab6107e8899845ad3d59bd9653f200f220920489ca2b5937696c31836040516114e891906123d0565b60405180910390a35050565b600c81565b611504848484610870565b60008373ffffffffffffffffffffffffffffffffffffffff163b146115455761152f84848484611c54565b6115445761154363d1a57ed660e01b6117bd565b5b5b50505050565b606061155682611711565b61156b5761156a63a14c4b5060e01b6117bd565b5b6000611575611d83565b9050600081510361159557604051806020016040528060008152506115c0565b8061159f84611e15565b6040516020016115b0929190613269565b6040516020818303038152906040525b915050919050565b600a80546115d5906129ef565b80601f0160208091040260200160405190810160405280929190818152602001828054611601906129ef565b801561164e5780601f106116235761010080835404028352916020019161164e565b820191906000526020600020905b81548152906001019060200180831161163157829003601f168201915b505050505081565b6000600760008473ffffffffffffffffffffffffffffffffffffffff1673ffffffffffffffffffffffffffffffffffffffff16815260200190815260200160002060008373ffffffffffffffffffffffffffffffffffffffff1673ffffffffffffffffffffffffffffffffffffffff16815260200190815260200160002060009054906101000a900460ff16905092915050565b600b6020528060005260406000206000915090505481565b600581565b655af3107a400081565b60008161171c6118f6565b116117b7576117296118fb565b8211156117535761174c6004600084815260200190815260200160002054611e65565b90506117b8565b6000548210156117b65760005b600060046000858152602001908152602001600020549150810361178f57826117889061328d565b9250611760565b60007c01000000000000000000000000000000000000000000000000000000008216149150505b5b5b919050565b8060005260046000fd5b60006117d28361104a565b905081801561181457508073ffffffffffffffffffffffffffffffffffffffff166117fb611a63565b73ffffffffffffffffffffffffffffffffffffffff1614155b156118405761182a81611825611a63565b611656565b61183f5761183e63cfb3b94260e01b6117bd565b5b5b836006600085815260200190815260200160002060000160006101000a81548173ffffffffffffffffffffffffffffffffffffffff021916908373ffffffffffffffffffffffffffffffffffffffff160217905550828473ffffffffffffffffffffffffffffffffffffffff168273ffffffffffffffffffffffffffffffffffffffff167f8c5be1e5ebec7d5bd14f71427d1e84f3dd0314c0f7b2291e5b200ac8c7c3b92560405160405180910390a450505050565b600090565b60007fffffffffffffffffffffffffffffffffffffffffffffffffffffffffffffffff905090565b60008161192e6118f6565b11611a2657600460008381526020019081526020016000205490506119516118fb565b8211156119765761196181611e65565b611a375761197563df2d9b4260e01b6117bd565b5b600081036119fd5760005482106119985761199763df2d9b4260e01b6117bd565b5b5b600460008360019003935083815260200190815260200160002054905060008103156119f85760007c010000000000000000000000000000000000000000000000000000000082160315611a37576119f763df2d9b4260e01b6117bd565b5b611999565b60007c010000000000000000000000000000000000000000000000000000000082160315611a37575b611a3663df2d9b4260e01b6117bd565b5b919050565b60008060006006600085815260200190815260200160002090508092508254915050915091565b600033905090565b60008382148383141790509392505050565b50505050565b60008060e883901c905060e8611a9a868684611ea6565b62ffffff16901b9150509392505050565b600073ffffffffffffffffffffffffffffffffffffffff83169250814260a01b178317905092915050565b50505050565b600080611ae76118f6565b90505b8282108015611aff5750611afc610823565b81105b15611b6a578373ffffffffffffffffffffffffffffffffffffffff16611b248261104a565b73ffffffffffffffffffffffffffffffffffffffff1603611b5757611b4881611eaf565b8180611b53906132b6565b9250505b8080611b62906132b6565b915050611aea565b50505050565b6000806000905060005b611b82610823565b811015611c2e576000611b948261104a565b905082600c60008373ffffffffffffffffffffffffffffffffffffffff1673ffffffffffffffffffffffffffffffffffffffff168152602001908152602001600020541115611c2057600c60008273ffffffffffffffffffffffffffffffffffffffff1673ffffffffffffffffffffffffffffffffffffffff1681526020019081526020016000205492505b508080600101915050611b7a565b508091505090565b611c50828260405180602001604052806000815250611ebd565b5050565b60008373ffffffffffffffffffffffffffffffffffffffff1663150b7a02611c7a611a63565b8786866040518563ffffffff1660e01b8152600401611c9c9493929190613353565b6020604051808303816000875af1925050508015611cd857506040513d601f19601f82011682018060405250810190611cd591906133b4565b60015b611d30573d8060008114611d08576040519150601f19603f3d011682016040523d82523d6000602084013e611d0d565b606091505b506000815103611d2857611d2763d1a57ed660e01b6117bd565b5b805181602001fd5b63150b7a0260e01b7bffffffffffffffffffffffffffffffffffffffffffffffffffffffff1916817bffffffffffffffffffffffffffffffffffffffffffffffffffffffff191614915050949350505050565b6060600a8054611d92906129ef565b80601f0160208091040260200160405190810160405280929190818152602001828054611dbe906129ef565b8015611e0b5780601f10611de057610100808354040283529160200191611e0b565b820191906000526020600020905b815481529060010190602001808311611dee57829003601f168201915b5050505050905090565b606060a060405101806040526020810391506000825281835b600115611e5057600184039350600a81066030018453600a8104905080611e2e575b50828103602084039350808452505050919050565b60007c0100000000000000000000000000000000000000000000000000000000821673ffffffffffffffffffffffffffffffffffffffff8316119050919050565b60009392505050565b611eba816000611f39565b50565b611ec7838361219c565b60008373ffffffffffffffffffffffffffffffffffffffff163b14611f3457600080549050600083820390505b611f076000868380600101945086611c54565b611f1c57611f1b63d1a57ed660e01b6117bd565b5b818110611ef4578160005414611f3157600080fd5b50505b505050565b6000611f4483611923565b905060008173ffffffffffffffffffffffffffffffffffffffff1690506000819050600080611f7287611a3c565b915091508515611fd057611fa48185611f89611a63565b73ffffffffffffffffffffffffffffffffffffffff16611a6b565b611fcf57611fb983611fb4611a63565b611656565b611fce57611fcd6359c896be60e01b6117bd565b5b5b5b611fde836000896001611a7d565b8015611fe957600082555b600160806001901b03600560008573ffffffffffffffffffffffffffffffffffffffff1673ffffffffffffffffffffffffffffffffffffffff168152602001908152602001600020600082825401925050819055506120918361204e85600089611a83565b7c02000000000000000000000000000000000000000000000000000000007c01000000000000000000000000000000000000000000000000000000001717611aab565b600460008981526020019081526020016000208190555060007c02000000000000000000000000000000000000000000000000000000008616036121175760006001880190506000600460008381526020019081526020016000205403612115576000548114612114578560046000838152602001908152602001600020819055505b5b505b86600073ffffffffffffffffffffffffffffffffffffffff168473ffffffffffffffffffffffffffffffffffffffff167fddf252ad1be2c89b69c2b068fc378daa952ba7f163c4a11628f55a4df523b3ef60405160405180910390a4612181836000896001611ad6565b60016000815480929190600101919050555050505050505050565b600080549050600082036121bb576121ba63b562e8dd60e01b6117bd565b5b6121c86000848385611a7d565b6121e8836121d96000866000611a83565b6121e28561230c565b17611aab565b6004600083815260200190815260200160002081905550600160406001901b178202600560008573ffffffffffffffffffffffffffffffffffffffff1673ffffffffffffffffffffffffffffffffffffffff1681526020019081526020016000206000828254019250508190555060008373ffffffffffffffffffffffffffffffffffffffff1690506000810361228a57612289632e07630060e01b6117bd565b5b60008383019050600083905061229e6118fb565b6001830311156122b9576122b86381647e3a60e01b6117bd565b5b5b808360007fddf252ad1be2c89b69c2b068fc378daa952ba7f163c4a11628f55a4df523b3ef600080a48181600101915081036122ba57816000819055505050506123076000848385611ad6565b505050565b60006001821460e11b9050919050565b6000604051905090565b600080fd5b600080fd5b60007fffffffff0000000000000000000000000000000000000000000000000000000082169050919050565b61236581612330565b811461237057600080fd5b50565b6000813590506123828161235c565b92915050565b60006020828403121561239e5761239d612326565b5b60006123ac84828501612373565b91505092915050565b60008115159050919050565b6123ca816123b5565b82525050565b60006020820190506123e560008301846123c1565b92915050565b600081519050919050565b600082825260208201905092915050565b60005b8381101561242557808201518184015260208101905061240a565b60008484015250505050565b6000601f19601f8301169050919050565b600061244d826123eb565b61245781856123f6565b9350612467818560208601612407565b61247081612431565b840191505092915050565b600060208201905081810360008301526124958184612442565b905092915050565b6000819050919050565b6124b08161249d565b81146124bb57600080fd5b50565b6000813590506124cd816124a7565b92915050565b6000602082840312156124e9576124e8612326565b5b60006124f7848285016124be565b91505092915050565b600073ffffffffffffffffffffffffffffffffffffffff82169050919050565b600061252b82612500565b9050919050565b61253b81612520565b82525050565b60006020820190506125566000830184612532565b92915050565b61256581612520565b811461257057600080fd5b50565b6000813590506125828161255c565b92915050565b6000806040838503121561259f5761259e612326565b5b60006125ad85828601612573565b92505060206125be858286016124be565b9150509250929050565b6125d18161249d565b82525050565b60006020820190506125ec60008301846125c8565b92915050565b60008060006060848603121561260b5761260a612326565b5b600061261986828701612573565b935050602061262a86828701612573565b925050604061263b868287016124be565b9150509250925092565b60006020828403121561265b5761265a612326565b5b600061266984828501612573565b91505092915050565b600080fd5b600080fd5b7f4e487b7100000000000000000000000000000000000000000000000000000000600052604160045260246000fd5b6126b482612431565b810181811067ffffffffffffffff821117156126d3576126d261267c565b5b80604052505050565b60006126e661231c565b90506126f282826126ab565b919050565b600067ffffffffffffffff8211156127125761271161267c565b5b61271b82612431565b9050602081019050919050565b82818337600083830152505050565b600061274a612745846126f7565b6126dc565b90508281526020810184848401111561276657612765612677565b5b612771848285612728565b509392505050565b600082601f83011261278e5761278d612672565b5b813561279e848260208601612737565b91505092915050565b6000602082840312156127bd576127bc612326565b5b600082013567ffffffffffffffff8111156127db576127da61232b565b5b6127e784828501612779565b91505092915050565b6127f9816123b5565b811461280457600080fd5b50565b600081359050612816816127f0565b92915050565b6000806040838503121561283357612832612326565b5b600061284185828601612573565b925050602061285285828601612807565b9150509250929050565b600067ffffffffffffffff8211156128775761287661267c565b5b61288082612431565b9050602081019050919050565b60006128a061289b8461285c565b6126dc565b9050828152602081018484840111156128bc576128bb612677565b5b6128c7848285612728565b509392505050565b600082601f8301126128e4576128e3612672565b5b81356128f484826020860161288d565b91505092915050565b6000806000806080858703121561291757612916612326565b5b600061292587828801612573565b945050602061293687828801612573565b9350506040612947878288016124be565b925050606085013567ffffffffffffffff8111156129685761296761232b565b5b612974878288016128cf565b91505092959194509250565b6000806040838503121561299757612996612326565b5b60006129a585828601612573565b92505060206129b685828601612573565b9150509250929050565b7f4e487b7100000000000000000000000000000000000000000000000000000000600052602260045260246000fd5b60006002820490506001821680612a0757607f821691505b602082108103612a1a57612a196129c0565b5b50919050565b7f496e76616c6964207175616e7469747900000000000000000000000000000000600082015250565b6000612a566010836123f6565b9150612a6182612a20565b602082019050919050565b60006020820190508181036000830152612a8581612a49565b9050919050565b7f4e487b7100000000000000000000000000000000000000000000000000000000600052601160045260246000fd5b6000612ac68261249d565b9150612ad18361249d565b9250828201905080821115612ae957612ae8612a8c565b5b92915050565b7f526566756e6420706572696f6420686173206578706972656400000000000000600082015250565b6000612b256019836123f6565b9150612b3082612aef565b602082019050919050565b60006020820190508181036000830152612b5481612b18565b9050919050565b6000612b668261249d565b9150612b718361249d565b9250828202612b7f8161249d565b91508282048414831517612b9657612b95612a8c565b5b5092915050565b600081905092915050565b50565b6000612bb8600083612b9d565b9150612bc382612ba8565b600082019050919050565b6000612bd982612bab565b9150819050919050565b7f526566756e64206661696c656400000000000000000000000000000000000000600082015250565b6000612c19600d836123f6565b9150612c2482612be3565b602082019050919050565b60006020820190508181036000830152612c4881612c0c565b9050919050565b7f596f7520617265206e6f7420746865206f776e65722100000000000000000000600082015250565b6000612c856016836123f6565b9150612c9082612c4f565b602082019050919050565b60006020820190508181036000830152612cb481612c78565b9050919050565b7f4e6f2062616c616e636520746f20776974686472617700000000000000000000600082015250565b6000612cf16016836123f6565b9150612cfc82612cbb565b602082019050919050565b60006020820190508181036000830152612d2081612ce4565b9050919050565b7f526566756e6420706572696f64206e6f74206f76657200000000000000000000600082015250565b6000612d5d6016836123f6565b9150612d6882612d27565b602082019050919050565b60006020820190508181036000830152612d8c81612d50565b9050919050565b7f5769746864726177616c206661696c6564000000000000000000000000000000600082015250565b6000612dc96011836123f6565b9150612dd482612d93565b602082019050919050565b60006020820190508181036000830152612df881612dbc565b9050919050565b60008190508160005260206000209050919050565b60006020601f8301049050919050565b600082821b905092915050565b600060088302612e617fffffffffffffffffffffffffffffffffffffffffffffffffffffffffffffffff82612e24565b612e6b8683612e24565b95508019841693508086168417925050509392505050565b6000819050919050565b6000612ea8612ea3612e9e8461249d565b612e83565b61249d565b9050919050565b6000819050919050565b612ec283612e8d565b612ed6612ece82612eaf565b848454612e31565b825550505050565b600090565b612eeb612ede565b612ef6818484612eb9565b505050565b5b81811015612f1a57612f0f600082612ee3565b600181019050612efc565b5050565b601f821115612f5f57612f3081612dff565b612f3984612e14565b81016020851015612f48578190505b612f5c612f5485612e14565b830182612efb565b50505b505050565b600082821c905092915050565b6000612f8260001984600802612f64565b1980831691505092915050565b6000612f9b8383612f71565b9150826002028217905092915050565b612fb4826123eb565b67ffffffffffffffff811115612fcd57612fcc61267c565b5b612fd782546129ef565b612fe2828285612f1e565b600060209050601f8311600181146130155760008415613003578287015190505b61300d8582612f8f565b865550613075565b601f19841661302386612dff565b60005b8281101561304b57848901518255600182019150602085019450602081019050613026565b868310156130685784890151613064601f891682612f71565b8355505b6001600288020188555050505b505050505050565b7f45786365656473206d617820737570706c790000000000000000000000000000600082015250565b60006130b36012836123f6565b91506130be8261307d565b602082019050919050565b600060208201905081810360008301526130e2816130a6565b9050919050565b7f45786365656473206d6178206d696e7420706572207472616e73616374696f6e600082015250565b600061311f6020836123f6565b915061312a826130e9565b602082019050919050565b6000602082019050818103600083015261314e81613112565b9050919050565b7f496e73756666696369656e742066756e64730000000000000000000000000000600082015250565b600061318b6012836123f6565b915061319682613155565b602082019050919050565b600060208201905081810360008301526131ba8161317e565b9050919050565b7f45786365656473206d6178206d696e74207065722077616c6c65740000000000600082015250565b60006131f7601b836123f6565b9150613202826131c1565b602082019050919050565b60006020820190508181036000830152613226816131ea565b9050919050565b600081905092915050565b6000613243826123eb565b61324d818561322d565b935061325d818560208601612407565b80840191505092915050565b60006132758285613238565b91506132818284613238565b91508190509392505050565b60006132988261249d565b9150600082036132ab576132aa612a8c565b5b600182039050919050565b60006132c18261249d565b91507fffffffffffffffffffffffffffffffffffffffffffffffffffffffffffffffff82036132f3576132f2612a8c565b5b600182019050919050565b600081519050919050565b600082825260208201905092915050565b6000613325826132fe565b61332f8185613309565b935061333f818560208601612407565b61334881612431565b840191505092915050565b60006080820190506133686000830187612532565b6133756020830186612532565b61338260408301856125c8565b8181036060830152613394818461331a565b905095945050505050565b6000815190506133ae8161235c565b92915050565b6000602082840312156133ca576133c9612326565b5b60006133d88482850161339f565b9150509291505056fea2646970667358221220e9629184363fa223496d458735bc28c8ba42383c6fa67b2629b024d934c764c264736f6c634300081b0033",
  "linkReferences": {},
  "deployedLinkReferences": {}
}