{
  "_format": "hh-sol-artifact-1",
  "contractName": "EarlyBirdNFT",
  "sourceName": "contracts/ERC721A.sol",
  "abi": [
    {
      "inputs": [
        {
          "internalType": "string",
          "name": "_tokenURI",
          "type": "string"
        }
      ],
      "stateMutability": "nonpayable",
      "type": "constructor"
    },
    {
      "inputs": [],
      "name": "ApprovalCallerNotOwnerNorApproved",
      "type": "error"
    },
    {
      "inputs": [],
      "name": "ApprovalQueryForNonexistentToken",
      "type": "error"
    },
    {
      "inputs": [],
      "name": "BalanceQueryForZeroAddress",
      "type": "error"
    },
    {
      "inputs": [],
      "name": "MintERC2309QuantityExceedsLimit",
      "type": "error"
    },
    {
      "inputs": [],
      "name": "MintToZeroAddress",
      "type": "error"
    },
    {
      "inputs": [],
      "name": "MintZeroQuantity",
      "type": "error"
    },
    {
      "inputs": [],
      "name": "NotCompatibleWithSpotMints",
      "type": "error"
    },
    {
      "inputs": [],
      "name": "OwnerQueryForNonexistentToken",
      "type": "error"
    },
    {
      "inputs": [],
      "name": "OwnershipNotInitializedForExtraData",
      "type": "error"
    },
    {
      "inputs": [],
      "name": "SequentialMintExceedsLimit",
      "type": "error"
    },
    {
      "inputs": [],
      "name": "SequentialUpToTooSmall",
      "type": "error"
    },
    {
      "inputs": [],
      "name": "SpotMintTokenIdTooSmall",
      "type": "error"
    },
    {
      "inputs": [],
      "name": "TokenAlreadyExists",
      "type": "error"
    },
    {
      "inputs": [],
      "name": "TokenIdsNotStrictlyAscending",
      "type": "error"
    },
    {
      "inputs": [],
      "name": "TransferCallerNotOwnerNorApproved",
      "type": "error"
    },
    {
      "inputs": [],
      "name": "TransferFromIncorrectOwner",
      "type": "error"
    },
    {
      "inputs": [],
      "name": "TransferToNonERC721ReceiverImplementer",
      "type": "error"
    },
    {
      "inputs": [],
      "name": "TransferToZeroAddress",
      "type": "error"
    },
    {
      "inputs": [],
      "name": "URIQueryForNonexistentToken",
      "type": "error"
    },
    {
      "anonymous": false,
      "inputs": [
        {
          "indexed": true,
          "internalType": "address",
          "name": "owner",
          "type": "address"
        },
        {
          "indexed": true,
          "internalType": "address",
          "name": "approved",
          "type": "address"
        },
        {
          "indexed": true,
          "internalType": "uint256",
          "name": "tokenId",
          "type": "uint256"
        }
      ],
      "name": "Approval",
      "type": "event"
    },
    {
      "anonymous": false,
      "inputs": [
        {
          "indexed": true,
          "internalType": "address",
          "name": "owner",
          "type": "address"
        },
        {
          "indexed": true,
          "internalType": "address",
          "name": "operator",
          "type": "address"
        },
        {
          "indexed": false,
          "internalType": "bool",
          "name": "approved",
          "type": "bool"
        }
      ],
      "name": "ApprovalForAll",
      "type": "event"
    },
    {
      "anonymous": false,
      "inputs": [
        {
          "indexed": true,
          "internalType": "uint256",
          "name": "fromTokenId",
          "type": "uint256"
        },
        {
          "indexed": false,
          "internalType": "uint256",
          "name": "toTokenId",
          "type": "uint256"
        },
        {
          "indexed": true,
          "internalType": "address",
          "name": "from",
          "type": "address"
        },
        {
          "indexed": true,
          "internalType": "address",
          "name": "to",
          "type": "address"
        }
      ],
      "name": "ConsecutiveTransfer",
      "type": "event"
    },
    {
      "anonymous": false,
      "inputs": [
        {
          "indexed": true,
          "internalType": "address",
          "name": "_to",
          "type": "address"
        },
        {
          "indexed": true,
          "internalType": "uint256",
          "name": "_value",
          "type": "uint256"
        }
      ],
      "name": "MintSuccess",
      "type": "event"
    },
    {
      "anonymous": false,
      "inputs": [
        {
          "indexed": true,
          "internalType": "address",
          "name": "_to",
          "type": "address"
        },
        {
          "indexed": true,
          "internalType": "uint256",
          "name": "_valut",
          "type": "uint256"
        }
      ],
      "name": "RefundSuccess",
      "type": "event"
    },
    {
      "anonymous": false,
      "inputs": [
        {
          "indexed": true,
          "internalType": "address",
          "name": "from",
          "type": "address"
        },
        {
          "indexed": true,
          "internalType": "address",
          "name": "to",
          "type": "address"
        },
        {
          "indexed": true,
          "internalType": "uint256",
          "name": "tokenId",
          "type": "uint256"
        }
      ],
      "name": "Transfer",
      "type": "event"
    },
    {
      "anonymous": false,
      "inputs": [
        {
          "indexed": true,
          "internalType": "address",
          "name": "_to",
          "type": "address"
        },
        {
          "indexed": true,
          "internalType": "uint256",
          "name": "_amount",
          "type": "uint256"
        }
      ],
      "name": "WithdrawSuccess",
      "type": "event"
    },
    {
      "inputs": [],
      "name": "MAX_MINT",
      "outputs": [
        {
          "internalType": "uint256",
          "name": "",
          "type": "uint256"
        }
      ],
      "stateMutability": "view",
      "type": "function"
    },
    {
      "inputs": [],
      "name": "MAX_MINT_PER_WALLET",
      "outputs": [
        {
          "internalType": "uint256",
          "name": "",
          "type": "uint256"
        }
      ],
      "stateMutability": "view",
      "type": "function"
    },
    {
      "inputs": [],
      "name": "MAX_SUPPLY",
      "outputs": [
        {
          "internalType": "uint256",
          "name": "",
          "type": "uint256"
        }
      ],
      "stateMutability": "view",
      "type": "function"
    },
    {
      "inputs": [],
      "name": "MINT_RATE",
      "outputs": [
        {
          "internalType": "uint256",
          "name": "",
          "type": "uint256"
        }
      ],
      "stateMutability": "view",
      "type": "function"
    },
    {
      "inputs": [],
      "name": "REFUND_PERIOD",
      "outputs": [
        {
          "internalType": "uint256",
          "name": "",
          "type": "uint256"
        }
      ],
      "stateMutability": "view",
      "type": "function"
    },
    {
      "inputs": [
        {
          "internalType": "address",
          "name": "to",
          "type": "address"
        },
        {
          "internalType": "uint256",
          "name": "tokenId",
          "type": "uint256"
        }
      ],
      "name": "approve",
      "outputs": [],
      "stateMutability": "payable",
      "type": "function"
    },
    {
      "inputs": [
        {
          "internalType": "address",
          "name": "owner",
          "type": "address"
        }
      ],
      "name": "balanceOf",
      "outputs": [
        {
          "internalType": "uint256",
          "name": "",
          "type": "uint256"
        }
      ],
      "stateMutability": "view",
      "type": "function"
    },
    {
      "inputs": [],
      "name": "baseTokenURI",
      "outputs": [
        {
          "internalType": "string",
          "name": "",
          "type": "string"
        }
      ],
      "stateMutability": "view",
      "type": "function"
    },
    {
      "inputs": [
        {
          "internalType": "uint256",
          "name": "tokenId",
          "type": "uint256"
        }
      ],
      "name": "getApproved",
      "outputs": [
        {
          "internalType": "address",
          "name": "",
          "type": "address"
        }
      ],
      "stateMutability": "view",
      "type": "function"
    },
    {
      "inputs": [
        {
          "internalType": "address",
          "name": "owner",
          "type": "address"
        },
        {
          "internalType": "address",
          "name": "operator",
          "type": "address"
        }
      ],
      "name": "isApprovedForAll",
      "outputs": [
        {
          "internalType": "bool",
          "name": "",
          "type": "bool"
        }
      ],
      "stateMutability": "view",
      "type": "function"
    },
    {
      "inputs": [
        {
          "internalType": "uint256",
          "name": "_quantity",
          "type": "uint256"
        }
      ],
      "name": "mint",
      "outputs": [
        {
          "internalType": "bool",
          "name": "",
          "type": "bool"
        }
      ],
      "stateMutability": "payable",
      "type": "function"
    },
    {
      "inputs": [
        {
          "internalType": "address",
          "name": "",
          "type": "address"
        }
      ],
      "name": "mintedAddresses",
      "outputs": [
        {
          "internalType": "uint256",
          "name": "",
          "type": "uint256"
        }
      ],
      "stateMutability": "view",
      "type": "function"
    },
    {
      "inputs": [
        {
          "internalType": "address",
          "name": "",
          "type": "address"
        }
      ],
      "name": "mintingTimestamp",
      "outputs": [
        {
          "internalType": "uint256",
          "name": "",
          "type": "uint256"
        }
      ],
      "stateMutability": "view",
      "type": "function"
    },
    {
      "inputs": [],
      "name": "name",
      "outputs": [
        {
          "internalType": "string",
          "name": "",
          "type": "string"
        }
      ],
      "stateMutability": "view",
      "type": "function"
    },
    {
      "inputs": [],
      "name": "owner",
      "outputs": [
        {
          "internalType": "address",
          "name": "",
          "type": "address"
        }
      ],
      "stateMutability": "view",
      "type": "function"
    },
    {
      "inputs": [
        {
          "internalType": "uint256",
          "name": "tokenId",
          "type": "uint256"
        }
      ],
      "name": "ownerOf",
      "outputs": [
        {
          "internalType": "address",
          "name": "",
          "type": "address"
        }
      ],
      "stateMutability": "view",
      "type": "function"
    },
    {
      "inputs": [
        {
          "internalType": "uint256",
          "name": "quantity",
          "type": "uint256"
        }
      ],
      "name": "refund",
      "outputs": [
        {
          "internalType": "bool",
          "name": "",
          "type": "bool"
        }
      ],
      "stateMutability": "nonpayable",
      "type": "function"
    },
    {
      "inputs": [
        {
          "internalType": "address",
          "name": "from",
          "type": "address"
        },
        {
          "internalType": "address",
          "name": "to",
          "type": "address"
        },
        {
          "internalType": "uint256",
          "name": "tokenId",
          "type": "uint256"
        }
      ],
      "name": "safeTransferFrom",
      "outputs": [],
      "stateMutability": "payable",
      "type": "function"
    },
    {
      "inputs": [
        {
          "internalType": "address",
          "name": "from",
          "type": "address"
        },
        {
          "internalType": "address",
          "name": "to",
          "type": "address"
        },
        {
          "internalType": "uint256",
          "name": "tokenId",
          "type": "uint256"
        },
        {
          "internalType": "bytes",
          "name": "_data",
          "type": "bytes"
        }
      ],
      "name": "safeTransferFrom",
      "outputs": [],
      "stateMutability": "payable",
      "type": "function"
    },
    {
      "inputs": [
        {
          "internalType": "address",
          "name": "operator",
          "type": "address"
        },
        {
          "internalType": "bool",
          "name": "approved",
          "type": "bool"
        }
      ],
      "name": "setApprovalForAll",
      "outputs": [],
      "stateMutability": "nonpayable",
      "type": "function"
    },
    {
      "inputs": [
        {
          "internalType": "string",
          "name": "_baseTokenURI",
          "type": "string"
        }
      ],
      "name": "setBaseURI",
      "outputs": [],
      "stateMutability": "nonpayable",
      "type": "function"
    },
    {
      "inputs": [
        {
          "internalType": "bytes4",
          "name": "interfaceId",
          "type": "bytes4"
        }
      ],
      "name": "supportsInterface",
      "outputs": [
        {
          "internalType": "bool",
          "name": "",
          "type": "bool"
        }
      ],
      "stateMutability": "view",
      "type": "function"
    },
    {
      "inputs": [],
      "name": "symbol",
      "outputs": [
        {
          "internalType": "string",
          "name": "",
          "type": "string"
        }
      ],
      "stateMutability": "view",
      "type": "function"
    },
    {
      "inputs": [
        {
          "internalType": "uint256",
          "name": "tokenId",
          "type": "uint256"
        }
      ],
      "name": "tokenURI",
      "outputs": [
        {
          "internalType": "string",
          "name": "",
          "type": "string"
        }
      ],
      "stateMutability": "view",
      "type": "function"
    },
    {
      "inputs": [],
      "name": "totalSupply",
      "outputs": [
        {
          "internalType": "uint256",
          "name": "result",
          "type": "uint256"
        }
      ],
      "stateMutability": "view",
      "type": "function"
    },
    {
      "inputs": [
        {
          "internalType": "address",
          "name": "from",
          "type": "address"
        },
        {
          "internalType": "address",
          "name": "to",
          "type": "address"
        },
        {
          "internalType": "uint256",
          "name": "tokenId",
          "type": "uint256"
        }
      ],
      "name": "transferFrom",
      "outputs": [],
      "stateMutability": "payable",
      "type": "function"
    },
    {
      "inputs": [],
      "name": "withdraw",
      "outputs": [
        {
          "internalType": "bool",
          "name": "",
          "type": "bool"
        }
      ],
      "stateMutability": "payable",
      "type": "function"
    }
  ],
  "bytecode": "0x608060405234801561001057600080fd5b50604051613ae3380380613ae383398181016040528101906100329190610310565b6040518060400160405280600a81526020017f4561726c792042697264000000000000000000000000000000000000000000008152506040518060400160405280600381526020017f455242000000000000000000000000000000000000000000000000000000000081525081600290816100ad919061057a565b5080600390816100bd919061057a565b506100cc61016460201b60201c565b6000819055506100e061016460201b60201c565b6100ee61016960201b60201c565b101561010b5761010a63fed8210f60e01b61019160201b60201c565b5b505033600960006101000a81548173ffffffffffffffffffffffffffffffffffffffff021916908373ffffffffffffffffffffffffffffffffffffffff16021790555080600a908161015d919061057a565b505061064c565b600090565b60007fffffffffffffffffffffffffffffffffffffffffffffffffffffffffffffffff905090565b8060005260046000fd5b6000604051905090565b600080fd5b600080fd5b600080fd5b600080fd5b6000601f19601f8301169050919050565b7f4e487b7100000000000000000000000000000000000000000000000000000000600052604160045260246000fd5b610202826101b9565b810181811067ffffffffffffffff82111715610221576102206101ca565b5b80604052505050565b600061023461019b565b905061024082826101f9565b919050565b600067ffffffffffffffff8211156102605761025f6101ca565b5b610269826101b9565b9050602081019050919050565b60005b83811015610294578082015181840152602081019050610279565b60008484015250505050565b60006102b36102ae84610245565b61022a565b9050828152602081018484840111156102cf576102ce6101b4565b5b6102da848285610276565b509392505050565b600082601f8301126102f7576102f66101af565b5b81516103078482602086016102a0565b91505092915050565b600060208284031215610326576103256101a5565b5b600082015167ffffffffffffffff811115610344576103436101aa565b5b610350848285016102e2565b91505092915050565b600081519050919050565b7f4e487b7100000000000000000000000000000000000000000000000000000000600052602260045260246000fd5b600060028204905060018216806103ab57607f821691505b6020821081036103be576103bd610364565b5b50919050565b60008190508160005260206000209050919050565b60006020601f8301049050919050565b600082821b905092915050565b6000600883026104267fffffffffffffffffffffffffffffffffffffffffffffffffffffffffffffffff826103e9565b61043086836103e9565b95508019841693508086168417925050509392505050565b6000819050919050565b6000819050919050565b600061047761047261046d84610448565b610452565b610448565b9050919050565b6000819050919050565b6104918361045c565b6104a561049d8261047e565b8484546103f6565b825550505050565b600090565b6104ba6104ad565b6104c5818484610488565b505050565b5b818110156104e9576104de6000826104b2565b6001810190506104cb565b5050565b601f82111561052e576104ff816103c4565b610508846103d9565b81016020851015610517578190505b61052b610523856103d9565b8301826104ca565b50505b505050565b600082821c905092915050565b600061055160001984600802610533565b1980831691505092915050565b600061056a8383610540565b9150826002028217905092915050565b61058382610359565b67ffffffffffffffff81111561059c5761059b6101ca565b5b6105a68254610393565b6105b18282856104ed565b600060209050601f8311600181146105e457600084156105d2578287015190505b6105dc858261055e565b865550610644565b601f1984166105f2866103c4565b60005b8281101561061a578489015182556001820191506020850194506020810190506105f5565b868310156106375784890151610633601f891682610540565b8355505b6001600288020188555050505b505050505050565b6134888061065b6000396000f3fe60806040526004361061019c5760003560e01c806370a08231116100ec578063b88d4fde1161008a578063e985e9c511610064578063e985e9c5146105b4578063efdfb8ea146105f1578063f0292a031461062e578063f5c1be3c146106595761019c565b8063b88d4fde14610530578063c87b56dd1461054c578063d547cfb7146105895761019c565b806395d89b41116100c657806395d89b4114610481578063a0712d68146104ac578063a22cb465146104dc578063b19960e6146105055761019c565b806370a08231146103ee5780637f6578d31461042b5780638da5cb5b146104565761019c565b80632538354d116101595780633ccfd60b116101335780633ccfd60b1461034e57806342842e0e1461036c57806355f804b3146103885780636352211e146103b15761019c565b80632538354d146102a9578063278ecde1146102e657806332cb6b0c146103235761019c565b806301ffc9a7146101a157806306fdde03146101de578063081812fc14610209578063095ea7b31461024657806318160ddd1461026257806323b872dd1461028d575b600080fd5b3480156101ad57600080fd5b506101c860048036038101906101c39190612361565b610684565b6040516101d591906123a9565b60405180910390f35b3480156101ea57600080fd5b506101f3610716565b6040516102009190612454565b60405180910390f35b34801561021557600080fd5b50610230600480360381019061022b91906124ac565b6107a8565b60405161023d919061251a565b60405180910390f35b610260600480360381019061025b9190612561565b610806565b005b34801561026e57600080fd5b50610277610816565b60405161028491906125b0565b60405180910390f35b6102a760048036038101906102a291906125cb565b610863565b005b3480156102b557600080fd5b506102d060048036038101906102cb919061261e565b610afb565b6040516102dd91906125b0565b60405180910390f35b3480156102f257600080fd5b5061030d600480360381019061030891906124ac565b610b13565b60405161031a91906123a9565b60405180910390f35b34801561032f57600080fd5b50610338610cfd565b60405161034591906125b0565b60405180910390f35b610356610d03565b60405161036391906123a9565b60405180910390f35b610386600480360381019061038191906125cb565b610f6f565b005b34801561039457600080fd5b506103af60048036038101906103aa9190612780565b610f8f565b005b3480156103bd57600080fd5b506103d860048036038101906103d391906124ac565b611032565b6040516103e5919061251a565b60405180910390f35b3480156103fa57600080fd5b506104156004803603810190610410919061261e565b611044565b60405161042291906125b0565b60405180910390f35b34801561043757600080fd5b506104406110db565b60405161044d91906125b0565b60405180910390f35b34801561046257600080fd5b5061046b6110e0565b604051610478919061251a565b60405180910390f35b34801561048d57600080fd5b50610496611106565b6040516104a39190612454565b60405180910390f35b6104c660048036038101906104c191906124ac565b611198565b6040516104d391906123a9565b60405180910390f35b3480156104e857600080fd5b5061050360048036038101906104fe91906127f5565b6113c0565b005b34801561051157600080fd5b5061051a6114cb565b60405161052791906125b0565b60405180910390f35b61054a600480360381019061054591906128d6565b6114d0565b005b34801561055857600080fd5b50610573600480360381019061056e91906124ac565b611522565b6040516105809190612454565b60405180910390f35b34801561059557600080fd5b5061059e61159f565b6040516105ab9190612454565b60405180910390f35b3480156105c057600080fd5b506105db60048036038101906105d69190612959565b61162d565b6040516105e891906123a9565b60405180910390f35b3480156105fd57600080fd5b506106186004803603810190610613919061261e565b6116c1565b60405161062591906125b0565b60405180910390f35b34801561063a57600080fd5b506106436116d9565b60405161065091906125b0565b60405180910390f35b34801561066557600080fd5b5061066e6116de565b60405161067b91906125b0565b60405180910390f35b60006301ffc9a760e01b827bffffffffffffffffffffffffffffffffffffffffffffffffffffffff191614806106df57506380ac58cd60e01b827bffffffffffffffffffffffffffffffffffffffffffffffffffffffff1916145b8061070f5750635b5e139f60e01b827bffffffffffffffffffffffffffffffffffffffffffffffffffffffff1916145b9050919050565b606060028054610725906129c8565b80601f0160208091040260200160405190810160405280929190818152602001828054610751906129c8565b801561079e5780601f106107735761010080835404028352916020019161079e565b820191906000526020600020905b81548152906001019060200180831161078157829003601f168201915b5050505050905090565b60006107b3826116e9565b6107c8576107c763cf4700e460e01b611795565b5b6006600083815260200190815260200160002060000160009054906101000a900473ffffffffffffffffffffffffffffffffffffffff169050919050565b6108128282600161179f565b5050565b60006108206118ce565b600154600054030390507fffffffffffffffffffffffffffffffffffffffffffffffffffffffffffffffff6108536118d3565b1461086057600854810190505b90565b600061086e826118fb565b905060008473ffffffffffffffffffffffffffffffffffffffff169050808273ffffffffffffffffffffffffffffffffffffffff16146108b9576108b863a114810060e01b611795565b5b6000806108c585611a14565b915091506108f181846108d6611a3b565b73ffffffffffffffffffffffffffffffffffffffff16611a43565b61091c5761090687610901611a3b565b61162d565b61091b5761091a6359c896be60e01b611795565b5b5b6109298787876001611a55565b801561093457600082555b600560008873ffffffffffffffffffffffffffffffffffffffff1673ffffffffffffffffffffffffffffffffffffffff168152602001908152602001600020600081546001900391905081905550600560008773ffffffffffffffffffffffffffffffffffffffff1673ffffffffffffffffffffffffffffffffffffffff1681526020019081526020016000206000815460010191905081905550610a02866109de898988611a5b565b7c020000000000000000000000000000000000000000000000000000000017611a83565b600460008781526020019081526020016000208190555060007c0200000000000000000000000000000000000000000000000000000000851603610a885760006001860190506000600460008381526020019081526020016000205403610a86576000548114610a85578460046000838152602001908152602001600020819055505b5b505b60008673ffffffffffffffffffffffffffffffffffffffff1690508581857fddf252ad1be2c89b69c2b068fc378daa952ba7f163c4a11628f55a4df523b3ef600080a460008103610ae457610ae363ea553b3460e01b611795565b5b610af18888886001611aae565b5050505050505050565b600c6020528060005260406000206000915090505481565b6000610b1e33611044565b821115610b60576040517f08c379a0000000000000000000000000000000000000000000000000000000008152600401610b5790612a45565b60405180910390fd5b600c60003373ffffffffffffffffffffffffffffffffffffffff1673ffffffffffffffffffffffffffffffffffffffff168152602001908152602001600020544210610be1576040517f08c379a0000000000000000000000000000000000000000000000000000000008152600401610bd890612ad7565b60405180910390fd5b610beb3383611ab4565b6000662386f26fc1000083610c009190612b26565b905060003373ffffffffffffffffffffffffffffffffffffffff1682604051610c2890612b99565b60006040518083038185875af1925050503d8060008114610c65576040519150601f19603f3d011682016040523d82523d6000602084013e610c6a565b606091505b5050905080610cae576040517f08c379a0000000000000000000000000000000000000000000000000000000008152600401610ca590612bfa565b60405180910390fd5b833373ffffffffffffffffffffffffffffffffffffffff167f09defe0bdb8a1b4ee8fe9095fba7b88c1c154139a41abb1018b24b2dd2c574c360405160405180910390a3600192505050919050565b6103e881565b6000600960009054906101000a900473ffffffffffffffffffffffffffffffffffffffff1673ffffffffffffffffffffffffffffffffffffffff163373ffffffffffffffffffffffffffffffffffffffff1614610d95576040517f08c379a0000000000000000000000000000000000000000000000000000000008152600401610d8c90612c66565b60405180910390fd5b600047905060008111610ddd576040517f08c379a0000000000000000000000000000000000000000000000000000000008152600401610dd490612cf8565b60405180910390fd5b60b4610de7611b49565b610df19190612d18565b4210610e32576040517f08c379a0000000000000000000000000000000000000000000000000000000008152600401610e2990612d98565b60405180910390fd5b6000600960009054906101000a900473ffffffffffffffffffffffffffffffffffffffff1673ffffffffffffffffffffffffffffffffffffffff1682604051610e7a90612b99565b60006040518083038185875af1925050503d8060008114610eb7576040519150601f19603f3d011682016040523d82523d6000602084013e610ebc565b606091505b5050905080610f00576040517f08c379a0000000000000000000000000000000000000000000000000000000008152600401610ef790612e04565b60405180910390fd5b81600960009054906101000a900473ffffffffffffffffffffffffffffffffffffffff1673ffffffffffffffffffffffffffffffffffffffff167f95e1b0070dbccc052f124fa5143644dca4cc74c53bf1d0fe68ff7295f61cdc0c60405160405180910390a360019250505090565b610f8a838383604051806020016040528060008152506114d0565b505050565b600960009054906101000a900473ffffffffffffffffffffffffffffffffffffffff1673ffffffffffffffffffffffffffffffffffffffff163373ffffffffffffffffffffffffffffffffffffffff161461101f576040517f08c379a000000000000000000000000000000000000000000000000000000000815260040161101690612c66565b60405180910390fd5b80600a908161102e9190612fd0565b5050565b600061103d826118fb565b9050919050565b60008073ffffffffffffffffffffffffffffffffffffffff168273ffffffffffffffffffffffffffffffffffffffff160361108a57611089638f4eb60460e01b611795565b5b67ffffffffffffffff600560008473ffffffffffffffffffffffffffffffffffffffff1673ffffffffffffffffffffffffffffffffffffffff16815260200190815260200160002054169050919050565b60b481565b600960009054906101000a900473ffffffffffffffffffffffffffffffffffffffff1681565b606060038054611115906129c8565b80601f0160208091040260200160405190810160405280929190818152602001828054611141906129c8565b801561118e5780601f106111635761010080835404028352916020019161118e565b820191906000526020600020905b81548152906001019060200180831161117157829003601f168201915b5050505050905090565b60006103e86111a5610816565b836111b09190612d18565b11156111f1576040517f08c379a00000000000000000000000000000000000000000000000000000000081526004016111e890613114565b60405180910390fd5b6005821115611235576040517f08c379a000000000000000000000000000000000000000000000000000000000815260040161122c90613180565b60405180910390fd5b662386f26fc10000826112489190612b26565b34101561128a576040517f08c379a0000000000000000000000000000000000000000000000000000000008152600401611281906131ec565b60405180910390fd5b600c8261129633611044565b6112a09190612d18565b11156112e1576040517f08c379a00000000000000000000000000000000000000000000000000000000081526004016112d89061327e565b60405180910390fd5b6112eb3383611c0f565b81600b60003373ffffffffffffffffffffffffffffffffffffffff1673ffffffffffffffffffffffffffffffffffffffff1681526020019081526020016000208190555042600c60003373ffffffffffffffffffffffffffffffffffffffff1673ffffffffffffffffffffffffffffffffffffffff16815260200190815260200160002081905550813373ffffffffffffffffffffffffffffffffffffffff167fcda531bfd68624f13205c0a23cd4d5a7f09792cbb399603114f2b04aaa1bf5cf60405160405180910390a360019050919050565b80600760006113cd611a3b565b73ffffffffffffffffffffffffffffffffffffffff1673ffffffffffffffffffffffffffffffffffffffff16815260200190815260200160002060008473ffffffffffffffffffffffffffffffffffffffff1673ffffffffffffffffffffffffffffffffffffffff16815260200190815260200160002060006101000a81548160ff0219169083151502179055508173ffffffffffffffffffffffffffffffffffffffff1661147a611a3b565b73ffffffffffffffffffffffffffffffffffffffff167f17307eab39ab6107e8899845ad3d59bd9653f200f220920489ca2b5937696c31836040516114bf91906123a9565b60405180910390a35050565b600c81565b6114db848484610863565b60008373ffffffffffffffffffffffffffffffffffffffff163b1461151c5761150684848484611c2d565b61151b5761151a63d1a57ed660e01b611795565b5b5b50505050565b606061152d826116e9565b6115425761154163a14c4b5060e01b611795565b5b600061154c611d5c565b9050600081510361156c5760405180602001604052806000815250611597565b8061157684611dee565b6040516020016115879291906132da565b6040516020818303038152906040525b915050919050565b600a80546115ac906129c8565b80601f01602080910402602001604051908101604052809291908181526020018280546115d8906129c8565b80156116255780601f106115fa57610100808354040283529160200191611625565b820191906000526020600020905b81548152906001019060200180831161160857829003601f168201915b505050505081565b6000600760008473ffffffffffffffffffffffffffffffffffffffff1673ffffffffffffffffffffffffffffffffffffffff16815260200190815260200160002060008373ffffffffffffffffffffffffffffffffffffffff1673ffffffffffffffffffffffffffffffffffffffff16815260200190815260200160002060009054906101000a900460ff16905092915050565b600b6020528060005260406000206000915090505481565b600581565b662386f26fc1000081565b6000816116f46118ce565b1161178f576117016118d3565b82111561172b576117246004600084815260200190815260200160002054611e3e565b9050611790565b60005482101561178e5760005b60006004600085815260200190815260200160002054915081036117675782611760906132fe565b9250611738565b60007c01000000000000000000000000000000000000000000000000000000008216149150505b5b5b919050565b8060005260046000fd5b60006117aa83611032565b90508180156117ec57508073ffffffffffffffffffffffffffffffffffffffff166117d3611a3b565b73ffffffffffffffffffffffffffffffffffffffff1614155b1561181857611802816117fd611a3b565b61162d565b6118175761181663cfb3b94260e01b611795565b5b5b836006600085815260200190815260200160002060000160006101000a81548173ffffffffffffffffffffffffffffffffffffffff021916908373ffffffffffffffffffffffffffffffffffffffff160217905550828473ffffffffffffffffffffffffffffffffffffffff168273ffffffffffffffffffffffffffffffffffffffff167f8c5be1e5ebec7d5bd14f71427d1e84f3dd0314c0f7b2291e5b200ac8c7c3b92560405160405180910390a450505050565b600090565b60007fffffffffffffffffffffffffffffffffffffffffffffffffffffffffffffffff905090565b6000816119066118ce565b116119fe57600460008381526020019081526020016000205490506119296118d3565b82111561194e5761193981611e3e565b611a0f5761194d63df2d9b4260e01b611795565b5b600081036119d55760005482106119705761196f63df2d9b4260e01b611795565b5b5b600460008360019003935083815260200190815260200160002054905060008103156119d05760007c010000000000000000000000000000000000000000000000000000000082160315611a0f576119cf63df2d9b4260e01b611795565b5b611971565b60007c010000000000000000000000000000000000000000000000000000000082160315611a0f575b611a0e63df2d9b4260e01b611795565b5b919050565b60008060006006600085815260200190815260200160002090508092508254915050915091565b600033905090565b60008382148383141790509392505050565b50505050565b60008060e883901c905060e8611a72868684611e7f565b62ffffff16901b9150509392505050565b600073ffffffffffffffffffffffffffffffffffffffff83169250814260a01b178317905092915050565b50505050565b6000611abe6118ce565b905060005b8281108015611ad85750611ad5610816565b82105b15611b43578373ffffffffffffffffffffffffffffffffffffffff16611afd83611032565b73ffffffffffffffffffffffffffffffffffffffff1603611b3057611b2182611e88565b8080611b2c90613327565b9150505b8180611b3b90613327565b925050611ac3565b50505050565b6000806000905060005b611b5b610816565b811015611c07576000611b6d82611032565b905082600c60008373ffffffffffffffffffffffffffffffffffffffff1673ffffffffffffffffffffffffffffffffffffffff168152602001908152602001600020541115611bf957600c60008273ffffffffffffffffffffffffffffffffffffffff1673ffffffffffffffffffffffffffffffffffffffff1681526020019081526020016000205492505b508080600101915050611b53565b508091505090565b611c29828260405180602001604052806000815250611e96565b5050565b60008373ffffffffffffffffffffffffffffffffffffffff1663150b7a02611c53611a3b565b8786866040518563ffffffff1660e01b8152600401611c7594939291906133c4565b6020604051808303816000875af1925050508015611cb157506040513d601f19601f82011682018060405250810190611cae9190613425565b60015b611d09573d8060008114611ce1576040519150601f19603f3d011682016040523d82523d6000602084013e611ce6565b606091505b506000815103611d0157611d0063d1a57ed660e01b611795565b5b805181602001fd5b63150b7a0260e01b7bffffffffffffffffffffffffffffffffffffffffffffffffffffffff1916817bffffffffffffffffffffffffffffffffffffffffffffffffffffffff191614915050949350505050565b6060600a8054611d6b906129c8565b80601f0160208091040260200160405190810160405280929190818152602001828054611d97906129c8565b8015611de45780601f10611db957610100808354040283529160200191611de4565b820191906000526020600020905b815481529060010190602001808311611dc757829003601f168201915b5050505050905090565b606060a060405101806040526020810391506000825281835b600115611e2957600184039350600a81066030018453600a8104905080611e07575b50828103602084039350808452505050919050565b60007c0100000000000000000000000000000000000000000000000000000000821673ffffffffffffffffffffffffffffffffffffffff8316119050919050565b60009392505050565b611e93816000611f12565b50565b611ea08383612175565b60008373ffffffffffffffffffffffffffffffffffffffff163b14611f0d57600080549050600083820390505b611ee06000868380600101945086611c2d565b611ef557611ef463d1a57ed660e01b611795565b5b818110611ecd578160005414611f0a57600080fd5b50505b505050565b6000611f1d836118fb565b905060008173ffffffffffffffffffffffffffffffffffffffff1690506000819050600080611f4b87611a14565b915091508515611fa957611f7d8185611f62611a3b565b73ffffffffffffffffffffffffffffffffffffffff16611a43565b611fa857611f9283611f8d611a3b565b61162d565b611fa757611fa66359c896be60e01b611795565b5b5b5b611fb7836000896001611a55565b8015611fc257600082555b600160806001901b03600560008573ffffffffffffffffffffffffffffffffffffffff1673ffffffffffffffffffffffffffffffffffffffff1681526020019081526020016000206000828254019250508190555061206a8361202785600089611a5b565b7c02000000000000000000000000000000000000000000000000000000007c01000000000000000000000000000000000000000000000000000000001717611a83565b600460008981526020019081526020016000208190555060007c02000000000000000000000000000000000000000000000000000000008616036120f057600060018801905060006004600083815260200190815260200160002054036120ee5760005481146120ed578560046000838152602001908152602001600020819055505b5b505b86600073ffffffffffffffffffffffffffffffffffffffff168473ffffffffffffffffffffffffffffffffffffffff167fddf252ad1be2c89b69c2b068fc378daa952ba7f163c4a11628f55a4df523b3ef60405160405180910390a461215a836000896001611aae565b60016000815480929190600101919050555050505050505050565b600080549050600082036121945761219363b562e8dd60e01b611795565b5b6121a16000848385611a55565b6121c1836121b26000866000611a5b565b6121bb856122e5565b17611a83565b6004600083815260200190815260200160002081905550600160406001901b178202600560008573ffffffffffffffffffffffffffffffffffffffff1673ffffffffffffffffffffffffffffffffffffffff1681526020019081526020016000206000828254019250508190555060008373ffffffffffffffffffffffffffffffffffffffff1690506000810361226357612262632e07630060e01b611795565b5b6000838301905060008390506122776118d3565b600183031115612292576122916381647e3a60e01b611795565b5b5b808360007fddf252ad1be2c89b69c2b068fc378daa952ba7f163c4a11628f55a4df523b3ef600080a481816001019150810361229357816000819055505050506122e06000848385611aae565b505050565b60006001821460e11b9050919050565b6000604051905090565b600080fd5b600080fd5b60007fffffffff0000000000000000000000000000000000000000000000000000000082169050919050565b61233e81612309565b811461234957600080fd5b50565b60008135905061235b81612335565b92915050565b600060208284031215612377576123766122ff565b5b60006123858482850161234c565b91505092915050565b60008115159050919050565b6123a38161238e565b82525050565b60006020820190506123be600083018461239a565b92915050565b600081519050919050565b600082825260208201905092915050565b60005b838110156123fe5780820151818401526020810190506123e3565b60008484015250505050565b6000601f19601f8301169050919050565b6000612426826123c4565b61243081856123cf565b93506124408185602086016123e0565b6124498161240a565b840191505092915050565b6000602082019050818103600083015261246e818461241b565b905092915050565b6000819050919050565b61248981612476565b811461249457600080fd5b50565b6000813590506124a681612480565b92915050565b6000602082840312156124c2576124c16122ff565b5b60006124d084828501612497565b91505092915050565b600073ffffffffffffffffffffffffffffffffffffffff82169050919050565b6000612504826124d9565b9050919050565b612514816124f9565b82525050565b600060208201905061252f600083018461250b565b92915050565b61253e816124f9565b811461254957600080fd5b50565b60008135905061255b81612535565b92915050565b60008060408385031215612578576125776122ff565b5b60006125868582860161254c565b925050602061259785828601612497565b9150509250929050565b6125aa81612476565b82525050565b60006020820190506125c560008301846125a1565b92915050565b6000806000606084860312156125e4576125e36122ff565b5b60006125f28682870161254c565b93505060206126038682870161254c565b925050604061261486828701612497565b9150509250925092565b600060208284031215612634576126336122ff565b5b60006126428482850161254c565b91505092915050565b600080fd5b600080fd5b7f4e487b7100000000000000000000000000000000000000000000000000000000600052604160045260246000fd5b61268d8261240a565b810181811067ffffffffffffffff821117156126ac576126ab612655565b5b80604052505050565b60006126bf6122f5565b90506126cb8282612684565b919050565b600067ffffffffffffffff8211156126eb576126ea612655565b5b6126f48261240a565b9050602081019050919050565b82818337600083830152505050565b600061272361271e846126d0565b6126b5565b90508281526020810184848401111561273f5761273e612650565b5b61274a848285612701565b509392505050565b600082601f8301126127675761276661264b565b5b8135612777848260208601612710565b91505092915050565b600060208284031215612796576127956122ff565b5b600082013567ffffffffffffffff8111156127b4576127b3612304565b5b6127c084828501612752565b91505092915050565b6127d28161238e565b81146127dd57600080fd5b50565b6000813590506127ef816127c9565b92915050565b6000806040838503121561280c5761280b6122ff565b5b600061281a8582860161254c565b925050602061282b858286016127e0565b9150509250929050565b600067ffffffffffffffff8211156128505761284f612655565b5b6128598261240a565b9050602081019050919050565b600061287961287484612835565b6126b5565b90508281526020810184848401111561289557612894612650565b5b6128a0848285612701565b509392505050565b600082601f8301126128bd576128bc61264b565b5b81356128cd848260208601612866565b91505092915050565b600080600080608085870312156128f0576128ef6122ff565b5b60006128fe8782880161254c565b945050602061290f8782880161254c565b935050604061292087828801612497565b925050606085013567ffffffffffffffff81111561294157612940612304565b5b61294d878288016128a8565b91505092959194509250565b600080604083850312156129705761296f6122ff565b5b600061297e8582860161254c565b925050602061298f8582860161254c565b9150509250929050565b7f4e487b7100000000000000000000000000000000000000000000000000000000600052602260045260246000fd5b600060028204905060018216806129e057607f821691505b6020821081036129f3576129f2612999565b5b50919050565b7f496e76616c6964207175616e7469747900000000000000000000000000000000600082015250565b6000612a2f6010836123cf565b9150612a3a826129f9565b602082019050919050565b60006020820190508181036000830152612a5e81612a22565b9050919050565b7f526566756e6420706572696f642068617320616c7265616479206c617073656460008201527f2121000000000000000000000000000000000000000000000000000000000000602082015250565b6000612ac16022836123cf565b9150612acc82612a65565b604082019050919050565b60006020820190508181036000830152612af081612ab4565b9050919050565b7f4e487b7100000000000000000000000000000000000000000000000000000000600052601160045260246000fd5b6000612b3182612476565b9150612b3c83612476565b9250828202612b4a81612476565b91508282048414831517612b6157612b60612af7565b5b5092915050565b600081905092915050565b50565b6000612b83600083612b68565b9150612b8e82612b73565b600082019050919050565b6000612ba482612b76565b9150819050919050565b7f526566756e64206661696c656421210000000000000000000000000000000000600082015250565b6000612be4600f836123cf565b9150612bef82612bae565b602082019050919050565b60006020820190508181036000830152612c1381612bd7565b9050919050565b7f596f7520617265206e6f7420746865206f776e65722121000000000000000000600082015250565b6000612c506017836123cf565b9150612c5b82612c1a565b602082019050919050565b60006020820190508181036000830152612c7f81612c43565b9050919050565b7f4e6f204e465473206d696e7465642c20736f206e6f2062616c616e636520746f60008201527f2077697468647261772121000000000000000000000000000000000000000000602082015250565b6000612ce2602b836123cf565b9150612ced82612c86565b604082019050919050565b60006020820190508181036000830152612d1181612cd5565b9050919050565b6000612d2382612476565b9150612d2e83612476565b9250828201905080821115612d4657612d45612af7565b5b92915050565b7f526566756e6420706572696f64206e6f7420796574206f766572210000000000600082015250565b6000612d82601b836123cf565b9150612d8d82612d4c565b602082019050919050565b60006020820190508181036000830152612db181612d75565b9050919050565b7f5769746864726177616c206661696c6564212100000000000000000000000000600082015250565b6000612dee6013836123cf565b9150612df982612db8565b602082019050919050565b60006020820190508181036000830152612e1d81612de1565b9050919050565b60008190508160005260206000209050919050565b60006020601f8301049050919050565b600082821b905092915050565b600060088302612e867fffffffffffffffffffffffffffffffffffffffffffffffffffffffffffffffff82612e49565b612e908683612e49565b95508019841693508086168417925050509392505050565b6000819050919050565b6000612ecd612ec8612ec384612476565b612ea8565b612476565b9050919050565b6000819050919050565b612ee783612eb2565b612efb612ef382612ed4565b848454612e56565b825550505050565b600090565b612f10612f03565b612f1b818484612ede565b505050565b5b81811015612f3f57612f34600082612f08565b600181019050612f21565b5050565b601f821115612f8457612f5581612e24565b612f5e84612e39565b81016020851015612f6d578190505b612f81612f7985612e39565b830182612f20565b50505b505050565b600082821c905092915050565b6000612fa760001984600802612f89565b1980831691505092915050565b6000612fc08383612f96565b9150826002028217905092915050565b612fd9826123c4565b67ffffffffffffffff811115612ff257612ff1612655565b5b612ffc82546129c8565b613007828285612f43565b600060209050601f83116001811461303a5760008415613028578287015190505b6130328582612fb4565b86555061309a565b601f19841661304886612e24565b60005b828110156130705784890151825560018201915060208501945060208101905061304b565b8683101561308d5784890151613089601f891682612f96565b8355505b6001600288020188555050505b505050505050565b7f416d6f756e7420746f6f206d7563682c206578636565646573206d617820737560008201527f70706c7900000000000000000000000000000000000000000000000000000000602082015250565b60006130fe6024836123cf565b9150613109826130a2565b604082019050919050565b6000602082019050818103600083015261312d816130f1565b9050919050565b7f4d696e74206c696d697420657863656564656400000000000000000000000000600082015250565b600061316a6013836123cf565b915061317582613134565b602082019050919050565b600060208201905081810360008301526131998161315d565b9050919050565b7f496e73756666696369656e742062616c616e6365000000000000000000000000600082015250565b60006131d66014836123cf565b91506131e1826131a0565b602082019050919050565b60006020820190508181036000830152613205816131c9565b9050919050565b7f536f72727920796f752068617665207265616368656420796f7572206d61782060008201527f6d696e74206c696d697421210000000000000000000000000000000000000000602082015250565b6000613268602c836123cf565b91506132738261320c565b604082019050919050565b600060208201905081810360008301526132978161325b565b9050919050565b600081905092915050565b60006132b4826123c4565b6132be818561329e565b93506132ce8185602086016123e0565b80840191505092915050565b60006132e682856132a9565b91506132f282846132a9565b91508190509392505050565b600061330982612476565b91506000820361331c5761331b612af7565b5b600182039050919050565b600061333282612476565b91507fffffffffffffffffffffffffffffffffffffffffffffffffffffffffffffffff820361336457613363612af7565b5b600182019050919050565b600081519050919050565b600082825260208201905092915050565b60006133968261336f565b6133a0818561337a565b93506133b08185602086016123e0565b6133b98161240a565b840191505092915050565b60006080820190506133d9600083018761250b565b6133e6602083018661250b565b6133f360408301856125a1565b8181036060830152613405818461338b565b905095945050505050565b60008151905061341f81612335565b92915050565b60006020828403121561343b5761343a6122ff565b5b600061344984828501613410565b9150509291505056fea2646970667358221220e723d0c9ae3b6f85b544c81de0bc690c39e8cc661b6c726ae12608b5f61069fc64736f6c634300081b0033",
  "linkReferences": {},
  "deployedLinkReferences": {}
}